:10000000003C022041E901009DF901009DF9010039
:100010009DF901009DF901009DF901009DF9010084
:100020009DF901009DF901009DF901009DF9010074
:0C0030009DF901009DF90100F5DC0000C5
:1000400038B586B004468DF805104FF6FF720120D2
:10005000ADF80220090ADFF8B85AADF80000022313
:100060008DF806108DF8043069462A78204622F073
:1000700075FE162803D12978204622F06BFE07B0C2
:1000800030BD3EB504000D461ED0DFF8880A00687A
:10009000224622F05BFEFF2815D0002000900023AE
:1000A00001AA2946204612F0BBF960B99DF8040068
:1000B00000F06EF9C00606D59DF8040000F068F95E
:1000C00010F0040000D001203EBDFEB516461524F8
:1000D0004FF6FF7290420D4615D100208DF80400B6
:1000E000DFF82C7A9DF80400F97988421AD232465A
:1000F000294600F03EF800B100249DF80400401CA1
:100100008DF80400EEE722F01DFE50B100F099FBDF
:1001100040B99DF804003246294600F02AF8002430
:1001200000E014242046FEBD7CB50D4604460621A1
:100130004C43164620346A46082120461FF0E2FC54
:10014000A8B900F076F890B99DF80700002E14BF0A
:10015000054320EA0505E9B2814206D08DF8075033
:100160006A46082120461FF0E1FC012076BD0020F0
:1001700076BD2DE9FC4106463446062388461546E1
:100180005C436A46082104F120001FF0BBFC0028F4
:100190004CD100F04EF8002848D100F024FA0400B9
:1001A00002D100F018FA41E0397AE036224689009F
:1001B00030461FF0A7FC002834D1204600F051F84B
:1001C0005FEA08000ED13A7A9206120E002120460C
:1001D00020F051FB30BB3A7A92000021204621F0FA
:1001E000DBF916E0214600F029F858B9280004D0C0
:1001F0002146002000F022F810B900F00CFC15E0B8
:10020000A0F800808178A9420CD085700DB900213A
:100210000180204600F025F8397A224689003046D0
:100220001FF084FC00F0F7FB012000E00020BDE897
:10023000F6810622FF21684620F01DBB70B5DFF86D
:10024000D0381D7A002200E0521CD4B2AC4206D253
:1002500031F824608642F7D101EB840070BD0020A4
:1002600070BD10B50021DFF8A8280AE030F8213071
:10027000DB4320F8213000EB8103491C9C78E443E8
:100280009C70137A9942F1DB10BD2DE9FE4FDFF827
:1002900080480646207A0F4691469A46800021F013
:1002A000A3FB5FEA000803D100F095F90A206DE096
:1002B0000C9D02974FF0060B37461BFB07FB029A7B
:1002C00008210BF120001FF031FC8DF804003046AE
:1002D00000F099F8227A00F079F99DF80400009076
:1002E0004246217A890006F1E0001FF01FFC009EC3
:1002F00002990643206A082200EBC70021F056F954
:10030000F5B110220021284620F0B5FAC0B90299B3
:10031000887900232A4600F0010022F00FFD002812
:100320001CBF9DF93C00002803D0DFF8EC1701202A
:1003300008702A4610210BF123001FF0F7FB06433B
:100340005FEA090205D01C210BF121001FF0EEFB32
:1003500006435FEA0A0205D01C210BF122001FF0C0
:10036000E5FB06430D9A4AB110210BF124001FF062
:10037000DDFB06430EAA00F031F90643A07D08B16B
:1003800000F094FA404621F037FBF0B2BDE8FE8F52
:10039000E0B5062358436A46082120301FF0B2FB1F
:1003A00010B99DF807000EBD00200EBDDFF86007F4
:1003B0000078082110F066BD38B50025DFF85047F9
:1003C00018E0206A06236B4300EBC50220330821A6
:1003D00098B21FF097FB58B1206A0622FF2100EB6C
:1003E000C50021F0D9F8206A00EBC5010022CA71CE
:1003F0006D1CEDB2E1798D42E3DBA07D10B1BDE86B
:10040000314053E231BDF8B5DFF80417DFF80C379F
:10041000C9791E680C460A4600E02A46D5B23DB1AD
:10042000551ED2B2324412F8017C8742F5D12C46D7
:10043000E4B220464D1E07E01718165C7F7817546B
:100440001A680244401C5670A8421A68F4DBAC4299
:1004500004DABDE8F84005201FF068BBF1BD70B5B7
:100460000024DFF8AC5600E0641CE879E3B2834274
:100470000BD22B6AE6B20622FF2103EBC60020F066
:10048000FAF90028F0D0E0B270BDDFF894261178B8
:1004900039B1DFF8880601680C78204600F013F8BF
:1004A000204670BD38B500200024DFF8645603E014
:1004B000E0B200F008F8641CEA79E1B2914201D29E
:1004C0000100F5D032BD2DE9F84F4FF0060B1BFBB4
:1004D00000FB8EB081460BF1200501AA08212846B9
:1004E0001FF010FB002868D10622FF2101A820F090
:1004F000C2F9002861D100F076F85FEA000803D164
:1005000000F069F80A205AE01C22FF2103A821F01C
:1005100043F83A7A00F05AF80BF123060AAA1021A0
:1005200030461FF0EFFA60B91022FF210AA820F030
:10053000A2F930B99DF80A0001A900F0010022F0EB
:10054000F9FB082200F03EF801AA082128461FF016
:10055000EDFA054603AA1C210BF121001FF0E6FA73
:100560008DF8000003AA1C210BF122001FF0DEFA17
:10057000044603AA102130461FF0D8FA064603AA03
:1005800010210BF124001FF0D1FA824603AA00F0DB
:1005900025F89DF800100D43254335434AEA05052B
:1005A000397A05434246890009F1E0001FF0BEFA9E
:1005B0000543404621F020FA00E0002528460FB010
:1005C000BDE8F08FFF2101A820F0E6BF9200FF21D7
:1005D000404620F0E1BF04201FF00AB804210BF1CF
:1005E00025001FF0A3BADFF82875387A800021F0C3
:1005F000FBB92DE9F84187B0FF208DF80000DFF846
:100600001055E87921F0F0F9040003D1FFF7E3FF7A
:100610000A2030E01022FF2103A820F0BDFFEA7974
:10062000FF21204620F0B8FF0622FFF7CBFF03AAE8
:10063000102102201FF07AFA064603AA1021032097
:100640001FF074FA06436A46012104201FF06EFA77
:100650000746E979224605201FF068FA054601AAF7
:10066000062106201FF062FA804600F0D4F93E43CE
:100670002E4348EA060008B0BDE8F081DFF8901488
:10068000408809781FF002BAF0B5A9B006460D46B9
:10069000144622F057FB08B91420A6E0A42200213A
:1006A000684620F079FFADF80060DFF86464F07808
:1006B000F17B279A8DF804005208307C8DF8A00059
:1006C0004B0801F0010040EA420222F0020203F06E
:1006D000010342EA4302080922F4807200F001009B
:1006E00042EA0022480922F4007200F0010042EAC6
:1006F0004022880922F4806200F0010042EA802250
:10070000890822F0040201F00101707C42EA8102B2
:10071000279202280CBF012000200DF126077874D3
:1007200022F004FB412807DB707C00B108209DF813
:10073000991008438DF89900F07CB8B10121B97483
:10074000202206F188010DF1390020F02FFF202230
:1007500006F1A8010DF1590020F028FF202206F132
:10076000C8010DF1790020F021FF00E0B874707B22
:100770008DF8050090B1DFF8AC73102207F110017D
:100780000DF1060020F012FF9DF89900082805D110
:10079000102239460DF1160020F008FF307B8DF84D
:1007A000260030B11022DFF880130DF1270020F071
:1007B000FDFE307948B1022D18BF032D03D12798D3
:1007C00040F002002790012100E000219DF89900EF
:1007D0000143B0788DF8991000B1042001438DF8E1
:1007E00099106846214622F09DFA29B0F0BD2DE906
:1007F000FC41154615244FF6FF72904288460ED1F3
:100800000027DFF80C63F179F8B2884216D22A4645
:100810004146FFF789FC00B100247F1CF3E722F07A
:1008200091FA50B100F00DF840B99DF804002A4645
:100830004146FFF779FC002400E014242046BDE87F
:10084000F681002100910023417901AA01F0010104
:10085000801D11F0E5BD70B504460D4606204543E8
:10086000082B88B0164603D1300758BF223500D573
:1008700021351C220021FFF7A6FE01AA1C212846D3
:100880001FF040F980B99DF81E00C01F0A280BD246
:100890009DF830000090F20801AB02F0010206F072
:1008A0000101204621F053F908B070BD38B522F09F
:1008B00035FA0024964D0FE0286A0622FF2100EB4E
:1008C000C4001FF0D8FF28B9286A00EBC40188795A
:1008D00022F020FA641CE4B2E8798442ECDB31BDFA
:1008E000F0B5924D0646686885B04FF6FF7438B98A
:1008F000009502238E4A2146012022F007FA686003
:10090000696819B30222FF20029200230390019329
:100910000DF112072A88009704AB304608F034FB2B
:1009200060B99DF810009DF8111000EB0122100035
:1009300004D0686841893046FFF7C7FB2A88686899
:100940000023214622F0DEF9686008B9012000E0AA
:10095000002005B0F0BD3EB50C46002501460095CF
:10096000002301AA204611F05BFD38B99DF8040070
:10097000FFF70EFDC00601D401203EBD00203EBDA4
:100980002DE9F0416B4F3C6806468846154603E06A
:100990002089B04224D02468002CF9D10C2021F009
:1009A00023F8040019D0268184F80A8000202060F2
:1009B000E07245B10821284620F09EF9606018B920
:1009C00000F029F80AE06060396811B93C6004E081
:1009D000014608680028FBD10C600CB9152018E00E
:1009E00022F08CF908B1002013E00120E0722A46C1
:1009F00041463046FFF748FE04464548C069002896
:100A00001CBF4368002B03D00022002130469847CA
:100A10002046BDE8F081204620F0EEBF38B50546FF
:100A20004448046803E02089A84204D02468002CCC
:100A3000F9D1012032BDE07A012807D100F05CF83D
:100A400020B133480078042110F01CFAE17A491CE7
:100A5000E1722846C9B200F002F8002032BD38B574
:100A6000022904462A4D02D003290DD01EE042F689
:100A7000C921FFF7E5FA02001CBFE869002818D079
:100A80004368B3B105210CE042F6A621FFF7D8FA7E
:100A900001001CBFE96900290BD04B684BB102462D
:100AA0000421204601B0BDE830401847BDE832407F
:100AB00000E031BD10B51F4A1468002101E0214655
:100AC00024686CB123898342F9D1206800290CBFC6
:100AD00010600860606808B120F08EFFFFF79BFF90
:100AE000002010BD024604201249096819B10B8983
:100AF0009342FAD1C87A70470E48006828B100685E
:100B000018B1C17A0029FAD170470020704700005F
:100B100008220020680F0020A059002094580020CF
:100B20009F590020EC5500201C560020185800202A
:100B3000CC5102009858002038B584B0044622F009
:100B400001F90622417901F001018DF80E10811D95
:100B500002A820F02BFD0020009000239DF80E102D
:100B600001AA02A811F05CFC9DF80400FFF7ABFCA1
:100B700005460521204622F0BDF8284605B030BDC7
:100B80002DE9F84F2DED141BB0EE402A5BEC119BC4
:100B9000F0EE602A2BF000409FED870B50EA090130
:100BA0002BD0874B57EC126B5D1C0EB9AF4224D093
:100BB000844927F000448C4209D80EB18C4206D0FB
:100BC000884204D8B9F1000F1CD088421AD19FED99
:100BD0007E0B3046394655EC104B21F085FB06461E
:100BE0000F464846594621F07FFB02460B463046E9
:100BF000394609F030FB41EC100BBDEC141B01B081
:100C0000BDE8F08FB7F1FF3F02DD4FF0000A04E0CE
:100C10006F4A90426BD94FF0020AB9F1000F00F011
:100C2000EA839FED690BB8465CEC10EB4FEADC728F
:100C300062F3DF782EB34FF0FF3202EBD7725AEA3D
:100C400002034DD0AAF101031A430FF60C1208BF9C
:100C5000083292ED008B5F4A904261D301F144412A
:100C6000884240F28280AC4280F0998021F06CFB97
:100C7000222101600FF67010BBF1000F48BF083051
:100C800097E08C4204D0544A944201D0002CD2D137
:100C90009FED490B3246434621F03EFBBBF1000F6E
:100CA0005CBF41463046B7F1FF3F41EC100BA4DC7E
:100CB0004A4A224402F5200252EA0A0210D08DED7F
:100CC0000C0BBAF1010F9DF8372082F080028DF8ED
:100CD00037200C9A18BF02460D9818BF0846D0E37B
:100CE00021F032FB21219FED3E0B016085E7984208
:100CF0007FF68BAF9C463C4B020D984248D340F2A6
:100D000033439B1A29FA03F202FA03F39945634627
:100D100006BF02F00102C2F1020A4FF0000A7CE7AE
:100D20009FED330B30464146CDE900EC21F0A0FAAF
:100D3000314A324B3532B4F5801F3ABF4FF6CC32D0
:100D4000CFF6FF722146B4F5801F02EB21526FF3FC
:100D50001F5128BF304641EA0508994256D3284B17
:100D600099424FD20292012152E01548844280F00C
:100D700075827546644621F0E7FA2221BBF1FF3FF8
:100D8000016040F3DD8151EC180B2A46234660E3F5
:100D9000B9F1000F00F01F834FF0000A41E721F086
:100DA000D3FA222101600FF64000BBF1000FC8BF4B
:100DB000083090ED000B20E7000000000000F03F3D
:100DC000FFFFEF3F0000F07F000000000000000088
:100DD000FFFF3F430100E0410000F03F000070BF13
:100DE000000000000000F87F0000404100BF00BF8D
:100DF0000000000000004043CCFBFFFF8F98030081
:100E00007AB60B00F44B013241EA0308002102924A
:100E1000DFF8E8270991074602EBC102414692ED4F
:100E2000000B55EC106B32462B460396049009F0EC
:100E30000DFA04468A46304629463A46434609F0AA
:100E40000AFA1FED230B02460B4621F065FA0790C4
:100E500002460B460691204651460DF0C1FF089010
:100E60004FF000500F460022099940EA580000EB6D
:100E70008140394600F50026002033460DF0B0FFD2
:100E800020F046FF039A04468A46002031462B464E
:100E900009F0DCF9024604980B46414609F0D6F900
:100EA00002460B46002039460DF09AFF20F030FF35
:100EB00002460B46DDE906100DF092FF0790069101
:100EC0000D460446394600223B46089E304609F04E
:100ED000C2F902460B46204629460DF081FF8046A6
:100EE0008A463046394632463B4605970DF078FF34
:100EF0009FEDBB0B06460F4621F0BAF99FEDBA0BEA
:100F000021F092F920F0D4FE9FEDB90B21F08CF97D
:100F100020F0CEFE9FEDB80B21F086F920F0C8FE40
:100F20009FEDB70B21F080F920F0C2FE9FEDB60BCC
:100F300021F07AF905460C4620F0FCFE2A462346AD
:100F40000DF04EFF02460B464046514609F083F92C
:100F5000059D80460C460020002229462B460DF0B8
:100F60003FFF9FEDAB0B07460E4621F05DF9424671
:100F7000234609F070F99FEDA80B00208A4621F066
:100F800053F93A46334609F061F902460B464046AA
:100F9000214609F05BF9024608980B4629460DF0F8
:100FA0001FFF04460E46DDE90610002253460DF0F1
:100FB00017FF2246334609F04EF907460E46002039
:100FC0002946002253460DF00BFF3A4633460446AD
:100FD0000D4609F040F9002022462B468A4609F0CA
:100FE00035F902460B463846314609F02FF99FED98
:100FF0008C0B21F03DF99FED8C0B04460D46002033
:10100000514621F035F921F06FF90246DFF8F0057D
:10101000099C0B4600EBC40090ED000B51EC100B4B
:1010200009F019F99FED820B089005460E460791CD
:101030000020514621F01CF92A463346CDE905101F
:1010400009F009F90246DFF8BC050B4600EBC400C5
:1010500090ED000B56EC107B3846314609F0FBF85A
:101060000546029888461DF0D3FF04468A46284666
:1010700041462246534609F0EEF8002022465346E8
:1010800021F051F83A46334609F0E0F8DDE905323F
:1010900009F0DCF802460B46DDE9071009F0D6F846
:1010A00041EC1A0B4846594600225B4609F0CEF83F
:1010B00004460D4651EC1A0B4A465B460DF090FE75
:1010C00057EC196B804689462046294632463B46F6
:1010D0000DF086FE42464B4609F0BDF88146884633
:1010E0003046394600225B460DF07AFE07460D4633
:1010F00041EC190B484641463A462B4609F0ABF8FD
:1011000006464D480C4600F5200081421BDD4B4849
:101110002044304310D19FED4A0B4846414621F010
:1011200083F882468B4620F0FFFD02460B46504670
:10113000594617F04FFAD8B121F006F92221016083
:101140009FED410B42E142484249204088420FD383
:1011500041482044304340F08F8020F0E5FD0246B6
:101160000B464846414617F021FA002840F084809B
:10117000194924F00040884240F28780F04940F24B
:10118000134301EB10504FF4801121FA00F00121BC
:101190002044024661F31F52C0F30A515B1AA1F2C8
:1011A000FF31DA40002C48BF52420992234A02F133
:1011B000814242FA01F1002201EA00033846294641
:1011C00009F044F8024641EC190B0B4648464146EB
:1011D00009F041F80C465AE00000E03F00BF00BFB4
:1011E000EF4E454A287ECA3F65DBC9934A86CD3F0C
:1011F00001411DA96074D13F4D268F515555D53FF2
:10120000FFAB6FDBB66DDB3F033333333333E33F89
:10121000000000000000084000000000000008C0BE
:10122000FD033ADC09C7EE3FF5015B14E02F3EBE3B
:10123000000000E009C7EE3FFFFFEF3F000070BF76
:10124000FE822B654715973C000000000000F07FF0
:1012500000FCFF7F00CC904000346F3FAC42CDE9F2
:1012600000EC40F2248121F06FF82221BBF1010F44
:101270000160BFF665AF03E021F066F8222101604E
:10128000DDE9002351EC180BE3E00020099053EC5A
:10129000192B0020214608F0D9FF02460B4648468C
:1012A000414608F0D3FF9FEDBE0B05460E460020D9
:1012B000214620F0DDFF9FEDBC0B074688462846FF
:1012C000314620F0D5FF3A46434608F0C4FF9FED73
:1012D000B80B089005460E4607910020214620F0E5
:1012E000C7FF2A4633468346069108F0B4FF0246FC
:1012F0000B46824689460DF073FD9FEDAF0B044609
:10130000884620F0B5FF9FEDAE0B20F08DFF20F05A
:10131000E1FC9FEDAD0B20F087FF20F0DBFC9FEDA3
:10132000AC0B20F081FF20F0D5FC9FEDAB0B20F043
:101330007BFF20F0CFFC20F0E5FC04460F46504632
:10134000494622463B460DF04BFD9FEDA50B054659
:101350000E462046394620F067FF02460B462846D7
:1013600031460BF039FC069B04460F465046494671
:101370005A4608F06BFF02460B46DDE9071008F0FD
:1013800065FF05460E46504649462A4633460DF04F
:1013900027FD2A46334608F05EFF02460B462046EC
:1013A000394608F053FF20F0ADFC9FED670B20F0AD
:1013B0003BFF099A41EC100B01EB0251B1F5801F84
:1013C000AEBF41EC100B10460CF0F2FF51EC180BC5
:1013D00053EC102B3DE040F213439B1A20FA03F22A
:1013E00002FA03F39842634612BF4FF0000A02F07C
:1013F0000102C2F1020A884215D18348204400F557
:10140000200030433FF4F9AB9C4226D99FED500BAE
:10141000BBF1FF3F50EC101BC4BF5846494640EC9F
:10142000101BFFF7EABBA8420CD19FED470B3246D9
:101430003B4620F071FFBBF1000F5CBF39463046E0
:10144000FFF7D9BBBBF1804F1FD13046394632463A
:101450003B460DF0C5FCFFF7CEBB8DED0A1B9FEDA3
:101460003C0BBBF1000F9DF82F000A9A80F0800022
:101470008DF82F0051EC100B58BF02460B9858BF47
:10148000084640EC102BFFF7B8BB002F3FF5C9AB67
:10149000594A93457FF4C5ABB0EE420AF0EE620ABA
:1014A000BDEC141B01B0BDE8F04F0AF0C5BB9FEDC9
:1014B0002E0B3046414620F0B7FE9FED2D0B064621
:1014C0000F4620F0D5FE9FED2C0B20F0ADFE20F056
:1014D000EFFB9FED2B0B02460B4651EC100B08F077
:1014E000B5FE04460D4620F025FC22462B460DF0A5
:1014F00077FC9FED250B20F0BBFE9FED250B0446EE
:101500000D463046394620F0B3FE20F0EDFE9FED4B
:10151000220B80460C463046394620F0A9FE424652
:10152000234605460E4608F096FE00202A4633461E
:1015300020F0F9FD02460B4640462146AEE500BFCD
:1015400002FCFFFF00BF00BF000000000000F03FF2
:101550000000000000000000000000000000F03F5C
:10156000000000000000F0BF000000000000F0BF1D
:10157000000000000000D0BF555555555555D53FCA
:10158000000000000000E03FFE822B654715F7BF1A
:1015900044DF5DF80BAE543E000000604715F73F96
:1015A000396CA80C615C20BEEF39FAFE422EE63F92
:1015B00000000000432EE63FD0A4BE726937663EAD
:1015C000F16BD2C541BDBBBE2CDE25AF6A56113FC3
:1015D00093BDBE166CC166BF3E5555555555C53FAA
:1015E00000000000000000C000000000000000003B
:1015F000000000000000F07F0000E03F804B020090
:10160000904B0200A04B0200000070BF8EB0DFF8CC
:101610002069B01D20F05AFCDFF818B9584620F0B8
:101620005BF9F060584620F04BFC20F0A3FCDFF89B
:101630000849A06020F084FE771DE060384620F065
:10164000ABFC384620F04EFC20F092FE206120F0EA
:1016500001FC6061601C04F11C0117F0FDFD04F148
:101660002C0020F051FADFF8D41820624FF0000A65
:1016700004F1540041F270720023CDE900A60490F9
:1016800018F0F4FADFF8B808DFF8B818DFF8B898FF
:101690000022152300901020C847DFF8B018102052
:1016A00000220223C8470EF001FFDFF8A418102023
:1016B0000122C847DFF89C1810204FF0FF324FF08E
:1016C000FF38C8471EF052F81EF03CF81EF0ECFA46
:1016D00018F0AAF81FF022FA20F046FEDFF878187A
:1016E000086014F097FA16F0AFFF0FF08FF8351D71
:1016F000394628461FF000FF6060284639461FF033
:10170000E7FE284620F0FAFB3C200221ADF81C0041
:1017100007AA042011F0ECF806F110001FF0FCFD00
:1017200006F1140020F052FA06F1180020F054FAE5
:101730006178DFF828785020B847DFF8241802468F
:101740001020C84761785020B847DFF818180246C3
:101750001020C847DFF810181020FB2240F648037D
:10176000C847DFF808181020C84725466178502080
:1017700025F83C8FC5E903AAC5F814A0B84703466D
:10178000DFF8EC0702210422CDE90010DFF8E417AE
:101790001020C8472846182120F0DAFDDFF8D817B6
:1017A000102080228023A5F80080CDF800B0C84723
:1017B000F07014F093FEDFF8C45728709BF87000A7
:1017C00020F066FB19F064FB1DF020FE07F0D0FE50
:1017D00014F010FBE068817849B9DFF8580790F8F9
:1017E0007810287817F014FE14F040FBE0680178B8
:1017F00039B9817829B9417819B9C17809B900791D
:1018000088B1002000251FF0E1FB6069017851B12B
:101810000570DFF8440701210F2200680068806826
:10182000A0611FF089F9DFF8808701200DF11C0B02
:101830000DF137090DF1350AB071F07900214FF043
:1018400040424FF0FF330130F071E0690EF094FB3D
:1018500007463079062800D0A0B96068007888B1C2
:10186000707978B940F6B8302278DFF81417012380
:1018700020F012FDDFF80C170870012000217071B4
:1018800060680170002F00F0E88000200DF11B015E
:10189000059006A805AA1CF05EFD002840F0DB803C
:1018A000BDF81800102840F0D18060789DF81B101A
:1018B000814240F0CB80059D4FF6FF702988814220
:1018C00000F0C580080AC9B2912900F08280B029D1
:1018D00000F0B780D02940F0BA80A978072900F23B
:1018E000E181DFE811F00800B300B300B300B300FA
:1018F00007023802740200210028317140F0A680EE
:101900000020E97A5A46ADF81F00A8798DF81C002E
:10191000B5F807008DF823100821ADF81D00B5F8C3
:101920000900ADF82100002015F0A2FFDFF86816CD
:10193000DFF86826DFF868361020009413F0F6FF11
:10194000000640F0F38210202278414600234546ED
:101950000090DFF850060190102013F0E7FF00061A
:1019600040F0E48214202278294601230090DFF819
:101970003C060190102013F0D9FF000640F0D682FB
:101980002278DFF82C161020922313F0CFFF40F6B8
:10199000B8302278DFF8E815012320F07DFC01063D
:1019A00040F0C482DFF8DC150125757108706068AD
:1019B000002101701DF038FC701CDFF880154FF419
:1019C0007A720023CDE90050DFF8E80518F04EF9EF
:1019D0003CE03E2800F077810F2800F07A81102843
:1019E00000F083810E2831D1A88841F20541884258
:1019F0002CD1A968087848BBB1F80100A28F8242B7
:101A000024D1C9787F2921D094F84D20531C224439
:101A100084F84D3082F84810052294F84D10B1FB3F
:101A2000F2F202EB8202891A002284F84D100021A2
:101A3000052900F0F6816318013193F948301A4402
:101A4000F6E7297905F1080021F050F9059D15B157
:101A5000284620F0CAFC780019D4A0680078002835
:101A60007FF4EBAE20690078002800F05E82307AC7
:101A7000DFF84C158022802301303072DFF8B40487
:101A800020F00AFCF070A06801210170D5E6206A00
:101A900020F09AFA0028E0D1206A1FF08BFA002883
:101AA000F5D0074600780138082800F2F380DFE817
:101AB00000F005F115F1353EEF0F1F007868007852
:101AC000032840F0E780032059461BF02FF9E1E09E
:101AD0007868B0F8010015F00DFCDFE07868016867
:101AE000B1F1004F00F0D680406820F0EFFCD1E06B
:101AF0007A68204630F83C1F5288891A18BF0121A5
:101B000041EA410100EBC100C07D002800F0C28025
:101B1000DFF8A814102013F009FFBBE07868DFF8A5
:101B200098140023C288CD4820F0B6FBB2E0012013
:101B300049461BF0FBF810B9012020F0F1FB022010
:101B400049461BF0F3F810B9022020F0E9FB03200E
:101B500049461BF0EBF810B9032020F0E1FB04200C
:101B600051461BF0E3F820B904200221524610F040
:101B7000BFFE052059461BF0D9F820B905200421E5
:101B80005A4610F0B5FE002020F05CFC10B9002091
:101B900020F0A6FB012051461BF0A6FB20B9012036
:101BA0000221524611F060FF022020F04BFC10B9D8
:101BB000022020F095FB032020F044FC10B9032004
:101BC00020F08EFB042020F03DFC10B9042020F012
:101BD00087FB002020F02DFC10B9002020F06CFBCA
:101BE000012020F026FC10B9012020F065FB022026
:101BF000494614F0DDFA10B9022020F089FB0320D9
:101C0000494614F0D5FA10B9032020F081FB0420D6
:101C100020F00FFC10B9042020F04EFB052020F02E
:101C200008FC10B9052020F047FB062020F007FC37
:101C300010B9062020F004FB072020F000FC10B9AA
:101C4000072020F0FDFA082020F0F9FB10B9082049
:101C500020F0F6FA092020F0F2FB10B9092020F05C
:101C6000EFFA0A2020F0EBFB10B90A2020F0E8FA86
:101C70000B2020F0DEFB10B90B2020F01DFB0C2008
:101C8000494614F095FA28B90C2020F041FB01E0F8
:101C90001DF0CAFA786808B120F018FC384620F028
:101CA00015FCF4E611297FF4D1AE11203071A87B28
:101CB0008DF82600A888ADF81C006889002800F07F
:101CC0009D800020A5E0A8780C287FF4BFAE0C20F2
:101CD00007E0A88842F2320188427FF4B7AE42F2B0
:101CE0003200294613F0A6FDB0E6082000211FF0BF
:101CF00009FBABE60520A649B080102013F016FEC4
:101D00006978002940F0B6800390A08F4FF6FF71EC
:101D1000884240F0AB806D890320A58720F0DCFB72
:101D20000028206400F09F8008210170206CA0F83A
:101D30000150242020F0D0FB216C0028606400F0CA
:101D40008F8001220023CDE900217C4941F270728D
:101D500017F08CFF87E006208D493071102013F0BA
:101D6000E5FD0146AD88A08FA84229D1606C0291A3
:101D700078B1039020F020FC10B1039820F020FCF3
:101D8000039820F045FC039820F0A0FB206C20F085
:101D90009DFB28461DF0C6FD28461CF04BFC4FF667
:101DA000FF700299023880B2854202D0A08FA8420B
:101DB00006D14FF6FF70A0870020C4E9120020650D
:101DC00008067FF443AE049820F0FAFB3EE60720B5
:101DD0006D495B4630711020AA8813F0A7FD04F10D
:101DE00024001EF0B3F900283FF430AE0546008908
:101DF00015F080FA284620F069FB27E60020ADF8B0
:101E00002200D5F80600CDF81E00A889ADF8240000
:101E100001205E498DF8270010205A4613F086FDF8
:101E200014E611B2052291FBF2F194F84F20002A3A
:101E300084F84E107FF40AAEC9B24AB212F11E0FF6
:101E400032DB94F8501041F0020102293FF4FEAD5C
:101E500000234FF0020E022142E000BF40E20100E9
:101E6000084620F033FB012084F85000049820F04D
:101E7000A5FB0398227800060FD1B07868B940F628
:101E8000B8303F49012320F007FA3E49087001208D
:101E90000021707160680170D8E53E49102013F090
:101EA00045FD00207071D1E5D82909D394F8501070
:101EB0000229FFF4CBAD00234FF0010E01210FE00A
:101EC000CE2909D394F8501000293FF4BFAD012367
:101ED00004214FF0060E03E04FF0020E042102230E
:101EE00094F851C094F85250ACEB0E02022D4FF012
:101EF0000005B2FA82F238BF012552092A4208BF12
:101F0000F4453FF4A3AD0A4675461BF0BFFA012025
:101F1000294684F84F0094F85100A8421CBF0020C5
:101F200084F8520084F8511090E5FEE71FF0EEFAB5
:101F3000F02E0020BC240020B42600206DCE01002D
:101F4000A82F0020C98201002D590100EDCF01000A
:101F50008106020011E001003C590020F5F001006B
:101F6000D96C02102D6D02100D520210397F011034
:101F70004633002025C8000005FB0100C35900209E
:101F8000ED740110A7590020F9DC0110D957011098
:101F90005D150200650202109901011049F6010069
:101FA000282F00201832002089F50000E82F00209B
:101FB0001DEF011020550020D9E801000D2B021063
:101FC0002DFB01002DE9F84F01201CF001F901283B
:101FD00016D1DFF8E8663078002120F083FE040097
:101FE00004BF00201DF004FB00202072201D11F012
:101FF0009BFC05F06BFC050003D1812020F06EFEF8
:1020000058E301206871072015F02DF8DFF8B0962D
:10201000DFF8B02699F80100401C89F80100A87982
:10202000A0724020317811700FF034FC2860616D8F
:102030004A78206DD10620D5816C0A681179032970
:1020400008D0816C0868007903280CBF01200020AB
:102050001DF0CEFA206D816C0A6890F86C0002F1D8
:10206000080701281CBF00201DF0C2FA216D486F2F
:10207000296800F5B060C8604EE0C16E0A68117949
:10208000032908D0C16E0868007903280CBF01201D
:1020900000201DF0ADFA206DC16E0A6890F898001E
:1020A00002F1080701281CBF00201DF0A1FA216DD4
:1020B000B5F87431D1F8A0002968DFF80C26C860A3
:1020C00097F82660DFF80406032E1FD8DFE806F035
:1020D00002061014CA6802F5B06202E0CA6802F58E
:1020E0003472CA6005F59A7201881187038811E07D
:1020F000C86800F5355002E0C86800F6B870C860DE
:1021000005F59A7011880187138803E0C86800F507
:10211000B060C860A5F8743106222868C16801F56E
:102120009071C160B91C3878C0F3801085F82E0119
:1021300005F594701FF03AFAA8791FF00DFC06001F
:1021400004BF00201DF054FA94F8B90086F83A0054
:102150000422DFF87C6507F10E0105F124001FF071
:1021600025FA306895F806C000F10C03042207F147
:102170000E0103EB4C101FF019FA032207F11201B4
:1021800005F128001FF012FA3068AB7900EB431319
:10219000032207F1120103F110001FF007FA05F105
:1021A0002C08787D88F80200022207F1160105F15B
:1021B00030001FF0FBF9022207F1180105F132008F
:1021C0001FF0F4F9022207F11A0105F134001FF0A3
:1021D000EDF9B8F808006884022207F11C0105F146
:1021E00036001FF0E3F998F80200B8F80A10400032
:1021F00088F802000901B8F80400A8F80A104000A5
:10220000A8F8040089B2B8F806004000A8F8060053
:1022100003046A8C521CDB0B5A438A4201D280B2FF
:1022200038B9DFF8B004007880210EF02BFE3B2196
:1022300039E105F12E01284620F04CFD0520A8814A
:10224000284620F043FD052207F11E0105F161003B
:102250001FF0ACF997F82300400988F8000020F03F
:1022600031FD688205F59A72618D401AD08005F1C2
:10227000610197F8230000F01F0088F80F0028463E
:1022800020F01CFD616D4A78206DD1064CBF816C39
:10229000C16E0868DFF84074002101714FF01C0A1C
:1022A000A97938681AFB01F141F621024252002156
:1022B000AB791AFB03F303445980AA791AFB02F2A3
:1022C00010444160616DDFF814044A78D1060DD5E1
:1022D000DFF80C148A7851060AD5DFF80824138831
:1022E00041F20A418B4208BFDFF8FC03C5F89C01AC
:1022F000D5F89C11284688473A68A97902F10E035F
:102300001AFB01F15854A8793A6802F10E011AFB40
:1023100000F3C95CDFF8D4331A681154A97938681E
:102320001AFB01F101440020C87398F80C1088F8DA
:102330000D10606D4178CA061DD595F8960108B953
:102340001DF056F9A97938681AFB01F1014495F896
:102350009601421E0A74A87939681AFB00F00844F5
:10236000002141743A68A97902F112001AFB01F1C7
:10237000002242522BE0A97938681AFB01F101448E
:10238000206D90F840200A74A87939681AFB00F093
:102390000844216D91F841204274206D3968AB7971
:1023A000403001F112021AFB03F34188D15205F5C6
:1023B000CB710078012200F0030082400A70226D88
:1023C00092F84000800814BF01200220087139688B
:1023D000A879DFF81CB301F1140231681AFB00F38D
:1023E00001EB4010D050A87939681AFB00F008447E
:1023F000C0498161DBF814000078C1074CBF1F2081
:102400000F20DBF8141009788A0748BF40F020003D
:10241000DBF8141009784A0748BF40F04000DBF8A9
:10242000141009780A0748BF40F080003168AA7983
:1024300001EB421318723068A97900EB41120B20AE
:1024400050723168AA7901EB42100421AA4A8172C4
:102450001078012806D13168A87901EB40120121DA
:10246000D17207E0DBF824003168AA79407801EBEB
:102470004213D8723168A87901EB40121F211176FE
:102480003068AA7900EB421100204876A8790FF055
:102490001DFBAA79316852018850AA79316852012E
:1024A000885820B9072128461DF004FB02E1934813
:1024B000AA79016801EB021020F0FCFBA8793168D1
:1024C0008E4B01EB4012196801EB00105060A979A6
:1024D000306800EB41125168C8F83C10AA795201EB
:1024E00081587C48C8F84410042100780EF0CAFCDA
:1024F000616D4A783868D10648BF02210AD4A979AB
:102500001AFB01F101440A7C02F00302022A14BF03
:1025100004210621B8F8042095F806C04FF4C873CA
:102520008A18698AAA615143B1FBF3F35B1C6B61A2
:102530001AFB0CFCD5F800E06044DEF80CC040F655
:10254000C41101FB02C2D21AA2F5A8628260AA7964
:1025500038681AFB02F283189A682B689A6000F1B7
:102560000C03AA791AFB02F20C309B5C03F0EF0318
:102570008354A8793A681AFB00F002F10C030C327C
:102580001B5C03F07F031354A8793A681AFB00F030
:1025900002F10C030C321B5C03F0F00343F0020366
:1025A0001354AB7938681AFB03F31844427B02F0EA
:1025B000F00242F001024273AA7938681AFB02F273
:1025C000024490682B6818613068AB7998F802C0B3
:1025D00000F11402686940005B0111FB0C0000F57A
:1025E000F660D05095F8960104280DD13268A8798C
:1025F00002F114034FEA401C143253F80C00AB797B
:102600005B0100F56160D0503068AA7900F11403D5
:102610004FEA421C53F80C20C5F83421AA7900EB8C
:102620004210C37C03F0F00343F00403C374DBF8EF
:1026300030003268AB79006802EB431CB8F8062022
:1026400042436423B2FBF3F35943A1F59661CCF8FE
:102650001C103068A97900EB4110C27E02F0F00234
:1026600042F00402C276A97938682A681AFB01FA96
:1026700000EB0A01516095F8FD00010703D50E211A
:10268000284620F013FB1E49072008702046AA792F
:1026900089F802201BF0BCF81A488178880704D515
:1026A000AA790021204620F0FDFA28681649174A29
:1026B00041618261BDE8F14F1FF096BFD50F002048
:1026C000780E0020D70F0020900F00208E0F0020E2
:1026D0009C0E0020C70F0020980E002081010210E0
:1026E000C00C00209A0F00204DE5011084580020F6
:1026F000D04A0200980C0020CC0F0020A40E00202D
:10270000C80F0020200E0020D5EF000002048080BA
:102710002DE9F84F2DED108BADF5247D00910A9039
:10272000BE99DFF804079A469FEDDB8B002750F82F
:102730002130AAF1010019460B931C181823D11E51
:1027400091FBF3F121EAE1710D1AA1EB81000991EE
:1027500002EBC00001908800DFF8D01668AEA0EB55
:102760008A00084400F10408A7420FDCB0EE480AD2
:10277000E819F0EE680A05D458F827001CF048FC68
:1027800041EC100BA6EC020B0137EDE768A89FEDBA
:10279000C28B4FF0000918AE00EBCA00A0F1080888
:1027A0000B98814520DCB0EE489A0A9C00274546EC
:1027B000F0EE689A57450EDAB4EC020B51EC100BB0
:1027C00095ED000B1FF0A0FD1FF092FD41EC190BE1
:1027D000083D0137EEE706EBC90008F1080809F1EA
:1027E000010980ED009BDBE790ADDDF82C809FEDCB
:1027F000ACAB9FEDADBB9FEDAECB9FEDAFDB9FEDE7
:10280000B08B9FEDA5EB9FEDB0FB281F059000EB73
:1028100088000490A6F1080006900198C0F12F01ED
:102820000391C0F1300118380291079006982E46A6
:1028300000EBC80B18A8CDF8208000EBC80090ED85
:10284000000BB8F1010F28DB59EC105B53EC1A2B8D
:10285000284649460CF0C4FA18F0DEFD1CF0D8FBFF
:1028600053EC1B2B07460C460CF0BAFA2A464B4693
:1028700090AD07F0F0FC18F0CFFD9BED000B01C60A
:102880003A46234651EC100B07F0E5FC41EC100BE7
:10289000ABF1080BA8F10108D3E7079F38460BF00E
:1028A00087FD54EC106B53EC1C2B304621460CF08A
:1028B00097FA41EC100B0AF0FFFF51EC100B53ECB0
:1028C0001D2B0CF08DFA3246234607F0C4FC04465B
:1028D0000E4618F0A1FD80461CF09AFB02460B46FE
:1028E0002046314607F0B2FC41EC190B81460C46FC
:1028F000012F32DB089E029B05EB860050F8041C7A
:1029000041FA03F202FA03F39044C91A40F8041C96
:10291000039841FA00FBBBF1010F5EDB00270020AA
:10292000B04210DA55F8201017B16FF07F4202E084
:1029300039B14FF08072511A012745F8201001304B
:10294000EEE70027FBE70798012825DB0198192807
:1029500018D01A2820D15E4817E0089E5FB153ECCA
:102960001F2B4846214615F02BFE002840F0918091
:102970004FF0000B31E005EB860050F8040C4FEAF5
:10298000E05BC8E7524800F5800005EB860151F88E
:10299000042C104041F8040C08F10108BBF1020FAF
:1029A0001BD151EC180B4A46234607F04FFC41EC73
:1029B000190B87B10446B0EE480A07980D46F0EEB1
:1029C000680A0BF0F5FC53EC102B2046294607F063
:1029D0003DFC41EC190B4FF0020B059C51EC190B1F
:1029E00053EC1E2B15F0CEFD002873D0002031468D
:1029F0000B9A914204DD54F8212001391043F7E786
:102A000000280498B14640F0818050F8041909F17B
:102A100001090029F9D00AEB060068A90DF1600B45
:102A200001EBC008771C4E4530DA0998DFF8FC133B
:102A3000384451F820001CF0EBFA06EB0A0268ABB0
:102A4000B0EE4E9A41EC100B0A9C0025464603EB73
:102A5000C202F0EE6E9A82ED000B55450EDAB4EC30
:102A6000020B51EC100B96ED000B1FF04DFC1FF00C
:102A70003FFC41EC190B083E0135EEE70BEBC700BC
:102A800008F108083E4680ED009BCBE7C84690ADB4
:102A9000CCE64FF0020B41E7000000000000000010
:102AA000000000000000703E00000000000070C147
:102AB000000000000000C03F00000000000020C037
:102AC000000000000000F03F000000000000E03FB8
:102AD000FFFF3F00DDF80490B0EE490AF0EE690A0E
:102AE000C9F118000BF064FC54EC105B9FEDCC0BAB
:102AF0002846214653EC102B15F062FD80B928467C
:102B0000214618F089FC074690A924E00798CDE9F2
:102B100009B854F82610013E18380029F9D01FE0F2
:102B200053EC1A2B284621460CF05AF918F074FC85
:102B300007461CF06DFA53EC1B2B0CF051F92A469A
:102B4000234607F088FB18F067FC90A9CDF81C908D
:102B500041F8260001360798CDE909B841F82670FA
:102B60009FEDAD0B0BF024FC18A8B0EE408A354663
:102B700058EC1ABB089600EBC609F0EE608A3046A6
:102B80004C46B5F1FF3F1BDD90A850F825001CF026
:102B90003FFA57EC186B02460B46304639460CF0AC
:102BA0001FF941EC100B304639465A46434684ED36
:102BB000000B0CF015F941EC180B083C013DE0E767
:102BC0009FED938BDFF868A2DDF820B00DF58078DB
:102BD000BBF1000F25D40898B0EE489A00264C4669
:102BE0005746F0EE689AA0EB0B050CE0B7EC020B31
:102BF00051EC100BB4EC020B1FF086FB1FF078FBBE
:102C000041EC190B01360B988642D8BFAE42EDDD80
:102C100008EBC500A9F10809ABF1010B80ED009BA1
:102C2000D6E7BE99481E022815D3002969D0DDF8E1
:102C300020B0032940F0E28008EBCB0A5746BBF1F5
:102C4000000F72DD1DF0DEFE1EF0ACFB1FF048F839
:102C50001EF0D2FDF3E7089F9FED6D0BDDF80090AD
:102C6000099E08EBC7043D46002D0AD451EC100B19
:102C700094ED000B1FF014FB41EC100B083C013DE0
:102C8000F2E78DED100B53EC102B002E9DF8470052
:102C900080F080008DF84700109808BF1046119909
:102CA00008BF194641EC100BDDE9400189ED000B2E
:102CB00007F0CCFA41EC100B08F108040125BD42E5
:102CC00009DC51EC100BB4EC020B1FF0E9FA41ECFB
:102CD000100B0135F3E78DED0E0B002E9DF83F0034
:102CE0000E9A80F080008DF83F0051EC100B08BF69
:102CF00002460F9808BF084640EC102B89ED020BE6
:102D00007CE0089E9FED420B009D099F08EBC604E6
:102D1000002E19D451EC100B94ED000B1FF0C0FAEB
:102D200041EC100B083C013EF2E7DDF820B05746BD
:102D3000BBF1010F1EDD1DF065FE1EF033FB1EF022
:102D4000CFFF1EF059FDF3E78DED0C0B002F9DF822
:102D500037000C9A80F080008DF8370051EC100B92
:102D600008BF02460D9808BF084640EC102B85EDC1
:102D7000000B43E09FED260BDDE90845022C0BDB41
:102D800051EC100B9AED000B1FF08AFA41EC100B7E
:102D9000AAF1080A013CF1E79DED401B3DB38DED22
:102DA000121B9DF84F0080F080008DF84F009DEDC4
:102DB000121B009981ED001B8DED140B9DF857003F
:102DC00080F080008DF857009DED140B81ED040B11
:102DD0009DED420B8DED160B9DF85F0080F080009D
:102DE0008DF85F009DED160B81ED020B06E000985B
:102DF0009DED422B80EC041B80ED040B0A9800F043
:102E000007000DF5247DBDEC108B01B0BDE8F08FFF
:102E10000000000000000000000000000000F03F83
:102E20000000000000007041B44F02001043020097
:102E3000104A02002DE9F04F054687B0A978DFF867
:102E4000DC66002710294FF0060A3CD8DFE811F0B5
:102E5000110061036103610361033C00CB00610366
:102E60006103C5021101FC00160361039702DC0235
:102E700059036878002826D11FF010FF04461FF080
:102E800009FF05461CF072FB8DF800002246102158
:102E900002201CF04BFE2A46102103201CF046FEA7
:102EA0006A46012104201CF041FE9DF80000012823
:102EB00018BF032807D1012016F00AF802460621A0
:102EC00006201CF033FE24E368780028FBD195F837
:102ED0000CB06C8900900023E97801AA01F001018F
:102EE000281D0FF09DFA00284FF0010871D19DF8C0
:102EF0000400FDF74DFA8146BBF1080F08BFB84644
:102F0000307A80001EF070FD050003D104201CF013
:102F10006FFBFEE2707802280CBF012000200090B9
:102F20005B469DF804104A462046FDF794FC1422A7
:102F3000002102A81EF030FB9DF804001AFB00F0EF
:102F400002AA102124301CF0DDFDA8B91022FF21B7
:102F500002A81DF090FC78B99DF804001AFB00FA55
:102F600006AA04210AF125001CF0CCFD02AA09F0F2
:102F7000010120461FF08AFE317A9DF804002A469E
:102F80008900E0301CF0BEFD98B92846FDF769F9CC
:102F9000BA4609E005EB8000018819B18278204625
:102FA0001DF07EFB0AF1010A317A5FFA8AF088424D
:102FB000F0D3B07A30B95FEA897003D53178204612
:102FC0001CF064FD9DF80400FDF71DFA28461EF074
:102FD00013FD7078022805D1B8F1000F02D0204609
:102FE00015F0D2FD95E2A888FDF764FD1FF04AFEBA
:102FF0000028F7D1F07D012808D1FDF753FAF279C6
:10300000706AF77500211EF0C7FA17E0307E0128BC
:1030100003D1FDF7EEFA377610E000240AE0706A7B
:10302000E5B2415D012904D1E0B2FDF74CFA716AC5
:103030004F55641CE0B2F1798842F0D350201DF066
:10304000BFFBFDF7B9F964E21FF058FE00280CD071
:10305000F06900281CBF0468002C07D02869009084
:103060006B7B2A7B6989E81CA04751E268890121B2
:1030700044E268780024002840F0DA80A879C1078B
:1030800040F1D6800822002105A81EF085FAA88804
:103090001FF058FE040000F08E806F694FB30622C7
:1030A000002107F111001DF0E6FB68B3102200219A
:1030B00038461DF0E0FBD0B9387C00F001084FF035
:1030C000000909F1010987F8119000200090002300
:1030D0000022414607F111000FF0A2F900285FFA23
:1030E00089F002D10028ECD101E000280CD10020A9
:1030F00068610622607900F001008DF81A00A11DB8
:1031000005A81EF053FA1FE06F69EFB1387C00F09C
:1031100001008DF81A00062207F1110105A81EF022
:1031200045FA6079012805D10622A11D04F10C00A1
:103130001EF03CFA062207F11101A01D1EF036FA1E
:10314000387C40F002006071A879410720794CBFBB
:1031500040F0020000F0FD002071A9790A0754BF79
:1031600000F0DF0040F020002071A8799DF81B10CE
:10317000DFF8AC83800800F0010008438DF81B00E5
:103180004FF0FF09A979C90801F0010140EAC10027
:103190008DF81B00FF2469691E2779B31022684649
:1031A0001EF004FA102168461FF068FD4FF0000B76
:1031B000DFF870930CE0FDF79FFC0028D5D0307845
:1031C00004210DF05FFED0E70BF101005FFA80FBF8
:1031D00099F80000834510DAD8F8001007FB0BF0CF
:1031E0000A5CFF2AF0D0084400F10D011022684665
:1031F0001DF074FD0128E7D15C46A1460020009037
:1032000000239DF81A1004AA05A80FF009F9B9F1D6
:10321000FF0F5CD034285AD1707D30B3012856D1CD
:10322000A88805211FF066FD0124A888FDF742FC4F
:1032300068780B2804BFA888FDF77EFCF069002899
:103240001CBF4368002B0FD06A78A88801219847DB
:103250006878002808D1A879C10705D5F369A8883E
:1032600022465C680321A0474BE1D8F8000000210A
:1032700007FB09F400910023015D401C04AA2044CF
:103280000FF0CEF818BB9DF81000FDF71CF9F0B94F
:10329000FDF792F8FDF7E3F88DF81000E8680028D4
:1032A0000CBF00210169002201900392029105A93F
:1032B000686900902B69AA689DF81000FCF7E5FF8B
:1032C0000446A888FDF70CFB200046D14BE0002007
:1032D000009000239DF81A1004AA05A80FF0A0F88A
:1032E00020B1FDF7BCF88DF8100019E06869B8B19D
:1032F0009DF810001AFB00FA6A4610210AF123001B
:103300001CF000FC60B91022FF2168461DF0B3FAE2
:1033100030B99DF81A0005A900F001001FF00AFD60
:103320009DF81000F179884227D2E86800280CBF88
:1033300000210169002201900392029105A96869A8
:1033400000902B69AA689DF81000FCF79EFF0446C8
:10335000A888FDF7C5FA200005D09DF81000FDF7FC
:10336000B2F8FDF729F8200008D1707A0028A88863
:103370007FF45CAFFDF752FB5AE7152455E76878F8
:1033800006281FD1A8881FF0DDFCD8B1317D491E69
:10339000032917D8DFE801F0020E08134179A88845
:1033A0000022FDF7EDFA0DE00022002140F2094075
:1033B00003F0F4FBA88805211FF09CFC02E0A8881C
:1033C000FDF7BAFBF06900281CBF4368002B03D04F
:1033D0006A78A888022198479AE000970023E97844
:1033E00001AA01F00101281D0FF01AF80028F3D1FD
:1033F0009DF804001AFB00FA05F10C0204210AF101
:1034000025001CF093FB83E0F06900281CBF436893
:10341000002B03D0A888002200219847707810B9AB
:10342000A88805216AE0A8881FF08CFC040070D0F1
:10343000A87AC10712D5009700236179002201F014
:103440000101A01D0EF0ECFF00281EBF60790028CE
:10345000012803D0E868C0F3402028B1707C02281E
:1034600007D1A87A010704D4A88803211FF002FC21
:103470004FE06179A88805F1080227E02F7BAD882D
:1034800028461FF05FFC040042D01FF037FC0028E4
:103490003ED100900023617901AA01F00101A01D35
:1034A0000EF0BEFF28BB9DF80400FCF771FF07F08B
:1034B0000C07042F11D0082F0BD00C2F0FD100F0C8
:1034C000090109290BD0617900222846FDF758FA35
:1034D0001EE010F0090F02D1F5E7C107F3D5012274
:1034E0000092A37C9DF8041002462846FDF7B3F92C
:1034F0000EE070780028E6D1052128461FF0BAFBBF
:1035000006E0FDF7F9FA18B1307804210DF0BAFCA5
:103510000127384607B0BDE8F08F00BF0822002021
:10352000680F00209A5900202DE9F84F2DED068BE9
:1035300096B059EC105BEB4829F0004686421CD847
:10354000B0EE408A28464946F0EE608A17F064FFE4
:10355000E5498E4202D8002800F0FD819FEDE41B72
:10356000B0EE480A0020F0EE680A16B0BDEC068BFB
:1035700001B0BDE8F04F08F03BB9DF48864208D300
:10358000284649462A464B4606F060FE41EC180B99
:10359000E1E1DA48864213D84846DB496FF31F5011
:1035A000884261D0F14886424FD8B9F1010FC0F28C
:1035B0004A819FEDEF0B1EF06FFB9FEDEF0BABE130
:1035C000CF48864210D8EE48864249D8ED48864218
:1035D0004AD0B9F1010FC0F299819FEDEB0B1EF0BB
:1035E0005BFB9FEDEB0B34E1C64886423CD9EA48D1
:1035F0009FEDEB1B0DF1400B00EB165057EC11ABA0
:103600000390A6EB005040EC105B0025102D00F05D
:10361000EA8054EC106B0BEB05083046214617F09E
:10362000FBFE1BF0F5FC41EC100B02460B4630464E
:10363000214688ED000B06F009FE52463B460BF092
:10364000CFFB41EC100B0835E0E7B9F1010FC0F2F8
:1036500015819FEDE70B1EF01FFB9FEDE70B13E1BC
:10366000CE48864240F0E5809FEDEB0B2846494668
:103670001EF042FE9FEDEA0B53EC102B06F0EBFD23
:103680009FEDE90B53EC102B06F0E5FD9FEDE00BF1
:1036900083468A461EF030FE02460B4628464946BF
:1036A00006F0D9FD9FEDD80B04460D46584651460D
:1036B0001EF022FE1EF050FD2046294645EC194B17
:1036C00006F0C4FD41EC180BC1F30A505146C0EBA3
:1036D0001657584617F0A0FE8046112F6DDB9FED60
:1036E000D40B300D5146029058461EF005FE06469A
:1036F000CDF80C808846204629463246434606F0DF
:10370000A5FD81460F4641EC190B204629464A4645
:103710003B4606F09BFD43463246DDF80C8006F042
:1037200095FD9FEDC50B04460D46584651461EF0CB
:10373000E3FD22462B4606F089FD1EF00DFD4846AE
:10374000394606F083FD41EC180BC1F30A5002998B
:10375000081A322831DB9FEDBA0B584651461EF04D
:10376000CBFD06460C46484639463246234606F00F
:103770006DFD80460D4641EC190B484639464246E0
:103780002B4606F063FD3246234606F05FFD9FEDB3
:10379000AE0B04460E46584651461EF0ADFD22467D
:1037A000334606F053FD1EF0D7FC4046DDF80C8092
:1037B000294606F04BFD41EC180B51EC190B53EC6C
:1037C000182B06F043FD53EC1A2B06F03FFD41EC9D
:1037D000110B08F0030002285ED0012800F0A4803D
:1037E00000283ED1B1E08DED140B9FED6F0B0BF176
:1037F0001004042556EC107B94ED000B3A4633463A
:1038000051EC100B14F0BEFE083C013D0028F3D132
:1038100001202B46009010A80CA9039AFEF778FF10
:103820009DED0C8B8046B9F1FF3F42DD9DED0E1BF7
:10383000CFE7B9F1010F7ADB9FED610B1EF02CFA97
:103840009FED610B79E09FED6E0B1EF025FA9FED69
:103850006E0B1DF0C9FF1DF0B7FF1EF035FD41ECEA
:10386000110B1EF05BFA8DED040B9DF8170080F034
:1038700080008DF817009DED048B6CE09FED580BD8
:103880001EF00AFA9FED580B1DF0AEFF1DF09CFFD5
:103890001EF01AFD41EC110B1EF013F98DED060B15
:1038A0009DF81F0080F080008DF81F009DED068BB5
:1038B00051E09DED0E0BC8F100088DED0A0B8DED6A
:1038C000088B9DF82F0080F080008DF82F009DF868
:1038D000270080F080008DF827009DED0A1B9DEDEC
:1038E000088B76E7FB21E93FFFFF4F3E00BF00BF9B
:1038F00000000000000000000000F07F7A6A0F4026
:103900003B461C40FA213941FB2109009FED300B59
:103910001EF0C2F99FED300B1DF066FF1DF054FF45
:103920001EF0D2FC41EC110B1EF0F8F90FE09FEDF8
:10393000200B1EF0B1F99FED200B1DF055FF1DF07F
:1039400043FF1EF0C1FC41EC110B1EF0BAF8B0EEC3
:10395000408AF0EE608AB0EE480AF0EE680A16B0CF
:10396000BDEC068B01B0BDE8F08F00BF7CD90240F2
:1039700000004054FB21F9BF3163621A61B4D0BD2D
:10398000BCFD15407CD912400000307F7CD912C0AC
:10399000CA9493A7910EE9BDEAFBFFFFFB211940F2
:1039A0000000000000007041000000000000000066
:1039B00000004054FB2119403163621A61B4F03DAC
:1039C00000004054FB2119C03163621A61B4F0BD9C
:1039D0000000307F7CD91240CA9493A7910EE93D34
:1039E00000004054FB2109403163621A61B4E03D9C
:1039F00000004054FB2109C03163621A61B4E0BD8C
:103A000000004054FB21F93F3163621A61B4D03D9C
:103A100000004054FB21F9BF83C8C96D305FE43F0B
:103A2000000000000000384300000000000038C320
:103A30000000601A61B4D03D7370032E8A19A33B55
:103A40000000002E8A19A33BC14920259A837B39A7
:103A50002DE9F04F85B00D460295044615F8011B7F
:103A60008DF801100022DFF8E41488788DF800202A
:103A700004F1660B1DF070FF01902C219DF80100F0
:103A8000DFF8CC24032804F1F40604F5B07A04F539
:103A90009C7704F5C87804F2171900F0E180072834
:103AA00000F01382082818BF092811D00C2800F054
:103AB000D7810F2811D0112800F04481182800F078
:103AC00092811A2800F057811B2800F07C811AE2AD
:103AD0002946204614F08EFC15E2707ADFF87484D3
:103AE00081070AD40F2089F8020020461FF0BEF893
:103AF000002872D198F80000DCE12878697800EBA2
:103B000001223A82A878E97800EB01227A822879AA
:103B1000697900EB0122BA82A879E97900EB0122E8
:103B2000FA82287A3876697AA87A01EB00227A83B9
:103B3000E87A297B00EB0122BA83687BA97B00EB42
:103B40000122FA83E87B297C00EB01223A84687C1D
:103B5000A97C00EB01227A84E87C297D00EB01221C
:103B6000BA84687DA97D00EB0122DFF8EC03FA84BA
:103B700001788A0658BF4FF01A0A13D504F5AA70C7
:103B80000490798B0391387E029021890191F88A03
:103B90000090BB8A7A8A398A20461FF063F8E8B120
:103BA0004FF01E0A707A41070AD40F2089F80200EC
:103BB00020461FF05BF800280FD198F8000079E14B
:103BC00052460F2120461FF049F8F88A0090BB8A20
:103BD0007A8AA179504616F09DF872E104F18600C8
:103BE000798A81800023BA8AC2800222F98A0181FF
:103BF00002704380A18EC91DABF81E10628E8188B1
:103C0000B1EB520F02BFC188A28E914202BF008960
:103C1000E18EB0EB111F21D09BF81000012804BFEA
:103C20009BF811000F280CD09BF8150000281CBF32
:103C30009BF811001A2804D00F218BF81A10FE21CE
:103C40007CE0FC2120461FF031F8F88A0090BB8A06
:103C50007A8A398AA0791EF0FDFF32E110216DE0E9
:103C6000707AC10709D431781A200129707002D105
:103C7000FF220D213DE00D2160E000208BF80000C7
:103C80008BF80600012232712946082204F1B000A7
:103C90001EF0DCFF0146022204F1B8001EF0D6FF40
:103CA00004F1A8050146082228461EF0CFFF07466A
:103CB000082128461EF0E2FF04F19C050422394643
:103CC00028461EF0C3FF042128461EF0D7FF04F14A
:103CD000A0001EF0B7FF04F198001EF0AFFF9F4850
:103CE000018841F0800101803078012805D1FF2250
:103CF000042120461EF09EFFE3E09BF811600F2E8A
:103D000018BF142E07D00E2E18BF0C2E03D01A2E5B
:103D100018BF162E11D19BF81070FF2204212046E7
:103D20001EF088FF012F06D18BF81A601A2E14BFDF
:103D3000FD21FB2102E0314600E0042120461EF077
:103D4000B5FFBEE028788AF800001A286B788AF858
:103D5000013040F0D8801068A679431C4E43002003
:103D60009855A379126811FB03F111440871A179E8
:103D70009AF80100C0E0A77910682E784F430744F5
:103D800006F01F0317F8210FB60938B17878F04014
:103D9000C00703D598F80600042805D120221A216F
:103DA00020461EF05BFF8CE0FB701068A27911FBCF
:103DB00002F10144204681F8236000211EF0CCFB73
:103DC0000028F0D174E0A37910684B430344D888ED
:103DD00008B900265E701068A27911FB02F1014457
:103DE000002008716DE069782878884204BF084097
:103DF00010F0070F6DD19BF81100162806D198F826
:103E00000620A179134600200CF0D6FF022088F886
:103E10000200012101984177012398F8060098F8E3
:103E20000A1088F80000BAF81C201EF0FFFEBAF84D
:103E30001810814209D3BAF81C2098F80A1098F893
:103E4000000001231EF0F2FE0146AAF82E10012107
:103E500098F8080040F0400088F80800397030E019
:103E6000707E012810D015F8011B317702222946F7
:103E700004F589701EF0EAFE0146022204F58A70FC
:103E80001EF0E4FE012070769BF8060030B93D215B
:103E9000012289F8011089F8002012E0F07E002844
:103EA00004BFB07E00280CD120461EF0BBFE30B906
:103EB000284800784FF480410CF0E4FF01E0012035
:103EC000F07601218DF8001021E028780F2816D017
:103ED0001A2818D1A0791368484318440023437066
:103EE000A079126811FB00F150180371F07A00F00C
:103EF000FB00F0721A20A1790AF065FBE1E7707A05
:103F000000F0FD007072204602991EF087FE9BF8BB
:103F100011001A2815D19BF8120017281CBF102871
:103F2000FC280ED19BF8106020461EF073FE012E77
:103F300003BF1A208BF81A00FB211A2120461EF01D
:103F4000B5FE9DF8000005B0BDE8F08F780E0020AA
:103F50006C580020C70F0020200E00209C0F00206E
:103F60002DE9FE4F04460020009080460CB91BF05E
:103F70003FFB04F1500641F6230037683880A7F86C
:103F8000028002223A737A73694620460DF072F974
:103F900008B9072050E2009901B1B860B868206103
:103FA000DFF89804017884F8B8107068407A18F047
:103FB00051F925302076B87387F80F807168087D35
:103FC000022804BF00201BF013FB7068007D01284D
:103FD00002D10020002104E083280CBF062002202B
:103FE00020213874797404F12405DFF854A4DAF838
:103FF0003C0041690868697901EB41010844B0F867
:1040000001207A827068417848060AD5607DC10631
:1040100004D5E07F40F04000E07702E040F040004F
:10402000607507F15C0904F1300089F80080A97E11
:10403000890001F0040189F80010B866607DC106AE
:1040400054D5726851788A060BD500F0FE00607571
:104050007068417811F0030F03D1E07F00F0FE009B
:10406000E077607D1EF0D2FDA0750023387CA27D34
:10407000C0F38001521C00F003001EF0C3FDA083BA
:104080001E23A28B02F59B7090FBF3F31E2101FB14
:104090001300C0B208B1C0F11E00821802F59B7275
:1040A00062831E23A28B02F5967290B290FBF3F30B
:1040B00001FB1300A283C0B208B1C0F11E0080183A
:1040C000A08380B2E27D618B521E50434018608312
:1040D00007F13008608BB43080003866062089F81C
:1040E0000300E17F41F00801E17720E040F00100AA
:1040F000607571684A78510744BF40F002006075EE
:10410000607D1EF083FDA0750023387CA27DC0F386
:104110008001521C00F003001EF074FDA083A08BF0
:1041200000F59670A0830020386689F80300A17D11
:10413000207D61F3050007F18801207508700322D6
:10414000607D48708A70A87E800000F0040040F016
:1041500003008870EA7ED20002F0080210438870E3
:104160000020C8700021C7F89010A88BC0F30B0086
:10417000A8837168CA7D40EA0230A8830022617D6D
:1041800001F0FE0120460CF023F9019700271DE005
:104190001C20784304EB000B01991C220BF16400F6
:1041A0001DF004FA0BF16C00052101717F1CA28B3C
:1041B00092000260FFB2DAF83C104A6911686B792C
:1041C00003EB43031944B1F801204281E07D401E16
:1041D0008742DDDB019F204611F070F9E07D012868
:1041E00009D013D3032809D03EBF04F164007860DE
:1041F000C6F818800AE0C7F8048007E004F16400FC
:10420000786004F18001B161C6F8348041F6240081
:1042100038860021798607F13C08B868618B00EB8D
:104220008100B8630221822088F8000088F801101C
:10423000002194F8210088F8031000F03F0088F86E
:1042400002007068807D012818BF022803D100F0A9
:104250007F00401E04E083280CBF0620022020219E
:1042600088F8040088F805104FF0000BDAF83C00DD
:10427000416908686A7902EB42021044B0F8011003
:10428000A8F80610C7F86CB07068417811F0030FF9
:1042900020D01EF0B3FCF866DAF818000078C107E9
:1042A0004CBF1F200F20DAF8181009788A0748BF82
:1042B00040F02000DAF8181009784A0748BF40F0AB
:1042C0004000DAF8181009780A0748BF40F080006B
:1042D00089F8140089F815B071685A4A887C00F092
:1042E000030089F81500A97E890001F00401084344
:1042F00089F81500E97EC90001F00801014341F089
:10430000100189F81510107838B199F8140000F0F0
:10431000FE0041F0400189F8140089F81510E07F93
:104320001EF074FC84F8200020461EF063FCE07F41
:10433000C10635D5706894F820204178521C880752
:104340004EBFD21EE87F121898F80400C0F3800117
:104350000023D2B200F003001EF054FC28801E227D
:10436000288800F59670C0F11E0190FBF2F21E2025
:1043700000FB021129717168487881074CBF002049
:104380004FF49B702988401828806880B86B298872
:104390002A795218A63200EB82007867022002E0E8
:1043A000C7F874B0002089F8170004F13000C7F88E
:1043B000800007F1840071684A78510707D504F13D
:1043C0003802026099F8150040F0200007E01E490D
:1043D0000A685168016099F8150000F0DF0089F85B
:1043E0001500A17F94F8200060F30501A17740F645
:1043F0000B00A8F81000A8F812B0DAF8380000880E
:1044000080007865DAF83800008800B1072088F865
:104410001C00022088F81D0094F84510A8F81E1012
:1044200070684178880744BF0121A8F81E100098E1
:1044300008B10BF030FD0020BDE8FE8F965900203A
:10444000D04A0200880E00206C0F00202DE9FE4F9C
:10445000DFF844B4DFF8447405469BF800000028F8
:104460004CD0052872D0062800F07F80072818BF9E
:10447000082800F0F5800A2800F0E281112802D017
:1044800013286FD000E2DFF81824107800211EF006
:1044900029FC04001EBF606D407810F00C0F2DD079
:1044A000216DC0064CBF886CC86E016801F108051B
:1044B0000622A91C68461DF079F8287800F00F0143
:1044C00005291BD145096946C0F380101EF08EFBFB
:1044D000002813D0396868461EF084FB0646396808
:1044E00004F138001EF07EFB86420DD0606D4178ED
:1044F000C80604D440F201401EF070FBCAE1607BA4
:1045000040F002006073C5E13B681E2046439819E5
:1045100006226946C01D1DF049F8606D4178C80645
:10452000F1D5A17B0129EED1DFF878038178480627
:1045300005D5E90703D4206D41F20A4102E0206D60
:1045400041F20441418041834186A3E11DF0FEFF19
:104550000028FAD112F038FC012802D001201EF008
:1045600039FB97E114F00DF894E1DFF83C5328682B
:104570001EF02CFB0400F7D020790328F4D1207A18
:1045800000F00F01072938D1DFF8200300684169E6
:10459000497A4A1E11425CD0617A04F10A035A5CDE
:1045A00002F03F02252A54DBA17A8A09012A50D160
:1045B00011F03F0F4DD0007C1CF0E4FFE17ACA07F8
:1045C0004CBF04F1110204F10B028B0748BF921D8E
:1045D0000B0748BF921CC90648BFD21C127852096B
:1045E00016214A43B2498B180A31EB608A5A428637
:1045F00099898186DA89C2862BE000F00F000828AD
:1046000027D1A17A880924D119B3A8480168087C68
:104610001CF0B8FFE17A064688071AD5062201F099
:1046200001015143601800F10C0168461CF0BEFF07
:10463000207AC00969461EF0D9FA50B1386800F1F5
:104640000D0168461EF0BEFA18B9052130461BF070
:1046500031FA2079032802D000201AF0C9FF0FE1B7
:10466000944FB8780024FF281BD01CF08BFF8046A5
:1046700008F16C09D9F804001EF0A8FA2A4601795D
:10468000032901D011000CD08368197801F00300D0
:104690008D06009003D50124009818B9CDE01000D4
:1046A000FAD0F7E05D7803F1020A34B31AF8010B8F
:1046B000814B01902C2098F806C01E6810FB0CFC62
:1046C00066444FF0010E86F805E0002A1E6898F84F
:1046D00006E006F11A0C019E10FB0EFE06F01F0606
:1046E0000CF80E6098F806601B6810FB06F0184482
:1046F000019BC3F38113C3761AD10098032808F2F3
:1047000017161AD0ADB199F8000068B108F1F4009D
:104710000278012A0DD19BF80020072A04D0082A2C
:1047200004BFC078012804D13D2171700120307090
:10473000B0E0624A1378012BFAD098F89400002870
:104740003CD030782D1F0128EDB2F1D053462A46D7
:10475000404610F033FF00281EBF59490878002852
:1047600013D13D2171700120564A30701178012912
:104770000AD1554C20784FF4805119F099FD2078DA
:104780004FF480510CF07EFB84E05048016888476C
:1047900001904FF4D07098F8062079684243881849
:1047A000002180F8411108F59E7001688079490860
:1047B00012F0D8F8464901980A68904700980328F3
:1047C0001DD044494869007882070DD598F89400B7
:1047D000002814BF281D28464A691178CA0748BF17
:1047E000C01C1AF8000000E0812089F808002A4661
:1047F0000098C3B2B878514605F0A6FF1DE09AF8BC
:1048000000001CB11B2804BF022D01251C2803D267
:1048100031490B5C9D4205D0B070072140461EF027
:1048200045FA0AE09BF8000008285146404602D1AC
:104830001DF044FE01E0FFF70BF9D9F8040020E079
:10484000264C207830B3264D28681EF0BFF908B3F7
:10485000017903291ED1017A8A0611D5807AE1787F
:10486000C0F38112914202BF217900F01F00814202
:1048700006D1A078002801BF607800280121A1702E
:1048800028681EF09BF905E000201AF0B1FE862092
:104890001EF024FABDE8F78FC80F0020680F002033
:1048A000D50F0020C00C0020BC0A0020540F0020AF
:1048B000E0070020780E00206C580020D20F002066
:1048C0009B590020880E0020C70F0020CC3100200B
:1048D000D0310020D04A0200204E0200DC570020D8
:1048E000AC0C00202DE9F84305460C46480413D4CF
:1048F000A00024D4A0075CD460057ED4200500F17C
:104900000681200700F13B81600040F1F68013F042
:104910004BFB24F08044F0E01DF082F9DFF81C141A
:104920000F6D3FB1D7E90A1202F0E04201F00A012F
:10493000891849D01DF04DFD24F48044DDE0BB48CA
:10494000DFF8FC73016841F080010160B87801284C
:1049500004D1042019F020FE0020B8701DF060F989
:10496000064604201DF0ECF9DFF8D8130A689042DF
:1049700019D12A7EBAB1FA68AAB1DFF8C003806CF7
:10498000002800F09780C16840F603020988914230
:1049900006D0C06840F604010088884240F08A8052
:1049A00005F1140088E040F6C4120860C5E904224D
:1049B00084E007F04FFDDFF88403006C002840F02E
:1049C0009D8024F0020498E0D7E90A65D7E90A122D
:1049D000AA43B143C7E90A121DF0FBFCB8680028DE
:1049E000AAD056EA0500A7D0D7F808C03869B7F9A9
:1049F000301032462B46E0479EE71DF011F9054680
:104A00001BF072FA002800F0B780CC48876B002FAB
:104A100000F0B280DFF828830420CB49002288F818
:104A20001800C6481CF0D8FB1DF006FDC7481DF055
:104A3000C7FCC7480068006B8047C8F81000012514
:104A4000042088F802501AF0EDF8386990F8281020
:104A5000C8F80400490703D5436A04210022984797
:104A6000012014F051FCD8F8040045760EF084FCC7
:104A7000D8F8040081680B461A465B684BB11E8863
:104A8000A6F60306072EF7D805FA06F616F0830FEA
:104A9000F2D0537B03F0F003013353730023FD681E
:104AA00053602D88A5F60305012D00F28A80C8F811
:104AB00010309FE005F1100017F012FA30461DF09B
:104AC00088FC1AF0C7F878B12E6A28466FF4807116
:104AD00000224FF00073B0479848806B10B113F07C
:104AE00063FA01E044F00204EE6928460021002246
:104AF0004FF08063B04724F0005434B1974821460A
:104B00002830BDE8F8431DF049BDBDE8F8838C4E60
:104B1000B078012804D1042019F03EFD0020B070C7
:104B20001AF098F838B170686FF4807100224FF075
:104B30000073056AA847306950B185480068006B6A
:104B4000804732697168801A000BC86000203061AC
:104B50007A4D8149002228461CF03EFB0220307627
:104B6000286C20B17D48022128301DF017FD13F07C
:104B70001BFA24F40064C0E71DF05EFC41E01DF068
:104B80004FF805461BF0B0F9A0B1DFF8B48198F8F2
:104B9000000000070ED498F9000000280AD46846E7
:104BA0000EF030FD08B1009820B1DFF8B49199F80B
:104BB000610048B31DF040FC13F0F6F924F008043E
:104BC0009BE7034633F8385FA5B190F8445090F85E
:104BD000456005F0F00580F8445006F0F005013519
:104BE00080F8455000255360C5634587507B00F031
:104BF000F000507357480022C261016001201BF091
:104C00003FFC24F4806478E700260127602E0FD053
:104C100009EB0600817A31B18772407A07FA00F019
:104C2000C0B219F0D3FC2036F0E700BFCC21084019
:104C3000032088F8180045481DF0C2FB1DF0FCFB5E
:104C4000444F3E4D0022786900207861F968F86091
:104C5000284644491CF0C0FA3D480068006B804774
:104C6000D8F80C10D8F82020411A02EB1130B0EB24
:104C7000113F38BF4FF0FF3098F82410C8F82000DB
:104C800021B1D8F80810B0EBC12F20D91BF008FCD7
:104C9000B8B140F60900414621F83C0F0020488099
:104CA0004A7B02F0F00201324A730A7B02F0F00202
:104CB0000A734860F8613960B8F83E0010F4406F3C
:104CC000FAD00020C8F82000012088F8240016F04F
:104CD000EFFA254800210160022000211BF0D0FBE3
:104CE000022019F059FC10200DF058FE98F8010030
:104CF00020B9D8F8040050301DF04CFC1B488078D7
:104D000010B90D200DF04AFE98F8250028B10020BA
:104D100088F82500052019F03FFC002088F81800CD
:104D20001348C8F81C000220B5F85610B5F85420F6
:104D3000914208BF072012F071FA3DE7FC290020DC
:104D40009827002060330020C5FE0100C0520020DB
:104D50008C01001000100440E5EC00003829002010
:104D6000384D00200D800100000004601C5002003E
:104D7000D1E600002DE9F04F0F46380589B018D56F
:104D8000DFF8F4532888FF280ED0C0B21CF0FAFBDD
:104D9000040009D0A07916211DF00CFF20461CF05C
:104DA000E7FB20460AF066FCFF20288087F40060BD
:104DB000DFE1F80504D514F09EF987F48070D8E19E
:104DC000B80604D51DF092FB87F02000D1E1F8076A
:104DD0000CD51CF0E9FD30B100218160DFF89C03A7
:104DE000006800B1804787F00100C2E1380704D5B0
:104DF0001DF07EFB87F00800BBE1F8060FD500210F
:104E000000220023069105920491039302910192DE
:104E1000009102201DF0CAFE87F01000A9E1B8073A
:104E20000FD500210023069105910491039302916F
:104E30000191009101223C201DF0B8FE87F0020094
:104E400097E179074FF01E08CD4EDFF838A340F107
:104E5000D580CD48002200210892079100781DF0EE
:104E600041FF0446C9488178FF2904BF00201AF099
:104E7000BFFBA07A1CF086FB05469AF8000095F867
:104E80002E91002805F5947B71D0606D807A022800
:104E900018BF032807D130680D301DF083FE10B90C
:104EA0003068C11D0791594648461DF09FFE0028F5
:104EB0003BD0606D807C3368002818BF012804D186
:104EC000194658461DF08EFE04E05A4649461846DB
:104ED0001DF03CFFFF284AD008FB00F83068404432
:104EE00006225946C01D1CF061FB306810F80810FE
:104EF000404400F1010B41F00209C01D089009F087
:104F0000010185F82E110622594605F594701CF012
:104F10004DFBA8791CF020FD060008BF1AF068FBC5
:104F200094F8B90086F83A0021E0594648461DF049
:104F300035FEE0B130685A4649461DF007FFFF28AC
:104F400015D018FB00F8306840440D301DF02AFEE3
:104F500058B9306840440D301DF024FE002801BFD0
:104F600030684044417F012901D149F0020905F12F
:104F70002C004B46017806914289120905920122C4
:104F8000698C0491C0880899029140080390CDF87B
:104F900000B0079801900020A9791DF007FED5F810
:104FA0009C017B4988420CBF00210121A8791DF09A
:104FB000F1FD7848AB7902682C214B431344012260
:104FC0001A73AB7904684B4323445A73AB79046872
:104FD0004B4323449A73AB7904684B432344DA73FD
:104FE000AB79006811FB03F101440020087407202D
:104FF000A97912F000F887F00400BAE038060FD55E
:1050000000210023069105910491039302910191DF
:10501000009101223B201DF0C9FD87F08000A8E02F
:10502000F8045DD55C4930680C680D301DF0BAFDA0
:10503000002844D13068C11D0D301DF0A7FD3EE0B1
:10504000606D4178480704F13E0526D5287802288E
:105050001EBF03286878012830D16978306804F1D0
:1050600038021DF073FE8146B9F1FF0F15D030688C
:1050700018FB09F948440D301DF094FD68B93068FB
:105080004844C11D0D301DF081FD30684844C11DEC
:10509000062204F138001CF089FA2878022818BF8B
:1050A00003280BD130680D301DF07CFD30B930681D
:1050B000C11D062204F130001CF078FA2468002C8F
:1050C000BED13648DAF8042000784FF4805117F04A
:1050D00027F910B18E201DF055FD87F4805048E06F
:1050E000B80505D51DF090F82D4901200860FEE7B0
:1050F000780504D51DF0B4FA87F4806039E07804AF
:1051000005D581201DF03EFD87F4804031E0B904D3
:105110002ED5244C206810B100201AF069FA4FF007
:10512000FF3020600020204C10F054FF216851F81F
:10513000202F684690471D494A6B086BC96A24684E
:105140001B4B01920090ADF8101002936B46194A68
:105150001948016819480392194A07922568194AA3
:10516000A8471949086004F011F887F4005000E0DE
:10517000002009B0BDE8F08FA6330020480F0020C2
:10518000680F0020880E0020D70F0020780E002026
:105190004DE501106C5800204C0F0020C70F002077
:1051A0007C052043380F0020200F00202C270020F2
:1051B00089190200991902007858002068470020D8
:1051C0001EFB0080EC0A00201C0F00202DE9F84F88
:1051D000DFF82854A9780024FF2904BF00201AF022
:1051E00007FAA8781CF0CEF9054605F1680605F522
:1051F000C9773168086805F1900808B1EC8311E0BF
:10520000B07B002804BFB07E00280BD198F80010B6
:10521000002904BF3878002804D1287F012804BF62
:10522000688CE8832989E88B4118491C69812846E4
:105230001DF0A4FC01281EBFDFF8C403017801297A
:1052400003D12989EC83491C69814FF6FF79B07E2F
:1052500001280DD1B28B698928891DF08BFC38B1EA
:10526000298968894A1C93B298422FD0B08B23E0D9
:1052700098F8000001280FD1B8F802206989288920
:105280001DF078FC40B1298968894A1C93B2984284
:105290001CD0B8F802000FE03878012816D17A88BF
:1052A000698928891DF066FC80B1298968894A1CB2
:1052B00093B298420AD0788892B2904206D048447D
:1052C000688180B21DF052FC4844E8833878012898
:1052D0000FD128897988401C80B2884209DB7C790B
:1052E0003C71022038702346A979224600200BF039
:1052F00063FD05F59A71087920B128890021401CC9
:10530000E9836881B07E012813D12989B08B4B1CB9
:105310009BB298420DD168811DF028FC05F12E0149
:10532000B6F820808A8802FB0088284610F006F92B
:1053300003E005F12E00B0F80480E88BB14B411C6E
:1053400001FB08F82968CA6840F6C41909FB08225D
:10535000CA60AD49DA7BD30702D56B8A00220BE025
:105360000A88521C93B2012B03BF05F59A7CBCF846
:10537000063003F2DC536B8A03FB08F34FF4C87C5E
:10538000B3FBFCF35B1C6B610A8085F82000C5F859
:1053900018804FF01C0BDFF874A2AB79DAF800002C
:1053A00000F108021BFB03F3D1582A68116100F1D8
:1053B0000801AB79D26868691BFB03F3121ACA5063
:1053C000DAF80000AB7900F108021BFB03F3D158B7
:1053D0002A68916000F10C02A9791BFB01F10C30E5
:1053E000535C03F0F00343F002034354DAF8001077
:1053F000AB798A1C1BFB03F30021D152387908B921
:105400001AF0F6F8DAF80000AA7900F110013879FC
:105410001BFB02F240088854A879DAF800101BFB45
:1054200000F00844002141743879042814D1A87987
:10543000DAF800101BFB00F001F110021031135CD0
:105440003A7A43EA82030B54AA79DAF800001BFB8C
:1054500002F2024420205074DAF80010A87901F119
:1054600012021BFB00F0002111526949A8790A6859
:1054700002F114034FEA401C143253F80C00AB79CC
:10548000D5F814C05B0100EB4C00D050B07E022870
:105490000DD10A68AE7902F11403760114329859DD
:1054A000AB7995F82E605B0119FB0600D05005F131
:1054B0002E025448C37BD8075ED5DAF80000AE79D7
:1054C00000F108041BFB06F60830A359AC791BFB5E
:1054D00004F4A3F5A8630351DAF80000AC7900F1F5
:1054E00008031BFB04F418592B68986004464948CC
:1054F00000FB0848C3F810800868AE7900F1140476
:1055000076011430A359AC79640103F5F6630351B5
:10551000387904280BD10868AE7900F114047601BB
:105520001430A359AC79640103F561630351086831
:10553000AC7900F1140364011859C5F83401364BF5
:10554000186B0C68AE799288006804EB46174243EA
:105550006424B2FBF4F409FB04F0A0F596692F482B
:10556000C7F81C900278012A2FD10868A97900EBAE
:1055700041120120D0722FE0042C0BD10868AE79C3
:1055800000F1140476011430A359AC79640103F5D9
:1055900061630351387904280CBF4FF4AA504FF4CB
:1055A000E6600B68AE7903F114047601A359181A6A
:1055B000938809FB03F3A3F516739842BFD3082120
:1055C00028461AF077FA012016E0586A0968AA7985
:1055D000407801EB4213D872A879DAF800102A68F3
:1055E0001BFB00FB01EB0B00506007210C48017016
:1055F000284611F009F90020BDE8F28F780E00204E
:10560000D10F0020980C002070590020980E002027
:105610009C0E00203CF6FFFFD04A0200CC0F002079
:10562000C80F00202DE9F0410646FF2818BF2028AA
:105630002AD11CF005FD10F01F0F22D0042018F015
:10564000ABFD08B1042016E0012018F0A5FD08B15B
:10565000012010E0022018F09FFD08B102200AE0AE
:10566000102018F099FD08B1102004E0082018F06F
:1056700093FD20B10820BDE8F04118F0C5BD19F038
:10568000B7FF0020BDE8F08118F0BEFD5FEA00081A
:1056900014BFD8F804500025012E46F2A81740F692
:1056A000C4140BD0022E69D0042E00F0B880082E4E
:1056B00000F01281102E00F05981E2E7012018F06D
:1056C0006BFD00281EBFDFF86C03006800281CBFBC
:1056D0008788BF00102018F05FFD18B3102018F065
:1056E00093FD040002D066685EB900E00026022047
:1056F00018F052FD28B1022018F086FD040018BFF2
:1057000066686DB1012018F047FD002818BF002E13
:1057100006D0B068C11BA8681BF002F800282BD087
:105720002046AFE7022018F037FD38B1022018F00C
:105730006BFD040014BF666800260AE0042018F020
:105740002BFD50B1042018F05FFD040014BF666803
:105750000026002DE4D0012040E1082018F01CFDB7
:1057600028B1082018F050FD040005D053E00120B6
:1057700018F012FD002885D0404683E7022018F07B
:105780000BFD60B1AC480168AC48CA69017801EB17
:1057900081015318D88804FB00F707F51667042029
:1057A00018F0FAFC38B1042018F02EFD040014BFE4
:1057B0006668002622E0082018F0EEFC98B1082068
:1057C00018F022FD040002D06668BEB900E0002691
:1057D000012018F0E1FC88B1012018F015FD04004B
:1057E00018BF66680AE0012018F0D6FC50B101200D
:1057F00018F00AFD040014BF66680026002D8FD043
:105800000220EBE0102018F0C7FC30B1102018F097
:10581000FBFC0400B0D06068EBE00220A8E70420A5
:1058200018F0BAFC58B18648016886484A69017880
:1058300002EB0113988904FB00F707F516670820AF
:1058400018F0AAFC98B1082018F0DEFC040002D081
:105850006668DEBB00E00026012018F09DFCA8B3BE
:10586000012018F0D1FC040018BF66682EE001206A
:1058700018F092FC38B1012018F0C6FC040014BFE7
:105880006668002622E0102018F086FC98B11020EF
:1058900018F0BAFC040002D06668BEB900E0002629
:1058A000022018F079FC88B1022018F0ADFC040049
:1058B00018BF66680AE0022018F06EFC50B10220A2
:1058C00018F0A2FC040014BF66680026002D23D047
:1058D000042083E004204BE71CF02EFE08B1D0F832
:1058E0009070042018F058FC38B1042018F08CFC9B
:1058F000040014BF6668002632E0012018F04CFC5A
:1059000058B1012018F080FC002D044604D0082076
:1059100018F042FC00286ED102E7102018F03CFC81
:1059200098B1102018F070FC040002D06668BEB96F
:1059300000E00026022018F02FFC88B1022018F0A9
:1059400063FC040018BF66680AE0022018F024FC1B
:1059500050B1022018F058FC040014BF66680026FD
:10596000002DD9D0082039E0082001E703201CF0E1
:10597000E5FD08B1D0F89870022018F00DFC38B1A0
:10598000022018F041FC002D0446C5D01020BFE7CE
:10599000042018F001FC38B1042018F035FC040094
:1059A0000CBF0026666816E0082018F0F5FB18B357
:1059B000082018F029FC040002D066685EB900E0F7
:1059C0000026012018F0E8FB28B1012018F01CFC8B
:1059D000040018BF6668002D9ED0102018F0DCFB74
:1059E000002818BF002E97D0B068C11BA8681AF015
:1059F00097FE002890D1BFE6012018F0CDFBB0B192
:105A0000012018F001FC040014BF66680026002D78
:105A100005D0102018F0C0FB002818BF002E3FF45E
:105A20007FAEB068C11BA8681AF07AFEE1E71020CB
:105A30009EE600BF80580020500F0020D80F0020A5
:105A4000540F0020D90F00202DE9FE4F0422FF2122
:105A500001A81BF0A1FDDFF8DC63B078FF284FF050
:105A6000000800F0E5811BF08DFD0546B0781BF0C5
:105A700073FF074605F217100178012908BF417826
:105A800000F05B8105F17406B07B022817D1387FE6
:105A9000C0F3C00088B105F12E0001890909009109
:105AA00005F12E01C3888A88A979520800201DF0CB
:105AB00059F8387F00F0E700387786F80E8095F8BF
:105AC0009201022808BF85F89281307F022808BF22
:105AD00086F81C8005F5927BBBF80E1019B19BF877
