:10000000003C022055EE010055FE010055FE0100A6
:1000100055FE010055FE010055FE010055FE010090
:1000200055FE010055FE010055FE010055FE010080
:0C00300055FE010055FE0100DDDE000061
:1000400038B586B004468DF805104FF6FF720120D2
:10005000ADF80220090ADFF8B85AADF80000022313
:100060008DF806108DF8043069462A78204623F072
:10007000FDF8162803D12978204623F0F3F807B0BD
:1000800030BD3EB504000D461ED0DFF8880A00687A
:10009000224623F0E3F8FF2815D00020009000232B
:1000A00001AA2946204612F073FD60B99DF80400AC
:1000B00000F06EF9C00606D59DF8040000F068F95E
:1000C00010F0040000D001203EBDFEB516461524F8
:1000D0004FF6FF7290420D4615D100208DF80400B6
:1000E000DFF82C7A9DF80400F97988421AD232465A
:1000F000294600F03EF800B100249DF80400401CA1
:100100008DF80400EEE723F0A5F850B100F099FB5C
:1001100040B99DF804003246294600F02AF8002430
:1001200000E014242046FEBD7CB50D4604460621A1
:100130004C43164620346A46082120461FF03EFFF5
:10014000A8B900F076F890B99DF80700002E14BF0A
:10015000054320EA0505E9B2814206D08DF8075033
:100160006A46082120461FF03DFF012076BD002091
:1001700076BD2DE9FC4106463446062388461546E1
:100180005C436A46082104F120001FF017FF002895
:100190004CD100F04EF8002848D100F024FA0400B9
:1001A00002D100F018FA41E0397AE036224689009F
:1001B00030461FF003FF002834D1204600F051F8EC
:1001C0005FEA08000ED13A7A9206120E002120460C
:1001D00020F0CFFD30BB3A7A92000021204621F07A
:1001E00043FC16E0214600F029F858B9280004D055
:1001F0002146002000F022F810B900F00CFC15E0B8
:10020000A0F800808178A9420CD085700DB900213A
:100210000180204600F025F8397A224689003046D0
:100220001FF0E0FE00F0F7FB012000E00020BDE839
:10023000F6810622FF21684620F09BBD70B5DFF8ED
:10024000D0381D7A002200E0521CD4B2AC4206D253
:1002500031F824608642F7D101EB840070BD0020A4
:1002600070BD10B50021DFF8A8280AE030F8213071
:10027000DB4320F8213000EB8103491C9C78E443E8
:100280009C70137A9942F1DB10BD2DE9FE4FDFF827
:1002900080480646207A0F4691469A46800021F013
:1002A00013FE5FEA000803D100F095F90A206DE023
:1002B0000C9D02974FF0060B37461BFB07FB029A7B
:1002C00008210BF120001FF08DFE8DF80400304650
:1002D00000F099F8227A00F079F99DF80400009076
:1002E0004246217A890006F1E0001FF07BFE009E65
:1002F00002990643206A082200EBC70021F0BEFBEA
:10030000F5B110220021284620F033FDC0B9029932
:10031000887900232A4600F0010022F097FF002888
:100320001CBF9DF93C00002803D0DFF8EC1701202A
:1003300008702A4610210BF123001FF053FE0643DC
:100340005FEA090205D01C210BF121001FF04AFED3
:1003500006435FEA0A0205D01C210BF122001FF0C0
:1003600041FE06430D9A4AB110210BF124001FF003
:1003700039FE06430EAA00F031F90643A07D08B10C
:1003800000F094FA404621F0A7FDF0B2BDE8FE8FE0
:10039000E0B5062358436A46082120301FF00EFEC0
:1003A00010B99DF807000EBD00200EBDDFF86007F4
:1003B0000078082110F076BE38B50025DFF85047E8
:1003C00018E0206A06236B4300EBC50220330821A6
:1003D00098B21FF0F3FD58B1206A0622FF2100EB0E
:1003E000C50021F041FB206A00EBC5010022CA7163
:1003F0006D1CEDB2E1798D42E3DBA07D10B1BDE86B
:10040000314053E231BDF8B5DFF80417DFF80C379F
:10041000C9791E680C460A4600E02A46D5B23DB1AD
:10042000551ED2B2324412F8017C8742F5D12C46D7
:10043000E4B220464D1E07E01718165C7F7817546B
:100440001A680244401C5670A8421A68F4DBAC4299
:1004500004DABDE8F84005201FF0C4BDF1BD70B559
:100460000024DFF8AC5600E0641CE879E3B2834274
:100470000BD22B6AE6B20622FF2103EBC60020F066
:1004800078FC0028F0D0E0B270BDDFF89426117837
:1004900039B1DFF8880601680C78204600F013F8BF
:1004A000204670BD38B500200024DFF8645603E014
:1004B000E0B200F008F8641CEA79E1B2914201D29E
:1004C0000100F5D032BD2DE9F84F4FF0060B1BFBB4
:1004D00000FB8EB081460BF1200501AA08212846B9
:1004E0001FF06CFD002868D10622FF2101A820F032
:1004F00040FC002861D100F076F85FEA000803D1E3
:1005000000F069F80A205AE01C22FF2103A821F01C
:10051000ABFA3A7A00F05AF80BF123060AAA102136
:1005200030461FF04BFD60B91022FF210AA820F0D1
:1005300020FC30B99DF80A0001A900F0010022F06A
:1005400081FE082200F03EF801AA082128461FF08B
:1005500049FD054603AA1C210BF121001FF042FDB5
:100560008DF8000003AA1C210BF122001FF03AFDB8
:10057000044603AA102130461FF034FD064603AAA4
:1005800010210BF124001FF02DFD824603AA00F07C
:1005900025F89DF800100D43254335434AEA05052B
:1005A000397A05434246890009F1E0001FF01AFD3F
:1005B0000543404621F090FC00E0002528460FB09E
:1005C000BDE8F08FFF2101A821F04EBA9200FF2173
:1005D000404621F049BA04201FF066BA04210BF10D
:1005E00025001FF0FFBCDFF82875387A800021F065
:1005F0006BBC2DE9F84187B0FF208DF80000DFF8D3
:100600001055E87921F060FC040003D1FFF7E3FF07
:100610000A2030E01022FF2103A821F025FAEA7910
:10062000FF21204621F020FA0622FFF7CBFF03AA84
:10063000102102201FF0D6FC064603AA1021032039
:100640001FF0D0FC06436A46012104201FF0CAFCBB
:100650000746E979224605201FF0C4FC054601AA99
:10066000062106201FF0BEFC804600F0D4F93E4370
:100670002E4348EA060008B0BDE8F081DFF8901488
:10068000408809781FF05EBCF0B5A9B006460D465B
:10069000144622F0DFFD08B91420A6E0A4220021B0
:1006A000684621F0E1F9ADF80060DFF86464F078A5
:1006B000F17B279A8DF804005208307C8DF8A00059
:1006C0004B0801F0010040EA420222F0020203F06E
:1006D000010342EA4302080922F4807200F001009B
:1006E00042EA0022480922F4007200F0010042EAC6
:1006F0004022880922F4806200F0010042EA802250
:10070000890822F0040201F00101707C42EA8102B2
:10071000279202280CBF012000200DF126077874D3
:1007200022F08CFD412807DB707C00B108209DF889
:10073000991008438DF89900F07CB8B10121B97483
:10074000202206F188010DF1390021F097F92022CD
:1007500006F1A8010DF1590021F090F9202206F1CF
:10076000C8010DF1790021F089F900E0B874707BBF
:100770008DF8050090B1DFF8AC73102207F110017D
:100780000DF1060021F07AF99DF89900082805D1AD
:10079000102239460DF1160021F070F9307B8DF8EA
:1007A000260030B11022DFF880130DF1270021F070
:1007B00065F9307948B1022D18BF032D03D1279870
:1007C00040F002002790012100E000219DF89900EF
:1007D0000143B0788DF8991000B1042001438DF8E1
:1007E00099106846214622F025FD29B0F0BD2DE97B
:1007F000FC41154615244FF6FF72904288460ED1F3
:100800000027DFF80C63F179F8B2884216D22A4645
:100810004146FFF789FC00B100247F1CF3E722F07A
:1008200019FD50B100F00DF840B99DF804002A46BA
:100830004146FFF779FC002400E014242046BDE87F
:10084000F681002100910023417901AA01F0010104
:10085000801D12F09DB970B504460D460620454333
:10086000082B88B0164603D1300758BF223500D573
:1008700021351C220021FFF7A6FE01AA1C212846D3
:100880001FF09CFB80B99DF81E00C01F0A280BD2E8
:100890009DF830000090F20801AB02F0010206F072
:1008A0000101204621F0BCFB08B070BD38B522F034
:1008B000BDFC0024964D0FE0286A0622FF2100EBC4
:1008C000C40020F056FA28B9286A00EBC4018879E0
:1008D00022F0A8FC641CE4B2E8798442ECDB31BD70
:1008E000F0B5924D0646686885B04FF6FF7438B98A
:1008F000009502238E4A2146012022F08FFC686079
:10090000696819B30222FF20029200230390019329
:100910000DF112072A88009704AB304608F0DCFC82
:1009200060B99DF810009DF8111000EB0122100035
:1009300004D0686841893046FFF7C7FB2A88686899
:100940000023214622F066FC686008B9012000E01F
:10095000002005B0F0BD3EB50C46002501460095CF
:10096000002301AA204612F013F938B99DF80400BB
:10097000FFF70EFDC00601D401203EBD00203EBDA4
:100980002DE9F0416B4F3C6806468846154603E06A
:100990002089B04224D02468002CF9D10C2021F009
:1009A00093FA040019D0268184F80A800020206080
:1009B000E07245B10821284620F02AFC606018B991
:1009C00000F029F80AE06060396811B93C6004E081
:1009D000014608680028FBD10C600CB9152018E00E
:1009E00022F014FC08B1002013E00120E0722A4636
:1009F00041463046FFF748FE04464548C069002896
:100A00001CBF4368002B03D00022002130469847CA
:100A10002046BDE8F081204621F05EBA38B5054693
:100A20004448046803E02089A84204D02468002CCC
:100A3000F9D1012032BDE07A012807D100F05CF83D
:100A400020B133480078042110F02CFBE17A491CD6
:100A5000E1722846C9B200F002F8002032BD38B574
:100A6000022904462A4D02D003290DD01EE042F689
:100A7000C921FFF7E5FA02001CBFE869002818D079
:100A80004368B3B105210CE042F6A621FFF7D8FA7E
:100A900001001CBFE96900290BD04B684BB102462D
:100AA0000421204601B0BDE830401847BDE832407F
:100AB00000E031BD10B51F4A1468002101E0214655
:100AC00024686CB123898342F9D1206800290CBFC6
:100AD00010600860606808B121F0FEF9FFF79BFF25
:100AE000002010BD024604201249096819B10B8983
:100AF0009342FAD1C87A70470E48006828B100685E
:100B000018B1C17A0029FAD170470020704700005F
:100B100008220020680F0020B458002080570020D1
:100B2000B3580020C4540020F4540020F456002090
:100B3000D65602008457002038B584B0044622F00F
:100B400089FB0622417901F001018DF80E10811D0B
:100B500002A820F093FF0020009000239DF80E10C3
:100B600001AA02A812F014F89DF80400FFF7ABFCEC
:100B700005460521204622F045FB284605B030BD3C
:100B80002DE9F84F2DED141BB0EE402A5BEC119BC4
:100B9000F0EE602A2BF000409FED870B50EA090130
:100BA0002BD0874B57EC126B5D1C0EB9AF4224D093
:100BB000844927F000448C4209D80EB18C4206D0FB
:100BC000884204D8B9F1000F1CD088421AD19FED99
:100BD0007E0B3046394655EC104B21F00FFE064691
:100BE0000F464846594621F009FE02460B4630465C
:100BF000394609F0E2FB41EC100BBDEC141B01B0CF
:100C0000BDE8F08FB7F1FF3F02DD4FF0000A04E0CE
:100C10006F4A90426BD94FF0020AB9F1000F00F011
:100C2000EA839FED690BB8465CEC10EB4FEADC728F
:100C300062F3DF782EB34FF0FF3202EBD7725AEA3D
:100C400002034DD0AAF101031A430FF60C1208BF9C
:100C5000083292ED008B5F4A904261D301F144412A
:100C6000884240F28280AC4280F0998021F0F2FD0F
:100C7000222101600FF67010BBF1000F48BF083051
:100C800097E08C4204D0544A944201D0002CD2D137
:100C90009FED490B3246434621F0C8FDBBF1000FE2
:100CA0005CBF41463046B7F1FF3F41EC100BA4DC7E
:100CB0004A4A224402F5200252EA0A0210D08DED7F
:100CC0000C0BBAF1010F9DF8372082F080028DF8ED
:100CD00037200C9A18BF02460D9818BF0846D0E37B
:100CE00021F0B8FD21219FED3E0B016085E7984280
:100CF0007FF68BAF9C463C4B020D984248D340F2A6
:100D000033439B1A29FA03F202FA03F39945634627
:100D100006BF02F00102C2F1020A4FF0000A7CE7AE
:100D20009FED330B30464146CDE900EC21F02EFD1E
:100D3000314A324B3532B4F5801F3ABF4FF6CC32D0
:100D4000CFF6FF722146B4F5801F02EB21526FF3FC
:100D50001F5128BF304641EA0508994256D3284B17
:100D600099424FD20292012152E01548844280F00C
:100D700075827546644621F06DFD2221BBF1FF3F6F
:100D8000016040F3DD8151EC180B2A46234660E3F5
:100D9000B9F1000F00F01F834FF0000A41E721F086
:100DA00059FD222101600FF64000BBF1000FC8BFC2
:100DB000083090ED000B20E7000000000000F03F3D
:100DC000FFFFEF3F0000F07F000000000000000088
:100DD000FFFF3F430100E0410000F03F000070BF13
:100DE000000000000000F87F0000404100BF00BF8D
:100DF0000000000000004043CCFBFFFF8F98030081
:100E00007AB60B00F44B013241EA0308002102924A
:100E1000DFF8E8270991074602EBC102414692ED4F
:100E2000000B55EC106B32462B460396049009F0EC
:100E3000BFFA04468A46304629463A46434609F0F8
:100E4000BCFA1FED230B02460B4621F0EFFC079086
:100E500002460B460691204651460EF033F80890A4
:100E60004FF000500F460022099940EA580000EB6D
:100E70008140394600F50026002033460EF022F866
:100E800021F0B6F9039A04468A46002031462B46E3
:100E900009F08EFA024604980B46414609F088FA9A
:100EA00002460B46002039460EF00CF821F0A0F95E
:100EB00002460B46DDE906100EF004F80790069195
:100EC0000D460446394600223B46089E304609F04E
:100ED00074FA02460B46204629460DF0F3FF804681
:100EE0008A463046394632463B4605970DF0EAFFC2
:100EF0009FEDBB0B06460F4621F048FC9FEDBA0B59
:100F000021F020FC21F044F99FEDB90B21F01AFCEF
:100F100021F03EF99FEDB80B21F014FC21F038F9D7
:100F20009FEDB70B21F00EFC21F032F99FEDB60BCF
:100F300021F008FC05460C4621F06CF92A462346B0
:100F40000DF0C0FF02460B464046514609F035FA07
:100F5000059D80460C460020002229462B460DF0B8
:100F6000B1FF9FEDAB0B07460E4621F0EBFB42466F
:100F7000234609F022FA9FEDA80B00208A4621F0B3
:100F8000E1FB3A46334609F013FA02460B46404667
:100F9000214609F00DFA024608980B4629460DF045
:100FA00091FF04460E46DDE90610002253460DF07F
:100FB00089FF2246334609F000FA07460E46002014
:100FC0002946002253460DF07DFF3A46334604463B
:100FD0000D4609F0F2F9002022462B468A4609F018
:100FE000E7F902460B463846314609F0E1F99FED34
:100FF0008C0B21F0CBFB9FED8C0B04460D460020A3
:10100000514621F0C3FB21F0F9FB0246DFF8F00561
:10101000099C0B4600EBC40090ED000B51EC100B4B
:1010200009F0CBF99FED820B089005460E4607911B
:101030000020514621F0AAFB2A463346CDE905108F
:1010400009F0BBF90246DFF8BC050B4600EBC40013
:1010500090ED000B56EC107B3846314609F0ADF9A7
:101060000546029888461EF045FA04468A462846F8
:1010700041462246534609F0A0F900202246534635
:1010800021F0DAFA3A46334609F092F9DDE9053201
:1010900009F08EF902460B46DDE9071009F088F9E0
:1010A00041EC1A0B4846594600225B4609F080F98C
:1010B00004460D4651EC1A0B4A465B460DF002FF02
:1010C00057EC196B804689462046294632463B46F6
:1010D0000DF0F8FE42464B4609F06FF9814688460E
:1010E0003046394600225B460DF0ECFE07460D46C1
:1010F00041EC190B484641463A462B4609F05DF94A
:1011000006464D480C4600F5200081421BDD4B4849
:101110002044304310D19FED4A0B4846414621F010
:1011200011FB82468B4621F06FF802460B46504673
:10113000594617F099FCD8B121F08CFB22210160AF
:101140009FED410B42E142484249204088420FD383
:1011500041482044304340F08F8021F055F802464A
:101160000B464846414617F06BFC002840F084804F
:10117000194924F00040884240F28780F04940F24B
:10118000134301EB10504FF4801121FA00F00121BC
:101190002044024661F31F52C0F30A515B1AA1F2C8
:1011A000FF31DA40002C48BF52420992234A02F133
:1011B000814242FA01F1002201EA00033846294641
:1011C00009F0F6F8024641EC190B0B464846414639
:1011D00009F0F3F80C465AE00000E03F00BF00BF02
:1011E000EF4E454A287ECA3F65DBC9934A86CD3F0C
:1011F00001411DA96074D13F4D268F515555D53FF2
:10120000FFAB6FDBB66DDB3F033333333333E33F89
:10121000000000000000084000000000000008C0BE
:10122000FD033ADC09C7EE3FF5015B14E02F3EBE3B
:10123000000000E009C7EE3FFFFFEF3F000070BF76
:10124000FE822B654715973C000000000000F07FF0
:1012500000FCFF7F00CC904000346F3FAC42CDE9F2
:1012600000EC40F2248121F0F5FA2221BBF1010FBC
:101270000160BFF665AF03E021F0ECFA22210160C6
:10128000DDE9002351EC180BE3E00020099053EC5A
:10129000192B0020214609F08BF802460B464846E0
:1012A000414609F085F89FEDBE0B05460E4600202D
:1012B000214621F06BFA9FEDBC0B07468846284675
:1012C000314621F063FA3A46434609F076F89FED3D
:1012D000B80B089005460E4607910020214621F0E4
:1012E00055FA2A4633468346069109F066F80246C7
:1012F0000B46824689460DF0E5FD9FEDAF0B044697
:10130000884621F043FA9FEDAE0B21F01BFA20F046
:1013100051FF9FEDAD0B21F015FA20F04BFF9FED33
:10132000AC0B21F00FFA20F045FF9FEDAB0B21F045
:1013300009FA20F03FFF20F055FF04460F465046C3
:10134000494622463B460DF0BDFD9FEDA50B0546E7
:101350000E462046394621F0F5F902460B4628464E
:1013600031460BF0C9FD069B04460F4650464946E0
:101370005A4609F01DF802460B46DDE9071009F050
:1013800017F805460E46504649462A4633460DF0A4
:1013900099FD2A46334609F010F802460B462046CE
:1013A000394609F005F820F01DFF9FED670B21F08D
:1013B000C9F9099A41EC100B01EB0251B1F5801FFC
:1013C000AEBF41EC100B10460DF0E6F851EC180BD7
:1013D00053EC102B3DE040F213439B1A20FA03F22A
:1013E00002FA03F39842634612BF4FF0000A02F07C
:1013F0000102C2F1020A884215D18348204400F557
:10140000200030433FF4F9AB9C4226D99FED500BAE
:10141000BBF1FF3F50EC101BC4BF5846494640EC9F
:10142000101BFFF7EABBA8420CD19FED470B3246D9
:101430003B4621F0FBF9BBF1000F5CBF394630465B
:10144000FFF7D9BBBBF1804F1FD13046394632463A
:101450003B460DF037FDFFF7CEBB8DED0A1B9FED30
:101460003C0BBBF1000F9DF82F000A9A80F0800022
:101470008DF82F0051EC100B58BF02460B9858BF47
:10148000084640EC102BFFF7B8BB002F3FF5C9AB67
:10149000594A93457FF4C5ABB0EE420AF0EE620ABA
:1014A000BDEC141B01B0BDE8F04F0AF055BD9FED37
:1014B0002E0B3046414621F045F99FED2D0B064697
:1014C0000F4621F063F99FED2C0B21F03BF920F042
:1014D0005FFE9FED2B0B02460B4651EC100B08F004
:1014E00067FF04460D4620F095FE22462B460DF080
:1014F000E9FC9FED250B21F049F99FED250B0446F2
:101500000D463046394621F041F921F077F99FED3B
:10151000220B80460C463046394621F037F94246C8
:10152000234605460E4608F048FF00202A4633466B
:1015300021F082F802460B4640462146AEE500BF48
:1015400002FCFFFF00BF00BF000000000000F03FF2
:101550000000000000000000000000000000F03F5C
:10156000000000000000F0BF000000000000F0BF1D
:10157000000000000000D0BF555555555555D53FCA
:10158000000000000000E03FFE822B654715F7BF1A
:1015900044DF5DF80BAE543E000000604715F73F96
:1015A000396CA80C615C20BEEF39FAFE422EE63F92
:1015B00000000000432EE63FD0A4BE726937663EAD
:1015C000F16BD2C541BDBBBE2CDE25AF6A56113FC3
:1015D00093BDBE166CC166BF3E5555555555C53FAA
:1015E00000000000000000C000000000000000003B
:1015F000000000000000F07F0000E03F905002007B
:10160000A0500200B0500200000070BF8EB0DFF8A2
:101610007869B41D204620F0D5FE204620F03EFF1C
:10162000DFF868B9584620F0C7FBF060584620F054
:10163000C3FE20F021FFDFF85849A06021F006F931
:10164000771DE060384620F0CFFE21F01BF92061C5
:1016500020F070FE6061A01C04F11C0118F076F807
:1016600004F12C0020F0B9FCDFF8281920624FF0BB
:10167000000A04F1540041F270720023CDE900A683
:10168000049018F0EBFCDFF81009DFF81019DFF810
:1016900010990022152300901020C847DFF8041984
:1016A000102000220223C8470FF0DEF8DFF8F818F8
:1016B00010200122C847DFF8F41810204FF0FF3245
:1016C0004FF0FF38C8471EF099FA1DF0D5FC1EF008
:1016D00047FD19F06DFD1FF0ADFC21F0CFF8DFF8EC
:1016E000D018086013F03EFF17F0F8F90FF0A6FDD0
:1016F000351D3946284620F067F96060284639468E
:1017000020F058F9284620F075FE06F1100020F070
:101710006BF806F1140020F0C9FC06F1180020F067
:10172000CBFCA178DFF88C785020B847DFF8881818
:1017300002461020C847A1785020B847DFF87C182F
:1017400002461020C847DFF878181020FB2240F628
:101750004803C847DFF86C181020C8472546A17811
:10176000502025F83C8FC5E903AAC5F814A0B84756
:101770000346DFF8540802210422CDE90010DFF807
:101780004C181020C8472846182121F067F8DFF8C8
:101790004018102080228023A5F80080CDF800B0EA
:1017A000C847F070DBF86800DC4988420ED0DBF8EF
:1017B0006C00DB49884209D010F0C0F8F068DFF80F
:1017C00014188022802320F0C5FFF070DFF8001885
:1017D000102080228023CDF800B014F0C9FBF070F7
:1017E00015F0ECF860709BF8700020F0CDFDDBF890
:1017F0007C0020F05FFE19F0BFFD1CF0D3F8E0681C
:10180000807808B913F05AFD09F050F813F012FD72
:10181000E1689BF878206078097813F093FDE06820
:10182000017839B9817829B9417819B9C17809B9EC
:10183000007988B1002000251FF0EEFB6069017877
:1018400051B10570DFF8680701210F2200680068B8
:101850008068A0611FF0FCFBDFF8A09701200DF16C
:101860001C080DF1370A0DF1350BB071F07900212C
:101870004FF040424FF0FF330130F071E0690EF05D
:10188000C7FD05463079062800D078B96068007831
:1018900060B1707950B940F6B8302278DFF8381767
:1018A000012320F057FF606800210170002D00F037
:1018B000E48000200DF11B01059006A805AA1CF08C
:1018C000D4FF002840F0D780BDF81800102840F061
:1018D000CD80A0789DF81B10814240F0C780059F05
:1018E0004FF6FF703988814200F0C180080AC9B202
:1018F000912900F07E80B02900F0B380D02940F01B
:10190000B680B978072900F20282DFE811F00800FA
:10191000AF00AF00AF00AF002802590295020021CE
:101920000028317140F0A2800020F97A4246ADF8DB
:101930001F00B8798DF81C00B7F807008DF8231048
:101940000821ADF81D00B7F80900ADF8210000200E
:1019500016F03EFADFF89416DFF89426DFF8943696
:101960001020009414F004FB000640F00B831020BC
:101970002278494600234F460090DFF87C0601900C
:10198000102014F0F5FA000640F0FC8219202278AD
:10199000394601230090DFF868060190102014F00A
:1019A000E7FA000640F0EE822278DFF858161020A1
:1019B000922314F0DDFA40F6B8302278DFF81816DA
:1019C000012320F0C7FE000640F0DC8260680021A1
:1019D00001701DF09BFE701C01214FF47A720023F0
:1019E000CDE90010DFF82006DFF8A81518F036FB67
:1019F0003CE03E2800F09C810F2800F09F811028D9
:101A000000F0A8810E2831D1B88841F20541884202
:101A10002CD1B968087848BBB1F80100A28F824286
:101A200024D1C9787F2921D094F84D20531C224419
:101A300084F84D3082F84810052294F84D10B1FB1F
:101A4000F2F202EB8202891A002284F84D10002182
:101A5000052900F019826318013193F948301A44BE
:101A6000F6E7397907F1080021F0C8FB059F17B1A7
:101A7000384620F040FF680025D4A0680078002890
:101A80007FF4F4AE307940F00200072806D12278C6
:101A9000DFF880151020132314F06AFA206900780B
:101AA000002800F06E82307ADFF82815802280232B
:101AB00001303072DFF8D40420F04CFEF070A068E2
:101AC00001210170D2E6206A20F00CFD0028D4D15B
:101AD000206A1FF0FBFC0028F5D00546007801388D
:101AE000082800F20C81DFE810F009000A011D004F
:101AF0000A0140004900FD0013002A0068680078D0
:101B0000032840F0FC80032041461AF0A3F8F6E0D9
:101B10006868B0F8010015F0D1FEF4E015CD5B0760
:101B2000B168DE3A686801684A1E072A00F2DD8063
:101B30000121DFE802F0E0DFE1E0E1E1E1DF6A68F6
:101B4000204630F83C1F5288891A18BF012141EA0B
:101B5000410100EBC100C07D002800F0D080DFF81B
:101B6000B014102014F004FAC9E06868DFF89C147F
:101B70000023C288D24820F0EDFDC0E0012051468C
:101B80001AF068F810B9012020F04CFE02205146EE
:101B90001AF060F810B9022020F044FE03205146EC
:101BA0001AF058F810B9032020F03CFE04205946E2
:101BB0001AF050F820B9042002215A460FF0E4FF31
:101BC000052041461AF046F820B905200421424676
:101BD0000FF0DAFF062041461AF03CF820B9062043
:101BE000042142460FF0D0FF002020F0B1FE10B9D2
:101BF000002020F0FFFD012059461BF0C5FD20B953
:101C0000012002215A4612F0F3F8022020F0A0FE33
:101C100010B9022020F0EEFD032020F099FE10B94B
:101C2000032020F0E7FD042020F092FE10B90420EC
:101C300020F0E0FD002020F088FE10B9002020F008
:101C4000C9FD0220514615F051FA10B9022020F0CA
:101C5000E5FD0320514615F049FA10B9032020F0A4
:101C6000DDFD042020F071FE10B9042020F0B2FD4B
:101C7000052020F06AFE10B9052020F0ABFD0620FB
:101C800020F05DFE10B9062020F090FD072020F026
:101C900056FE10B9072020F089FD082020F04FFEE5
:101CA00010B9082020F082FD092020F048FE10B96C
:101CB000092020F07BFD0A2020F041FE10B90A2007
:101CC00020F074FD0B2020F040FE10B90B2020F016
:101CD00081FD0C20514615F009FA80B90C2020F046
:101CE0009DFD0CE01DF012FD09E0B1F1004F06D0A2
:101CF000102901D100217171406820F06DFE6868E3
:101D000008B120F069FE284620F066FEDBE61129C6
:101D10007FF4ACAE11203071B87B8DF82600B88806
:101D2000ADF81C007889002800F09D800020A5E017
:101D3000B8780C287FF49AAE0C2007E0B88842F2FD
:101D4000320188427FF492AE42F23200394614F0FA
:101D5000D1F88BE6082000211FF03CFD86E6052027
:101D6000A0493071102014F003F97978002940F06F
:101D7000B3800390A08F4FF6FF71884240F0A88097
:101D80007F890320A78720F02DFE0028206400F023
:101D90009C8008210170206CA0F80170242020F0A4
:101DA00021FE216C0028606400F08C800122002359
:101DB000CDE90021774941F2707218F04FF984E0C3
:101DC000062088493071102014F0D2F80146BF88EF
:101DD000A08FB84229D1606C029178B1039020F0B5
:101DE00071FE10B1039820F071FE039820F094FE6C
:101DF000039820F0F1FD206C20F0EEFD38461DF038
:101E0000D9FF38461CF0A0FE4FF6FF700299023849
:101E100080B2874202D0A08FB84206D14FF6FF7041
:101E2000A0870020C4E91200206508067FF41EAEDA
:101E3000049820F04BFE19E60720684943463071AC
:101E40001020BA8814F094F804F124001EF0ECFB82
:101E500000283FF40BAE0746008915F02FFD3846E9
:101E600020F0BAFD02E60020ADF82200D7F8060007
:101E7000CDF81E00B889ADF82400012058498DF82E
:101E800027001020424638E011B2052291FBF2F102
:101E900094F84F20002A84F84E107FF4E7ADC9B2C1
:101EA0004AB212F11E0F2BDB94F8501041F00201E0
:101EB00002293FF4DBAD00234FF0020E02213BE08C
:101EC00040E20100084620F087FD012084F8500020
:101ED000049820F0F9FD0398227800060BD1B07821
:101EE00048B940F6B8303C49012320F033FC606823
:101EF00000210170BAE53C49102014F039F8B5E52D
:101F0000D82909D394F850100229FFF4AFAD00236B
:101F10004FF0010E01210FE0CE2909D394F85010A3
:101F200000293FF4A3AD012304214FF0060E03E086
:101F30004FF0020E0421022394F851C094F852701D
:101F4000ACEB0E02022F4FF00007B2FA82F238BF5C
:101F5000012752093A4208BFF4453FF487AD0A46CB
:101F600077461BF0E3FC0120394684F84F0094F8D3
:101F70005100B8421CBF002084F8520084F8511070
:101F800074E5FEE71FF02AFD0C2F0020BC24002082
:101F9000B4260020CDD20100AC2F00205D870100C7
:101FA000715F01008DD401007D0B020025E5010069
:101FB00048580020D9F50100D96C02102D6D02108F
:101FC0000D520210397F01105833002045CB00001C
:101FD000BDFF0100E5FF0100ED740110F9DC011007
:101FE000D95701102D1A0200650202109901011043
:101FF00001FB0100442F00204C32002059F8000062
:10200000602F00201DEF0110F8530020EDED0100BE
:102010000D2B0210A1F901102DE9F84F01201CF041
:1020200061FB012816D1DFF8E8663078002121F045
:10203000E1F8040004BF00201DF036FD00202072EE
:10204000201D11F035FE05F0EFFE050003D18120C3
:1020500021F0CCF858E301206871072016F0F3F85E
:10206000DFF8B096DFF8B02699F80100401C89F837
:102070000100A879A0724020317811700FF064FF40
:102080002860616D4A78206DD10620D5816C0A6880
:102090001179032908D0816C0868007903280CBFE6
:1020A000012000201DF000FD206D816C0A6890F871
:1020B0006C0002F1080701281CBF00201DF0F4FC91
:1020C000216D486F296800F5B060C8604EE0C16EB0
:1020D0000A681179032908D0C16E086800790328BD
:1020E0000CBF012000201DF0DFFC206DC16E0A68CE
:1020F00090F8980002F1080701281CBF00201DF08D
:10210000D3FC216DB5F87431D1F8A0002968DFF84F
:102110000C26C86097F82660DFF80406032E1FD847
:10212000DFE806F002061014CA6802F5B06202E0A9
:10213000CA6802F53472CA6005F59A72018811877F
:10214000038811E0C86800F5355002E0C86800F661
:10215000B870C86005F59A7011880187138803E08C
:10216000C86800F5B060C860A5F874310622286818
:10217000C16801F59071C160B91C3878C0F3801056
:1021800085F82E0105F594701FF078FCA8791FF0F2
:1021900053FE060004BF00201DF086FC94F8B90031
:1021A00086F83A000422DFF87C6507F10E0105F19C
:1021B00024001FF063FC306895F806C000F10C03A2
:1021C000042207F10E0103EB4C101FF057FC032211
:1021D00007F1120105F128001FF050FC3068AB79BF
:1021E00000EB4313032207F1120103F110001FF06B
:1021F00045FC05F12C08787D88F80200022207F1E1
:10220000160105F130001FF039FC022207F1180118
:1022100005F132001FF032FC022207F11A0105F12C
:1022200034001FF02BFCB8F808006884022207F184
:102230001C0105F136001FF021FC98F80200B8F8E7
:102240000A10400088F802000901B8F80400A8F854
:102250000A104000A8F8040089B2B8F8060040004F
:10226000A8F8060003046A8C521CDB0B5A438A420E
:1022700001D280B238B9DFF8B004007880210EF0C6
:1022800011FF3B2139E105F12E01284620F0AAFF7C
:102290000520A881284620F0A1FF052207F11E0194
:1022A00005F161001FF0EAFB97F82300400988F868
:1022B000000020F08FFF688205F59A72618D401A48
:1022C000D08005F1610197F8230000F01F0088F825
:1022D0000F00284620F07AFF616D4A78206DD10604
:1022E0004CBF816CC16E0868DFF840740021017139
:1022F0004FF01C0AA97938681AFB01F141F6210256
:1023000042520021AB791AFB03F303445980AA79A6
:102310001AFB02F210444160616DDFF814044A7840
:10232000D1060DD5DFF80C148A7851060AD5DFF8EE
:102330000824138841F20A418B4208BFDFF8FC03EE
:10234000C5F89C01D5F89C11284688473A68A979B8
:1023500002F10E031AFB01F15854A8793A6802F110
:102360000E011AFB00F3C95CDFF8D4331A6811546C
:10237000A97938681AFB01F101440020C87398F864
:102380000C1088F80D10606D4178CA061DD595F8BF
:10239000960108B91DF088FBA97938681AFB01F18C
:1023A000014495F89601421E0A74A87939681AFB0F
:1023B00000F00844002141743A68A97902F1120042
:1023C0001AFB01F1002242522BE0A97938681AFB6E
:1023D00001F10144206D90F840200A74A879396811
:1023E0001AFB00F00844216D91F841204274206DE1
:1023F0003968AB79403001F112021AFB03F34188CE
:10240000D15205F5CB710078012200F00300824023
:102410000A70226D92F84000800814BF012002204B
:1024200008713968A879DFF81CB301F1140231682A
:102430001AFB00F301EB4010D050A87939681AFB61
:1024400000F00844C0498161DBF814000078C1073E
:102450004CBF1F200F20DBF8141009788A0748BFF3
:1024600040F02000DBF8141009784A0748BF40F01C
:102470004000DBF8141009780A0748BF40F08000DC
:102480003168AA7901EB421318723068A97900EB20
:1024900041120B2050723168AA7901EB42100421DD
:1024A000AA4A81721078012806D13168A87901EB17
:1024B00040120121D17207E0DBF824003168AA79CB
:1024C000407801EB4213D8723168A87901EB4012D1
:1024D0001F2111763068AA7900EB4211002048765E
:1024E000A8790FF0ABFEAA79316852018850AA7919
:1024F00031685201885820B9072128461DF036FD61
:1025000002E19348AA79016801EB021020F05AFE1B
:10251000A87931688E4B01EB4012196801EB00106D
:102520005060A979306800EB41125168C8F83C103E
:10253000AA79520181587C48C8F8441004210078D7
:102540000EF0B0FD616D4A783868D10648BF0221AF
:102550000AD4A9791AFB01F101440A7C02F00302B2
:10256000022A14BF04210621B8F8042095F806C0F9
:102570004FF4C8738A18698AAA615143B1FBF3F317
:102580005B1C6B611AFB0CFCD5F800E06044DEF8C4
:102590000CC040F6C41101FB02C2D21AA2F5A86217
:1025A0008260AA7938681AFB02F283189A682B684D
:1025B0009A6000F10C03AA791AFB02F20C309B5CC2
:1025C00003F0EF038354A8793A681AFB00F002F194
:1025D0000C030C321B5C03F07F031354A8793A6898
:1025E0001AFB00F002F10C030C321B5C03F0F00349
:1025F00043F002031354AB7938681AFB03F3184411
:10260000427B02F0F00242F001024273AA7938687C
:102610001AFB02F2024490682B6818613068AB79AB
:1026200098F802C000F11402686940005B0111FBD8
:102630000C0000F5F660D05095F8960104280DD1F5
:102640003268A87902F114034FEA401C143253F89F
:102650000C00AB795B0100F56160D0503068AA795D
:1026600000F114034FEA421C53F80C20C5F8342142
:10267000AA7900EB4210C37C03F0F00343F004039B
:10268000C374DBF830003268AB79006802EB431C9E
:10269000B8F8062042436423B2FBF3F35943A1F593
:1026A0009661CCF81C103068A97900EB4110C27E0D
:1026B00002F0F00242F00402C276A97938682A6872
:1026C0001AFB01FA00EB0A01516095F8FD000107C1
:1026D00003D50E21284620F071FD1E490720087001
:1026E0002046AA7989F802201BF000FB1A4881785D
:1026F000880704D5AA790021204620F05BFD2868D0
:102700001649174A41618261BDE8F14F20F0F0B9E6
:10271000D50F0020780E0020D70F0020900F00204A
:102720008E0F00209C0E0020C70F0020980E002066
:1027300081010210C00C00209A0F00204DE501100D
:1027400070570020E04F0200980C0020CC0F0020B2
:10275000A40E0020C80F0020200E0020B1F10000C0
:10276000020480801DF066BC2DE9F84F2DED108B22
:10277000ADF5247D00910A90BE99DFF804079A46D2
:102780009FEDDB8B002750F82130AAF1010019469C
:102790000B931C181823D11E91FBF3F121EAE17170
:1027A0000D1AA1EB8100099102EBC0000190880095
:1027B000DFF8D01668AEA0EB8A00084400F10408E8
:1027C000A7420FDCB0EE480AE819F0EE680A05D41B
:1027D00058F827001CF08EFE41EC100BA6EC020B03
:1027E0000137EDE768A89FEDC28B4FF0000918AEE6
:1027F00000EBCA00A0F108080B98814520DCB0EE80
:10280000489A0A9C00274546F0EE689A57450EDA2A
:10281000B4EC020B51EC100B95ED000B1FF0FAFF1E
:102820001FF0F0FF41EC190B083D0137EEE706EB16
:10283000C90008F1080809F1010980ED009BDBE7F8
:1028400090ADDDF82C809FEDACAB9FEDADBB9FED67
:10285000AECB9FEDAFDB9FEDB08B9FEDA5EB9FED7A
:10286000B0FB281F059000EB88000490A6F108003B
:1028700006900198C0F12F010391C0F13001183882
:102880000291079006982E4600EBC80B18A8CDF8C9
:10289000208000EBC80090ED000BB8F1010F28DBA1
:1028A00059EC105B53EC1A2B284649460CF00AFBF6
:1028B00019F026F81CF01EFE53EC1B2B07460C46A5
:1028C0000CF000FB2A464B4690AD07F076FD19F060
:1028D00017F89BED000B01C63A46234651EC100B4E
:1028E00007F06BFD41EC100BABF1080BA8F10108F0
:1028F000D3E7079F38460BF04FFE54EC106B53ECB8
:102900001C2B304621460CF0DDFA41EC100B0BF08D
:10291000C7F851EC100B53EC1D2B0CF0D3FA3246D8
:10292000234607F04AFD04460E4618F0E9FF8046AC
:102930001CF0E0FD02460B462046314607F038FD0C
:1029400041EC190B81460C46012F32DB089E029B9D
:1029500005EB860050F8041C41FA03F202FA03F377
:102960009044C91A40F8041C039841FA00FBBBF1DB
:10297000010F5EDB00270020B04210DA55F820106E
:1029800017B16FF07F4202E039B14FF08072511AF7
:10299000012745F820100130EEE70027FBE70798F4
:1029A000012825DB0198192818D01A2820D15E4863
:1029B00017E0089E5FB153EC1F2B4846214616F0E6
:1029C00049F8002840F091804FF0000B31E005EB12
:1029D000860050F8040C4FEAE05BC8E7524800F567
:1029E000800005EB860151F8042C104041F8040CDE
:1029F00008F10108BBF1020F1BD151EC180B4A463C
:102A0000234607F0D5FC41EC190B87B10446B0EE24
:102A1000480A07980D46F0EE680A0BF0BDFD53EC2E
:102A2000102B2046294607F0C3FC41EC190B4FF050
:102A3000020B059C51EC190B53EC1E2B15F0ECFF0F
:102A4000002873D0002031460B9A914204DD54F8DF
:102A5000212001391043F7E700280498B14640F0DF
:102A6000818050F8041909F101090029F9D00AEB15
:102A7000060068A90DF1600B01EBC008771C4E45FC
:102A800030DA0998DFF8FC13384451F820001CF0C4
:102A900031FD06EB0A0268ABB0EE4E9A41EC100B2A
:102AA0000A9C0025464603EBC202F0EE6E9A82EDC8
:102AB000000B55450EDAB4EC020B51EC100B96ED01
:102AC000000B1FF0A7FE1FF09DFE41EC190B083E06
:102AD0000135EEE70BEBC70008F108083E4680ED34
:102AE000009BCBE7C84690ADCCE64FF0020B41E728
:102AF0000000000000000000000000000000703E28
:102B000000000000000070C1000000000000C03F95
:102B100000000000000020C0000000000000F03FA6
:102B2000000000000000E03FFFFF3F00DDF80490E0
:102B3000B0EE490AF0EE690AC9F118000BF02CFD5D
:102B400054EC105B9FEDCC0B2846214653EC102B28
:102B500015F080FF80B92846214618F0D1FE0746BF
:102B600090A924E00798CDE909B854F82610013E51
:102B700018380029F9D01FE053EC1A2B28462146BB
:102B80000CF0A0F918F0BCFE07461CF0B3FC53ECA7
:102B90001B2B0CF097F92A46234607F00EFC18F081
:102BA000AFFE90A9CDF81C9041F826000136079899
:102BB000CDE909B841F826709FEDAD0B0BF0ECFCA8
:102BC00018A8B0EE408A354658EC1ABB089600EBC0
:102BD000C609F0EE608A30464C46B5F1FF3F1BDD7A
:102BE00090A850F825001CF085FC57EC186B0246A5
:102BF0000B46304639460CF065F941EC100B304677
:102C000039465A46434684ED000B0CF05BF941EC23
:102C1000180B083C013DE0E79FED938BDFF868A2BD
:102C2000DDF820B00DF58078BBF1000F25D40898B1
:102C3000B0EE489A00264C465746F0EE689AA0EB54
:102C40000B050CE0B7EC020B51EC100BB4EC020BD3
:102C50001FF0E0FD1FF0D6FD41EC190B01360B987B
:102C60008642D8BFAE42EDDD08EBC500A9F10809E8
:102C7000ABF1010B80ED009BD6E7BE99481E022800
:102C800015D3002969D0DDF820B0032940F0E28097
:102C900008EBCB0A5746BBF1000F72DD1EF030F98E
:102CA0001EF0F2FD1FF08CFA1FF00EF8F3E7089FFC
:102CB0009FED6D0BDDF80090099E08EBC7043D46C3
:102CC000002D0AD451EC100B94ED000B1FF07AFD8F
:102CD00041EC100B083C013DF2E78DED100B53EC7D
:102CE000102B002E9DF8470080F080008DF84700E3
:102CF000109808BF1046119908BF194641EC100BF7
:102D0000DDE9400189ED000B07F052FB41EC100BAF
:102D100008F108040125BD4209DC51EC100BB4ECAC
:102D2000020B1FF04FFD41EC100B0135F3E78DED69
:102D30000E0B002E9DF83F000E9A80F080008DF85B
:102D40003F0051EC100B08BF02460F9808BF084621
:102D500040EC102B89ED020B7CE0089E9FED420BAE
:102D6000009D099F08EBC604002E19D451EC100BEE
:102D700094ED000B1FF026FD41EC100B083C013ECA
:102D8000F2E7DDF820B05746BBF1010F1EDD1EF063
:102D9000B7F81EF079FD1FF013FA1EF095FFF3E768
:102DA0008DED0C0B002F9DF837000C9A80F0800001
:102DB0008DF8370051EC100B08BF02460D9808BF84
:102DC000084640EC102B85ED000B43E09FED260BF1
:102DD000DDE90845022C0BDB51EC100B9AED000BE2
:102DE0001FF0F0FC41EC100BAAF1080A013CF1E7DE
:102DF0009DED401B3DB38DED121B9DF84F0080F003
:102E000080008DF84F009DED121B009981ED001B95
:102E10008DED140B9DF8570080F080008DF8570061
:102E20009DED140B81ED040B9DED420B8DED160B0A
:102E30009DF85F0080F080008DF85F009DED160B1F
:102E400081ED020B06E000989DED422B80EC041B07
:102E500080ED040B0A9800F007000DF5247DBDEC11
:102E6000108B01B0BDE8F08F0000000000000000F2
:102E7000000000000000F03F000000000000704172
:102E8000C454020020480200204F02002DE9F04FF8
:102E9000054687B0A978DFF8DC66002710294FF0D7
:102EA000060A3CD8DFE811F01100610361036103F9
:102EB00061033C00CB0061036103C5021101FC000A
:102EC000160361039702DC0259036878002826D1B3
:102ED00020F06CF9044620F065F905461CF0A2FDCF
:102EE0008DF800002246102102201DF07BF82A46B2
:102EF000102103201DF076F86A46012104201DF000
:102F000071F89DF80000012818BF032807D101209F
:102F100016F058FA0246062106201DF063F824E355
:102F200068780028FBD195F80CB06C8900900023DC
:102F3000E97801AA01F00101281D0FF029FE0028FF
:102F40004FF0010871D19DF80400FDF721FA814688
:102F5000BBF1080F08BFB846307A80001EF0B4FFFE
:102F6000050003D104201CF09FFDFEE270780228CA
:102F70000CBF0120002000905B469DF804104A46DB
:102F80002046FDF768FC1422002102A81EF06CFD0B
:102F90009DF804001AFB00F002AA102124301DF055
:102FA0000DF8A8B91022FF2102A81DF0E2FE78B9A1
:102FB0009DF804001AFB00FA06AA04210AF1250074
:102FC0001CF0FCFF02AA09F00101204620F0E6F8FF
:102FD000317A9DF804002A468900E0301CF0EEFFAB
:102FE00098B92846FDF73DF9BA4609E005EB80009F
:102FF000018819B1827820461DF0D0FD0AF1010A3E
:10300000317A5FFA8AF08842F0D3B07A30B95FEA59
:10301000897003D5317820461CF094FF9DF8040098
:10302000FDF7F1F928461EF057FF7078022805D108
:10303000B8F1000F02D0204615F0F2FF95E2A88803
:10304000FDF738FD20F0A6F80028F7D1F07D012823
:1030500008D1FDF727FAF279706AF77500211EF0A2
:1030600003FD17E0307E012803D1FDF7C2FA377661
:1030700010E000240AE0706AE5B2415D012904D144
:10308000E0B2FDF720FA716A4F55641CE0B2F179A5
:103090008842F0D350201DF011FEFDF78DF964E257
:1030A00020F0B4F800280CD0F06900281CBF046898
:1030B000002C07D0286900906B7B2A7B6989E81C6B
:1030C000A04751E26889012144E268780024002881
:1030D00040F0DA80A879C10740F1D68008220021AB
:1030E00005A81EF0C1FCA88820F0B4F8040000F088
:1030F0008E806F694FB30622002107F111001DF089
:1031000038FE68B31022002138461DF032FED0B9D7
:10311000387C00F001084FF0000909F1010987F837
:1031200011900020009000230022414607F1110079
:103130000FF02EFD00285FFA89F002D10028ECD1B3
:1031400001E000280CD1002068610622607900F0BF
:1031500001008DF81A00A11D05A81EF08FFC1FE0CC
:103160006F69EFB1387C00F001008DF81A0006227B
:1031700007F1110105A81EF081FC6079012805D135
:103180000622A11D04F10C001EF078FC062207F1B6
:103190001101A01D1EF072FC387C40F0020060712D
:1031A000A879410720794CBF40F0020000F0FD00F3
:1031B0002071A9790A0754BF00F0DF0040F0200019
:1031C0002071A8799DF81B10DFF8AC83800800F00F
:1031D000010008438DF81B004FF0FF09A979C908C9
:1031E00001F0010140EAC1008DF81B00FF2469696C
:1031F0001E2779B3102268461EF040FC1021684655
:103200001FF0C4FF4FF0000BDFF870930CE0FDF7E8
:1032100073FC0028D5D0307804210DF043FFD0E7AF
:103220000BF101005FFA80FB99F80000834510DA8A
:10323000D8F8001007FB0BF00A5CFF2AF0D0084416
:1032400000F10D01102268461DF0D4FF0128E7D1DE
:103250005C46A1460020009000239DF81A1004AAA5
:1032600005A80FF095FCB9F1FF0F5CD034285AD1B6
:10327000707D30B3012856D1A88805211FF0C2FF08
:103280000124A888FDF716FC68780B2804BFA888DD
:10329000FDF752FCF06900281CBF4368002B0FD0DB
:1032A0006A78A888012198476878002808D1A87909
:1032B000C10705D5F369A88822465C680321A047A9
:1032C0004BE1D8F80000002107FB09F4009100232E
:1032D000015D401C04AA20440FF05AFC18BB9DF865
:1032E0001000FDF7F0F8F0B9FDF766F8FDF7B7F854
:1032F0008DF81000E86800280CBF00210169002249
:1033000001900392029105A9686900902B69AA684F
:103310009DF81000FCF7B9FF0446A888FDF7E0FA15
:10332000200046D14BE00020009000239DF81A10A9
:1033300004AA05A80FF02CFC20B1FDF790F88DF839
:10334000100019E06869B8B19DF810001AFB00FA86
:103350006A4610210AF123001CF030FE60B91022E9
:10336000FF2168461DF005FD30B99DF81A0005A93A
:1033700000F001001FF066FF9DF81000F17988420F
:1033800027D2E86800280CBF0021016900220190C3
:103390000392029105A9686900902B69AA689DF8BB
:1033A0001000FCF772FF0446A888FDF799FA200088
:1033B00005D09DF81000FDF786F8FCF7FDFF200012
:1033C00008D1707A0028A8887FF45CAFFDF726FB4F
:1033D0005AE7152455E7687806281FD1A8881FF0FA
:1033E00039FFD8B1317D491E032917D8DFE801F034
:1033F000020E08134179A8880022FDF7C1FA0DE0FA
:103400000022002140F2094003F076FEA888052141
:103410001FF0F8FE02E0A888FDF78EFBF069002897
:103420001CBF4368002B03D06A78A8880221984704
:103430009AE000970023E97801AA01F00101281D14
:103440000FF0A6FB0028F3D19DF804001AFB00FA48
:1034500005F10C0204210AF125001CF0C3FD83E0F4
:10346000F06900281CBF4368002B03D0A888002205
:1034700000219847707810B9A88805216AE0A888CB
:103480001FF0E8FE040070D0A87AC10712D500979B
:1034900000236179002201F00101A01D0FF078FBEB
:1034A00000281EBF60790028012803D0E868C0F317
:1034B000402028B1707C022807D1A87A010704D4E3
:1034C000A88803211FF05EFE4FE06179A88805F10E
:1034D000080227E02F7BAD8828461FF0BBFE0400C2
:1034E00042D01FF093FE00283ED100900023617966
:1034F00001AA01F00101A01D0FF04AFB28BB9DF8B5
:103500000400FCF745FF07F00C07042F11D0082F2B
:103510000BD00C2F0FD100F0090109290BD06179D4
:1035200000222846FDF72CFA1EE010F0090F02D108
:10353000F5E7C107F3D501220092A37C9DF80410A2
:1035400002462846FDF787F90EE070780028E6D19C
:10355000052128461FF016FE06E0FDF7CDFA18B14A
:10356000307804210DF09EFD0127384607B0BDE8F4
:10357000F08F00BF08220020680F0020AE58002006
:103580002DE9F84F2DED068B96B059EC105BEB480A
:1035900029F0004686421CD8B0EE408A28464946AB
:1035A000F0EE608A18F0ACF9E5498E4202D80028A6
:1035B00000F0FD819FEDE41BB0EE480A0020F0EE24
:1035C000680A16B0BDEC068B01B0BDE8F04F08F0FC
:1035D0009FBADF48864208D3284649462A464B46CA
:1035E00006F0E6FE41EC180BE1E1DA48864213D81A
:1035F0004846DB496FF31F50884261D0F14886424C
:103600004FD8B9F1010FC0F24A819FEDEF0B1EF0C8
:10361000B3FD9FEDEF0BABE1CF48864210D8EE48EB
:10362000864249D8ED4886424AD0B9F1010FC0F22E
:1036300099819FEDEB0B1EF09FFD9FEDEB0B34E1AD
:10364000C64886423CD9EA489FEDEB1B0DF1400B82
:1036500000EB165057EC11AB0390A6EB005040EC7A
:10366000105B0025102D00F0EA8054EC106B0BEB82
:1036700005083046214618F043F91BF03BFF41ECAA
:10368000100B02460B463046214688ED000B06F033
:103690008FFE52463B460BF015FC41EC100B0835F3
:1036A000E0E7B9F1010FC0F215819FEDE70B1EF0C5
:1036B00063FD9FEDE70B13E1CE48864240F0E580C5
:1036C0009FEDEB0B284649461FF0A0F89FEDEA0B53
:1036D00053EC102B06F071FE9FEDE90B53EC102B11
:1036E00006F06BFE9FEDE00B83468A461FF08EF8D6
:1036F00002460B462846494606F05FFE9FEDD80B72
:1037000004460D46584651461FF080F81EF0B2FFA1
:103710002046294645EC194B06F04AFE41EC180BB1
:10372000C1F30A505146C0EB1657584618F0E8F856
:103730008046112F6DDB9FEDD40B300D514602906A
:1037400058461FF063F80646CDF80C8088462046A0
:1037500029463246434606F02BFE81460F4641EC91
:10376000190B204629464A463B4606F021FE4346B1
:103770003246DDF80C8006F01BFE9FEDC50B0446BB
:103780000D46584651461FF041F822462B4606F09A
:103790000FFE1EF06FFF4846394606F009FE41EC69
:1037A000180BC1F30A500299081A322831DB9FED39
:1037B000BA0B584651461FF029F806460C464846B3
:1037C00039463246234606F0F3FD80460D4641EC6D
:1037D000190B4846394642462B4606F0E9FD32466B
:1037E000234606F0E5FD9FEDAE0B04460E46584617
:1037F00051461FF00BF82246334606F0D9FD1EF065
:1038000039FF4046DDF80C80294606F0D1FD41EC39
:10381000180B51EC190B53EC182B06F0C9FD53ECA7
:103820001A2B06F0C5FD41EC110B08F0030002282D
:103830005ED0012800F0A48000283ED1B1E08DEDDB
:10384000140B9FED6F0B0BF11004042556EC107B4D
:1038500094ED000B3A46334651EC100B15F0DCF8B2
:10386000083C013D0028F3D101202B46009010A810
:103870000CA9039AFEF778FF9DED0C8B8046B9F1F9
:10388000FF3F42DD9DED0E1BCFE7B9F1010F7ADB63
:103890009FED610B1EF070FC9FED610B79E09FEDD9
:1038A0006E0B1EF069FC9FED6E0B1EF005FA1EF00C
:1038B000F3F91EF097FF41EC110B1EF09FFC8DED0C
:1038C000040B9DF8170080F080008DF817009DED27
:1038D000048B6CE09FED580B1EF04EFC9FED580BD7
:1038E0001EF0EAF91EF0D8F91EF07CFF41EC110B36
:1038F0001EF050FB8DED060B9DF81F0080F0800040
:103900008DF81F009DED068B51E09DED0E0BC8F16B
:1039100000088DED0A0B8DED088B9DF82F0080F0CF
:1039200080008DF82F009DF8270080F080008DF832
:1039300027009DED0A1B9DED088B76E7FB21E93FF3
:10394000FFFF4F3E00BF00BF00000000000000006E
:103950000000F07F7A6A0F403B461C40FA21394153
:10396000FB2109009FED300B1EF006FC9FED300B94
:103970001EF0A2F91EF090F91EF034FF41EC110B7D
:103980001EF03CFC0FE09FED200B1EF0F5FB9FEDC1
:10399000200B1EF091F91EF07FF91EF023FF41EC81
:1039A000110B1EF0F7FAB0EE408AF0EE608AB0EE2E
:1039B000480AF0EE680A16B0BDEC068B01B0BDE80F
:1039C000F08F00BF7CD9024000004054FB21F9BFBA
:1039D0003163621A61B4D0BDBCFD15407CD9124080
:1039E0000000307F7CD912C0CA9493A7910EE9BD24
:1039F000EAFBFFFFFB2119400000000000007041BE
:103A0000000000000000000000004054FB211940AD
:103A10003163621A61B4F03D00004054FB2119C0CB
:103A20003163621A61B4F0BD0000307F7CD912406E
:103A3000CA9493A7910EE93D00004054FB21094030
:103A40003163621A61B4E03D00004054FB2109C0BB
:103A50003163621A61B4E0BD00004054FB21F93FBC
:103A60003163621A61B4D03D00004054FB21F9BFBC
:103A700083C8C96D305FE43F000000000000384398
:103A800000000000000038C30000601A61B4D03D9F
:103A90007370032E8A19A33B0000002E8A19A33BE2
:103AA000C14920259A837B392DE9F04F85B00D4619
:103AB0000295044615F8011B8DF801100022DFF86D
:103AC000E41488788DF8002004F1660B1EF0B4F938
:103AD00001902C219DF80100DFF8CC24032804F18B
:103AE000F40604F5B07A04F59C7704F5C87804F27E
:103AF000171900F0E180072800F01382082818BF8A
:103B0000092811D00C2800F0D7810F2811D01128D6
:103B100000F04481182800F092811A2800F05781A3
:103B20001B2800F07C811AE22946204614F0ACFEE6
:103B300015E2707ADFF8748481070AD40F2089F8BF
:103B4000020020461FF01AFB002872D198F80000EE
:103B5000DCE12878697800EB01223A82A878E978DC
:103B600000EB01227A822879697900EB0122BA827E
:103B7000A879E97900EB0122FA82287A3876697A05
:103B8000A87A01EB00227A83E87A297B00EB0122F4
:103B9000BA83687BA97B00EB0122FA83E87B297C4E
:103BA00000EB01223A84687CA97C00EB01227A8434
:103BB000E87C297D00EB0122BA84687DA97D00EBB9
:103BC0000122DFF8EC03FA8401788A0658BF4FF02F
:103BD0001A0A13D504F5AA700490798B0391387EE4
:103BE000029021890191F88A0090BB8A7A8A398AE9
:103BF00020461FF0BFFAE8B14FF01E0A707A410765
:103C00000AD40F2089F8020020461FF0B7FA0028D6
:103C10000FD198F8000079E152460F2120461FF09D
:103C2000A5FAF88A0090BB8A7A8AA179504616F0E4
:103C3000E7FA72E104F18600798A81800023BA8A6A
:103C4000C2800222F98A018102704380A18EC91DBF
:103C5000ABF81E10628E8188B1EB520F02BFC18893
:103C6000A28E914202BF0089E18EB0EB111F21D0DC
:103C70009BF81000012804BF9BF811000F280CD0FE
:103C80009BF8150000281CBF9BF811001A2804D0CF
:103C90000F218BF81A10FE217CE0FC2120461FF03A
:103CA0008DFAF88A0090BB8A7A8A398AA0791FF047
:103CB00059FA32E110216DE0707AC10709D43178E8
:103CC0001A200129707002D1FF220D213DE00D2143
:103CD00060E000208BF800008BF8060001223271B2
:103CE0002946082204F1B0001FF038FA01460222EA
:103CF00004F1B8001FF032FA04F1A80501460822C9
:103D000028461FF02BFA0746082128461FF03EFAE6
:103D100004F19C050422394628461FF01FFA0421AD
:103D200028461FF033FA04F1A0001FF013FA04F143
:103D300098001FF00BFA9F48018841F08001018034
:103D40003078012805D1FF22042120461FF0FAF91E
:103D5000E3E09BF811600F2E18BF142E07D00E2E33
:103D600018BF0C2E03D01A2E18BF162E11D19BF897
:103D70001070FF22042120461FF0E4F9012F06D124
:103D80008BF81A601A2E14BFFD21FB2102E0314688
:103D900000E0042120461FF011FABEE028788AF8DE
:103DA00000001A286B788AF8013040F0D88010683B
:103DB000A679431C4E4300209855A379126811FB45
:103DC00003F111440871A1799AF80100C0E0A779C4
:103DD00010682E784F43074406F01F0317F8210F91
:103DE000B60938B17878F040C00703D598F80600D6
:103DF000042805D120221A2120461FF0B7F98CE0B3
:103E0000FB701068A27911FB02F10144204681F891
:103E1000236000211EF026FE0028F0D174E0A37973
:103E200010684B430344D88808B900265E701068B8
:103E3000A27911FB02F10144002008716DE069785C
:103E40002878884204BF084010F0070F6DD19BF816
:103E50001100162806D198F80620A17913460020F3
:103E60000DF0BAF8022088F802000121019841778C
:103E7000012398F8060098F80A1088F80000BAF8AC
:103E80001C201FF05BF9BAF81810814209D3BAF868
:103E90001C2098F80A1098F8000001231FF04EF932
:103EA0000146AAF82E10012198F8080040F04000C1
:103EB00088F80800397030E0707E012810D015F8BD
:103EC000011B31770222294604F589701FF046F95B
:103ED0000146022204F58A701FF040F90120707635
:103EE0009BF8060030B93D21012289F8011089F8BC
:103EF000002012E0F07E002804BFB07E00280CD124
:103F000020461FF017F930B9284800784FF4804157
:103F10000DF0C8F801E00120F07601218DF80010C5
:103F200021E028780F2816D01A2818D1A079136814
:103F30004843184400234370A079126811FB00F134
:103F400050180371F07A00F0FB00F0721A20A1798A
:103F50000AF02DFCE1E7707A00F0FD007072204657
:103F600002991FF0E3F89BF811001A2815D19BF86D
:103F7000120017281CBF1028FC280ED19BF81060D7
:103F800020461FF0CFF8012E03BF1A208BF81A002D
:103F9000FB211A2120461FF011F99DF8000005B001
:103FA000BDE8F08F780E002058570020C70F002082
:103FB000200E00209C0F00202DE9F84F16F024F869
:103FC000DFF89C14DFF89C9408884988A9F814103D
:103FD000A0F52F7299F80710A9F81200B2F5FA6F40
:103FE00000F23081002900F02D81002089F80700BF
:103FF000B9F8120040F6FC01884205D840F23D3184
:10400000884204D840F23E310846A9F8121099F8C7
:104010000920DFF8604499F8081024F81200B9F874
:104020001420A2F52F73B3F5FA6F03D811B1002154
:1040300089F80810B2F52F7F06D399F806301BB91E
:1040400040F68D239A4238D34A1C99F8041089F817
:104050000820D2B2052A03D311B9012289F806201B
:1040600059BB40F23E31884227D8DFF80C7401205A
:104070004FF00E08002589F8040089F802803D7091
:104080000BF01AF838781EF0DFF9112011271CF018
:10409000C3FF99F8010089F8065012280DD3DFF804
:1040A000C80389F80170DFF8C8130E22006880F891
:1040B0002780DFF8B8031DF058FFB9F8141040F658
:1040C000FC00814205D840F23D30814204D840F2E4
:1040D0003E300146A9F8140099F80920E44800236D
:1040E00000EB4202918100220021032A08D034F81B
:1040F0001250294400EB42050132AD892B44F4E70C
:10410000DFF8788399F8024089B2DD4F642640F2E7
:10411000BE5299F80450D8F800E08EF80A40032403
:10412000B1FBF4F111FB067191FBF2FCD549A1F84A
:1041300000C099B2B1FBF4F111FB067191FBF2F1F1
:10414000D14A8BB2118065B9B9F80E50012D40F0FB
:10415000A7801E2B00F2A4801FFA8CF11F2980F08B
:104160009F800024A9F80E40DFF820A3C84AAEF8CB
:1041700008308EF80B409FEDCA0AB9F80C70BAF8F7
:1041800000101180C34A13681A89541AC249AAF848
:1041900000200C60B9F816107D1AC0490D6012D0CD
:1041A00094FBF5F14FF6FE76B1420CDCBD4EB14208
:1041B00009DB00EE105A01EE104AB8EEC00AB8EE64
:1041C000C11A81EE000AB849A9F8167081ED000AFB
:1041D000997A21B3B5490968097811291FD3408814
:1041E0001FFA8CF1B24D48436421B0FBF1F099F80D
:1041F0000010012928805CD1002A144608BF012440
:1042000001045AD0AB49D9F8203009888A4257D2E4
:10421000002B55D12E46A9F80C00074694E0A4487F
:104220000027A9F80C700780D8F80000878099F85B
:1042300009000130C1B2022988BF002089F80900B5
:10424000BDE8F88FB0F52F7F04D340F68D22904261
:10425000FFF4CEAE481C89F80700C0B20528FFF471
:10426000C7AE99F8030000287FF4C2AE4FF4867001
:104270001024A9F8020010201CF0CEFE99F80100CD
:104280001128FFF4B5AE78480C2189F801400C22C2
:10429000006880F82710754875491DF066FEA7E68E
:1042A000ECB2002D7FF460AF1F2BFFF45DAF012453
:1042B00058E7A9F80C000746B6E700272E4641E06C
:1042C0008A421AD3CBB900EE104A01EE101A1DF043
:1042D000C7FA41EC100B9FED541BFCF751FC012079
:1042E000C9F8200051EC100B13F0A2F9C9F81C001A
:1042F00000EE100A28882E461AE08A4273D3002B5B
:1043000071D000EE104A01EE101A2E461DF0A8FAE8
:1043100041EC100B9FED441BFCF732FC51EC100BF1
:1043200013F086F9C9F81C0000EE100AB9F80C0069
:1043300001EE100AB8EE411A20EE010ABDEEC00AE5
:1043400010EE107AA9F80C7060001BF0D3F89FED06
:10435000380B53EC102B0AF0B5FD9FED370B1EF018
:1043600029FA9FED370B02460B4651EC100B08F073
:10437000C3FD9FED350B1EF01DFA9FED350B1EF0B2
:1043800019FA9FED350B04460D465BEC108B424647
:104390005B4614F05FFB00281CBF5D464446204688
:1043A000294617F0ADFAB9B2A9F81800DFF8CC80A9
:1043B000814284BFA9F80C0007463088B9B2814217
:1043C00084BFA9F80C0007463A48BAF800100088E4
:1043D0008142FFF429AFD9F8200000283FF424AF30
:1043E000A9F8107020E72E468A42ADD2002BABD040
:1043F00099F80A2099F8051080B2B9F81050531CAA
:1044000050438A1A02FB050089F80A3090FBF1F745
:10441000D8B28842A9F80C7096D9012089F80A0010
:104420000020C9F820008FE70000000000000840CD
:10443000EA2E4454FB2109400000000000004E40D9
:104440000000000000C0724077BE9F1A2FDDE23FDF
:10445000120DF736A2204D3F000000000040CF4073
:10446000CC570020282E0020FC5700200C5800209C
:104470000030002012570020DB5800200458002094
:10448000C8BBFEFF9C580020965800208E58002084
:104490008C58002000580020E8570020DC570020EE
:1044A000000000000200FFFFEC5700200858002029
:1044B00088580020905800202DE9FE4F0446002027
:1044C000009080460CB91BF0EFFA04F1500641F65B
:1044D000230037683880A7F8028002223A737A7383
:1044E000694620460DF09EF808B9072050E2009971
:1044F00001B1B860B8682061DFF89804017884F8E9
:10450000B8107068407A18F0F5F825302076B87346
:1045100087F80F807168087D022804BF00201BF017
:10452000C3FA7068007D012802D10020002104E058
:1045300083280CBF0620022020213874797404F1EE
:104540002405DFF854A4DAF83C0041690868697969
:1045500001EB41010844B0F801207A82706841788B
:1045600048060AD5607DC10604D5E07F40F04000D2
:10457000E07702E040F04000607507F15C0904F16B
:10458000300089F80080A97E890001F0040189F8D3
:104590000010B866607DC10654D5726851788A06ED
:1045A0000BD500F0FE0060757068417811F0030FC4
:1045B00003D1E07F00F0FE00E077607D1EF0AEFDED
:1045C000A0750023387CA27DC0F38001521C00F04E
:1045D00003001EF09FFDA0831E23A28B02F59B709B
:1045E00090FBF3F31E2101FB1300C0B208B1C0F130
:1045F0001E00821802F59B7262831E23A28B02F5B5
:10460000967290B290FBF3F301FB1300A283C0B249
:1046100008B1C0F11E008018A08380B2E27D618BDA
:10462000521E50434018608307F13008608BB4304D
:1046300080003866062089F80300E17F41F0080118
:10464000E17720E040F00100607571684A78510719
:1046500044BF40F002006075607D1EF05FFDA075F4
:104660000023387CA27DC0F38001521C00F00300BF
:104670001EF050FDA083A08B00F59670A083002053
:10468000386689F80300A17D207D61F3050007F1FC
:104690008801207508700322607D48708A70A87EAA
:1046A000800000F0040040F003008870EA7ED20031
:1046B00002F00802104388700020C8700021C7F87B
:1046C0009010A88BC0F30B00A8837168CA7D40EAE4
:1046D0000230A8830022617D01F0FE0120460CF02B
:1046E00055F8019700271DE01C20784304EB000BD0
:1046F00001991C220BF164001DF0C0F90BF16C0054
:10470000052101717F1CA28B92000260FFB2DAF8D2
:104710003C104A6911686B7903EB43031944B1F803
:1047200001204281E07D401E8742DDDB019F204663
:1047300011F024FAE07D012809D013D3032809D011
:104740003EBF04F164007860C6F818800AE0C7F83C
:10475000048007E004F16400786004F18001B16135
:10476000C6F8348041F6240038860021798607F1A6
:104770003C08B868618B00EB8100B863022182209D
:1047800088F8000088F80110002194F8210088F8CA
:10479000031000F03F0088F802007068807D012857
:1047A00018BF022803D100F07F00401E04E08328D8
:1047B0000CBF06200220202188F8040088F805108C
:1047C0004FF0000BDAF83C00416908686A7902EBA7
:1047D00042021044B0F80110A8F80610C7F86CB0F7
:1047E0007068417811F0030F20D01EF08FFCF8663E
:1047F000DAF818000078C1074CBF1F200F20DAF844
:10480000181009788A0748BF40F02000DAF818101D
:1048100009784A0748BF40F04000DAF818100978D4
:104820000A0748BF40F0800089F8140089F815B0E5
:1048300071685A4A887C00F0030089F81500A97E47
:10484000890001F00401084389F81500E97EC900D8
:1048500001F00801014341F0100189F815101078AA
:1048600038B199F8140000F0FE0041F0400189F8D9
:10487000140089F81510E07F1EF050FC84F8200029
:1048800020461EF03FFCE07FC10635D5706894F8E5
:1048900020204178521C88074EBFD21EE87F121894
:1048A00098F80400C0F380010023D2B200F00300A6
:1048B0001EF030FC28801E22288800F59670C0F17A
:1048C0001E0190FBF2F21E2000FB0211297171689B
:1048D000487881074CBF00204FF49B70298840180E
:1048E00028806880B86B29882A795218A63200EB94
:1048F00082007867022002E0C7F874B0002089F8CF
:10490000170004F13000C7F8800007F184007168D7
:104910004A78510707D504F13802026099F815006A
:1049200040F0200007E01E490A685168016099F8CC
:10493000150000F0DF0089F81500A17F94F8200031
:1049400060F30501A17740F60B00A8F81000A8F865
:1049500012B0DAF83800008880007865DAF838009C
:10496000008800B1072088F81C00022088F81D008C
:1049700094F84510A8F81E1070684178880744BF65
:104980000121A8F81E10009808B10BF060FC00206F
:10499000BDE8FE8FAA580020E04F0200880E0020DC
:1049A0006C0F00202DE9FE4FDFF844B4DFF84474AB
:1049B00005469BF8000000284CD0052872D0062838
:1049C00000F07F80072818BF082800F0F5800A282B
:1049D00000F0E281112802D013286FD000E2DFF846
:1049E0001824107800211EF005FC04001EBF606D25
:1049F000407810F00C0F2DD0216DC0064CBF886C94
:104A0000C86E016801F108050622A91C68461DF060
:104A100035F8287800F00F0105291BD145096946B2
:104A2000C0F380101EF06AFB002813D03968684676
:104A30001EF060FB0646396804F138001EF05AFB90
:104A400086420DD0606D4178C80604D440F2014022
:104A50001EF04CFBCAE1607B40F002006073C5E1D0
:104A60003B681E204643981906226946C01D1DF06A
:104A700005F8606D4178C806F1D5A17B0129EED11A
:104A8000DFF878038178480605D5E90703D4206D5F
:104A900041F20A4102E0206D41F20441418041832C
:104AA0004186A3E11DF0D8FF0028FAD112F070FC76
:104AB000012802D001201EF015FB97E114F095FDAE
:104AC00094E1DFF83C5328681EF008FB0400F7D09F
:104AD00020790328F4D1207A00F00F01072938D17A
:104AE000DFF8200300684169497A4A1E11425CD010
:104AF000617A04F10A035A5C02F03F02252A54DB72
:104B0000A17A8A09012A50D111F03F0F4DD0007CC3
:104B10001CF0A0FFE17ACA074CBF04F1110204F1B6
:104B20000B028B0748BF921D0B0748BF921CC9069A
:104B300048BFD21C1278520916214A43B2498B1839
:104B40000A31EB608A5A428699898186DA89C2865F
:104B50002BE000F00F00082827D1A17A880924D182
:104B600019B3A8480168087C1CF074FFE17A064676
:104B700088071AD5062201F001015143601800F19F
:104B80000C0168461CF07AFF207AC00969461EF0C5
:104B9000B5FA50B1386800F10D0168461EF09AFA76
:104BA00018B9052130461BF0E1F92079032802D01D
:104BB00000201AF079FF0FE1944FB8780024FF2805
:104BC0001BD01CF047FF804608F16C09D9F804009F
:104BD0001EF084FA2A460179032901D011000CD075
:104BE0008368197801F003008D06009003D5012435
:104BF000009818B9CDE01000FAD0F7E05D7803F125
:104C0000020A34B31AF8010B814B01902C2098F85A
:104C100006C01E6810FB0CFC66444FF0010E86F8BF
:104C200005E0002A1E6898F806E006F11A0C019EBD
:104C300010FB0EFE06F01F060CF80E6098F80660DA
:104C40001B6810FB06F01844019BC3F38113C37665
:104C50001AD10098032808F217161AD0ADB199F8A6
:104C6000000068B108F1F4000278012A0DD19BF828
:104C70000020072A04D0082A04BFC078012804D1E4
:104C80003D21717001203070B0E0624A1378012B31
:104C9000FAD098F8940000283CD030782D1F0128D5
:104CA000EDB2F1D053462A46404610F0E7FF002807
:104CB0001EBF59490878002813D13D217170012089
:104CC000564A3070117801290AD1554C20784FF49A
:104CD000805119F077FD20784FF480510CF0E2F903
:104CE00084E050480168884701904FF4D07098F8EC
:104CF0000620796842438818002180F8411108F5A0
:104D00009E7001688079490812F0D6F846490198EA
:104D10000A689047009803281DD0444948690078E4
:104D200082070DD598F89400002814BF281D284646
:104D30004A691178CA0748BFC01C1AF8000000E091
:104D4000812089F808002A460098C3B2B8785146F5
:104D500005F046FF1DE09AF800001CB11B2804BFB7
:104D6000022D01251C2803D231490B5C9D4205D040
:104D7000B070072140461EF021FA0AE09BF80000BF
:104D800008285146404602D11DF01EFE01E0FEF704
:104D90008BFED9F8040020E0264C207830B3264D55
:104DA00028681EF09BF908B3017903291ED1017A06
:104DB0008A0611D5807AE178C0F38112914202BF50
:104DC000217900F01F00814206D1A078002801BFA0
:104DD000607800280121A17028681EF077F905E0AD
:104DE00000201AF061FE86201EF000FABDE8F78F61
:104DF000C80F0020680F0020D50F0020C00C002035
:104E0000BC0A0020540F0020E0070020780E00208C
:104E100058570020D20F0020AF580020880E0020E5
:104E2000C70F00200032002004320020E04F0200B3
:104E300030530200B8560020AC0C00202DE9F84396
:104E400005460C46480413D4A00024D4A0075CD423
:104E500060057ED4200500F10681200700F13B812A
:104E6000600040F1F68013F01BFB24F08044F0E07A
:104E70001DF046F9DFF81C140F6D3FB1D7E90A1297
:104E800002F0E04201F00A01891849D01DF027FD27
:104E900024F48044DDE0BB48DFF8FC73016841F096
:104EA00080010160B878012804D1042019F0FEFDCA
:104EB0000020B8701DF024F9064604201DF0B0F95A
:104EC000DFF8D8130A68904219D12A7EBAB1FA687D
:104ED000AAB1DFF8C003806C002800F09780C16899
:104EE00040F603020988914206D0C06840F60401EA
:104EF0000088884240F08A8005F1140088E040F67E
:104F0000C4120860C5E9042284E007F033FCDFF82E
:104F10008403006C002840F09D8024F0020498E097
:104F2000D7E90A65D7E90A12AA43B143C7E90A12C9
:104F30001DF0D5FCB8680028AAD056EA0500A7D015
:104F4000D7F808C03869B7F9301032462B46E04729
:104F50009EE71DF0D5F805461BF022FA002800F068
:104F6000B780CC48876B002F00F0B280DFF8288331
:104F70000420CB49002288F81800C6481CF094FB96
:104F80001DF0E0FCC7481DF0A1FCC7480068006B9D
:104F90008047C8F810000125042088F802501AF054
:104FA000CBF8386990F82810C8F80400490703D5F1
:104FB000436A042100229847012014F01FFCD8F80E
:104FC000040045760EF08EFCD8F8040081680B468C
:104FD0001A465B684BB11E88A6F60306072EF7D863
:104FE00005FA06F616F0830FF2D0537B03F0F003B8
:104FF000013353730023FD6853602D88A5F6030524
:10500000012D00F28A80C8F810309FE005F11000F1
:1050100017F0D8F930461DF062FC1AF0A5F878B107
:105020002E6A28466FF4807100224FF00073B0475B
:105030009848806B10B113F033FA01E044F0020499
:10504000EE692846002100224FF08063B04724F02B
:10505000005434B1974821462830BDE8F8431DF08C
:1050600023BDBDE8F8838C4EB078012804D104201C
:1050700019F01CFD0020B0701AF076F838B1706895
:105080006FF4807100224FF00073056AA847306901
:1050900050B185480068006B804732697168801A9A
:1050A000000BC860002030617A4D814900222846FB
:1050B0001CF0FAFA02203076286C20B17D480221DB
:1050C00028301DF0F1FC13F0EBF924F40064C0E784
:1050D0001DF038FC41E01DF013F805461BF060F9A7
:1050E000A0B1DFF8B48198F8000000070ED498F959
:1050F000000000280AD468460EF03AFD08B1009876
:1051000020B1DFF8B49199F8610048B31DF01AFCA2
:1051100013F0C6F924F008049BE7034633F8385F20
:10512000A5B190F8445090F8456005F0F00580F87E
:10513000445006F0F005013580F8455000255360D5
:10514000C5634587507B00F0F0005073574800223C
:10515000C261016001201BF001FC24F4806478E747
:1051600000260127602E0FD009EB0600817A31B1AD
:105170008772407A07FA00F0C0B219F0B1FC20360D
:10518000F0E700BFCC210840032088F8180045480C
:105190001DF09CFB1DF0D6FB444F3E4D002278696C
:1051A00000207861F968F860284644491CF07CFAD0
:1051B0003D480068006B8047D8F80C10D8F82020D4
:1051C000411A02EB1130B0EB113F38BF4FF0FF3006
:1051D00098F82410C8F8200021B1D8F80810B0EBD6
:1051E000C12F20D91BF0CAFBB8B140F609004146D7
:1051F00021F83C0F002048804A7B02F0F002013287
:105200004A730A7B02F0F0020A734860F861396061
:10521000B8F83E0010F4406FFAD00020C8F8200023
:10522000012088F8240016F0B7FA25480021016013
:10523000022000211BF092FB022019F037FC102005
:105240000DF0B8FE98F8010020B9D8F804005030ED
:105250001DF026FC1B48807810B90D200DF0AAFE29
:1052600098F8250028B1002088F82500052019F0BD
:105270001DFC002088F818001348C8F81C00022004
:10528000B5F85610B5F85420914208BF072012F027
:10529000A9FA3DE7F829002098270020783300205C
:1052A0007D030200D05100208C010010001004404A
:1052B000C9ED000038290020784D00200585010047
:1052C000000004602C550200B9E800002DE9F04F01
:1052D0000F46380589B018D5DFF8F4532888FF2821
:1052E0000ED0C0B21CF0B6FB040009D0A079162184
:1052F0001DF0E8FE20461CF0A3FB20460AF022FB2E
:10530000FF20288087F40060DFE1F80504D516F05F
:105310003AFC87F48070D8E1B80604D51DF06CFB28
:1053200087F02000D1E1F8070CD51CF0ADFD30B1BD
:1053300000218160DFF89C03006800B1804787F09E
:105340000100C2E1380704D51DF058FB87F00800C2
:10535000BBE1F8060FD5002100220023069105923B
:105360000491039302910192009102201DF0A6FE88
:1053700087F01000A9E1B8070FD50021002306919E
:1053800005910491039302910191009101223C2027
:105390001DF094FE87F0020097E179074FF01E0898
:1053A000CD4EDFF838A340F1D580CD480022002152
:1053B0000892079100781DF01DFF0446C9488178C6
:1053C000FF2904BF00201AF06FFBA07A1CF042FBFB
:1053D00005469AF8000095F82E91002805F5947B73
:1053E00071D0606D807A022818BF032807D1306819
:1053F0000D301DF05FFE10B93068C11D0791594690
:1054000048461DF07BFE00283BD0606D807C3368F1
:10541000002818BF012804D1194658461DF06AFE1D
:1054200004E05A46494618461DF018FFFF284AD0A6
:1054300008FB00F83068404406225946C01D1CF0A5
:105440001DFB306810F80810404400F1010B41F0DA
:105450000209C01D089009F0010185F82E110622ED
:10546000594605F594701CF009FBA8791CF0E4FC82
:10547000060008BF1AF018FB94F8B90086F83A0045
:1054800021E0594648461DF011FEE0B130685A4609
:1054900049461DF0E3FEFF2815D018FB00F83068E0
:1054A00040440D301DF006FE58B9306840440D30C0
:1054B0001DF000FE002801BF30684044417F0129F3
:1054C00001D149F0020905F12C004B460178069103
:1054D0004289120905920122698C0491C0880899B9
:1054E000029140080390CDF800B007980190002089
:1054F000A9791DF0E3FDD5F89C017B4988420CBFDA
:1055000000210121A8791DF0CDFD7848AB79026812
:105510002C214B43134401221A73AB7904684B438B
:1055200023445A73AB7904684B4323449A73AB7991
:1055300004684B432344DA73AB79006811FB03F131
:105540000144002008740720A97912F0A8F887F018
:105550000400BAE038060FD500210023069105911A
:105560000491039302910191009101223B201DF0CF
:10557000A5FD87F08000A8E0F8045DD55C4930689F
:105580000C680D301DF096FD002844D13068C11D17
:105590000D301DF083FD3EE0606D4178480704F159
:1055A0003E0526D5287802281EBF032868780128E2
:1055B00030D16978306804F138021DF04FFE814621
:1055C000B9F1FF0F15D0306818FB09F948440D30C8
:1055D0001DF070FD68B930684844C11D0D301DF0E4
:1055E0005DFD30684844C11D062204F138001CF0FE
:1055F00045FA2878022818BF03280BD130680D30EF
:105600001DF058FD30B93068C11D062204F130008C
:105610001CF034FA2468002CBED13648DAF8042095
:1056200000784FF4805117F0CBF810B18E201DF0A8
:1056300031FD87F4805048E0B80505D51DF072F8BB
:105640002D4901200860FEE7780504D51DF091FA88
:1056500087F4806039E0780405D581201DF01AFDBB
:1056600087F4804031E0B9042ED5244C206810B175
:1056700000201AF019FA4FF0FF3020600020204C73
:1056800010F052FF216851F8202F684690471D49BD
:105690004A6B086BC96A24681B4B01920090ADF8F5
:1056A000101002936B46194A194801681948039271
:1056B000194A07922568194AA8471949086003F052
:1056C0000DFF87F4005000E0002009B0BDE8F08F26
:1056D000BA330020480F0020680F0020880E0020F9
:1056E000D70F0020780E00204DE5011058570020FC
:1056F0004C0F0020C70F00207C052043380F0020EE
:10570000200F00202C270020691E0200791E0200B5
:1057100064570020704800201EFB0080EC0A002027
:105720001C0F00202DE9F84FDFF82854A978002439
:10573000FF2904BF00201AF0B7F9A8781CF08AF9F5
:10574000054605F1680605F5C9773168086805F171
:10575000900808B1EC8311E0B07B002804BFB07E54
:1057600000280BD198F80010002904BF38780028D1
:1057700004D1287F012804BF688CE8832989E88B3D
:105780004118491C698128461DF080FC01281EBF74
:10579000DFF8C4030178012903D12989EC83491C6E
:1057A00069814FF6FF79B07E01280DD1B28B6989EE
:1057B00028891DF067FC38B1298968894A1C93B291
:1057C00098422FD0B08B23E098F8000001280FD129
:1057D000B8F80220698928891DF054FC40B1298954
:1057E00068894A1C93B298421CD0B8F802000FE0B6
:1057F0003878012816D17A88698928891DF042FCF9
:1058000080B1298968894A1C93B298420AD0788865
:1058100092B2904206D04844688180B21DF02EFCBE
:105820004844E883387801280FD128897988401CBA
:1058300080B2884209DB7C793C71022038702346B3
:10584000A979224600200BF0C7FB05F59A7108796B
:1058500020B128890021401CE9836881B07E01289D
:1058600013D12989B08B4B1C9BB298420DD1688112
:105870001DF004FC05F12E01B6F820808A8802FB99
:105880000088284610F0BAF903E005F12E00B0F8C0
:105890000480E88BB14B411C01FB08F82968CA68F9
:1058A00040F6C41909FB0822CA60AD49DA7BD30768
:1058B00002D56B8A00220BE00A88521C93B2012B9E
:1058C00003BF05F59A7CBCF8063003F2DC536B8A03
:1058D00003FB08F34FF4C87CB3FBFCF35B1C6B6168
:1058E0000A8085F82000C5F818804FF01C0BDFF8FF
:1058F00074A2AB79DAF8000000F108021BFB03F395
:10590000D1582A68116100F10801AB79D268686941
:105910001BFB03F3121ACA50DAF80000AB7900F14E
:1059200008021BFB03F3D1582A68916000F10C02B6
:10593000A9791BFB01F10C30535C03F0F00343F039
:1059400002034354DAF80010AB798A1C1BFB03F303
:105950000021D152387908B91AF0A6F8DAF8000017
:10596000AA7900F1100138791BFB02F24008885433
:10597000A879DAF800101BFB00F0084400214174FC
:105980003879042814D1A879DAF800101BFB00F04C
:1059900001F110021031135C3A7A43EA82030B548E
:1059A000AA79DAF800001BFB02F2024420205074AE
:1059B000DAF80010A87901F112021BFB00F00021B7
:1059C00011526949A8790A6802F114034FEA401C90
:1059D000143253F80C00AB79D5F814C05B0100EB1E
:1059E0004C00D050B07E02280DD10A68AE7902F189
:1059F0001403760114329859AB7995F82E605B0147
:105A000019FB0600D05005F12E025448C37BD8077D
:105A10005ED5DAF80000AE7900F108041BFB06F64B
:105A20000830A359AC791BFB04F4A3F5A863035118
:105A3000DAF80000AC7900F108031BFB04F41859F4
:105A40002B6898600446494800FB0848C3F810805A
:105A50000868AE7900F1140476011430A359AC79CA
:105A6000640103F5F6630351387904280BD1086803
:105A7000AE7900F1140476011430A359AC796401B5
:105A800003F5616303510868AC7900F11403640104
:105A90001859C5F83401364B186B0C68AE799288EA
:105AA000006804EB461742436424B2FBF4F409FB9C
:105AB00004F0A0F596692F48C7F81C900278012AD7
:105AC0002FD10868A97900EB41120120D0722FE094
:105AD000042C0BD10868AE7900F11404760114305F
