:10000000003C0220ADDE0100ADEE0100ADEE0100CE
:10001000ADEE0100ADEE0100ADEE0100ADEE010070
:10002000ADEE0100ADEE0100ADEE0100ADEE010060
:0C003000ADEE0100ADEE0100ADCF000010
:1000400038B586B004468DF805104FF6FF720120D2
:10005000ADF80220090ADFF8B85AADF80000022313
:100060008DF806108DF8043069462A78204622F073
:10007000B7F8162803D12978204622F0ADF807B04A
:1000800030BD3EB504000D461ED0DFF8880A00687A
:10009000224622F09DF8FF2815D000200090002372
:1000A00001AA2946204611F0DBFD60B99DF8040045
:1000B00000F06EF9C00606D59DF8040000F068F95E
:1000C00010F0040000D001203EBDFEB516461524F8
:1000D0004FF6FF7290420D4615D100208DF80400B6
:1000E000DFF82C7A9DF80400F97988421AD232465A
:1000F000294600F03EF800B100249DF80400401CA1
:100100008DF80400EEE722F05FF850B100F099FBA3
:1001100040B99DF804003246294600F02AF8002430
:1001200000E014242046FEBD7CB50D4604460621A1
:100130004C43164620346A46082120461EF06AFFCA
:10014000A8B900F076F890B99DF80700002E14BF0A
:10015000054320EA0505E9B2814206D08DF8075033
:100160006A46082120461EF069FF012076BD002066
:1001700076BD2DE9FC4106463446062388461546E1
:100180005C436A46082104F120001EF043FF00286A
:100190004CD100F04EF8002848D100F024FA0400B9
:1001A00002D100F018FA41E0397AE036224689009F
:1001B00030461EF02FFF002834D1204600F051F8C1
:1001C0005FEA08000ED13A7A9206120E002120460C
:1001D0001FF00BFE30BB3A7A92000021204620F03F
:1001E00067FC16E0214600F029F858B9280004D031
:1001F0002146002000F022F810B900F00CFC15E0B8
:10020000A0F800808178A9420CD085700DB900213A
:100210000180204600F025F8397A224689003046D0
:100220001EF00CFF00F0F7FB012000E00020BDE80D
:10023000F6810622FF2168461FF0D7BD70B5DFF8B2
:10024000D0381D7A002200E0521CD4B2AC4206D253
:1002500031F824608642F7D101EB840070BD0020A4
:1002600070BD10B50021DFF8A8280AE030F8213071
:10027000DB4320F8213000EB8103491C9C78E443E8
:100280009C70137A9942F1DB10BD2DE9FE4FDFF827
:1002900080480646207A0F4691469A46800020F014
:1002A0001FFE5FEA000803D100F095F90A206DE017
:1002B0000C9D02974FF0060B37461BFB07FB029A7B
:1002C00008210BF120001EF0B9FE8DF80400304625
:1002D00000F099F8227A00F079F99DF80400009076
:1002E0004246217A890006F1E0001EF0A7FE009E3A
:1002F00002990643206A082200EBC70020F0E2FBC7
:10030000F5B11022002128461FF06FFDC0B90299F7
:10031000887900232A4600F0010021F051FF0028CF
:100320001CBF9DF93C00002803D0DFF8EC1701202A
:1003300008702A4610210BF123001EF07FFE0643B1
:100340005FEA090205D01C210BF121001EF076FEA8
:1003500006435FEA0A0205D01C210BF122001EF0C1
:100360006DFE06430D9A4AB110210BF124001EF0D8
:1003700065FE06430EAA00F031F90643A07D08B1E0
:1003800000F094FA404620F0B3FDF0B2BDE8FE8FD5
:10039000E0B5062358436A46082120301EF03AFE95
:1003A00010B99DF807000EBD00200EBDDFF86007F4
:1003B000007808210FF0DEBE38B50025DFF8504781
:1003C00018E0206A06236B4300EBC50220330821A6
:1003D00098B21EF01FFE58B1206A0622FF2100EBE2
:1003E000C50020F065FB206A00EBC5010022CA7140
:1003F0006D1CEDB2E1798D42E3DBA07D10B1BDE86B
:10040000314053E231BDF8B5DFF80417DFF80C379F
:10041000C9791E680C460A4600E02A46D5B23DB1AD
:10042000551ED2B2324412F8017C8742F5D12C46D7
:10043000E4B220464D1E07E01718165C7F7817546B
:100440001A680244401C5670A8421A68F4DBAC4299
:1004500004DABDE8F84005201EF0F0BDF1BD70B52E
:100460000024DFF8AC5600E0641CE879E3B2834274
:100470000BD22B6AE6B20622FF2103EBC6001FF067
:10048000B4FC0028F0D0E0B270BDDFF894261178FB
:1004900039B1DFF8880601680C78204600F013F8BF
:1004A000204670BD38B500200024DFF8645603E014
:1004B000E0B200F008F8641CEA79E1B2914201D29E
:1004C0000100F5D032BD2DE9F84F4FF0060B1BFBB4
:1004D00000FB8EB081460BF1200501AA08212846B9
:1004E0001EF098FD002868D10622FF2101A81FF008
:1004F0007CFC002861D100F076F85FEA000803D1A7
:1005000000F069F80A205AE01C22FF2103A820F01D
:10051000CFFA3A7A00F05AF80BF123060AAA102112
:1005200030461EF077FD60B91022FF210AA81FF0A7
:100530005CFC30B99DF80A0001A900F0010021F02F
:100540003BFE082200F03EF801AA082128461EF0D2
:1005500075FD054603AA1C210BF121001EF06EFD5E
:100560008DF8000003AA1C210BF122001EF066FD8D
:10057000044603AA102130461EF060FD064603AA79
:1005800010210BF124001EF059FD824603AA00F051
:1005900025F89DF800100D43254335434AEA05052B
:1005A000397A05434246890009F1E0001EF046FD14
:1005B0000543404620F09CFC00E0002528460FB093
:1005C000BDE8F08FFF2101A820F072BA9200FF2150
:1005D000404620F06DBA04201EF092BA04210BF1BF
:1005E00025001EF02BBDDFF82875387A800020F03A
:1005F00077BC2DE9F84187B0FF208DF80000DFF8C7
:100600001055E87920F06CFC040003D1FFF7E3FFFC
:100610000A2030E01022FF2103A820F049FAEA79ED
:10062000FF21204620F044FA0622FFF7CBFF03AA61
:10063000102102201EF002FD064603AA102103200D
:100640001EF0FCFC06436A46012104201EF0F6FC65
:100650000746E979224605201EF0F0FC054601AA6E
:10066000062106201EF0EAFC804600F0D4F93E4345
:100670002E4348EA060008B0BDE8F081DFF8901488
:10068000408809781EF08ABCF0B5A9B006460D4630
:10069000144621F099FD08B91420A6E0A4220021F7
:1006A000684620F005FAADF80060DFF86464F07881
:1006B000F17B279A8DF804005208307C8DF8A00059
:1006C0004B0801F0010040EA420222F0020203F06E
:1006D000010342EA4302080922F4807200F001009B
:1006E00042EA0022480922F4007200F0010042EAC6
:1006F0004022880922F4806200F0010042EA802250
:10070000890822F0040201F00101707C42EA8102B2
:10071000279202280CBF012000200DF126077874D3
:1007200021F046FD412807DB707C00B108209DF8D0
:10073000991008438DF89900F07CB8B10121B97483
:10074000202206F188010DF1390020F0BBF92022AA
:1007500006F1A8010DF1590020F0B4F9202206F1AC
:10076000C8010DF1790020F0ADF900E0B874707B9C
:100770008DF8050090B1DFF8AC73102207F110017D
:100780000DF1060020F09EF99DF89900082805D18A
:10079000102239460DF1160020F094F9307B8DF8C7
:1007A000260030B11022DFF880130DF1270020F071
:1007B00089F9307948B1022D18BF032D03D127984C
:1007C00040F002002790012100E000219DF89900EF
:1007D0000143B0788DF8991000B1042001438DF8E1
:1007E00099106846214621F0DFFC29B0F0BD2DE9C3
:1007F000FC41154615244FF6FF72904288460ED1F3
:100800000027DFF80C63F179F8B2884216D22A4645
:100810004146FFF789FC00B100247F1CF3E721F07B
:10082000D3FC50B100F00DF840B99DF804002A4601
:100830004146FFF779FC002400E014242046BDE87F
:10084000F681002100910023417901AA01F0010104
:10085000801D11F005BA70B504460D4606204543CB
:10086000082B88B0164603D1300758BF223500D573
:1008700021351C220021FFF7A6FE01AA1C212846D3
:100880001EF0C8FB80B99DF81E00C01F0A280BD2BD
:100890009DF830000090F20801AB02F0010206F072
:1008A0000101204620F0C1FB08B070BD38B521F031
:1008B00077FC0024964D0FE0286A0622FF2100EB0A
:1008C000C4001FF092FA28B9286A00EBC4018879A5
:1008D00021F062FC641CE4B2E8798442ECDB31BDB7
:1008E000F0B5924D0646686885B04FF6FF7438B98A
:1008F000009502238E4A2146012021F049FC6860C0
:10090000696819B30222FF20029200230390019329
:100910000DF112072A88009704AB304607F0B0FEAD
:1009200060B99DF810009DF8111000EB0122100035
:1009300004D0686841893046FFF7C7FB2A88686899
:100940000023214621F020FC686008B9012000E066
:10095000002005B0F0BD3EB50C46002501460095CF
:10096000002301AA204611F07BF938B99DF8040054
:10097000FFF70EFDC00601D401203EBD00203EBDA4
:100980002DE9F0416B4F3C6806468846154603E06A
:100990002089B04224D02468002CF9D10C2020F00A
:1009A0009FFA040019D0268184F80A800020206074
:1009B000E07245B1082128461FF058FC606018B964
:1009C00000F029F80AE06060396811B93C6004E081
:1009D000014608680028FBD10C600CB9152018E00E
:1009E00021F0CEFB08B1002013E00120E0722A467E
:1009F00041463046FFF748FE04464548C069002896
:100A00001CBF4368002B03D00022002130469847CA
:100A10002046BDE8F081204620F06ABA38B5054688
:100A20004448046803E02089A84204D02468002CCC
:100A3000F9D1012032BDE07A012807D100F05CF83D
:100A400020B13348007804210FF094FBE17A491C6F
:100A5000E1722846C9B200F002F8002032BD38B574
:100A6000022904462A4D02D003290DD01EE042F689
:100A7000C921FFF7E5FA02001CBFE869002818D079
:100A80004368B3B105210CE042F6A621FFF7D8FA7E
:100A900001001CBFE96900290BD04B684BB102462D
:100AA0000421204601B0BDE830401847BDE832407F
:100AB00000E031BD10B51F4A1468002101E0214655
:100AC00024686CB123898342F9D1206800290CBFC6
:100AD00010600860606808B120F00AFAFFF79BFF19
:100AE000002010BD024604201249096819B10B8983
:100AF0009342FAD1C87A70470E48006828B100685E
:100B000018B1C17A0029FAD170470020704700005F
:100B100008220020680F0020AC58002078570020E1
:100B2000AB580020BC540020EC540020EC560020B0
:100B3000F64402007C57002038B584B0044621F00A
:100B400043FB0622417901F001018DF80E10811D51
:100B500002A81FF0B7FF0020009000239DF80E10A0
:100B600001AA02A811F07CF89DF80400FFF7ABFC85
:100B700005460521204621F0FFFA284605B030BD84
:100B80002DE9F84F2DED141BB0EE402A5BEC119BC4
:100B9000F0EE602A2BF000409FED870B50EA090130
:100BA0002BD0874B57EC126B5D1C0EB9AF4224D093
:100BB000844927F000448C4209D80EB18C4206D0FB
:100BC000884204D8B9F1000F1CD088421AD19FED99
:100BD0007E0B3046394655EC104B20F0CDFD0646D5
:100BE0000F464846594620F0C7FD02460B463046A0
:100BF000394608F0B6FD41EC100BBDEC141B01B0FA
:100C0000BDE8F08FB7F1FF3F02DD4FF0000A04E0CE
:100C10006F4A90426BD94FF0020AB9F1000F00F011
:100C2000EA839FED690BB8465CEC10EB4FEADC728F
:100C300062F3DF782EB34FF0FF3202EBD7725AEA3D
:100C400002034DD0AAF101031A430FF60C1208BF9C
:100C5000083292ED008B5F4A904261D301F144412A
:100C6000884240F28280AC4280F0998020F0A4FD5E
:100C7000222101600FF67010BBF1000F48BF083051
:100C800097E08C4204D0544A944201D0002CD2D137
:100C90009FED490B3246434620F07AFDBBF1000F31
:100CA0005CBF41463046B7F1FF3F41EC100BA4DC7E
:100CB0004A4A224402F5200252EA0A0210D08DED7F
:100CC0000C0BBAF1010F9DF8372082F080028DF8ED
:100CD00037200C9A18BF02460D9818BF0846D0E37B
:100CE00020F06AFD21219FED3E0B016085E79842CF
:100CF0007FF68BAF9C463C4B020D984248D340F2A6
:100D000033439B1A29FA03F202FA03F39945634627
:100D100006BF02F00102C2F1020A4FF0000A7CE7AE
:100D20009FED330B30464146CDE900EC20F000FD4D
:100D3000314A324B3532B4F5801F3ABF4FF6CC32D0
:100D4000CFF6FF722146B4F5801F02EB21526FF3FC
:100D50001F5128BF304641EA0508994256D3284B17
:100D600099424FD20292012152E01548844280F00C
:100D700075827546644620F01FFD2221BBF1FF3FBE
:100D8000016040F3DD8151EC180B2A46234660E3F5
:100D9000B9F1000F00F01F834FF0000A41E720F087
:100DA0000BFD222101600FF64000BBF1000FC8BF10
:100DB000083090ED000B20E7000000000000F03F3D
:100DC000FFFFEF3F0000F07F000000000000000088
:100DD000FFFF3F430100E0410000F03F000070BF13
:100DE000000000000000F87F0000404100BF00BF8D
:100DF0000000000000004043CCFBFFFF8F98030081
:100E00007AB60B00F44B013241EA0308002102924A
:100E1000DFF8E8270991074602EBC102414692ED4F
:100E2000000B55EC106B32462B460396049008F0ED
:100E300093FC04468A46304629463A46434608F023
:100E400090FC1FED230B02460B4620F0A1FC0790FF
:100E500002460B460691204651460DF09BF808903D
:100E60004FF000500F460022099940EA580000EB6D
:100E70008140394600F50026002033460DF08AF8FF
:100E800020F09CF9039A04468A46002031462B46FE
:100E900008F062FC024604980B46414608F05CFCF0
:100EA00002460B46002039460DF074F820F086F912
:100EB00002460B46DDE906100DF06CF8079006912E
:100EC0000D460446394600223B46089E304608F04F
:100ED00048FC02460B46204629460DF05BF880464A
:100EE0008A463046394632463B4605970DF052F861
:100EF0009FEDBB0B06460F4620F01AFC9FEDBA0B88
:100F000020F0F6FB20F03CF99FEDB90B20F0F0FB50
:100F100020F036F99FEDB80B20F0EAFB20F030F915
:100F20009FEDB70B20F0E4FB20F02AF99FEDB60B04
:100F300020F0DEFB05460C4620F04CF92A462346FD
:100F40000DF028F802460B464046514608F009FCD1
:100F5000059D80460C460020002229462B460DF0B8
:100F600019F89FEDAB0B07460E4620F0C1FB424639
:100F7000234608F0F6FB9FEDA80B00208A4620F0E0
:100F8000B7FB3A46334608F0E7FB02460B464046BD
:100F9000214608F0E1FB024608980B4629460CF072
:100FA000F9FF04460E46DDE90610002253460CF018
:100FB000F1FF2246334608F0D4FB07460E460020D8
:100FC0002946002253460CF0E5FF3A4633460446D4
:100FD0000D4608F0C6FB002022462B468A4608F044
:100FE000BBFB02460B463846314608F0B5FB9FED89
:100FF0008C0B20F09DFB9FED8C0B04460D460020D2
:10100000514620F095FB20F0B7FB0246DFF8F005D3
:10101000099C0B4600EBC40090ED000B51EC100B4B
:1010200008F09FFB9FED820B089005460E46079146
:101030000020514620F07CFB2A463346CDE90510BE
:1010400008F08FFB0246DFF8BC050B4600EBC4003E
:1010500090ED000B56EC107B3846314608F081FBD2
:101060000546029888461DF071FA04468A462846CD
:1010700041462246534608F074FB00202246534660
:1010800020F0BAFA3A46334608F066FBDDE905324D
:1010900008F062FB02460B46DDE9071008F05CFB36
:1010A00041EC1A0B4846594600225B4608F054FBB7
:1010B00004460D4651EC1A0B4A465B460CF06AFF9B
:1010C00057EC196B804689462046294632463B46F6
:1010D0000CF060FF42464B4608F043FB81468846D1
:1010E0003046394600225B460CF054FF07460D4659
:1010F00041EC190B484641463A462B4608F031FB75
:1011000006464D480C4600F5200081421BDD4B4849
:101110002044304310D19FED4A0B4846414620F011
:10112000E7FA82468B4620F04FF802460B465046BF
:10113000594616F0C5FCD8B120F03EFB22210160D3
:101140009FED410B42E142484249204088420FD383
:1011500041482044304340F08F8020F035F802466B
:101160000B464846414616F097FC002840F0848024
:10117000194924F00040884240F28780F04940F24B
:10118000134301EB10504FF4801121FA00F00121BC
:101190002044024661F31F52C0F30A515B1AA1F2C8
:1011A000FF31DA40002C48BF52420992234A02F133
:1011B000814242FA01F1002201EA00033846294641
:1011C00008F0CAFA024641EC190B0B464846414664
:1011D00008F0C7FA0C465AE00000E03F00BF00BF2D
:1011E000EF4E454A287ECA3F65DBC9934A86CD3F0C
:1011F00001411DA96074D13F4D268F515555D53FF2
:10120000FFAB6FDBB66DDB3F033333333333E33F89
:10121000000000000000084000000000000008C0BE
:10122000FD033ADC09C7EE3FF5015B14E02F3EBE3B
:10123000000000E009C7EE3FFFFFEF3F000070BF76
:10124000FE822B654715973C000000000000F07FF0
:1012500000FCFF7F00CC904000346F3FAC42CDE9F2
:1012600000EC40F2248120F0A7FA2221BBF1010F0B
:101270000160BFF665AF03E020F09EFA2221016015
:10128000DDE9002351EC180BE3E00020099053EC5A
:10129000192B0020214608F05FFA02460B4648460B
:1012A000414608F059FA9FEDBE0B05460E46002058
:1012B000214620F03DFA9FEDBC0B074688462846A4
:1012C000314620F035FA3A46434608F04AFA9FED97
:1012D000B80B089005460E4607910020214620F0E5
:1012E00027FA2A4633468346069108F03AFA024620
:1012F0000B46824689460CF04DFE9FEDAF0B04462F
:10130000884620F015FA9FEDAE0B20F0F1F91FF0A2
:1013100043FF9FEDAD0B20F0EBF91FF03DFF9FED7C
:10132000AC0B20F0E5F91FF037FF9FEDAB0B20F081
:10133000DFF91FF031FF1FF03BFF04460F46504618
:10134000494622463B460CF025FE9FEDA50B05467F
:101350000E462046394620F0CBF902460B46284679
:1013600031460AF031FE069B04460F465046494678
:101370005A4608F0F1F902460B46DDE9071008F07D
:10138000EBF905460E46504649462A4633460CF0D0
:1013900001FE2A46334608F0E4F902460B46204691
:1013A000394608F0D9F91FF003FF9FED670B20F0D5
:1013B0009FF9099A41EC100B01EB0251B1F5801F26
:1013C000AEBF41EC100B10460CF04EF951EC180B6F
:1013D00053EC102B3DE040F213439B1A20FA03F22A
:1013E00002FA03F39842634612BF4FF0000A02F07C
:1013F0000102C2F1020A884215D18348204400F557
:10140000200030433FF4F9AB9C4226D99FED500BAE
:10141000BBF1FF3F50EC101BC4BF5846494640EC9F
:10142000101BFFF7EABBA8420CD19FED470B3246D9
:101430003B4620F0ADF9BBF1000F5CBF39463046AA
:10144000FFF7D9BBBBF1804F1FD13046394632463A
:101450003B460CF09FFDFFF7CEBB8DED0A1B9FEDC9
:101460003C0BBBF1000F9DF82F000A9A80F0800022
:101470008DF82F0051EC100B58BF02460B9858BF47
:10148000084640EC102BFFF7B8BB002F3FF5C9AB67
:10149000594A93457FF4C5ABB0EE420AF0EE620ABA
:1014A000BDEC141B01B0BDE8F04F09F0BDBD9FEDD0
:1014B0002E0B3046414620F01BF99FED2D0B0646C2
:1014C0000F4620F035F99FED2C0B20F011F91FF09D
:1014D00057FE9FED2B0B02460B4651EC100B08F00C
:1014E0003BF904460D461FF075FE22462B460CF0D4
:1014F00051FD9FED250B20F01BF99FED250B0446B8
:101500000D463046394620F013F920F035F99FEDAD
:10151000220B80460C463046394620F009F94246F7
:10152000234605460E4608F01CF900202A4633469D
:1015300020F062F802460B4640462146AEE500BF69
:1015400002FCFFFF00BF00BF000000000000F03FF2
:101550000000000000000000000000000000F03F5C
:10156000000000000000F0BF000000000000F0BF1D
:10157000000000000000D0BF555555555555D53FCA
:10158000000000000000E03FFE822B654715F7BF1A
:1015900044DF5DF80BAE543E000000604715F73F96
:1015A000396CA80C615C20BEEF39FAFE422EE63F92
:1015B00000000000432EE63FD0A4BE726937663EAD
:1015C000F16BD2C541BDBBBE2CDE25AF6A56113FC3
:1015D00093BDBE166CC166BF3E5555555555C53FAA
:1015E00000000000000000C000000000000000003B
:1015F000000000000000F07F0000E03FB83E020065
:10160000C83E0200D83E0200000070BF8EB0DFF876
:101610007869B41D20461FF0B5FE20461FF01EFF5E
:10162000DFF868B958461FF0D3FBF06058461FF04A
:10163000A3FE1FF001FFDFF85849A06020F0B8F8C2
:10164000771DE06038461FF0AFFE20F0CDF8206136
:101650001FF050FE6061A01C04F11C0117F0A2F8FD
:1016600004F12C001FF0BEFCDFF8281920624FF0B7
:10167000000A04F1540041F270720023CDE900A683
:10168000049017F017FDDFF81009DFF81019DFF8E4
:1016900010990022152300901020C847DFF8041984
:1016A000102000220223C8470EF046F9DFF8F81890
:1016B00010200122C847DFF8F41810204FF0FF3245
:1016C0004FF0FF38C8471DF0C5FA1CF001FD1DF0B2
:1016D00073FD18F099FD1EF0DBFC20F081F8DFF8B7
:1016E000D018086012F0A6FF16F024FA0EF00EFED5
:1016F000351D394628461FF08BF96060284639466B
:101700001FF07CF928461FF055FE06F110001FF06F
:1017100099F806F114001FF0CDFC06F118001FF037
:10172000CFFCA178DFF88C785020B847DFF8881814
:1017300002461020C847A1785020B847DFF87C182F
:1017400002461020C847DFF878181020FB2240F628
:101750004803C847DFF86C181020C8472546A17811
:10176000502025F83C8FC5E903AAC5F814A0B84756
:101770000346DFF8540802210422CDE90010DFF807
:101780004C181020C8472846182120F019F8DFF817
:101790004018102080228023A5F80080CDF800B0EA
:1017A000C847F070DBF86800DC4988420ED0DBF8EF
:1017B0006C00DB49884209D00FF028F9F068DFF8A7
:1017C0001418802280231FF097FFF070DFF80018B4
:1017D000102080228023CDF800B013F031FCF0708F
:1017E00014F054F960709BF870001FF0ADFDDBF849
:1017F0007C001FF03FFE18F0EBFD1BF0FFF8E068E7
:10180000807808B912F0C2FD08F024FA12F07AFDCF
:10181000E1689BF878206078097812F0FBFDE068B9
:10182000017839B9817829B9417819B9C17809B9EC
:10183000007988B1002000251EF01CFC6069017849
:1018400051B10570DFF8680701210F2200680068B8
:101850008068A0611EF02AFCDFF8A09701200DF13E
:101860001C080DF1370A0DF1350BB071F07900212C
:101870004FF040424FF0FF330130F071E0690DF05E
:101880002FFE05463079062800D078B960680078C8
:1018900060B1707950B940F6B8302278DFF8381767
:1018A00001231FF029FF606800210170002D00F066
:1018B000E48000200DF11B01059006A805AA1CF08C
:1018C00000F8002840F0D780BDF81800102840F03C
:1018D000CD80A0789DF81B10814240F0C780059F05
:1018E0004FF6FF703988814200F0C180080AC9B202
:1018F000912900F07E80B02900F0B380D02940F01B
:10190000B680B978072900F20282DFE811F00800FA
:10191000AF00AF00AF00AF002802590295020021CE
:101920000028317140F0A2800020F97A4246ADF8DB
:101930001F00B8798DF81C00B7F807008DF8231048
:101940000821ADF81D00B7F80900ADF8210000200E
:1019500015F06AFADFF89416DFF89426DFF894366B
:101960001020009413F06CFB000640F00B83102055
:101970002278494600234F460090DFF87C0601900C
:10198000102013F05DFB000640F0FC821920227845
:10199000394601230090DFF868060190102013F00B
:1019A0004FFB000640F0EE822278DFF85816102038
:1019B000922313F045FB40F6B8302278DFF8181672
:1019C00001231FF099FE000640F0DC8260680021D0
:1019D00001701CF0C7FE701C01214FF47A720023C5
:1019E000CDE90010DFF82006DFF8A81517F062FB3C
:1019F0003CE03E2800F09C810F2800F09F811028D9
:101A000000F0A8810E2831D1B88841F20541884202
:101A10002CD1B968087848BBB1F80100A28F824286
:101A200024D1C9787F2921D094F84D20531C224419
:101A300084F84D3082F84810052294F84D10B1FB1F
:101A4000F2F202EB8202891A002284F84D10002182
:101A5000052900F019826318013193F948301A44BE
:101A6000F6E7397907F1080020F082FB059F17B1EE
:101A700038461FF0F2FE680025D4A06800780028E0
:101A80007FF4F4AE307940F00200072806D12278C6
:101A9000DFF880151020132313F0D2FA20690078A4
:101AA000002800F06E82307ADFF82815802280232B
:101AB00001303072DFF8D4041FF01EFEF070A06811
:101AC00001210170D2E6206A1FF0ECFC0028D4D17D
:101AD000206A1EF029FD0028F5D00546007801385F
:101AE000082800F20C81DFE810F009000A011D004F
:101AF0000A0140004900FD0013002A0068680078D0
:101B0000032840F0FC800320414619F0CFF8F6E0AE
:101B10006868B0F8010014F0FFFEF4E015CD5B0733
:101B2000B168DE3A686801684A1E072A00F2DD8063
:101B30000121DFE802F0E0DFE1E0E1E1E1DF6A68F6
:101B4000204630F83C1F5288891A18BF012141EA0B
:101B5000410100EBC100C07D002800F0D080DFF81B
:101B6000B014102013F06CFAC9E06868DFF89C1418
:101B70000023C288D2481FF0BFFDC0E001205146BB
:101B800019F094F810B901201FF0FEFD0220514613
:101B900019F08CF810B902201FF0F6FD0320514611
:101BA00019F084F810B903201FF0EEFD0420594607
:101BB00019F07CF820B9042002215A460FF04CF8A5
:101BC0000520414619F072F820B90520042142464B
:101BD0000FF042F80620414619F068F820B90620B7
:101BE000042142460FF038F800201FF063FE10B9C0
:101BF00000201FF0BDFD012059461AF0F1FD20B96B
:101C0000012002215A4611F05BF902201FF052FE1A
:101C100010B902201FF0ACFD03201FF04BFE10B9DD
:101C200003201FF0A5FD04201FF044FE10B904207E
:101C30001FF09EFD00201FF03AFE10B900201FF09B
:101C40008BFD0220514614F0B9FA10B902201FF0A2
:101C500097FD0320514614F0B1FA10B903201FF08C
:101C60008FFD04201FF023FE10B904201FF074FD27
:101C700005201FF01CFE10B905201FF06DFD062089
:101C80001FF00FFE10B906201FF05AFD07201FF0AD
:101C900008FE10B907201FF053FD08201FF001FEB9
:101CA00010B908201FF04CFD09201FF0FAFD10B9F3
:101CB00009201FF045FD0A201FF0F3FD10B90A208E
:101CC0001FF03EFD0B201FF0F2FD10B90B201FF09E
:101CD00043FD0C20514614F071FA80B90C201FF01E
:101CE0004FFD0CE01CF03EFD09E0B1F1004F06D0C5
:101CF000102901D10021717140681FF025FE68682C
:101D000008B11FF021FE28461FF01EFEDBE6112958
:101D10007FF4ACAE11203071B87B8DF82600B88806
:101D2000ADF81C007889002800F09D800020A5E017
:101D3000B8780C287FF49AAE0C2007E0B88842F2FD
:101D4000320188427FF492AE42F23200394613F0FB
:101D500039F98BE6082000211EF06AFD86E6052091
:101D6000A0493071102013F06BF97978002940F008
:101D7000B3800390A08F4FF6FF71884240F0A88097
:101D80007F890320A7871FF0E5FD0028206400F06D
:101D90009C8008210170206CA0F8017024201FF0A5
:101DA000D9FD216C0028606400F08C8001220023A2
:101DB000CDE90021774941F2707217F07BF984E098
:101DC000062088493071102013F03AF90146BF8887
:101DD000A08FB84229D1606C029178B103901FF0B6
:101DE00029FE10B103981FF029FE03981FF04CFE46
:101DF00003981FF0A9FD206C1FF0A6FD38461DF0CA
:101E000005F838461BF0CCFE4FF6FF7002990238F9
:101E100080B2874202D0A08FB84206D14FF6FF7041
:101E2000A0870020C4E91200206508067FF41EAEDA
:101E300004981FF003FE19E60720684943463071F5
:101E40001020BA8813F0FCF804F124001DF018FCEF
:101E500000283FF40BAE0746008914F05DFD3846BC
:101E60001FF072FD02E60020ADF82200D7F8060050
:101E7000CDF81E00B889ADF82400012058498DF82E
:101E800027001020424638E011B2052291FBF2F102
:101E900094F84F20002A84F84E107FF4E7ADC9B2C1
:101EA0004AB212F11E0F2BDB94F8501041F00201E0
:101EB00002293FF4DBAD00234FF0020E02213BE08C
:101EC00040E2010008461FF03FFD012084F8500069
:101ED00004981FF0B1FD0398227800060BD1B0786A
:101EE00048B940F6B8303C4901231FF005FC606852
:101EF00000210170BAE53C49102013F0A1F8B5E5C6
:101F0000D82909D394F850100229FFF4AFAD00236B
:101F10004FF0010E01210FE0CE2909D394F85010A3
:101F200000293FF4A3AD012304214FF0060E03E086
:101F30004FF0020E0421022394F851C094F852701D
:101F4000ACEB0E02022F4FF00007B2FA82F238BF5C
:101F5000012752093A4208BFF4453FF487AD0A46CB
:101F600077461AF00FFD0120394684F84F0094F8A7
:101F70005100B8421CBF002084F8520084F8511070
:101F800074E5FEE71EF04EFD042F0020BC24002067
:101F9000B426002025C30100A42F0020B57701003E
:101FA00041500100E5C40100F5FB01007DD50100B1
:101FB0004058002031E60100D96C02102D6D02104E
:101FC0000D520210397F01105033002015BC000063
:101FD00015F001003DF00100ED740110F9DC011075
:101FE000D9570110750A020065020210990101100B
:101FF00059EB01003C2F00204432002029E9000069
:10200000582F00201DEF0110F053002045DE010085
:102010000D2B0210A1F901102DE9F84F01201BF042
:102020008DFB012816D1DFF8E8663078002120F01A
:102030009BF8040004BF00201CF062FD0020207209
:10204000201D10F09DFE05F0C3F8050003D181208E
:1020500020F086F858E301206871072015F01FF979
:10206000DFF8B096DFF8B02699F80100401C89F837
:102070000100A879A0724020317811700EF0CCFFD9
:102080002860616D4A78206DD10620D5816C0A6880
:102090001179032908D0816C0868007903280CBFE6
:1020A000012000201CF02CFD206D816C0A6890F846
:1020B0006C0002F1080701281CBF00201CF020FD65
:1020C000216D486F296800F5B060C8604EE0C16EB0
:1020D0000A681179032908D0C16E086800790328BD
:1020E0000CBF012000201CF00BFD206DC16E0A68A2
:1020F00090F8980002F1080701281CBF00201CF08E
:10210000FFFC216DB5F87431D1F8A0002968DFF823
:102110000C26C86097F82660DFF80406032E1FD847
:10212000DFE806F002061014CA6802F5B06202E0A9
:10213000CA6802F53472CA6005F59A72018811877F
:10214000038811E0C86800F5355002E0C86800F661
:10215000B870C86005F59A7011880187138803E08C
:10216000C86800F5B060C860A5F874310622286818
:10217000C16801F59071C160B91C3878C0F3801056
:1021800085F82E0105F594701EF09CFCA8791EF0D0
:102190005FFE060004BF00201CF0B2FC94F8B900FA
:1021A00086F83A000422DFF87C6507F10E0105F19C
:1021B00024001EF087FC306895F806C000F10C037F
:1021C000042207F10E0103EB4C101EF07BFC0322EE
:1021D00007F1120105F128001EF074FC3068AB799C
:1021E00000EB4313032207F1120103F110001EF06C
:1021F00069FC05F12C08787D88F80200022207F1BD
:10220000160105F130001EF05DFC022207F11801F5
:1022100005F132001EF056FC022207F11A0105F109
:1022200034001EF04FFCB8F808006884022207F161
:102230001C0105F136001EF045FC98F80200B8F8C4
:102240000A10400088F802000901B8F80400A8F854
:102250000A104000A8F8040089B2B8F8060040004F
:10226000A8F8060003046A8C521CDB0B5A438A420E
:1022700001D280B238B9DFF8B004007880210DF0C7
:1022800079FF3B2139E105F12E0128461FF064FF5B
:102290000520A88128461FF05BFF052207F11E01DB
:1022A00005F161001EF00EFC97F82300400988F844
:1022B00000001FF049FF688205F59A72618D401A8F
:1022C000D08005F1610197F8230000F01F0088F825
:1022D0000F0028461FF034FF616D4A78206DD1064B
:1022E0004CBF816CC16E0868DFF840740021017139
:1022F0004FF01C0AA97938681AFB01F141F6210256
:1023000042520021AB791AFB03F303445980AA79A6
:102310001AFB02F210444160616DDFF814044A7840
:10232000D1060DD5DFF80C148A7851060AD5DFF8EE
:102330000824138841F20A418B4208BFDFF8FC03EE
:10234000C5F89C01D5F89C11284688473A68A979B8
:1023500002F10E031AFB01F15854A8793A6802F110
:102360000E011AFB00F3C95CDFF8D4331A6811546C
:10237000A97938681AFB01F101440020C87398F864
:102380000C1088F80D10606D4178CA061DD595F8BF
:10239000960108B91CF0B4FBA97938681AFB01F161
:1023A000014495F89601421E0A74A87939681AFB0F
:1023B00000F00844002141743A68A97902F1120042
:1023C0001AFB01F1002242522BE0A97938681AFB6E
:1023D00001F10144206D90F840200A74A879396811
:1023E0001AFB00F00844216D91F841204274206DE1
:1023F0003968AB79403001F112021AFB03F34188CE
:10240000D15205F5CB710078012200F00300824023
:102410000A70226D92F84000800814BF012002204B
:1024200008713968A879DFF81CB301F1140231682A
:102430001AFB00F301EB4010D050A87939681AFB61
:1024400000F00844C0498161DBF814000078C1073E
:102450004CBF1F200F20DBF8141009788A0748BFF3
:1024600040F02000DBF8141009784A0748BF40F01C
:102470004000DBF8141009780A0748BF40F08000DC
:102480003168AA7901EB421318723068A97900EB20
:1024900041120B2050723168AA7901EB42100421DD
:1024A000AA4A81721078012806D13168A87901EB17
:1024B00040120121D17207E0DBF824003168AA79CB
:1024C000407801EB4213D8723168A87901EB4012D1
:1024D0001F2111763068AA7900EB4211002048765E
:1024E000A8790EF013FFAA79316852018850AA79B1
:1024F00031685201885820B9072128461CF062FD36
:1025000002E19348AA79016801EB02101FF014FE62
:10251000A87931688E4B01EB4012196801EB00106D
:102520005060A979306800EB41125168C8F83C103E
:10253000AA79520181587C48C8F8441004210078D7
:102540000DF018FE616D4A783868D10648BF022147
:102550000AD4A9791AFB01F101440A7C02F00302B2
:10256000022A14BF04210621B8F8042095F806C0F9
:102570004FF4C8738A18698AAA615143B1FBF3F317
:102580005B1C6B611AFB0CFCD5F800E06044DEF8C4
:102590000CC040F6C41101FB02C2D21AA2F5A86217
:1025A0008260AA7938681AFB02F283189A682B684D
:1025B0009A6000F10C03AA791AFB02F20C309B5CC2
:1025C00003F0EF038354A8793A681AFB00F002F194
:1025D0000C030C321B5C03F07F031354A8793A6898
:1025E0001AFB00F002F10C030C321B5C03F0F00349
:1025F00043F002031354AB7938681AFB03F3184411
:10260000427B02F0F00242F001024273AA7938687C
:102610001AFB02F2024490682B6818613068AB79AB
:1026200098F802C000F11402686940005B0111FBD8
:102630000C0000F5F660D05095F8960104280DD1F5
:102640003268A87902F114034FEA401C143253F89F
:102650000C00AB795B0100F56160D0503068AA795D
:1026600000F114034FEA421C53F80C20C5F8342142
:10267000AA7900EB4210C37C03F0F00343F004039B
:10268000C374DBF830003268AB79006802EB431C9E
:10269000B8F8062042436423B2FBF3F35943A1F593
:1026A0009661CCF81C103068A97900EB4110C27E0D
:1026B00002F0F00242F00402C276A97938682A6872
:1026C0001AFB01FA00EB0A01516095F8FD000107C1
:1026D00003D50E2128461FF02BFD1E490720087048
:1026E0002046AA7989F802201AF02CFB1A48817832
:1026F000880704D5AA79002120461FF015FD286817
:102700001649174A41618261BDE8F14F1FF0A8B92F
:10271000D50F0020780E0020D70F0020900F00204A
:102720008E0F00209C0E0020C70F0020980E002066
:1027300081010210C00C00209A0F00204DE501100D
:10274000685700200C3E0200980C0020CC0F00209F
:10275000A40E0020C80F0020200E002081E20000FF
:10276000020480802DE9F04F054687B0A978DFF894
:10277000DC66002710294FF0060A3CD8DFE811F08C
:10278000110061036103610361033C00CB0061033D
:102790006103C5021101FC00160361039702DC020C
:1027A00059036878002826D11FF0BAFC04461FF0B0
:1027B000B3FC05461CF062F98DF80000224610219A
:1027C00002201CF03BFC2A46102103201CF036FCA2
:1027D0006A46012104201CF031FC9DF8000001280C
:1027E00018BF032807D1012015F018FE0246062164
:1027F00006201CF023FC24E368780028FBD195F820
:102800000CB06C8900900023E97801AA01F0010165
:10281000281D0FF025FA00284FF0010871D19DF80E
:102820000400FDF7B5FD8146BBF1080F08BFB846AF
:10283000307A80001EF054FB050003D104201CF008
:102840005FF9FEE2707802280CBF012000200090A2
:102850005B469DF804104A462046FDF7FCFF142213
:10286000002102A81EF024F99DF804001AFB00F0D4
:1028700002AA102124301CF0CDFBA8B91022FF21A0
:1028800002A81DF0B2FA78B99DF804001AFB00FA0C
:1028900006AA04210AF125001CF0BCFB02AA09F0DB
:1028A000010120461FF034FC317A9DF804002A46CD
:1028B0008900E0301CF0AEFB98B92846FDF7D1FC4A
:1028C000BA4609E005EB8000018819B182782046FC
:1028D0001DF0A0F90AF1010A317A5FFA8AF0884204
:1028E000F0D3B07A30B95FEA897003D531782046E9
:1028F0001CF054FB9DF80400FDF785FD28461EF0F2
:10290000F7FA7078022805D1B8F1000F02D02046FE
:1029100015F0B2FB95E2A888FEF7CCF81FF0F4FBA7
:102920000028F7D1F07D012808D1FDF7BBFDF27931
:10293000706AF77500211EF0BBF817E0307E0128A1
:1029400003D1FDF756FE377610E000240AE0706AE6
:10295000E5B2415D012904D1E0B2FDF7B4FD716A31
:102960004F55641CE0B2F1798842F0D350201DF03D
:10297000E1F9FDF721FD64E21FF002FC00280CD014
:10298000F06900281CBF0468002C07D0286900905B
:102990006B7B2A7B6989E81CA04751E26889012189
:1029A00044E268780024002840F0DA80A879C10762
:1029B00040F1D6800822002105A81EF079F8A888E9
:1029C0001FF002FC040000F08E806F694FB30622F6
:1029D000002107F111001DF008FA68B31022002150
:1029E00038461DF002FAD0B9387C00F001084FF0EB
:1029F000000909F1010987F81190002000900023D7
:102A00000022414607F111000FF02AF900285FFA71
:102A100089F002D10028ECD101E000280CD100207F
:102A200068610622607900F001008DF81A00A11D8E
:102A300005A81EF047F81FE06F69EFB1387C00F081
:102A400001008DF81A00062207F1110105A81EF0F9
:102A500039F86079012805D10622A11D04F10C0086
:102A60001EF030F8062207F11101A01D1EF02AF811
:102A7000387C40F002006071A879410720794CBF92
:102A800040F0020000F0FD002071A9790A0754BF50
:102A900000F0DF0040F020002071A8799DF81B10A5
:102AA000DFF8AC83800800F0010008438DF81B00BC
:102AB0004FF0FF09A979C90801F0010140EAC100FE
:102AC0008DF81B00FF2469691E2779B31022684620
:102AD0001DF0F8FF102168461FF012FB4FF0000BAD
:102AE000DFF870930CE0FEF707F80028D5D03078B7
:102AF00004210DF03FFBD0E70BF101005FFA80FBF2
:102B000099F80000834510DAD8F8001007FB0BF0A5
:102B10000A5CFF2AF0D0084400F10D01102268463B
:102B20001DF096FB0128E7D15C46A14600200090ED
:102B300000239DF81A1004AA05A80FF091F8B9F126
:102B4000FF0F5CD034285AD1707D30B3012856D1A4
:102B5000A88805211FF010FB0124A888FDF7AAFF13
:102B600068780B2804BFA888FDF7E6FFF069002805
:102B70001CBF4368002B0FD06A78A88801219847B2
:102B80006878002808D1A879C10705D5F369A88815
:102B900022465C680321A0474BE1D8F800000021E1
:102BA00007FB09F400910023015D401C04AA2044A6
:102BB0000FF056F818BB9DF81000FDF784FCF0B933
:102BC000FDF7FAFBFDF74BFC8DF81000E8680028D4
:102BD0000CBF00210169002201900392029105A916
:102BE000686900902B69AA689DF81000FDF74DFBFD
:102BF0000446A888FDF774FE200046D14BE0002073
:102C0000009000239DF81A1004AA05A80FF028F8D8
:102C100020B1FDF724FC8DF8100019E06869B8B107
:102C20009DF810001AFB00FA6A4610210AF12300F1
:102C30001CF0F0F960B91022FF2168461DF0D5F8AC
:102C400030B99DF81A0005A900F001001FF0B4FA90
:102C50009DF81000F179884227D2E86800280CBF5F
:102C600000210169002201900392029105A968697F
:102C700000902B69AA689DF81000FDF706FB04463A
:102C8000A888FDF72DFE200005D09DF81000FDF767
:102C90001AFCFDF791FB200008D1707A0028A88863
:102CA0007FF45CAFFDF7BAFE5AE7152455E7687864
:102CB00006281FD1A8881FF087FAD8B1317D491E98
:102CC000032917D8DFE801F0020E08134179A8881C
:102CD0000022FDF755FE0DE00022002140F20940E0
:102CE00003F0DEFBA88805211FF046FA02E0A88861
:102CF000FDF722FFF06900281CBF4368002B03D0BA
:102D00006A78A888022198479AE000970023E9781A
:102D100001AA01F00101281D0EF0A2FF0028F3D145
:102D20009DF804001AFB00FA05F10C0204210AF1D7
:102D300025001CF083F983E0F06900281CBF43687C
:102D4000002B03D0A888002200219847707810B982
:102D5000A88805216AE0A8881FF036FA040070D020
:102D6000A87AC10712D5009700236179002201F0EB
:102D70000101A01D0EF074FF00281EBF607900281D
:102D8000012803D0E868C0F3402028B1707C0228F5
:102D900007D1A87A010704D4A88803211FF0ACF951
:102DA0004FE06179A88805F1080227E02F7BAD8804
:102DB00028461FF009FA040042D01FF0E1F900286C
:102DC0003ED100900023617901AA01F00101A01D0C
:102DD0000EF046FF28BB9DF80400FDF7D9FA07F076
:102DE0000C07042F11D0082F0BD00C2F0FD100F09F
:102DF000090109290BD0617900222846FDF7C0FDA1
:102E00001EE010F0090F02D1F5E7C107F3D501224A
:102E10000092A37C9DF8041002462846FDF71BFD96
:102E20000EE070780028E6D1052128461FF064F9ED
:102E300006E0FDF761FE18B1307804210DF09AF933
:102E40000127384607B0BDE8F08F00BF08220020F8
:102E5000680F0020A65800202DE9F04F85B00D46E0
:102E60000295044615F8011B8DF801100022DFF8C9
:102E7000E41488788DF8002004F1660B1DF0E8FF5B
:102E800001902C219DF80100DFF8CC24032804F1E7
:102E9000F40604F5B07A04F59C7704F5C87804F2DA
:102EA000171900F0E180072800F01382082818BFE6
:102EB000092811D00C2800F0D7810F2811D0112833
:102EC00000F04481182800F092811A2800F0578100
:102ED0001B2800F07C811AE22946204614F000FDF0
:102EE00015E2707ADFF8748481070AD40F2089F81C
:102EF000020020461FF0FCF8002872D198F800006C
:102F0000DCE12878697800EB01223A82A878E97838
:102F100000EB01227A822879697900EB0122BA82DA
:102F2000A879E97900EB0122FA82287A3876697A61
:102F3000A87A01EB00227A83E87A297B00EB012250
:102F4000BA83687BA97B00EB0122FA83E87B297CAA
:102F500000EB01223A84687CA97C00EB01227A8490
:102F6000E87C297D00EB0122BA84687DA97D00EB15
:102F70000122DFF8EC03FA8401788A0658BF4FF08B
:102F80001A0A13D504F5AA700490798B0391387E40
:102F9000029021890191F88A0090BB8A7A8A398A45
:102FA00020461FF0A1F8E8B14FF01E0A707A4107E1
:102FB0000AD40F2089F8020020461FF099F8002853
:102FC0000FD198F8000079E152460F2120461FF0FA
:102FD00087F8F88A0090BB8A7A8AA179504616F061
:102FE0003BF972E104F18600798A81800023BA8A74
:102FF000C2800222F98A018102704380A18EC91D1C
:10300000ABF81E10628E8188B1EB520F02BFC188EF
:10301000A28E914202BF0089E18EB0EB111F21D038
:103020009BF81000012804BF9BF811000F280CD05A
:103030009BF8150000281CBF9BF811001A2804D02B
:103040000F218BF81A10FE217CE0FC2120461FF096
:103050006FF8F88A0090BB8A7A8A398AA0791FF0C3
:103060003BF832E110216DE0707AC10709D4317864
:103070001A200129707002D1FF220D213DE00D219F
:1030800060E000208BF800008BF80600012232710E
:103090002946082204F1B0001FF01AF80146022266
:1030A00004F1B8001FF014F804F1A8050146082245
:1030B00028461FF00DF80746082128461FF020F883
:1030C00004F19C050422394628461FF001F804212A
:1030D00028461FF015F804F1A0001EF0F5FF04F1DA
:1030E00098001EF0EDFF9F48018841F080010180AB
:1030F0003078012805D1FF22042120461EF0DCFF94
:10310000E3E09BF811600F2E18BF142E07D00E2E8F
:1031100018BF0C2E03D01A2E18BF162E11D19BF8F3
:103120001070FF22042120461EF0C6FF012F06D199
:103130008BF81A601A2E14BFFD21FB2102E03146E4
:1031400000E0042120461EF0F3FFBEE028788AF854
:1031500000001A286B788AF8013040F0D880106897
:10316000A679431C4E4300209855A379126811FBA1
:1031700003F111440871A1799AF80100C0E0A77920
:1031800010682E784F43074406F01F0317F8210FED
:10319000B60938B17878F040C00703D598F8060032
:1031A000042805D120221A2120461EF099FF8CE028
:1031B000FB701068A27911FB02F10144204681F8EE
:1031C000236000211EF006FC0028F0D174E0A379F2
:1031D00010684B430344D88808B900265E70106815
:1031E000A27911FB02F10144002008716DE06978B9
:1031F0002878884204BF084010F0070F6DD19BF873
:103200001100162806D198F80620A179134600204F
:103210000CF04AFF022088F8020001210198417752
:10322000012398F8060098F80A1088F80000BAF808
:103230001C201EF03DFFBAF81810814209D3BAF8DD
:103240001C2098F80A1098F8000001231EF030FFA7
:103250000146AAF82E10012198F8080040F040001D
:1032600088F80800397030E0707E012810D015F819
:10327000011B31770222294604F589701EF028FFD0
:103280000146022204F58A701EF022FF01207076AA
:103290009BF8060030B93D21012289F8011089F818
:1032A000002012E0F07E002804BFB07E00280CD180
:1032B00020461EF0F9FE30B9284800784FF48041CE
:1032C0000CF058FF01E00120F07601218DF800108C
:1032D00021E028780F2816D01A2818D1A079136871
:1032E0004843184400234370A079126811FB00F191
:1032F00050180371F07A00F0FB00F0721A20A179E7
:103300000AF0BDFAE1E7707A00F0FD007072204625
:1033100002991EF0C5FE9BF811001A2815D19BF8E2
:10332000120017281CBF1028FC280ED19BF8106033
:1033300020461EF0B1FE012E03BF1A208BF81A00A2
:10334000FB211A2120461EF0F3FE9DF8000005B077
:10335000BDE8F08F780E002050570020C70F0020E6
:10336000200E00209C0F00202DE9F84F15F078FE6C
:10337000DFF89414DFF8949408884988A9F81210AB
:10338000A0F52F7299F80610A9F81000B2F5FA6F9F
:1033900000F23081002900F02D81002089F806001C
:1033A000B9F8100040F6FC01884205D840F23D31E2
:1033B000884204D840F23E310846A9F8101099F826
:1033C0000820DFF8584499F8071024F81200B9F8DB
:1033D0001220A2F52F73B3F5FA6F03D811B10021B3
:1033E00089F80710B2F52F7F06D399F805301BB97D
:1033F00040F68D239A4238D34A1C99F8041089F874
:103400000720D2B2052A03D311B9012289F8052079
:1034100059BB40F23E31884227D8DFF804740120BE
:103420004FF00E08002589F8040089F802803D70ED
:103430000AF0AAFE38781DF0E7FF112011271CF0D2
:1034400019FE99F8010089F8055012280DD3DFF80C
:10345000C00389F80170DFF8C0130E22006880F8FD
:103460002780DFF8B0031DF08CFDB9F8121040F68C
:10347000FC00814205D840F23D30814204D840F240
:103480003E300146A9F8120099F80820E2480023CE
:1034900000EB4202918100220021032A08D034F877
:1034A0001250294400EB42050132AD892B44F4E768
:1034B000DFF8708399F8024089B2DB4F642640F24E
:1034C000BE5299F80450D8F800E08EF80A40032460
:1034D000B1FBF4F111FB067191FBF2FCD349A1F8A9
:1034E00000C099B2B1FBF4F111FB067191FBF2F14E
:1034F000CF4A8BB2118065B9B9F80C50012D40F05C
:10350000A7801E2B00F2A4801FFA8CF11F2980F0E7
:103510009F800024A9F80C40DFF818A3C64AAEF833
:1035200008308EF80B409FEDC80AB9F80A70BAF857
:1035300000101180C14A13681A89541AC049AAF8A8
:1035400000200C60B9F814107D1ABE490D6012D02D
:1035500094FBF5F14FF6FE76B1420CDCBB4EB14266
:1035600009DB00EE105A01EE104AB8EEC00AB8EEC0
:10357000C11A81EE000AB649A9F8147081ED000A5B
:10358000997A21B3B3490968097811291FD3408872
:103590001FFA8CF1B04D48436421B0FBF1F099F86B
:1035A0000010012928805CD1002A144608BF01249C
:1035B00001045AD0A949D9F8183009888A4257D24B
:1035C000002B55D12E46A9F80A00074690E0A248E4
:1035D0000027A9F80A700780D8F80000878099F8BA
:1035E00008000130C1B2022988BF002089F8080014
:1035F000BDE8F88FB0F52F7F04D340F68D229042BE
:10360000FFF4CEAE481C89F80600C0B20528FFF4CE
:10361000C7AE99F8030000287FF4C2AE4FF486705D
:103620001024A9F8020010201CF024FD99F80100D4
:103630001128FFF4B5AE76480C2189F801400C2220
:10364000006880F82710734873491DF09AFCA7E6BC
:10365000ECB2002D7FF460AF1F2BFFF45DAF0124AF
:1036600058E7A9F80A000746B6E700272E463DE0CE
:103670008A4218D3BBB900EE104A01EE101A1DF0B1
:103680001DF941EC100B9FED521BFDF779FA01205B
:10369000C9F8180051EC100B12F0F8FF00EE100AF8
:1036A00028882E4618E08A4271D3002B6FD000EE96
:1036B000104A01EE101A2E461DF000F941EC100BD5
:1036C0009FED431BFDF75CFA51EC100B12F0DEFF8F
:1036D00000EE100AB9F80A0001EE100AB8EE411A1D
:1036E00020EE010ABDEEC00A10EE107AA9F80A70A9
:1036F00060001AF02BFF9FED380B53EC102B0AF0F3
:1037000049FC9FED370B1EF01FF89FED370B02466B
:103710000B4651EC100B08F057FC9FED350B1EF0DB
:1037200013F89FED350B1EF00FF89FED350B044697
:103730000D465BEC108B42465B4614F0B7F900284F
:103740001CBF5D4644462046294617F005F9B9B22C
:10375000A9F81600DFF8CC80814284BFA9F80A00DE
:1037600007463088B9B2814284BFA9F80A000746EB
:103770003A48BAF8001000888142FFF42DAFD9F81A
:10378000180000283FF428AFA9F80E7024E72E4651
:103790008A42ADD2002BABD099F8091080B2B9F8AB
:1037A0000E304A1C4843C1F1140101FB03001421EF
:1037B00089F8092090FBF1F7D0B21528A9F80A7012
:1037C00096D3012089F809000020C9F818008FE776
:1037D0000000000000000840EA2E4454FB2109408C
:1037E0000000000000004E400000000000C07240D9
:1037F00077BE9F1A2FDDE23F120DF736A2204D3F14
:10380000000000000040CF40C4570020E82E0020F8
:10381000F457002004580020F82F00200A570020F9
:10382000D3580020FC570020C8BBFEFF945800204E
:103830008E5800208658002084580020F857002019
:10384000E0570020D4570020000000000200FFFFD6
:10385000E45700200058002080580020885800209D
:103860002DE9FE4F04460020009080460CB91BF065
:1038700047F904F1500641F6230037683880A7F86D
:10388000028002223A737A73694620460CF032FFB6
:1038900008B9072050E2009901B1B860B86820610A
:1038A000DFF89804017884F8B8107068407A17F04F
:1038B0004DFF25302076B87387F80F807168087D3A
:1038C000022804BF00201BF01BF97068007D01284E
:1038D00002D10020002104E083280CBF0620022032
:1038E00020213874797404F12405DFF854A4DAF83F
:1038F0003C0041690868697901EB41010844B0F86E
:1039000001207A827068417848060AD5607DC10638
:1039100004D5E07F40F04000E07702E040F0400056
:10392000607507F15C0904F1300089F80080A97E18
:10393000890001F0040189F80010B866607DC106B5
:1039400054D5726851788A060BD500F0FE00607578
:103950007068417811F0030F03D1E07F00F0FE00A2
:10396000E077607D1EF094FBA0750023387CA27D7B
:10397000C0F38001521C00F003001EF085FBA08301
:103980001E23A28B02F59B7090FBF3F31E2101FB1B
:103990001300C0B208B1C0F11E00821802F59B727C
:1039A00062831E23A28B02F5967290B290FBF3F312
:1039B00001FB1300A283C0B208B1C0F11E00801841
:1039C000A08380B2E27D618B521E50434018608319
:1039D00007F13008608BB43080003866062089F823
:1039E0000300E17F41F00801E17720E040F00100B1
:1039F000607571684A78510744BF40F002006075F5
:103A0000607D1EF045FBA0750023387CA27DC0F3CD
:103A10008001521C00F003001EF036FBA083A08B37
:103A200000F59670A0830020386689F80300A17D18
:103A3000207D61F3050007F18801207508700322DD
:103A4000607D48708A70A87E800000F0040040F01D
:103A500003008870EA7ED20002F0080210438870EA
:103A60000020C8700021C7F89010A88BC0F30B008D
:103A7000A8837168CA7D40EA0230A8830022617D74
:103A800001F0FE0120460BF0E9FE019700271DE042
:103A90001C20784304EB000B01991C220BF16400FD
:103AA0001DF010F80BF16C00052101717F1CA28B39
:103AB00092000260FFB2DAF83C104A6911686B7933
:103AC00003EB43031944B1F801204281E07D401E1D
:103AD0008742DDDB019F204611F0B8F8E07D012828
:103AE00009D013D3032809D03EBF04F164007860E5
:103AF000C6F818800AE0C7F8048007E004F1640003
:103B0000786004F18001B161C6F8348041F6240088
:103B100038860021798607F13C08B868618B00EB94
:103B20008100B8630221822088F8000088F8011023
:103B3000002194F8210088F8031000F03F0088F875
:103B400002007068807D012818BF022803D100F0B0
:103B50007F00401E04E083280CBF062002202021A5
:103B600088F8040088F805104FF0000BDAF83C00E4
:103B7000416908686A7902EB42021044B0F801100A
:103B8000A8F80610C7F86CB07068417811F0030F00
:103B900020D01EF075FAF866DAF818000078C10730
:103BA0004CBF1F200F20DAF8181009788A0748BF89
:103BB00040F02000DAF8181009784A0748BF40F0B2
:103BC0004000DAF8181009780A0748BF40F0800072
:103BD00089F8140089F815B071685A4A887C00F099
:103BE000030089F81500A97E890001F0040108434B
:103BF00089F81500E97EC90001F00801014341F090
:103C0000100189F81510107838B199F8140000F0F7
:103C1000FE0041F0400189F8140089F81510E07F9A
:103C20001EF036FA84F8200020461EF025FAE07FC8
:103C3000C10635D5706894F820204178521C880759
:103C40004EBFD21EE87F121898F80400C0F380011E
:103C50000023D2B200F003001EF016FA28801E22C4
:103C6000288800F59670C0F11E0190FBF2F21E202C
:103C700000FB021129717168487881074CBF002050
:103C80004FF49B702988401828806880B86B298879
:103C90002A795218A63200EB82007867022002E0EF
:103CA000C7F874B0002089F8170004F13000C7F895
:103CB000800007F1840071684A78510707D504F144
:103CC0003802026099F8150040F0200007E01E4914
:103CD0000A685168016099F8150000F0DF0089F862
:103CE0001500A17F94F8200060F30501A17740F64C
:103CF0000B00A8F81000A8F812B0DAF83800008815
:103D000080007865DAF83800008800B1072088F86C
:103D10001C00022088F81D0094F84510A8F81E1019
:103D200070684178880744BF0121A8F81E100098E8
:103D300008B10BF0F4FA0020BDE8FE8FA258002075
:103D40000C3E0200880E00206C0F00202DE9FE4F73
:103D5000DFF844B4DFF8447405469BF800000028FF
:103D60004CD0052872D0062800F07F80072818BFA5
:103D7000082800F0F5800A2800F0E281112802D01E
:103D800013286FD000E2DFF81824107800211EF00D
:103D9000EBF904001EBF606D407810F00C0F2DD0C1
:103DA000216DC0064CBF886CC86E016801F1080522
:103DB0000622A91C68461CF085FE287800F00F0139
:103DC00005291BD145096946C0F380101EF050F942
:103DD000002813D0396868461EF046F9064639684F
:103DE00004F138001EF040F986420DD0606D417834
:103DF000C80604D440F201401EF032F9CAE1607BEB
:103E000040F002006073C5E13B681E2046439819EC
:103E100006226946C01D1CF055FE606D4178C8063B
:103E2000F1D5A17B0129EED1DFF87803817848062E
:103E300005D5E90703D4206D41F20A4102E0206D67
:103E400041F20441418041834186A3E11DF0BCFD64
:103E50000028FAD112F0CAFA012802D001201EF07F
:103E6000FBF897E114F0EDFB94E1DFF83C53286890
:103E70001EF0EEF80400F7D020790328F4D1207A60
:103E800000F00F01072938D1DFF8200300684169ED
:103E9000497A4A1E11425CD0617A04F10A035A5CE5
:103EA00002F03F02252A54DBA17A8A09012A50D167
:103EB00011F03F0F4DD0007C1CF0F0FDE17ACA07F5
:103EC0004CBF04F1110204F10B028B0748BF921D95
:103ED0000B0748BF921CC90648BFD21C1278520972
:103EE00016214A43B2498B180A31EB608A5A42863E
:103EF00099898186DA89C2862BE000F00F000828B4
:103F000027D1A17A880924D119B3A8480168087C6F
:103F10001CF0C4FDE17A064688071AD5062201F096
:103F200001015143601800F10C0168461CF0CAFD04
:103F3000207AC00969461EF09BF850B1386800F13C
:103F40000D0168461EF080F818B9052130461BF0B7
:103F500039F82079032802D000201AF0D1FD0FE1B2
:103F6000944FB8780024FF281BD01CF097FD8046A2
:103F700008F16C09D9F804001EF06AF82A460179A4
:103F8000032901D011000CD08368197801F00300D7
:103F90008D06009003D50124009818B9CDE01000DB
:103FA000FAD0F7E05D7803F1020A34B31AF8010B96
:103FB000814B01902C2098F806C01E6810FB0CFC69
:103FC00066444FF0010E86F805E0002A1E6898F856
:103FD00006E006F11A0C019E10FB0EFE06F01F060D
:103FE0000CF80E6098F806601B6810FB06F0184489
:103FF000019BC3F38113C3761AD10098032808F2FA
:1040000017161AD0ADB199F8000068B108F1F400A4
:104010000278012A0DD19BF80020072A04D0082A33
:1040200004BFC078012804D13D2171700120307097
:10403000B0E0624A1378012BFAD098F89400002877
:104040003CD030782D1F0128EDB2F1D053462A46DE
:10405000404610F07BFE00281EBF59490878002812
:1040600013D13D2171700120564A30701178012919
:104070000AD1554C20784FF4805119F0CFFB2078AD
:104080004FF480510CF076F884E05048016888477E
:1040900001904FF4D07098F8062079684243881850
:1040A000002180F8411108F59E7001688079490867
:1040B00011F06AFF464901980A6890470098032862
:1040C0001DD044494869007882070DD598F89400BE
:1040D000002814BF281D28464A691178CA0748BF1E
:1040E000C01C1AF8000000E0812089F808002A4668
:1040F0000098C3B2B878514605F046FF1DE09AF823
:1041000000001CB11B2804BF022D01251C2803D26E
:1041100031490B5C9D4205D0B070072140461EF02E
:1041200007F80AE09BF8000008285146404602D1F3
:104130001DF002FC01E0FEF78FFED9F8040020E03C
:10414000264C207830B3264D28681DF081FF08B337
:10415000017903291ED1017A8A0611D5807AE17886
:10416000C0F38112914202BF217900F01F00814209
:1041700006D1A078002801BF607800280121A17035
:1041800028681DF05DFF05E000201AF0B9FC8620CC
:104190001DF0E6FFBDE8F78FC80F0020680F002074
:1041A000D50F0020C00C0020BC0A0020540F0020B6
:1041B000E0070020780E002050570020D20F00208A
:1041C000A7580020880E0020C70F0020F8310020DB
:1041D000FC3100200C3E020058410200B056002085
:1041E000AC0C00202DE9F84305460C46480413D4D6
:1041F000A00024D4A0075CD460057ED4200500F183
:104200000681200700F13B81600040F1F68013F049
:1042100073F924F08044F0E01CF076FFDFF81C1402
:104220000F6D3FB1D7E90A1202F0E04201F00A0136
:10423000891849D01DF005FB24F48044DDE0BB481B
:10424000DFF8FC73016841F080010160B878012853
:1042500004D1042019F056FC0020B8701CF054FF63
:10426000064604201CF0BCFFDFF8D8130A68904211
:1042700019D12A7EBAB1FA68AAB1DFF8C003806CFE
:10428000002800F09780C16840F603020988914237
:1042900006D0C06840F604010088884240F08A8059
:1042A00005F1140088E040F6C4120860C5E9042254
:1042B00084E007F0C7FADFF88403006C002840F0C0
:1042C0009D8024F0020498E0D7E90A65D7E90A1234
:1042D000AA43B143C7E90A121DF0B3FAB86800282F
:1042E000AAD056EA0500A7D0D7F808C03869B7F9B0
:1042F000301032462B46E0479EE71CF005FF05468E
:104300001BF07AF8002800F0B780CC48876B002FAC
:1043100000F0B280DFF828830420CB49002288F81F
:104320001800C6481CF0EEF91DF0BEFAC7481DF093
:104330007FFAC7480068006B8047C8F81000012565
:10434000042088F8025019F023FF386990F82810EB
:10435000C8F80400490703D5436A0421002298479E
:10436000012014F077FAD8F8040045760EF022FB0D
:10437000D8F8040081680B461A465B684BB11E886A
:10438000A6F60306072EF7D805FA06F616F0830FF1
:10439000F2D0537B03F0F003013353730023FD6825
:1043A00053602D88A5F60305012D00F28A80C8F818
:1043B00010309FE005F1100017F030F830461DF086
:1043C00040FA19F0FDFE78B12E6A28466FF480712C
:1043D00000224FF00073B0479848806B10B113F083
:1043E0008BF801E044F00204EE6928460021002227
:1043F0004FF08063B04724F0005434B19748214611
:104400002830BDE8F8431DF007BBBDE8F8838C4EAB
:10441000B078012804D1042019F074FB0020B0709A
:1044200019F0CEFE38B170686FF4807100224FF041
:104430000073056AA847306950B185480068006B71
:10444000804732697168801A000BC86000203061B3
:104450007A4D8149002228461CF054F9022030761A
:10446000286C20B17D48022128301DF0D5FA13F0C8
:1044700043F824F40064C0E71DF016FA41E01CF094
:1044800043FE05461AF0B8FFA0B1DFF8B48198F8F2
:10449000000000070ED498F9000000280AD46846EE
:1044A0000EF0CEFB08B1009820B1DFF8B49199F876
:1044B000610048B31DF0F8F913F01EF824F0080469
:1044C0009BE7034633F8385FA5B190F8445090F865
:1044D000456005F0F00580F8445006F0F005013520
:1044E00080F8455000255360C5634587507B00F038
:1044F000F000507357480022C261016001201BF098
:1045000059FA24F4806478E700260127602E0FD042
:1045100009EB0600817A31B18772407A07FA00F020
:10452000C0B219F009FB2036F0E700BFCC210840EB
:10453000032088F8180045481DF07AF91DF0B4F9F9
:10454000444F3E4D0022786900207861F968F86098
:10455000284644491CF0D6F83D480068006B804767
:10456000D8F80C10D8F82020411A02EB1130B0EB2B
:10457000113F38BF4FF0FF3098F82410C8F82000E2
:1045800021B1D8F80810B0EBC12F20D91BF022FAC6
:10459000B8B140F60900414621F83C0F00204880A0
:1045A0004A7B02F0F00201324A730A7B02F0F00209
:1045B0000A734860F8613960B8F83E0010F4406F43
:1045C000FAD00020C8F82000012088F8240016F056
:1045D0000FF9254800210160022000211BF0EAF9B3
:1045E000022019F08FFA10200DF04CFD98F8010010
:1045F00020B9D8F8040050301DF00AFA1B48807822
:1046000010B90D200DF03EFD98F8250028B10020CE
:1046100088F82500052019F075FA002088F81800A0
:104620001348C8F81C000220B5F85610B5F85420FD
:10463000914208BF072012F003F93DE7F829002056
:104640009827002070330020D5F30100C8510020C6
:104650008C0100100010044099DE00003829002071
:10466000704D00205D7501000000046044430200AD
:1046700089D900002DE9F04F0F46380589B018D5CB
:10468000DFF8F4532888FF280ED0C0B21CF006FAD9
:10469000040009D0A07916211DF0CEFC20461CF0A4
:1046A000F3F920460AF0B6F9FF20288087F400606D
:1046B000DFE1F80504D516F092FA87F48070D8E1AE
:1046C000B80604D51DF050F987F02000D1E1F807B5
:1046D0000CD51CF0E5FB30B100218160DFF89C03B4
:1046E000006800B1804787F00100C2E1380704D5B7
:1046F0001DF03CF987F00800BBE1F8060FD500215A
:1047000000220023069105920491039302910192E5
:10471000009102201DF08CFC87F01000A9E1B80781
:104720000FD5002100230691059104910393029176
:104730000191009101223C201DF07AFC87F00200DB
:1047400097E179074FF01E08CD4EDFF838A340F10E
:10475000D580CD48002200210892079100781DF0F5
:1047600003FD0446C9488178FF2904BF00201AF0E0
:10477000C7F9A07A1CF092F905469AF8000095F85E
:104780002E91002805F5947B71D0606D807A022807
:1047900018BF032807D130680D301DF045FC10B953
:1047A0003068C11D0791594648461DF061FC00283C
:1047B0003BD0606D807C3368002818BF012804D18D
:1047C000194658461DF050FC04E05A464946184622
:1047D0001DF0FEFCFF284AD008FB00F8306840447A
:1047E00006225946C01D1CF06DF9306810F80810FB
:1047F000404400F1010B41F00209C01D089009F08E
:10480000010185F82E110622594605F594701CF019
:1048100059F9A8791CF01CFB060008BF1AF070F9C2
:1048200094F8B90086F83A0021E0594648461DF050
:10483000F7FBE0B130685A4649461DF0C9FCFF2835
:1048400015D018FB00F8306840440D301DF0ECFB2B
:1048500058B9306840440D301DF0E6FB002801BF18
:1048600030684044417F012901D149F0020905F136
:104870002C004B46017806914289120905920122CB
:10488000698C0491C0880899029140080390CDF882
:1048900000B0079801900020A9791DF0C9FBD5F858
:1048A0009C017B4988420CBF00210121A8791DF0A1
:1048B000B3FB7848AB7902682C214B4313440122A7
:1048C0001A73AB7904684B4323445A73AB79046879
:1048D0004B4323449A73AB7904684B432344DA7304
:1048E000AB79006811FB03F1014400200874072034
:1048F000A97911F002FF87F00400BAE038060FD55D
:1049000000210023069105910491039302910191E6
:10491000009101223B201DF08BFB87F08000A8E076
:10492000F8045DD55C4930680C680D301DF07CFBE7
:10493000002844D13068C11D0D301DF069FB3EE0F8
:10494000606D4178480704F13E0526D52878022895
:104950001EBF03286878012830D16978306804F1D7
:1049600038021DF035FC8146B9F1FF0F15D03068D3
:1049700018FB09F948440D301DF056FB68B9306842
:104980004844C11D0D301DF043FB30684844C11D33
:10499000062204F138001CF095F82878022818BF88
:1049A00003280BD130680D301DF03EFB30B9306864
:1049B000C11D062204F130001CF084F82468002C8C
:1049C000BED13648DAF8042000784FF4805116F052
:1049D00023FF10B18E201DF017FB87F4805048E0B4
:1049E000B80505D51CF074FE2D4901200860FEE7CE
:1049F000780504D51DF076F887F4806039E07804F6
:104A000005D581201DF000FB87F4804031E0B9041A
:104A10002ED5244C206810B100201AF071F84FF008
:104A2000FF3020600020204C10F0E6FD216851F896
:104A3000202F684690471D494A6B086BC96A246855
:104A40001B4B01920090ADF8101002936B46194A6F
:104A50001948016819480392194A07922568194AAA
:104A6000A8471949086003F00DFF87F4005000E0E3
:104A7000002009B0BDE8F08FB2330020480F0020BD
:104A8000680F0020880E0020D70F0020780E00202D
:104A90004DE50110505700204C0F0020C70F00209B
:104AA0007C052043380F0020200F00202C270020F9
:104AB000810E0200910E02005C5700206848002021
:104AC0001EFB0080EC0A00201C0F00202DE9F84F8F
:104AD000DFF82854A9780024FF2904BF00201AF029
:104AE0000FF8A8781BF0DAFF054605F1680605F512
:104AF000C9773168086805F1900808B1EC8311E0C6
:104B0000B07B002804BFB07E00280BD198F80010BD
:104B1000002904BF3878002804D1287F012804BF69
:104B2000688CE8832989E88B4118491C69812846EB
:104B30001DF066FA01281EBFDFF8C40301780129C1
:104B400003D12989EC83491C69814FF6FF79B07E36
:104B500001280DD1B28B698928891DF04DFA38B131
:104B6000298968894A1C93B298422FD0B08B23E0E0
:104B700098F8000001280FD1B8F802206989288927
:104B80001DF03AFA40B1298968894A1C93B29842CB
:104B90001CD0B8F802000FE03878012816D17A88C6
:104BA000698928891DF028FA80B1298968894A1CF9
:104BB00093B298420AD0788892B2904206D0484484
:104BC000688180B21DF014FA4844E88338780128DF
:104BD0000FD128897988401C80B2884209DB7C7912
:104BE0003C71022038702346A979224600200BF040
:104BF0005BFA05F59A71087920B128890021401CDB
:104C0000E9836881B07E012813D12989B08B4B1CC0
:104C10009BB298420DD168811DF0EAF905F12E0191
:104C2000B6F820808A8802FB0088284610F04EF8EB
:104C300003E005F12E00B0F80480E88BB14B411C75
:104C400001FB08F82968CA6840F6C41909FB082264
:104C5000CA60AD49DA7BD30702D56B8A00220BE02C
:104C60000A88521C93B2012B03BF05F59A7CBCF84D
:104C7000063003F2DC536B8A03FB08F34FF4C87C65
:104C8000B3FBFCF35B1C6B610A8085F82000C5F860
:104C900018804FF01C0BDFF874A2AB79DAF8000033
:104CA00000F108021BFB03F3D1582A68116100F1DF
:104CB0000801AB79D26868691BFB03F3121ACA506A
:104CC000DAF80000AB7900F108021BFB03F3D158BE
:104CD0002A68916000F10C02A9791BFB01F10C30EC
:104CE000535C03F0F00343F002034354DAF800107E
:104CF000AB798A1C1BFB03F30021D152387908B928
:104D000019F0FEFEDAF80000AA7900F110013879F6
:104D10001BFB02F240088854A879DAF800101BFB4C
:104D200000F00844002141743879042814D1A8798E
:104D3000DAF800101BFB00F001F110021031135CD7
:104D40003A7A43EA82030B54AA79DAF800001BFB93
:104D500002F2024420205074DAF80010A87901F120
:104D600012021BFB00F0002111526949A8790A6860
:104D700002F114034FEA401C143253F80C00AB79D3
:104D8000D5F814C05B0100EB4C00D050B07E022877
:104D90000DD10A68AE7902F11403760114329859E4
:104DA000AB7995F82E605B0119FB0600D05005F138
:104DB0002E025448C37BD8075ED5DAF80000AE79DE
:104DC00000F108041BFB06F60830A359AC791BFB65
:104DD00004F4A3F5A8630351DAF80000AC7900F1FC
:104DE00008031BFB04F418592B68986004464948D3
:104DF00000FB0848C3F810800868AE7900F114047D
:104E000076011430A359AC79640103F5F6630351BC
:104E1000387904280BD10868AE7900F114047601C2
:104E20001430A359AC79640103F561630351086838
:104E3000AC7900F1140364011859C5F83401364BFC
:104E4000186B0C68AE799288006804EB46174243F1
:104E50006424B2FBF4F409FB04F0A0F596692F4832
:104E6000C7F81C900278012A2FD10868A97900EBB5
:104E700041120120D0722FE0042C0BD10868AE79CA
:104E800000F1140476011430A359AC79640103F5E0
:104E900061630351387904280CBF4FF4AA504FF4D2
:104EA000E6600B68AE7903F114047601A359181A71
:104EB000938809FB03F3A3F516739842BFD3082127
:104EC00028461AF07FF8012016E0586A0968AA7986
:104ED000407801EB4213D872A879DAF800102A68FA
:104EE0001BFB00FB01EB0B00506007210C4801701D
:104EF000284610F09BFF0020BDE8F28F780E0020BE
:104F0000D10F0020980C00207A580020980E002025
:104F10009C0E00203CF6FFFF0C3E0200CC0F002050
:104F2000C80F00202DE9F0410646FF2818BF2028B1
:104F30002AD11CF0F3FA10F01F0F22D0042018F031
:104F4000E1FB08B1042016E0012018F0DBFB08B1FA
:104F5000012010E0022018F0D5FB08B102200AE081
:104F6000102018F0CFFB08B1102004E0082018F042
:104F7000C9FB20B10820BDE8F04118F0FBBB19F0D7
:104F8000BFFD0020BDE8F08118F0F4FB5FEA0008E7
:104F900014BFD8F804500025012E46F2A81740F699
:104FA000C4140BD0022E69D0042E00F0B880082E55
:104FB00000F01281102E00F05981E2E7012018F074
:104FC000A1FB00281EBFDFF86C03006800281CBF8F
:104FD0008788BF00102018F095FB18B3102018F038
:104FE000C9FB040002D066685EB900E0002602201A
:104FF00018F088FB28B1022018F0BCFB040018BF91
:1050000066686DB1012018F07DFB002818BF002EE6
:1050100006D0B068C11BA8681AF03CFE00282BD04F
:105020002046AFE7022018F06DFB38B1022018F0DF
:10503000A1FB040014BF666800260AE0042018F0F3
:1050400061FB50B1042018F095FB040014BF6668A2
:105050000026002DE4D0012040E1082018F052FB8A
:1050600028B1082018F086FB040005D053E0012089
:1050700018F048FB002885D0404683E7022018F04E
:1050800041FB60B1AC480168AC48CA69017801EBEA
:1050900081015318D88804FB00F707F51667042030
:1050A00018F030FB38B1042018F064FB040014BF82
:1050B0006668002622E0082018F024FB98B108203A
:1050C00018F058FB040002D06668BEB900E0002664
:1050D000012018F017FB88B1012018F04BFB0400E9
:1050E00018BF66680AE0012018F00CFB50B10120DF
:1050F00018F040FB040014BF66680026002D8FD016
:105100000220EBE0102018F0FDFA30B1102018F06A
:1051100031FB0400B0D06068EBE00220A8E7042077
:1051200018F0F0FA58B18648016886484A69017853
:1051300002EB0113988904FB00F707F516670820B6
:1051400018F0E0FA98B1082018F014FB040002D01F
:105150006668DEBB00E00026012018F0D3FAA8B391
:10516000012018F007FB040018BF66682EE001203C
:1051700018F0C8FA38B1012018F0FCFA040014BF86
:105180006668002622E0102018F0BCFA98B11020C2
:1051900018F0F0FA040002D06668BEB900E00026FC
:1051A000022018F0AFFA88B1022018F0E3FA0400E8
:1051B00018BF66680AE0022018F0A4FA50B1022075
:1051C00018F0D8FA040014BF66680026002D23D01A
:1051D000042083E004204BE71CF0ECFB08B1D0F87E
:1051E0009070042018F08EFA38B1042018F0C2FA3A
:1051F000040014BF6668002632E0012018F082FA2D
:1052000058B1012018F0B6FA002D044604D0082049
:1052100018F078FA00286ED102E7102018F072FA20
:1052200098B1102018F0A6FA040002D06668BEB942
:1052300000E00026022018F065FA88B1022018F07C
:1052400099FA040018BF66680AE0022018F05AFABA
:1052500050B1022018F08EFA040014BF66680026D0
:10526000002DD9D0082039E0082001E703201CF0E8
:10527000A3FB08B1D0F89870022018F043FA38B1B7
:10528000022018F077FA002D0446C5D01020BFE7A1
:10529000042018F037FA38B1042018F06BFA040033
:1052A0000CBF0026666816E0082018F02BFA18B329
:1052B000082018F05FFA040002D066685EB900E0CA
:1052C0000026012018F01EFA28B1012018F052FA29
:1052D000040018BF6668002D9ED0102018F012FA46
:1052E000002818BF002E97D0B068C11BA8681AF01C
:1052F000D1FC002890D1BFE6012018F003FAB0B12C
:10530000012018F037FA040014BF66680026002D4B
:1053100005D0102018F0F6F9002818BF002E3FF431
:105320007FAEB068C11BA8681AF0B4FCE1E710209A
:105330009EE600BF64570020500F0020D80F0020C9
:10534000540F0020D90F00202DE9FE4F0422FF2129
:1053500001A81BF0ADFBDFF8DC63B078FF284FF04D
:10536000000800F0E5811BF099FB0546B0781BF0C2
:105370006FFD074605F217100178012908BF417833
:1053800000F05B8105F17406B07B022817D1387FED
:10539000C0F3C00088B105F12E0001890909009110
:1053A00005F12E01C3888A88A979520800201CF0D3
:1053B0001BFE387F00F0E700387786F80E8095F8FE
:1053C0009201022808BF85F89281307F022808BF29
:1053D00086F81C8005F5927BBBF80E1019B19BF87E
:1053E0000C000AF0C7FE072011F059FF6889D24C63
:1053F0002881A27A94F807E0237BE17A607B02EBB4
:105400000E09994489448144CDF80090B7F81EA054
:10541000B7F820C0D644A7F81EE094F808E0E644A8
:10542000A7F820E0B7F822C094F809E0E644A7F80E
:1054300022E0B7F824C0B7F826E09444A7F824C0C7
:105440007144F984398D0B443B85798D0818788532
:10545000BB8D20781818B885F98D60780818F88504
:10546000398EA07808183886798EE0780818788602
:10547000B98E20790818B886F98E60790818F886F0
:10548000398FA0790818388705F58D718888401CF8
:105490008880B5F81A310098C318A5F81A3105F5B7
:1054A0008D73488810185880DBF80000F8B1A349C4
:1054B00095F806E00B681C2103F10E0C11FB0EFEA3
:1054C0001CF80EC030F81CE00099714420F81C1044
:1054D0001C2195F806C00E3311FB0CFC13F80C30A0
:1054E00000EB4300B0F84A105218A0F84A2018F018
:1054F000B7FFE079DFF84892002804BFE07A00287F
:1055000005D1207B002804BF607B00283DD0A7F890
:105510000E80C246F87EC0090DD0387F00F007012A
:10552000022904DA411C61F30200387703E0A8790C
:1055300000211CF04DFA2989E88985F8108041186E
:10554000287FA981012804BF688CE883A9790122FA
:10555000072011F0D2F8607858B101212977B0788E
:10556000002804BFB07B002803D1307F08B9688CC5
:10557000E8839BF81400002868D0022804BFE07A72
:1055800000285ED18BF8148060E0A9790022072002
:1055900011F0B3F8A5F81E80397F11F0070F02D182
:1055A000F87EC00903D0A87900211CF011FA287CEC
:1055B000A17A05F58D7261B14FF0010A08B1E88951
:1055C000A88185F81080287F012826D1688CE8837F
:1055D00023E0D188491C4FF0020AD180E8B1D9F804
:1055E0000000AB7995F82E7000F1140168694FEA5C
:1055F000400C40F6C4105B0110FB07CC0CF5F66CB8
:1056000041F803C0D9F80010A87901EB4010C17C23
:1056100001F0F00141F00401C174A8892989814297
:1056200006D0884297D2081A41F2AB01884292DA3A
:10563000108800280CBF3E210821284619F0C2FC22
:1056400076E0607A10B102218BF81410E07BC1077C
:105650000ED520692968C86000F59070C860D9F837
:105660000010AA7901F1140052010021815016E0C6
:10567000D9F80000A97900F1140249015058CBF87B
:1056800010002E48AB7901681C2001F10802434349
:10569000D0582968C860A5F81E8085F81C80294A62
:1056A00050690078810702D5A07B802800D1812035
:1056B0003070254991F8200018B1294601201CF0CE
:1056C00077F928460CF006F902281CD1F079022857
:1056D00005DB01AA1D49284612F06EFC80462846CB
:1056E0001CF07EFC012823D05FEA08000DD0424662
:1056F00001A9284613F08AF938B928460CF0EAF8CF
:10570000012802D114E0012812D0012128461CF002
:1057100063FC009881B22A46504609F0F1F9FFF780
:10572000D5F9012804D0284616F01BFD1CF098F985
:10573000BDE8F78F780E0020980C0020980E00200E
:105740009C0E00200C3E020038540020A0330020A4
:105750002DE9FE4FDFF888737E681EB9BDE8F74F6C
:105760001CF036BC3078DFF87C93DFF87C53DFF830
:105770007CA3012818BF02280DD0042818BF0828D0
:1057800009D0102818BF202805D0402818BF80282D
:1057900000F0C9809DE11BF0C7FE0028FAD001206F
:1057A00017F0B0FF20B1012017F0E4FF17F056FF0B
:1057B000082017F0A7FF20B1082017F0DBFF17F033
:1057C0004DFF3078FFF7AEFB5FEA000814BFD8F852
:1057D000044000249AF8010000286AD01CF03CF92B
:1057E0001BF05CF900900168009801914E68817986
:1057F0008AF8031014B94FF0020B04E001994046F7
:105800001CF028F9834600985A4641461CF0D8F807
:10581000584502D003283CD08346BBF1020F13D079
:1058200098F80000012802D0082877D051E1BBF198
:10583000000F05D11CF0C8FB00F5E8504C30A0600B
:105840000120B87011216BE00198017880290BD1FB
:105850000820A74928700A787069012A1ABFD9F868
:105860002410097801211DE007202870009988790B
:105870001BF0EEFA0446207BC1070BD50098807917
:105880001BF00CF9052119F09DFB207B00F0FE00B8
:10589000207323E196480178706901291CBFD9F86B
:1058A00024104978C1720098817901988AF8021011
:1058B0000BE1B8F1000F17D0012241461CF080F82F
:1058C000032808D098F80000464509D1012818BFE0
:1058D000082801D12CBB01E1002019F011F920E0CA
:1058E000012802D0082817D0F3E0002CF3D01CF0D8
:1058F0006BFB0146A06801F5C241A8311AF0CAF954
:1059000028B91CF061FB00F5E8504C30A060112074
:1059100028700121B97004E0002CDCD0B87012218D
:1059200029704046D1E09AF80100002800F09A80E2
:105930001CF092F81BF0B2F8044620680090D0F8F2
:1059400004809AF802001BF0A9F8A0798AF80300F5
:105950000222002120461CF033F8022801D003283F
:1059600013D03078402811D1A0791BF071FA064687
:10597000307BC1070AD5A0791BF090F8052119F0FA
:1059800021FB307B00F0FE003073A7E01BF0C6FD6A
:1059900010F01F0F44D0012017F0B4FE20B10120F9
:1059A00017F0E8FE17F05AFE082017F0ABFE20B102
:1059B000082017F0DFFE17F051FEB878FFF7B2FAB3
:1059C00006467168019111B94FF0020B03E000998E
:1059D0001CF040F883460222002120461BF0F0FF15
:1059E000022803D0032879D0834602E0BBF1020FDE
:1059F00016D03078012802D0082862D00DE0BBF123
:105A0000000F06D11CF0E0FA019900F5E8504C3087
:105A1000886011202870012150E0002019F070F8F2
:105A2000009933480A78802A0BD108212970007820
:105A30000128D8F814001ABFD9F8241009780121D8
:105A40000AE007222A7000780128D8F814000EBF57
:105A50000121D9F824104978C172A0798AF802008E
:105A6000009832E01BF05AFD10F01F0F36D00120D5
:105A700017F048FE20B1012017F07CFE17F0EEFD74
:105A8000082017F03FFE20B1082017F073FE17F032
:105A9000E5FDB878FFF746FA0646307874680128C5
:105AA00002D008280CD019E0C4B11CF08DFA00F522
:105AB000E8504C30A060012111202870B97003E03B
:105AC00064B1B870122129703046BDE8FE4F1BF05A
:105AD00031BDBDE8FE4F002019F012B8BDE8F78FC8
