:10000000003C02204DED010075FD010075FD010071
:1000100075FD010075FD010075FD010075FD010014
:1000200075FD010075FD010075FD010075FD010004
:0C00300075FD010075FD010085DF00007A
:1000400038B586B004468DF805104FF6FF720120D2
:10005000ADF80220090ADFF8B85AADF80000022313
:100060008DF806108DF8043069462A78204623F072
:10007000ABF8162803D12978204623F0A1F807B061
:1000800030BD3EB504000D461ED0DFF8880A00687A
:10009000224623F091F8FF2815D00020009000237D
:1000A00001AA2946204612F045FC60B99DF80400DB
:1000B00000F06EF9C00606D59DF8040000F068F95E
:1000C00010F0040000D001203EBDFEB516461524F8
:1000D0004FF6FF7290420D4615D100208DF80400B6
:1000E000DFF82C7A9DF80400F97988421AD232465A
:1000F000294600F03EF800B100249DF80400401CA1
:100100008DF80400EEE723F053F850B100F099FBAE
:1001100040B99DF804003246294600F02AF8002430
:1001200000E014242046FEBD7CB50D4604460621A1
:100130004C43164620346A46082120461FF0CEFE66
:10014000A8B900F076F890B99DF80700002E14BF0A
:10015000054320EA0505E9B2814206D08DF8075033
:100160006A46082120461FF0CDFE012076BD002002
:1001700076BD2DE9FC4106463446062388461546E1
:100180005C436A46082104F120001FF0A7FE002806
:100190004CD100F04EF8002848D100F024FA0400B9
:1001A00002D100F018FA41E0397AE036224689009F
:1001B00030461FF093FE002834D1204600F051F85D
:1001C0005FEA08000ED13A7A9206120E002120460C
:1001D00020F05FFD30BB3A7A92000021204621F0EA
:1001E000E1FB16E0214600F029F858B9280004D0B8
:1001F0002146002000F022F810B900F00CFC15E0B8
:10020000A0F800808178A9420CD085700DB900213A
:100210000180204600F025F8397A224689003046D0
:100220001FF070FE00F0F7FB012000E00020BDE8A9
:10023000F6810622FF21684620F02BBD70B5DFF85D
:10024000D0381D7A002200E0521CD4B2AC4206D253
:1002500031F824608642F7D101EB840070BD0020A4
:1002600070BD10B50021DFF8A8280AE030F8213071
:10027000DB4320F8213000EB8103491C9C78E443E8
:100280009C70137A9942F1DB10BD2DE9FE4FDFF827
:1002900080480646207A0F4691469A46800021F013
:1002A000B9FD5FEA000803D100F095F90A206DE07E
:1002B0000C9D02974FF0060B37461BFB07FB029A7B
:1002C00008210BF120001FF01DFE8DF804003046C0
:1002D00000F099F8227A00F079F99DF80400009076
:1002E0004246217A890006F1E0001FF00BFE009ED5
:1002F00002990643206A082200EBC70021F05CFB4C
:10030000F5B110220021284620F0C3FCC0B90299A3
:10031000887900232A4600F0010022F045FF0028DA
:100320001CBF9DF93C00002803D0DFF8EC1701202A
:1003300008702A4610210BF123001FF0E3FD06434D
:100340005FEA090205D01C210BF121001FF0DAFD44
:1003500006435FEA0A0205D01C210BF122001FF0C0
:10036000D1FD06430D9A4AB110210BF124001FF074
:10037000C9FD06430EAA00F031F90643A07D08B17D
:1003800000F094FA404621F04DFDF0B2BDE8FE8F3A
:10039000E0B5062358436A46082120301FF09EFD31
:1003A00010B99DF807000EBD00200EBDDFF86007F4
:1003B0000078082110F030BF38B50025DFF850472D
:1003C00018E0206A06236B4300EBC50220330821A6
:1003D00098B21FF083FD58B1206A0622FF2100EB7E
:1003E000C50021F0DFFA206A00EBC5010022CA71C6
:1003F0006D1CEDB2E1798D42E3DBA07D10B1BDE86B
:10040000314053E231BDF8B5DFF80417DFF80C379F
:10041000C9791E680C460A4600E02A46D5B23DB1AD
:10042000551ED2B2324412F8017C8742F5D12C46D7
:10043000E4B220464D1E07E01718165C7F7817546B
:100440001A680244401C5670A8421A68F4DBAC4299
:1004500004DABDE8F84005201FF054BDF1BD70B5C9
:100460000024DFF8AC5600E0641CE879E3B2834274
:100470000BD22B6AE6B20622FF2103EBC60020F066
:1004800008FC0028F0D0E0B270BDDFF894261178A7
:1004900039B1DFF8880601680C78204600F013F8BF
:1004A000204670BD38B500200024DFF8645603E014
:1004B000E0B200F008F8641CEA79E1B2914201D29E
:1004C0000100F5D032BD2DE9F84F4FF0060B1BFBB4
:1004D00000FB8EB081460BF1200501AA08212846B9
:1004E0001FF0FCFC002868D10622FF2101A820F0A3
:1004F000D0FB002861D100F076F85FEA000803D154
:1005000000F069F80A205AE01C22FF2103A821F01C
:1005100049FA3A7A00F05AF80BF123060AAA102198
:1005200030461FF0DBFC60B91022FF210AA820F042
:10053000B0FB30B99DF80A0001A900F0010022F0DB
:100540002FFE082200F03EF801AA082128461FF0DD
:10055000D9FC054603AA1C210BF121001FF0D2FC97
:100560008DF8000003AA1C210BF122001FF0CAFC29
:10057000044603AA102130461FF0C4FC064603AA15
:1005800010210BF124001FF0BDFC824603AA00F0ED
:1005900025F89DF800100D43254335434AEA05052B
:1005A000397A05434246890009F1E0001FF0AAFCB0
:1005B0000543404621F036FC00E0002528460FB0F8
:1005C000BDE8F08FFF2101A821F0ECB99200FF21D6
:1005D000404621F0E7B904201FF0E2B904210BF1F5
:1005E00025001FF08FBCDFF82875387A800021F0D5
:1005F00011BC2DE9F84187B0FF208DF80000DFF82D
:100600001055E87921F006FC040003D1FFF7E3FF61
:100610000A2030E01022FF2103A821F0C3F9EA7973
:10062000FF21204621F0BEF90622FFF7CBFF03AAE7
:10063000102102201FF066FC064603AA10210320A9
:100640001FF060FC06436A46012104201FF05AFC9B
:100650000746E979224605201FF054FC054601AA09
:10066000062106201FF04EFC804600F0D4F93E43E0
:100670002E4348EA060008B0BDE8F081DFF8901488
:10068000408809781FF0EEBBF0B5A9B006460D46CC
:10069000144622F08DFD08B91420A6E0A422002102
:1006A000684621F07FF9ADF80060DFF86464F07807
:1006B000F17B279A8DF804005208307C8DF8A00059
:1006C0004B0801F0010040EA420222F0020203F06E
:1006D000010342EA4302080922F4807200F001009B
:1006E00042EA0022480922F4007200F0010042EAC6
:1006F0004022880922F4806200F0010042EA802250
:10070000890822F0040201F00101707C42EA8102B2
:10071000279202280CBF012000200DF126077874D3
:1007200022F03AFD412807DB707C00B108209DF8DB
:10073000991008438DF89900F07CB8B10121B97483
:10074000202206F188010DF1390021F035F920222F
:1007500006F1A8010DF1590021F02EF9202206F131
:10076000C8010DF1790021F027F900E0B874707B21
:100770008DF8050090B1DFF8AC73102207F110017D
:100780000DF1060021F018F99DF89900082805D10F
:10079000102239460DF1160021F00EF9307B8DF84C
:1007A000260030B11022DFF880130DF1270021F070
:1007B00003F9307948B1022D18BF032D03D12798D2
:1007C00040F002002790012100E000219DF89900EF
:1007D0000143B0788DF8991000B1042001438DF8E1
:1007E00099106846214622F0D3FC29B0F0BD2DE9CE
:1007F000FC41154615244FF6FF72904288460ED1F3
:100800000027DFF80C63F179F8B2884216D22A4645
:100810004146FFF789FC00B100247F1CF3E722F07A
:10082000C7FC50B100F00DF840B99DF804002A460D
:100830004146FFF779FC002400E014242046BDE87F
:10084000F681002100910023417901AA01F0010104
:10085000801D12F06FB870B504460D460620454362
:10086000082B88B0164603D1300758BF223500D573
:1008700021351C220021FFF7A6FE01AA1C212846D3
:100880001FF02CFB80B99DF81E00C01F0A280BD258
:100890009DF830000090F20801AB02F0010206F072
:1008A0000101204621F062FB08B070BD38B522F08E
:1008B0006BFC0024964D0FE0286A0622FF2100EB16
:1008C000C40020F0E6F928B9286A00EBC401887951
:1008D00022F056FC641CE4B2E8798442ECDB31BDC2
:1008E000F0B5924D0646686885B04FF6FF7438B98A
:1008F000009502238E4A2146012022F03DFC6860CB
:10090000696819B30222FF20029200230390019329
:100910000DF112072A88009704AB304608F032FC2C
:1009200060B99DF810009DF8111000EB0122100035
:1009300004D0686841893046FFF7C7FB2A88686899
:100940000023214622F014FC686008B9012000E071
:10095000002005B0F0BD3EB50C46002501460095CF
:10096000002301AA204611F0E5FF38B99DF80400E4
:10097000FFF70EFDC00601D401203EBD00203EBDA4
:100980002DE9F0416B4F3C6806468846154603E06A
:100990002089B04224D02468002CF9D10C2021F009
:1009A00039FA040019D0268184F80A8000202060DA
:1009B000E07245B10821284620F0BAFB606018B902
:1009C00000F029F80AE06060396811B93C6004E081
:1009D000014608680028FBD10C600CB9152018E00E
:1009E00022F0C2FB08B1002013E00120E0722A4689
:1009F00041463046FFF748FE04464548C069002896
:100A00001CBF4368002B03D00022002130469847CA
:100A10002046BDE8F081204621F004BA38B50546ED
:100A20004448046803E02089A84204D02468002CCC
:100A3000F9D1012032BDE07A012807D100F05CF83D
:100A400020B133480078042110F0E6FBE17A491C1C
:100A5000E1722846C9B200F002F8002032BD38B574
:100A6000022904462A4D02D003290DD01EE042F689
:100A7000C921FFF7E5FA02001CBFE869002818D079
:100A80004368B3B105210CE042F6A621FFF7D8FA7E
:100A900001001CBFE96900290BD04B684BB102462D
:100AA0000421204601B0BDE830401847BDE832407F
:100AB00000E031BD10B51F4A1468002101E0214655
:100AC00024686CB123898342F9D1206800290CBFC6
:100AD00010600860606808B121F0A4F9FFF79BFF7F
:100AE000002010BD024604201249096819B10B8983
:100AF0009342FAD1C87A70470E48006828B100685E
:100B000018B1C17A0029FAD170470020704700005F
:100B100008220020680F0020A858002098570020C5
:100B2000A7580020E8540020185500201457002032
:100B30002E5602009C57002038B584B0044622F09F
:100B400037FB0622417901F001018DF80E10811D5D
:100B500002A820F031FF0020009000239DF80E1025
:100B600001AA02A811F0E6FE9DF80400FFF7ABFC15
:100B700005460521204622F0F3FA284605B030BD8F
:100B80002DE9F84F2DED141BB0EE402A5BEC119BC4
:100B9000F0EE602A2BF000409FED870B50EA090130
:100BA0002BD0874B57EC126B5D1C0EB9AF4224D093
:100BB000844927F000448C4209D80EB18C4206D0FB
:100BC000884204D8B9F1000F1CD088421AD19FED99
:100BD0007E0B3046394655EC104B21F0C3FD0646DE
:100BE0000F464846594621F0BDFD02460B463046A9
:100BF000394609F030FC41EC100BBDEC141B01B080
:100C0000BDE8F08FB7F1FF3F02DD4FF0000A04E0CE
:100C10006F4A90426BD94FF0020AB9F1000F00F011
:100C2000EA839FED690BB8465CEC10EB4FEADC728F
:100C300062F3DF782EB34FF0FF3202EBD7725AEA3D
:100C400002034DD0AAF101031A430FF60C1208BF9C
:100C5000083292ED008B5F4A904261D301F144412A
:100C6000884240F28280AC4280F0998021F0AAFD57
:100C7000222101600FF67010BBF1000F48BF083051
:100C800097E08C4204D0544A944201D0002CD2D137
:100C90009FED490B3246434621F07CFDBBF1000F2E
:100CA0005CBF41463046B7F1FF3F41EC100BA4DC7E
:100CB0004A4A224402F5200252EA0A0210D08DED7F
:100CC0000C0BBAF1010F9DF8372082F080028DF8ED
:100CD00037200C9A18BF02460D9818BF0846D0E37B
:100CE00021F070FD21219FED3E0B016085E79842C8
:100CF0007FF68BAF9C463C4B020D984248D340F2A6
:100D000033439B1A29FA03F202FA03F39945634627
:100D100006BF02F00102C2F1020A4FF0000A7CE7AE
:100D20009FED330B30464146CDE900EC21F0DAFC73
:100D3000314A324B3532B4F5801F3ABF4FF6CC32D0
:100D4000CFF6FF722146B4F5801F02EB21526FF3FC
:100D50001F5128BF304641EA0508994256D3284B17
:100D600099424FD20292012152E01548844280F00C
:100D700075827546644621F025FD2221BBF1FF3FB7
:100D8000016040F3DD8151EC180B2A46234660E3F5
:100D9000B9F1000F00F01F834FF0000A41E721F086
:100DA00011FD222101600FF64000BBF1000FC8BF0A
:100DB000083090ED000B20E7000000000000F03F3D
:100DC000FFFFEF3F0000F07F000000000000000088
:100DD000FFFF3F430100E0410000F03F000070BF13
:100DE000000000000000F87F0000404100BF00BF8D
:100DF0000000000000004043CCFBFFFF8F98030081
:100E00007AB60B00F44B013241EA0308002102924A
:100E1000DFF8E8270991074602EBC102414692ED4F
:100E2000000B55EC106B32462B460396049009F0EC
:100E30000DFB04468A46304629463A46434609F0A9
:100E40000AFB1FED230B02460B4621F0A3FC079083
:100E500002460B460691204651460EF009F90890CD
:100E60004FF000500F460022099940EA580000EB6D
:100E70008140394600F50026002033460EF0F8F890
:100E800021F062F9039A04468A46002031462B4637
:100E900009F0DCFA024604980B46414609F0D6FAFE
:100EA00002460B46002039460EF0E2F821F04CF9DC
:100EB00002460B46DDE906100EF0DAF807900691BF
:100EC0000D460446394600223B46089E304609F04E
:100ED000C2FA02460B46204629460EF0C9F8804663
:100EE0008A463046394632463B4605970EF0C0F8F2
:100EF0009FEDBB0B06460F4621F0F4FB9FEDBA0BAE
:100F000021F0CCFB21F0EAF89FEDB90B21F0C6FBF4
:100F100021F0E4F89FEDB80B21F0C0FB21F0DEF8E2
:100F20009FEDB70B21F0BAFB21F0D8F89FEDB60B7F
:100F300021F0B4FB05460C4621F018F92A46234659
:100F40000EF096F802460B464046514609F083FAE9
:100F5000059D80460C460020002229462B460EF0B7
:100F600087F89FEDAB0B07460E4621F097FB4246F4
:100F7000234609F070FA9FEDA80B00208A4621F065
:100F80008DFB3A46334609F061FA02460B4640466D
:100F9000214609F05BFA024608980B4629460EF0F6
:100FA00067F804460E46DDE90610002253460EF0AF
:100FB0005FF82246334609F04EFA07460E460020F7
:100FC0002946002253460EF053F83A46334604466B
:100FD0000D4609F040FA002022462B468A4609F0C9
:100FE00035FA02460B463846314609F02FFA9FED96
:100FF0008C0B21F077FB9FED8C0B04460D460020F7
:10100000514621F06FFB21F0ADFB0246DFF8F00501
:10101000099C0B4600EBC40090ED000B51EC100B4B
:1010200009F019FA9FED820B089005460E460791CC
:101030000020514621F056FB2A463346CDE90510E3
:1010400009F009FA0246DFF8BC050B4600EBC400C4
:1010500090ED000B56EC107B3846314609F0FBF959
:101060000546029888461EF0C1F904468A4628467D
:1010700041462246534609F0EEF9002022465346E7
:1010800021F080FA3A46334609F0E0F9DDE905320D
:1010900009F0DCF902460B46DDE9071009F0D6F944
:1010A00041EC1A0B4846594600225B4609F0CEF93E
:1010B00004460D4651EC1A0B4A465B460DF0D8FF2C
:1010C00057EC196B804689462046294632463B46F6
:1010D0000DF0CEFF42464B4609F0BDF981468846E9
:1010E0003046394600225B460DF0C2FF07460D46EA
:1010F00041EC190B484641463A462B4609F0ABF9FC
:1011000006464D480C4600F5200081421BDD4B4849
:101110002044304310D19FED4A0B4846414621F010
:10112000BDFA82468B4621F01BF802460B4650461C
:10113000594617F075FCD8B121F044FB222101601B
:101140009FED410B42E142484249204088420FD383
:1011500041482044304340F08F8021F001F802469E
:101160000B464846414617F047FC002840F0848073
:10117000194924F00040884240F28780F04940F24B
:10118000134301EB10504FF4801121FA00F00121BC
:101190002044024661F31F52C0F30A515B1AA1F2C8
:1011A000FF31DA40002C48BF52420992234A02F133
:1011B000814242FA01F1002201EA00033846294641
:1011C00009F044F9024641EC190B0B4648464146EA
:1011D00009F041F90C465AE00000E03F00BF00BFB3
:1011E000EF4E454A287ECA3F65DBC9934A86CD3F0C
:1011F00001411DA96074D13F4D268F515555D53FF2
:10120000FFAB6FDBB66DDB3F033333333333E33F89
:10121000000000000000084000000000000008C0BE
:10122000FD033ADC09C7EE3FF5015B14E02F3EBE3B
:10123000000000E009C7EE3FFFFFEF3F000070BF76
:10124000FE822B654715973C000000000000F07FF0
:1012500000FCFF7F00CC904000346F3FAC42CDE9F2
:1012600000EC40F2248121F0ADFA2221BBF1010F04
:101270000160BFF665AF03E021F0A4FA222101600E
:10128000DDE9002351EC180BE3E00020099053EC5A
:10129000192B0020214609F0D9F802460B46484692
:1012A000414609F0D3F89FEDBE0B05460E460020DF
:1012B000214621F017FA9FEDBC0B074688462846C9
:1012C000314621F00FFA3A46434609F0C4F89FED43
:1012D000B80B089005460E4607910020214621F0E4
:1012E00001FA2A4633468346069109F0B4F80246CD
:1012F0000B46824689460DF0BBFE9FEDAF0B0446C0
:10130000884621F0EFF99FEDAE0B21F0C7F920F0F0
:10131000FDFE9FEDAD0B21F0C1F920F0F7FE9FED32
:10132000AC0B21F0BBF920F0F1FE9FEDAB0B21F0EF
:10133000B5F920F0EBFE20F001FF04460F465046C1
:10134000494622463B460DF093FE9FEDA50B054610
:101350000E462046394621F0A1F902460B462846A2
:1013600031460BF011FE069B04460F465046494697
:101370005A4609F06BF802460B46DDE9071009F002
:1013800065F805460E46504649462A4633460DF056
:101390006FFE2A46334609F05EF802460B462046A9
:1013A000394609F053F820F0C9FE9FED670B21F094
:1013B00075F9099A41EC100B01EB0251B1F5801F50
:1013C000AEBF41EC100B10460DF03AF951EC180B82
:1013D00053EC102B3DE040F213439B1A20FA03F22A
:1013E00002FA03F39842634612BF4FF0000A02F07C
:1013F0000102C2F1020A884215D18348204400F557
:10140000200030433FF4F9AB9C4226D99FED500BAE
:10141000BBF1FF3F50EC101BC4BF5846494640EC9F
:10142000101BFFF7EABBA8420CD19FED470B3246D9
:101430003B4621F0AFF9BBF1000F5CBF39463046A7
:10144000FFF7D9BBBBF1804F1FD13046394632463A
:101450003B460DF00DFEFFF7CEBB8DED0A1B9FED59
:101460003C0BBBF1000F9DF82F000A9A80F0800022
:101470008DF82F0051EC100B58BF02460B9858BF47
:10148000084640EC102BFFF7B8BB002F3FF5C9AB67
:10149000594A93457FF4C5ABB0EE420AF0EE620ABA
:1014A000BDEC141B01B0BDE8F04F0AF09DBD9FEDEF
:1014B0002E0B3046414621F0F1F89FED2D0B0646EC
:1014C0000F4621F00FF99FED2C0B21F0E7F820F0EB
:1014D00005FE9FED2B0B02460B4651EC100B08F05E
:1014E000B5FF04460D4620F041FE22462B460DF086
:1014F000BFFD9FED250B21F0F5F89FED250B044670
:101500000D463046394621F0EDF821F02BF99FEDDC
:10151000220B80460C463046394621F0E3F842461D
:10152000234605460E4608F096FF00202A4633461D
:1015300021F028F802460B4640462146AEE500BFA2
:1015400002FCFFFF00BF00BF000000000000F03FF2
:101550000000000000000000000000000000F03F5C
:10156000000000000000F0BF000000000000F0BF1D
:10157000000000000000D0BF555555555555D53FCA
:10158000000000000000E03FFE822B654715F7BF1A
:1015900044DF5DF80BAE543E000000604715F73F96
:1015A000396CA80C615C20BEEF39FAFE422EE63F92
:1015B00000000000432EE63FD0A4BE726937663EAD
:1015C000F16BD2C541BDBBBE2CDE25AF6A56113FC3
:1015D00093BDBE166CC166BF3E5555555555C53FAA
:1015E00000000000000000C000000000000000003B
:1015F000000000000000F07F0000E03FE84F020024
:10160000F84F020008500200000070BF8EB0DFF8F3
:101610008869B41D204620F07BFE204620F0E4FEC1
:10162000DFF878B9584620F06DFBF060584620F09E
:1016300069FE20F0C7FEDFF86849A06021F0BEF81F
:10164000771DE060384620F075FE21F0D3F8206168
:1016500020F01CFE6061601C04F11C0118F054F8BD
:1016600004F12C0020F05FFCDFF8381920624FF005
:10167000000A04F1540041F270720023CDE900A683
:10168000049018F01FFDDFF82009DFF82019DFF8BB
:1016900020990022152300901020C847DFF8141964
:1016A000102000220223C8470FF0C6F8DFF80819FF
:1016B00010200122C847DFF8041910204FF0FF3234
:1016C0004FF0FF38C8471EF029FA1EF013FA1EF03B
:1016D000D7FC18F0D5FA1FF03DFC21F087F8DFF8B1
:1016E000E018086014F062FD17F0D4F90FF054FA16
:1016F000351D3946284620F005F9606028463946F0
:1017000020F0F6F8284620F01BFE06F1100020F02D
:1017100013F806F1140020F06FFC06F1180020F019
:1017200071FC6178DFF89C785020B847DFF8981892
:1017300002461020C84761785020B847DFF88C185F
:1017400002461020C847DFF888181020FB2240F618
:101750004803C847DFF87C181020C8472546617841
:10176000502025F83C8FC5E903AAC5F814A0B84756
:101770000346DFF8640802210422CDE90010DFF8F7
:101780005C181020C8472846182121F01FF8DFF800
:101790005018102080228023A5F80080CDF800B0DA
:1017A000C847F070DBF86800DD4988420ED0DBF8EE
:1017B0006C00DC49884209D01FF03CFEF068DFF87D
:1017C00024188022802320F075FFF070DFF81018B5
:1017D000102080228023CDF800B014F073FBF0704D
:1017E00015F0D0F8DFF8005828709BF8700020F052
:1017F00071FDDBF87C0020F003FE19F077FD1CF092
:1018000069F8E068807808B913F004FD07F0AEFFCE
:1018100015F086FCE1689BF878202878097813F0A9
:101820003DFDE068017839B9817829B9417819B965
:10183000C17809B9007988B1002000251FF0E2FDC8
:101840006069017851B10570DFF8740701210F223A
:10185000006800688068A0611FF08AFBDFF8B49719
:1018600001200DF11C080DF1370A0DF1350BB07197
:10187000F07900214FF040424FF0FF330130F0711A
:10188000E0690EF0ADFD05463079062800D090B92C
:101890006068007878B1707968B940F6B83022781D
:1018A000DFF84817012320F005FFDFF84417087020
:1018B000606800210170002D00F0E78000200DF12C
:1018C0001B01059006A805AA1CF04BFF002840F05C
:1018D000DA80BDF81800102840F0D08060789DF8BC
:1018E0001B10814240F0CA80059F4FF6FF70398877
:1018F000814200F0C480080AC9B2912900F08180B9
:10190000B02900F0B680D02940F0B980B978072915
:1019100000F20282DFE811F00800B200B200B2006B
:10192000B20028025902950200210028317140F0CE
:10193000A5800020F97A4246ADF81F00B8798DF8ED
:101940001C00B7F807008DF823100821ADF81D0022
:10195000B7F80900ADF82100002016F0E1F9DFF832
:10196000A416DFF8A426DFF8A4361020009414F0A3
:10197000A9FA000640F00E83102022784946002381
:101980004F460090DFF888060190102014F09AFA74
:10199000000640F0FF82142022783946012300908F
:1019A000DFF874060190102014F08CFA000640F065
:1019B000F1822278DFF864161020922314F082FA64
:1019C00040F6B8302278DFF82416012320F072FEAA
:1019D000010640F0DF82DFF8181608706068002109
:1019E00001701DF00FFE701C01214FF47A7200236C
:1019F000CDE90010DFF82806DFF8A81518F062FB23
:101A00003CE03E2800F099810F2800F09C811028CE
:101A100000F0A5810E2831D1B88841F205418842F5
:101A20002CD1B968087848BBB1F80100A28F824276
:101A300024D1C9787F2921D094F84D20531C224409
:101A400084F84D3082F84810052294F84D10B1FB0F
:101A5000F2F202EB8202891A002284F84D10002172
:101A6000052900F016826318013193F948301A44B1
:101A7000F6E7397907F1080021F06EFB059F17B1F1
:101A8000384620F0F0FE680025D4A06800780028D1
:101A90007FF4EEAE307940F00200072806D12278BC
:101AA000DFF888151020132314F00CFA2069007851
:101AB000002800F06E82307ADFF82815802280231B
:101AC00001303072DFF8D40420F0F4FDF070A0682B
:101AD00001210170CCE6206A20F0AAFC0028D4D1B4
:101AE000206A1FF083FC0028F5D0054600780138F5
:101AF000082800F20981DFE810F0090007011D0045
:101B0000070140004900FA0017002A0068680078C1
:101B1000032840F0F980032041461BF0EFFAF3E080
:101B200015CD5B07B168DE3A6868B0F8010015F0C2
:101B30006DFEEDE0686801684A1E072A00F2DA804F
:101B40000121DFE802F0DDDCDEDDDEDEDEDC6A68FE
:101B5000204630F83C1F5288891A18BF012141EAFB
:101B6000410100EBC100C07D002800F0CD80DFF80E
:101B7000B814102014F0A6F9C6E06868DFF8A414C1
:101B80000023C288D14820F095FDBDE001205146D8
:101B90001BF0B4FA10B9012020F0F8FD02205146E4
:101BA0001BF0ACFA10B9022020F0F0FD03205146E2
:101BB0001BF0A4FA10B9032020F0E8FD04205946D8
:101BC0001BF09CFA20B9042002215A4611F072F948
:101BD000052041461BF092FA20B905200421424617
:101BE00011F068F9002020F06BFE10B9002020F001
:101BF000B1FD012059461BF05FFD20B901200221F3
:101C00005A4612F0C1F9022020F05AFE10B9022003
:101C100020F0A0FD032020F053FE10B9032020F097
:101C200099FD042020F04CFE10B9042020F092FD14
:101C3000002020F03CFE10B9002020F077FD0120AC
:101C400020F035FE10B9012020F070FD0220514631
:101C500014F002FD10B9022020F0A0FD032051462F
:101C600014F0FAFC10B9032020F098FD042020F0B5
:101C70001EFE10B9042020F059FD052020F017FEAB
:101C800010B9052020F052FD062020F016FE10B9F4
:101C9000062020F03BFD072020F00FFE10B90720A2
:101CA00020F034FD082020F008FE10B9082020F0B4
:101CB0002DFD092020F001FE10B9092020F026FD9D
:101CC0000A2020F0FAFD10B90A2020F01FFD0B2099
:101CD00020F0EDFD10B90B2020F028FD0C2051461E
:101CE00014F0BAFC80B90C2020F058FD0CE01DF077
:101CF00089FC09E0B1F1004F06D0102901D1002183
:101D00007171406820F01AFE686808B120F016FE74
:101D1000284620F013FEDEE611297FF4AFAE112035
:101D20003071B87B8DF82600B888ADF81C00788932
:101D3000002800F09D800020A5E0B8780C287FF4F2
:101D40009DAE0C2007E0B88842F2320188427FF451
:101D500095AE42F23200394614F076F88EE608204D
:101D600000211FF0DFFC89E60520A4493071102016
:101D700014F0A8F87978002940F0B4800390A08F7F
:101D80004FF6FF71884240F0A9807F890320A78722
:101D900020F0DAFD0028206400F09D800821017009
:101DA000206CA0F80170242020F0CEFD216C0028CA
:101DB000606400F08D8001220023CDE90021794983
:101DC00041F2707218F07EF985E006208B4930717F
:101DD000102014F077F80146BF88A08FB84229D1AF
:101DE000606C029178B1039020F01EFE10B1039850
:101DF00020F01EFE039820F041FE039820F09EFD87
:101E0000206C20F09BFD38461DF064FF38461CF026
:101E100017FE4FF6FF700299023880B2874202D057
:101E2000A08FB84206D14FF6FF70A0870020C4E90A
:101E30001200206508067FF421AE049820F0F8FD1A
:101E40001CE607206B49434630711020BA8814F015
:101E500039F804F124001EF077FB00283FF40EAEA1
:101E60000746008915F0D2FC384620F067FD05E6EC
:101E70000020ADF82200D7F80600CDF81E00B88982
:101E8000ADF8240001205C498DF82700102042465F
:101E90003BE011B2052291FBF2F194F84F20002AA9
:101EA00084F84E107FF4EAADC9B24AB212F11E0FA7
:101EB0002EDB94F8501041F0020102293FF4DEAD10
:101EC00000234FF0020E02213EE000BF40E201007D
:101ED000084620F033FD012084F85000049820F0DB
:101EE000A5FD0398227800060DD1B07858B940F6C8
:101EF000B8303E49012320F0DDFB3D4908706068A1
:101F000000210170BAE53E49102013F0DBFFB5E572
:101F1000D82909D394F850100229FFF4AFAD00235B
:101F20004FF0010E01210FE0CE2909D394F8501093
:101F300000293FF4A3AD012304214FF0060E03E076
:101F40004FF0020E0421022394F851C094F852700D
:101F5000ACEB0E02022F4FF00007B2FA82F238BF4C
:101F6000012752093A4208BFF4453FF487AD0A46BB
:101F700077461BF073FC0120394684F84F0094F833
:101F80005100B8421CBF002084F8520084F8511060
:101F900074E5FEE71FF0C0FC282F0020BC240020C1
:101FA000B42600203DD20100C42F00201587010077
:101FB000C55E0100BDD301009D0A02001DE40100C1
:101FC00058580020D1F40100D96C02102D6D021078
:101FD0000D520210397F011070330020D5CB000064
:101FE000DDFE010005FF0100D0580020ED74011056
:101FF000B0580020F9DC0110D9570110691902000E
:102000006502021099010110F9F90100602F00200A
:102010005832002009F90000043000201DEF0110A3
:102020001C540020E5EC01000D2B0210A1F9011059
:102030002DE9F84F01201CF0D1FA012816D1DFF864
:10204000E8663078002121F083F8040004BF002006
:102050001DF0A6FC00202072201D11F0F5FE05F0F9
:102060002FFD050003D1812021F06EF858E30120F7
:102070006871072015F083FADFF8B096DFF8B02614
:1020800099F80100401C89F80100A879A07240204D
:10209000317811700FF02AFE2860616D4A78206D4A
:1020A000D10620D5816C0A681179032908D0816C8A
:1020B0000868007903280CBF012000201DF070FC87
:1020C000206D816C0A6890F86C0002F10807012805
:1020D0001CBF00201DF064FC216D486F296800F5CD
:1020E000B060C8604EE0C16E0A681179032908D05B
:1020F000C16E0868007903280CBF012000201DF084
:102100004FFC206DC16E0A6890F8980002F1080734
:1021100001281CBF00201DF043FC216DB5F874316F
:10212000D1F8A0002968DFF80C26C86097F826606F
:10213000DFF80406032E1FD8DFE806F002061014AD
:10214000CA6802F5B06202E0CA6802F53472CA6079
:1021500005F59A7201881187038811E0C86800F5B7
:10216000355002E0C86800F6B870C86005F59A708E
:1021700011880187138803E0C86800F5B060C86063
:10218000A5F8743106222868C16801F59071C16014
:10219000B91C3878C0F3801085F82E0105F59470CD
:1021A0001FF00AFCA8791FF0EDFD060004BF002017
:1021B0001DF0F6FB94F8B90086F83A000422DFF827
:1021C0007C6507F10E0105F124001FF0F5FB306876
:1021D00095F806C000F10C03042207F10E0103EB91
:1021E0004C101FF0E9FB032207F1120105F1280052
:1021F0001FF0E2FB3068AB7900EB4313032207F1D9
:10220000120103F110001FF0D7FB05F12C08787DB7
:1022100088F80200022207F1160105F130001FF0D4
:10222000CBFB022207F1180105F132001FF0C4FBBD
:10223000022207F11A0105F134001FF0BDFBB8F8C6
:1022400008006884022207F11C0105F136001FF026
:10225000B3FB98F80200B8F80A10400088F80200B2
:102260000901B8F80400A8F80A104000A8F8040012
:1022700089B2B8F806004000A8F8060003046A8C8A
:10228000521CDB0B5A438A4201D280B238B9DFF8C4
:10229000B004007880210EF0BFFF3B2139E105F149
:1022A0002E01284620F04CFF0520A881284620F06A
:1022B00043FF052207F11E0105F161001FF07CFBC1
:1022C00097F82300400988F8000020F031FF688269
:1022D00005F59A72618D401AD08005F1610197F879
:1022E000230000F01F0088F80F00284620F01CFF94
:1022F000616D4A78206DD1064CBF816CC16E086853
:10230000DFF84074002101714FF01C0AA979386888
:102310001AFB01F141F6210242520021AB791AFB6E
:1023200003F303445980AA791AFB02F21044416076
:10233000616DDFF814044A78D1060DD5DFF80C146E
:102340008A7851060AD5DFF80824138841F20A4139
:102350008B4208BFDFF8FC03C5F89C01D5F89C113F
:10236000284688473A68A97902F10E031AFB01F161
:102370005854A8793A6802F10E011AFB00F3C95CBF
:10238000DFF8D4331A681154A97938681AFB01F1BF
:1023900001440020C87398F80C1088F80D10606D87
:1023A0004178CA061DD595F8960108B91DF0F8FACE
:1023B000A97938681AFB01F1014495F89601421E8B
:1023C0000A74A87939681AFB00F0084400214174A6
:1023D0003A68A97902F112001AFB01F10022425277
:1023E0002BE0A97938681AFB01F10144206D90F8BF
:1023F00040200A74A87939681AFB00F00844216D5E
:1024000091F841204274206D3968AB79403001F178
:1024100012021AFB03F34188D15205F5CB71007803
:10242000012200F0030082400A70226D92F8400001
:10243000800814BF0120022008713968A879DFF8EC
:102440001CB301F1140231681AFB00F301EB4010D8
:10245000D050A87939681AFB00F00844C04981615E
:10246000DBF814000078C1074CBF1F200F20DBF8F9
:10247000141009788A0748BF40F02000DBF81410D8
:1024800009784A0748BF40F04000DBF8141009788B
:102490000A0748BF40F080003168AA7901EB421377
:1024A00018723068A97900EB41120B205072316824
:1024B000AA7901EB42100421AA4A817210780128FE
:1024C00006D13168A87901EB40120121D17207E0F1
:1024D000DBF824003168AA79407801EB4213D87206
:1024E0003168A87901EB40121F2111763068AA7972
:1024F00000EB421100204876A8790FF071FDAA790F
:10250000316852018850AA7931685201885820B93F
:10251000072128461DF0BAFC02E19348AA79016818
:1025200001EB021020F0FCFDA87931688E4B01EB25
:102530004012196801EB00105060A979306800EB77
:1025400041125168C8F83C10AA79520181587C4860
:10255000C8F84410042100780EF05EFE616D4A78E0
:102560003868D10648BF02210AD4A9791AFB01F1C3
:1025700001440A7C02F00302022A14BF042106214E
:10258000B8F8042095F806C04FF4C8738A18698A11
:10259000AA615143B1FBF3F35B1C6B611AFB0CFCAA
:1025A000D5F800E06044DEF80CC040F6C41101FB31
:1025B00002C2D21AA2F5A8628260AA7938681AFB10
:1025C00002F283189A682B689A6000F10C03AA79CA
:1025D0001AFB02F20C309B5C03F0EF038354A879E2
:1025E0003A681AFB00F002F10C030C321B5C03F09A
:1025F0007F031354A8793A681AFB00F002F10C0328
:102600000C321B5C03F0F00343F002031354AB796C
:1026100038681AFB03F31844427B02F0F00242F0E0
:1026200001024273AA7938681AFB02F202449068E8
:102630002B6818613068AB7998F802C000F1140279
:10264000686940005B0111FB0C0000F5F660D0509A
:1026500095F8960104280DD13268A87902F1140387
:102660004FEA401C143253F80C00AB795B0100F5C3
:102670006160D0503068AA7900F114034FEA421C1F
:1026800053F80C20C5F83421AA7900EB4210C37C22
:1026900003F0F00343F00403C374DBF83000326846
:1026A000AB79006802EB431CB8F806204243642370
:1026B000B2FBF3F35943A1F59661CCF81C103068D6
:1026C000A97900EB4110C27E02F0F00242F0040250
:1026D000C276A97938682A681AFB01FA00EB0A0168
:1026E000516095F8FD00010703D50E21284620F022
:1026F00013FD1E49072008702046AA7989F8022098
:102700001BF08CFA1A488178880704D5AA79002131
:10271000204620F0FDFC28681649174A4161826175
:10272000BDE8F14F20F096B9D50F0020780E0020BB
:10273000D70F0020900F00208E0F00209C0E00204D
:10274000C70F0020980E002081010210C00C00204D
:102750009A0F00204DE5011088570020384F0200E5
:10276000980C0020CC0F0020A40E0020C80F0020E1
:10277000200E002065F20000020480801DF0EABBFC
:102780002DE9F84F2DED108BADF5247D00910A90C9
:10279000BE99DFF804079A469FEDDB8B002750F8BF
:1027A0002130AAF1010019460B931C181823D11EE1
:1027B00091FBF3F121EAE1710D1AA1EB810009917E
:1027C00002EBC00001908800DFF8D01668AEA0EBE5
:1027D0008A00084400F10408A7420FDCB0EE480A62
:1027E000E819F0EE680A05D458F827001CF0FEFD41
:1027F00041EC100BA6EC020B0137EDE768A89FED4A
:10280000C28B4FF0000918AE00EBCA00A0F1080817
:102810000B98814520DCB0EE489A0A9C002745467B
:10282000F0EE689A57450EDAB4EC020B51EC100B3F
:1028300095ED000B1FF0A6FF1FF098FF41EC190B60
:10284000083D0137EEE706EBC90008F1080809F179
:10285000010980ED009BDBE790ADDDF82C809FED5A
:10286000ACAB9FEDADBB9FEDAECB9FEDAFDB9FED76
:10287000B08B9FEDA5EB9FEDB0FB281F059000EB03
:1028800088000490A6F1080006900198C0F12F017D
:102890000391C0F1300118380291079006982E4636
:1028A00000EBC80B18A8CDF8208000EBC80090ED15
:1028B000000BB8F1010F28DB59EC105B53EC1A2B1D
:1028C000284649460CF0D4FB18F0D4FF1CF08EFDCE
:1028D00053EC1B2B07460C460CF0CAFB2A464B4612
:1028E00090AD07F0B8FD18F0C5FF9BED000B01C6D9
:1028F0003A46234651EC100B07F0ADFD41EC100BAE
:10290000ABF1080BA8F10108D3E7079F38460BF09D
:1029100097FE54EC106B53EC1C2B304621460CF008
:10292000A7FB41EC100B0BF00FF951EC100B53EC23
:102930001D2B0CF09DFB3246234607F08CFD044610
:102940000E4618F097FF80461CF050FD02460B46DD
:102950002046314607F07AFD41EC190B81460C46C2
:10296000012F32DB089E029B05EB860050F8041C09
:1029700041FA03F202FA03F39044C91A40F8041C26
:10298000039841FA00FBBBF1010F5EDB002700203A
:10299000B04210DA55F8201017B16FF07F4202E014
:1029A00039B14FF08072511A012745F820100130DB
:1029B000EEE70027FBE70798012825DB0198192897
:1029C00018D01A2820D15E4817E0089E5FB153EC5A
:1029D0001F2B4846214616F019F8002840F0918038
:1029E0004FF0000B31E005EB860050F8040C4FEA85
:1029F000E05BC8E7524800F5800005EB860151F81E
:102A0000042C104041F8040C08F10108BBF1020F3E
:102A10001BD151EC180B4A46234607F017FD41EC39
:102A2000190B87B10446B0EE480A07980D46F0EE40
:102A3000680A0BF005FE53EC102B2046294607F0E0
:102A400005FD41EC190B4FF0020B059C51EC190BE5
:102A500053EC1E2B15F0BCFF002873D0002031462C
:102A60000B9A914204DD54F8212001391043F7E715
:102A700000280498B14640F0818050F8041909F10B
:102A800001090029F9D00AEB060068A90DF1600BD5
:102A900001EBC008771C4E4530DA0998DFF8FC13CB
:102AA000384451F820001CF0A1FC06EB0A0268AB88
:102AB000B0EE4E9A41EC100B0A9C0025464603EB03
:102AC000C202F0EE6E9A82ED000B55450EDAB4ECC0
:102AD000020B51EC100B96ED000B1FF053FE1FF094
:102AE00045FE41EC190B083E0135EEE70BEBC70044
:102AF00008F108083E4680ED009BCBE7C84690AD44
:102B0000CCE64FF0020B41E700000000000000009F
:102B1000000000000000703E00000000000070C1D6
:102B2000000000000000C03F00000000000020C0C6
:102B3000000000000000F03F000000000000E03F47
:102B4000FFFF3F00DDF80490B0EE490AF0EE690A9D
:102B5000C9F118000BF074FD54EC105B9FEDCC0B29
:102B60002846214653EC102B15F050FF80B928461B
:102B7000214618F07FFE074690A924E00798CDE98A
:102B800009B854F82610013E18380029F9D01FE082
:102B900053EC1A2B284621460CF06AFA18F06AFE0C
:102BA00007461CF023FC53EC1B2B0CF061FA2A4661
:102BB000234607F050FC18F05DFE90A9CDF81C905C
:102BC00041F8260001360798CDE909B841F826708A
:102BD0009FEDAD0B0BF034FD18A8B0EE408A3546E2
:102BE00058EC1ABB089600EBC609F0EE608A304636
:102BF0004C46B5F1FF3F1BDD90A850F825001CF0B6
:102C0000F5FB57EC186B02460B46304639460CF084
:102C10002FFA41EC100B304639465A46434684EDB4
:102C2000000B0CF025FA41EC180B083C013DE0E7E5
:102C30009FED938BDFF868A2DDF820B00DF580786A
:102C4000BBF1000F25D40898B0EE489A00264C46F8
:102C50005746F0EE689AA0EB0B050CE0B7EC020BC0
:102C600051EC100BB4EC020B1FF08CFD1FF07EFD3D
:102C700041EC190B01360B988642D8BFAE42EDDD10
:102C800008EBC500A9F10809ABF1010B80ED009B31
:102C9000D6E7BE99481E022815D3002969D0DDF871
:102CA00020B0032940F0E28008EBCB0A5746BBF185
:102CB000000F72DD1EF0C2F81EF084FD1FF02CFA2A
:102CC0001EF0A8FFF3E7089F9FED6D0BDDF8009065
:102CD000099E08EBC7043D46002D0AD451EC100BA9
:102CE00094ED000B1FF016FD41EC100B083C013D6C
:102CF000F2E78DED100B53EC102B002E9DF84700E2
:102D000080F080008DF84700109808BF1046119998
:102D100008BF194641EC100BDDE9400189ED000BBD
:102D200007F094FB41EC100B08F108040125BD42AB
:102D300009DC51EC100BB4EC020B1FF0EBFC41EC86
:102D4000100B0135F3E78DED0E0B002E9DF83F00C3
:102D50000E9A80F080008DF83F0051EC100B08BFF8
:102D600002460F9808BF084640EC102B89ED020B75
:102D70007CE0089E9FED420B009D099F08EBC60476
:102D8000002E19D451EC100B94ED000B1FF0C2FC77
:102D900041EC100B083C013EF2E7DDF820B057464D
:102DA000BBF1010F1EDD1EF049F81EF00BFD1FF0F8
:102DB000B3F91EF02FFFF3E78DED0C0B002F9DF8FC
:102DC00037000C9A80F080008DF8370051EC100B22
:102DD00008BF02460D9808BF084640EC102B85ED51
:102DE000000B43E09FED260BDDE90845022C0BDBD1
:102DF00051EC100B9AED000B1FF08CFC41EC100B0A
:102E0000AAF1080A013CF1E79DED401B3DB38DEDB1
:102E1000121B9DF84F0080F080008DF84F009DED53
:102E2000121B009981ED001B8DED140B9DF85700CE
:102E300080F080008DF857009DED140B81ED040BA0
:102E40009DED420B8DED160B9DF85F0080F080002C
:102E50008DF85F009DED160B81ED020B06E00098EA
:102E60009DED422B80EC041B80ED040B0A9800F0D2
:102E700007000DF5247DBDEC108B01B0BDE8F08F8F
:102E80000000000000000000000000000000F03F13
:102E900000000000000070411C540200784702004E
:102EA000784E02002DE9F04F054687B0A978DFF88B
:102EB000DC66002710294FF0060A3CD8DFE811F045
:102EC000110061036103610361033C00CB006103F6
:102ED0006103C5021101FC00160361039702DC02C5
:102EE00059036878002826D120F00EF9044620F016
:102EF00007F905461CF012FD8DF80000224610214E
:102F000002201CF0FFFF2A46102103201CF0FAFFCC
:102F10006A46012104201CF0F5FF9DF800000128FD
:102F200018BF032807D1012016F02AFA024606210D
:102F300006201CF0E7FF24E368780028FBD195F811
:102F40000CB06C8900900023E97801AA01F001011E
:102F5000281D0FF0EFFC00284FF0010871D19DF8FB
:102F60000400FDF715FA8146BBF1080F08BFB8460B
:102F7000307A80001EF04EFF050003D104201CF0C3
:102F80000FFDFEE2707802280CBF012000200090A7
:102F90005B469DF804104A462046FDF75CFC14226F
:102FA000002102A81EF0FEFC9DF804001AFB00F0B0
:102FB00002AA102124301CF091FFA8B91022FF2191
:102FC00002A81DF066FE78B99DF804001AFB00FA0D
:102FD00006AA04210AF125001CF080FF02AA09F0CC
:102FE0000101204620F088F8317A9DF804002A4635
:102FF0008900E0301CF072FF98B92846FDF731F9DE
:10300000BA4609E005EB8000018819B182782046B4
:103010001DF054FD0AF1010A317A5FFA8AF0884204
:10302000F0D3B07A30B95FEA897003D531782046A1
:103030001CF018FF9DF80400FDF7E5F928461EF086
:10304000F1FE7078022805D1B8F1000F02D02046B9
:1030500015F0F2FF95E2A888FDF72CFD20F048F866
:103060000028F7D1F07D012808D1FDF71BFAF2798D
:10307000706AF77500211EF095FC17E0307E01287C
:1030800003D1FDF7B6FA377610E000240AE0706A43
:10309000E5B2415D012904D1E0B2FDF714FA716A8D
:1030A0004F55641CE0B2F1798842F0D350201DF0F6
:1030B00095FDFDF781F964E220F056F800280CD068
:1030C000F06900281CBF0468002C07D02869009014
:1030D0006B7B2A7B6989E81CA04751E26889012142
:1030E00044E268780024002840F0DA80A879C1071B
:1030F00040F1D6800822002105A81EF053FCA888C4
:1031000020F056F8040000F08E806F694FB306225D
:10311000002107F111001DF0BCFD68B31022002151
:1031200038461DF0B6FDD0B9387C00F001084FF0EC
:10313000000909F1010987F811900020009000238F
:103140000022414607F111000FF0F4FB00285FFA5E
:1031500089F002D10028ECD101E000280CD1002038
:1031600068610622607900F001008DF81A00A11D47
:1031700005A81EF021FC1FE06F69EFB1387C00F05C
:1031800001008DF81A00062207F1110105A81EF0B2
:1031900013FC6079012805D10622A11D04F10C0061
:1031A0001EF00AFC062207F11101A01D1EF004FC0E
:1031B000387C40F002006071A879410720794CBF4B
:1031C00040F0020000F0FD002071A9790A0754BF09
:1031D00000F0DF0040F020002071A8799DF81B105E
:1031E000DFF8AC83800800F0010008438DF81B0075
:1031F0004FF0FF09A979C90801F0010140EAC100B7
:103200008DF81B00FF2469691E2779B310226846D8
:103210001EF0D2FB102168461FF066FF4FF0000B36
:10322000DFF870930CE0FDF767FC0028D5D030780C
:1032300004210DF0F1FFD0E70BF101005FFA80FBF4
:1032400099F80000834510DAD8F8001007FB0BF05E
:103250000A5CFF2AF0D0084400F10D0110226846F4
:103260001DF058FF0128E7D15C46A14600200090E0
:1032700000239DF81A1004AA05A80FF05BFBB9F112
:10328000FF0F5CD034285AD1707D30B3012856D15D
:10329000A88805211FF064FF0124A888FDF70AFC17
:1032A00068780B2804BFA888FDF746FCF069002861
:1032B0001CBF4368002B0FD06A78A888012198476B
:1032C0006878002808D1A879C10705D5F369A888CE
:1032D00022465C680321A0474BE1D8F8000000219A
:1032E00007FB09F400910023015D401C04AA20445F
:1032F0000FF020FB18BB9DF81000FDF7E4F8F0B9C3
:10330000FDF75AF8FDF7ABF88DF81000E8680028D3
:103310000CBF00210169002201900392029105A9CE
:10332000686900902B69AA689DF81000FCF7ADFF52
:103330000446A888FDF7D4FA200046D14BE00020CF
:10334000009000239DF81A1004AA05A80FF0F2FAC5
:1033500020B1FDF784F88DF8100019E06869B8B164
:103360009DF810001AFB00FA6A4610210AF12300AA
:103370001CF0B4FD60B91022FF2168461DF089FCE5
:1033800030B99DF81A0005A900F001001FF008FFF0
:103390009DF81000F179884227D2E86800280CBF18
:1033A00000210169002201900392029105A9686938
:1033B00000902B69AA689DF81000FCF766FF044690
:1033C000A888FDF78DFA200005D09DF81000FDF7C4
:1033D0007AF8FCF7F1FF200008D1707A0028A8885D
:1033E0007FF45CAFFDF71AFB5AE7152455E76878C0
:1033F00006281FD1A8881FF0DBFED8B1317D491EF9
:10340000032917D8DFE801F0020E08134179A888D4
:103410000022FDF7B5FA0DE00022002140F209403C
:1034200003F0B6FCA88805211FF09AFE02E0A888E8
:10343000FDF782FBF06900281CBF4368002B03D016
:103440006A78A888022198479AE000970023E978D3
:1034500001AA01F00101281D0FF06CFA0028F3D138
:103460009DF804001AFB00FA05F10C0204210AF190
:1034700025001CF047FD83E0F06900281CBF43686D
:10348000002B03D0A888002200219847707810B93B
:10349000A88805216AE0A8881FF08AFE040070D081
:1034A000A87AC10712D5009700236179002201F0A4
:1034B0000101A01D0FF03EFA00281EBF6079002810
:1034C000012803D0E868C0F3402028B1707C0228AE
:1034D00007D1A87A010704D4A88803211FF000FEB1
:1034E0004FE06179A88805F1080227E02F7BAD88BD
:1034F00028461FF05DFE040042D01FF035FE002874
:103500003ED100900023617901AA01F00101A01DC4
:103510000FF010FA28BB9DF80400FCF739FF07F004
:103520000C07042F11D0082F0BD00C2F0FD100F057
:10353000090109290BD0617900222846FDF720FAFC
:103540001EE010F0090F02D1F5E7C107F3D5012203
:103550000092A37C9DF8041002462846FDF77BF9F3
:103560000EE070780028E6D1052128461FF0B8FD4E
:1035700006E0FDF7C1FA18B1307804210DF04CFED9
:103580000127384607B0BDE8F08F00BF08220020B1
:10359000680F0020A25800202DE9F84F2DED068B72
:1035A00096B059EC105BEB4829F0004686421CD8D7
:1035B000B0EE408A28464946F0EE608A18F05AF983
:1035C000E5498E4202D8002800F0FD819FEDE41B02
:1035D000B0EE480A0020F0EE680A16B0BDEC068B8B
:1035E00001B0BDE8F04F08F0DBBADF48864208D3EF
:1035F000284649462A464B4606F028FF41EC180B60
:10360000E1E1DA48864213D84846DB496FF31F50A0
:10361000884261D0F14886424FD8B9F1010FC0F21B
:103620004A819FEDEF0B1EF04DFD9FEDEF0BABE1DF
:10363000CF48864210D8EE48864249D8ED488642A7
:103640004AD0B9F1010FC0F299819FEDEB0B1EF04A
:1036500039FD9FEDEB0B34E1C64886423CD9EA4880
:103660009FEDEB1B0DF1400B00EB165057EC11AB2F
:103670000390A6EB005040EC105B0025102D00F0ED
:10368000EA8054EC106B0BEB05083046214618F02D
:10369000F1F81BF0ABFE41EC100B02460B46304636
:1036A000214688ED000B06F0D1FE52463B460BF05A
:1036B000DFFC41EC100B0835E0E7B9F1010FC0F277
:1036C00015819FEDE70B1EF0FDFC9FEDE70B13E16D
:1036D000CE48864240F0E5809FEDEB0B28464946F8
:1036E0001FF048F89FEDEA0B53EC102B06F0B3FEE9
:1036F0009FEDE90B53EC102B06F0ADFE9FEDE00BB8
:1037000083468A461FF036F802460B46284649464D
:1037100006F0A1FE9FEDD80B04460D4658465146D3
:103720001FF028F81EF051FF2046294645EC194BA2
:1037300006F08CFE41EC180BC1F30A505146C0EB69
:103740001657584618F096F88046112F6DDB9FEDFE
:10375000D40B300D5146029058461FF00BF8064628
:10376000CDF80C808846204629463246434606F06E
:103770006DFE81460F4641EC190B204629464A460C
:103780003B4606F063FE43463246DDF80C8006F009
:103790005DFE9FEDC50B04460D46584651461EF092
:1037A000E9FF22462B4606F051FE1EF00EFF48466A
:1037B000394606F04BFE41EC180BC1F30A50029952
:1037C000081A322831DB9FEDBA0B584651461EF0DD
:1037D000D1FF06460C46484639463246234606F097
:1037E00035FE80460D4641EC190B484639464246A7
:1037F0002B4606F02BFE3246234606F027FE9FEDB1
:10380000AE0B04460E46584651461EF0B3FF224604
:10381000334606F01BFE1EF0D8FE4046DDF80C8055
:10382000294606F013FE41EC180B51EC190B53EC32
:10383000182B06F00BFE53EC1A2B06F007FE41EC9A
:10384000110B08F0030002285ED0012800F0A480CC
:1038500000283ED1B1E08DED140B9FED6F0B0BF105
:103860001004042556EC107B94ED000B3A463346C9
:1038700051EC100B15F0ACF8083C013D0028F3D1D9
:1038800001202B46009010A80CA9039AFEF778FFA0
:103890009DED0C8B8046B9F1FF3F42DD9DED0E1B87
:1038A000CFE7B9F1010F7ADB9FED610B1EF00AFC47
:1038B0009FED610B79E09FED6E0B1EF003FC9FED19
:1038C0006E0B1EF09FF91EF08DF91EF037FF41ECD4
:1038D000110B1EF03FFC8DED040B9DF8170080F0DE
:1038E00080008DF817009DED048B6CE09FED580B68
:1038F0001EF0E8FB9FED580B1EF084F91EF072F9E4
:103900001EF01CFF41EC110B1EF0EAFA8DED060BC8
:103910009DF81F0080F080008DF81F009DED068B44
:1039200051E09DED0E0BC8F100088DED0A0B8DEDF9
:10393000088B9DF82F0080F080008DF82F009DF8F7
:10394000270080F080008DF827009DED0A1B9DED7B
:10395000088B76E7FB21E93FFFFF4F3E00BF00BF2A
:1039600000000000000000000000F07F7A6A0F40B5
:103970003B461C40FA213941FB2109009FED300BE9
:103980001EF0A0FB9FED300B1EF03CF91EF02AF953
:103990001EF0D4FE41EC110B1EF0DCFB0FE09FED9E
:1039A000200B1EF08FFB9FED200B1EF02BF91EF05D
:1039B00019F91EF0C3FE41EC110B1EF091FAB0EEA6
:1039C000408AF0EE608AB0EE480AF0EE680A16B05F
:1039D000BDEC068B01B0BDE8F08F00BF7CD9024082
:1039E00000004054FB21F9BF3163621A61B4D0BDBD
:1039F000BCFD15407CD912400000307F7CD912C03C
:103A0000CA9493A7910EE9BDEAFBFFFFFB21194081
:103A100000000000000070410000000000000000F5
:103A200000004054FB2119403163621A61B4F03D3B
:103A300000004054FB2119C03163621A61B4F0BD2B
:103A40000000307F7CD91240CA9493A7910EE93DC3
:103A500000004054FB2109403163621A61B4E03D2B
:103A600000004054FB2109C03163621A61B4E0BD1B
:103A700000004054FB21F93F3163621A61B4D03D2C
:103A800000004054FB21F9BF83C8C96D305FE43F9B
:103A9000000000000000384300000000000038C3B0
:103AA0000000601A61B4D03D7370032E8A19A33BE5
:103AB0000000002E8A19A33BC14920259A837B3937
:103AC0002DE9F04F85B00D460295044615F8011B0F
:103AD0008DF801100022DFF8E41488788DF80020BA
:103AE00004F1660B1EF04EF901902C219DF80100A7
:103AF000DFF8CC24032804F1F40604F5B07A04F5C9
:103B00009C7704F5C87804F2171900F0E1800728C3
:103B100000F01382082818BF092811D00C2800F0E3
:103B2000D7810F2811D0112800F04481182800F007
:103B300092811A2800F057811B2800F07C811AE23C
:103B40002946204614F07CFE15E2707ADFF8748472
:103B500081070AD40F2089F8020020461FF0BCFA22
:103B6000002872D198F80000DCE12878697800EB31
:103B700001223A82A878E97800EB01227A8228793A
:103B8000697900EB0122BA82A879E97900EB012278
:103B9000FA82287A3876697AA87A01EB00227A8349
:103BA000E87A297B00EB0122BA83687BA97B00EBD2
:103BB0000122FA83E87B297C00EB01223A84687CAD
:103BC000A97C00EB01227A84E87C297D00EB0122AC
:103BD000BA84687DA97D00EB0122DFF8EC03FA844A
:103BE00001788A0658BF4FF01A0A13D504F5AA7057
:103BF0000490798B0391387E029021890191F88A93
:103C00000090BB8A7A8A398A20461FF061FAE8B1AF
:103C10004FF01E0A707A41070AD40F2089F802007B
:103C200020461FF059FA00280FD198F8000079E1DA
:103C300052460F2120461FF047FAF88A0090BB8AAF
:103C40007A8AA179504616F0BBFA72E104F1860037
:103C5000798A81800023BA8AC2800222F98A01818E
:103C600002704380A18EC91DABF81E10628E818840
:103C7000B1EB520F02BFC188A28E914202BF0089F0
:103C8000E18EB0EB111F21D09BF81000012804BF7A
:103C90009BF811000F280CD09BF8150000281CBFC2
:103CA0009BF811001A2804D00F218BF81A10FE215E
:103CB0007CE0FC2120461FF02FFAF88A0090BB8A96
:103CC0007A8A398AA0791FF0FBF932E110216DE080
:103CD000707AC10709D431781A200129707002D195
:103CE000FF220D213DE00D2160E000208BF8000057
:103CF0008BF80600012232712946082204F1B00037
:103D00001FF0DAF90146022204F1B8001FF0D4F9DD
:103D100004F1A8050146082228461FF0CDF9074600
:103D2000082128461FF0E0F904F19C0504223946D9
:103D300028461FF0C1F9042128461FF0D5F904F1E7
:103D4000A0001FF0B5F904F198001FF0ADF99F48ED
:103D5000018841F0800101803078012805D1FF22DF
:103D6000042120461FF09CF9E3E09BF811600F2E20
:103D700018BF142E07D00E2E18BF0C2E03D01A2EEB
:103D800018BF162E11D19BF81070FF220421204677
:103D90001FF086F9012F06D18BF81A601A2E14BF76
:103DA000FD21FB2102E0314600E0042120461FF006
:103DB000B3F9BEE028788AF800001A286B788AF8F0
:103DC000013040F0D8801068A679431C4E43002093
:103DD0009855A379126811FB03F111440871A17978
:103DE0009AF80100C0E0A77910682E784F43074485
:103DF00006F01F0317F8210FB60938B17878F040A4
:103E0000C00703D598F80600042805D120221A21FE
:103E100020461FF059F98CE0FB701068A27911FB65
:103E200002F10144204681F8236000211EF0CCFD00
:103E30000028F0D174E0A37910684B430344D8887C
:103E400008B900265E701068A27911FB02F10144E6
:103E5000002008716DE069782878884204BF084026
:103E600010F0070F6DD19BF81100162806D198F8B5
:103E70000620A179134600200DF068F9022088F889
:103E80000200012101984177012398F8060098F873
:103E90000A1088F80000BAF81C201FF0FDF8BAF8E4
:103EA0001810814209D3BAF81C2098F80A1098F823
:103EB000000001231FF0F0F80146AAF82E1001219E
:103EC00098F8080040F0400088F80800397030E0A9
:103ED000707E012810D015F8011B31770222294687
:103EE00004F589701FF0E8F80146022204F58A7093
:103EF0001FF0E2F8012070769BF8060030B93D21F2
:103F0000012289F8011089F8002012E0F07E0028D3
:103F100004BFB07E00280CD120461FF0B9F830B99C
:103F2000284800784FF480410DF076F901E0012037
:103F3000F07601218DF8001021E028780F2816D0A6
:103F40001A2818D1A07913684843184400234370F5
:103F5000A079126811FB00F150180371F07A00F09B
:103F6000FB00F0721A20A1790AF075FCE1E7707A83
:103F700000F0FD007072204602991FF085F89BF852
:103F800011001A2815D19BF8120017281CBF102801
:103F9000FC280ED19BF8106020461FF071F8012E0E
:103FA00003BF1A208BF81A00FB211A2120461FF0AC
:103FB000B3F89DF8000005B0BDE8F08F780E002042
:103FC00070570020C70F0020200E00209C0F0020FB
:103FD0002DE9FE4F04460020009080460CB91BF0EE
:103FE000DFFC04F1500641F6230037683880A7F85B
:103FF000028002223A737A73694620460DF004FB70
:1040000008B9072050E2009901B1B860B868206192
:10401000DFF89804017884F8B8107068407A18F0D6
:1040200001FB25302076B87387F80F807168087D12
:10403000022804BF00201BF0B3FC7068007D01283B
:1040400002D10020002104E083280CBF06200220BA
:1040500020213874797404F12405DFF854A4DAF8C7
:104060003C0041690868697901EB41010844B0F8F6
:1040700001207A827068417848060AD5607DC106C1
:1040800004D5E07F40F04000E07702E040F04000DF
:10409000607507F15C0904F1300089F80080A97EA1
:1040A000890001F0040189F80010B866607DC1063E
:1040B00054D5726851788A060BD500F0FE00607501
:1040C0007068417811F0030F03D1E07F00F0FE002B
:1040D000E077607D1EF0D0FFA0750023387CA27DC4
:1040E000C0F38001521C00F003001EF0C1FFA0834A
:1040F0001E23A28B02F59B7090FBF3F31E2101FBA4
:104100001300C0B208B1C0F11E00821802F59B7204
:1041100062831E23A28B02F5967290B290FBF3F39A
:1041200001FB1300A283C0B208B1C0F11E008018C9
:10413000A08380B2E27D618B521E504340186083A1
:1041400007F13008608BB43080003866062089F8AB
:104150000300E17F41F00801E17720E040F0010039
:10416000607571684A78510744BF40F0020060757D
:10417000607D1EF081FFA0750023387CA27DC0F316
:104180008001521C00F003001EF072FFA083A08B80
:1041900000F59670A0830020386689F80300A17DA1
:1041A000207D61F3050007F1880120750870032266
:1041B000607D48708A70A87E800000F0040040F0A6
:1041C00003008870EA7ED20002F008021043887073
:1041D0000020C8700021C7F89010A88BC0F30B0016
:1041E000A8837168CA7D40EA0230A8830022617DFD
:1041F00001F0FE0120460CF0B1FA019700271DE006
:104200001C20784304EB000B01991C220BF1640085
:104210001DF0D2FB0BF16C00052101717F1CA28BFC
:1042200092000260FFB2DAF83C104A6911686B79BB
:1042300003EB43031944B1F801204281E07D401EA5
:104240008742DDDB019F204611F042FCE07D012822
:1042500009D013D3032809D03EBF04F1640078606D
:10426000C6F818800AE0C7F8048007E004F164008B
:10427000786004F18001B161C6F8348041F6240011
:1042800038860021798607F13C08B868618B00EB1D
:104290008100B8630221822088F8000088F80110AC
:1042A000002194F8210088F8031000F03F0088F8FE
:1042B00002007068807D012818BF022803D100F039
:1042C0007F00401E04E083280CBF0620022020212E
:1042D00088F8040088F805104FF0000BDAF83C006D
:1042E000416908686A7902EB42021044B0F8011093
:1042F000A8F80610C7F86CB07068417811F0030F89
:1043000020D01EF0B1FEF866DAF818000078C10778
:104310004CBF1F200F20DAF8181009788A0748BF11
:1043200040F02000DAF8181009784A0748BF40F03A
:104330004000DAF8181009780A0748BF40F08000FA
:1043400089F8140089F815B071685A4A887C00F021
:10435000030089F81500A97E890001F004010843D3
:1043600089F81500E97EC90001F00801014341F018
:10437000100189F81510107838B199F8140000F080
:10438000FE0041F0400189F8140089F81510E07F23
:104390001EF072FE84F8200020461EF061FEE07FD1
:1043A000C10635D5706894F820204178521C8807E2
:1043B0004EBFD21EE87F121898F80400C0F38001A7
:1043C0000023D2B200F003001EF052FE28801E220D
:1043D000288800F59670C0F11E0190FBF2F21E20B5
:1043E00000FB021129717168487881074CBF0020D9
:1043F0004FF49B702988401828806880B86B298802
:104400002A795218A63200EB82007867022002E077
:10441000C7F874B0002089F8170004F13000C7F81D
:10442000800007F1840071684A78510707D504F1CC
:104430003802026099F8150040F0200007E01E499C
:104440000A685168016099F8150000F0DF0089F8EA
:104450001500A17F94F8200060F30501A17740F6D4
:104460000B00A8F81000A8F812B0DAF8380000889D
:1044700080007865DAF83800008800B1072088F8F5
:104480001C00022088F81D0094F84510A8F81E10A2
:1044900070684178880744BF0121A8F81E10009871
:1044A00008B10BF02CFF0020BDE8FE8F9E580020C5
:1044B000384F0200880E00206C0F00201DF0B4BDA4
:1044C0002DE9F84F2DED028B15F0D2FDDFF85014D9
:1044D000DFF8509408884988A9F81210A0F52F72C7
:1044E00099F80810A9F81000B2F5FA6F00F21281DD
:1044F000002900F00F81002089F80800B9F81000A9
:1045000040F6FC01884205D840F23D31884204D88B
:1045100040F23E310846A9F8101099F80A20DFF859
:10452000104499F8091024F81200B9F81220A2F5E5
:104530002F73B3F5FA6F03D811B1002189F8091070
:10454000B2F52F7F06D399F807301BB940F68D23BB
:104550009A4230D34A1C99F8051089F80920D2B242
:10456000052A03D311B9012289F8072019BB40F2AB
:104570003E3188421FD80120002689F805000E2010
:1045800089F8016089F803000BF0CEF899F8010072
:104590001DF000FF102010251CF034FF99F80200D8
:1045A00089F80760112806D3DF4889F80250DF49EF
:1045B0000E221DF080FCB9F8121040F6FC0081427A
:1045C00005D840F23D30814204D840F23E300146E9
:1045D000A9F8120099F80AC0D44A0023002502EB7A
:1045E0004C0081810021032908D034F811000344D4
:1045F00002EB4100013180890544F4E7CD480324F2
:10460000CD4F40F2BE5199F80560D0F800A099F85E
:1046100003008AF80A0098B26423B0FBF4F010FBA0
:10462000037090FBF1FEC548A0F800E0A8B2B0FB13
:10463000F4F010FB037090FBF1F0C14984B20880E4
:1046400066B9B9F80E60012E40F099801E2C00F278
:1046500096801FFA8EF01F2880F091800025A9F81F
:104660000E50B848B84BAAF808408AF80B509FED96
:10467000BA0AB9F80C8001881980B44B1C682589E6
:104680000580B3486E1A0660B9F81400B8EB00074D
:10469000B048076012D096FBF7F04FF6FE718842E3
:1046A0000CDCAE49884209DB00EE107A01EE106A9C
:1046B000B8EEC00AB8EEC11A81EE000AA848A9F8FF
:1046C000148080ED000A99F8040010B1A07A002847
:1046D0004DD050881FFA8EF1DFF888B2484364212C
:1046E000B0FBF1F299F800000128ABF800203AD1B4
:1046F000002D2C4608BF0124100449D09A48D9F84F
:104700001C100088854246D2002944D1A9F80C200B
:10471000904677E0B0F52F7F04D340F68D2290428B
:10472000FFF4ECAE481C89F80800C0B20528FFF47D
:10473000E5AE99F8040000287FF4E0AE4FF48670EF
:104740001124A9F8030011201CF05CFE99F8020066
:104750001228FFF4D3AE744889F8024073490C2242
:104760001DF0A9FBCAE6A9F80C20904695E07D480B
:104770004FF00008A9F80C80A0F800808DE0F5B299
:10478000002E7FF46EAF1F2CFFF46BAF012566E7A0
:104790004FF0000834E0854214D399B91CF040FB77
:1047A0001DF0AEFC1DF00EFA0120C9F81C0051EC02
:1047B000100B12F0E5FEC9F8180000EE100ABBF865
:1047C000000013E0854277D3002975D01CF028FB48
:1047D0001DF096FC1DF0F6F951EC100B12F0D0FE16
:1047E000C9F8180000EE100AB9F80C0001EE100A22
:1047F000B8EE411A20EE010ABDEEC00A10EE108A92
:10480000A9F80C8060001AF0F1FD9FED390B53EC14
:10481000102B0AF02DFC9FED380B1DF09FFF9FED34
:10482000380B02460B4651EC100B08F0ADFB9FED28
:10483000360B1DF093FF9FED360B1DF08FFF9FEDA4
:10484000360B05460E4654EC107B3A46234614F0D0
:10485000DDF800281CBF26463D462846314617F0A5
:1048600009F81FFA88F1A9F81600814284BFA9F857
:104870000C008046BBF800001FFA88F1814284BF1B
:10488000A9F80C008046D9F8200099F80AC0013038
:10489000C9F820002748D0F800A00CF10100AAF8C0
:1048A0000480C1B2022988BF002089F80A00BDEC4B
:1048B000028B01B0BDE8F08F8542A3D20029A1D0C0
:1048C0000020C9F81C0090B21CF058F89FED060BB0
:1048D00053EC102B0AF0CCFB16F0CCFF8046A9F865
:1048E0000C008FE700BF00BF000000000000E03FA9
:1048F000EA2E4454FB2109400000000000004E4015
:104900000000000000C0724077BE9F1A2FDDE23F1A
:10491000120DF736A2204D3F00000000E0FFEF40EF
:10492000E45700205C2E00201C5800202C30002072
:104930003257002018580020C8BBFEFF90580020B6
:104940008A580020865800208458002014580020DF
:1049500000580020F4570020000000000200FFFF74
:104960000458002080580020885800202DE9FE4F70
:10497000DFF844B4DFF8447405469BF800000028D3
:104980004CD0052872D0062800F07F80072818BF79
:10499000082800F0F5800A2800F0E281112802D0F2
:1049A00013286FD000E2DFF81824107800211EF0E1
:1049B000CFFB04001EBF606D407810F00C0F2DD0AF
:1049C000216DC0064CBF886CC86E016801F10805F6
:1049D0000622A91C68461CF0EFFF287800F00F01A2
:1049E00005291BD145096946C0F380101EF034FB30
:1049F000002813D0396868461EF02AFB064639683D
:104A000004F138001EF024FB86420DD0606D417821
:104A1000C80604D440F201401EF016FBCAE1607BD8
:104A200040F002006073C5E13B681E2046439819C0
:104A300006226946C01D1CF0BFFF606D4178C806A4
:104A4000F1D5A17B0129EED1DFF878038178480602
:104A500005D5E90703D4206D41F20A4102E0206D3B
:104A600041F20441418041834186A3E11DF0A6FF4C
:104A70000028FAD112F034FC012802D001201EF0E7
:104A8000DFFA97E113F0A3FF94E1DFF83C532868C5
:104A90001EF0D2FA0400F7D020790328F4D1207A4E
:104AA00000F00F01072938D1DFF8200300684169C1
:104AB000497A4A1E11425CD0617A04F10A035A5CB9
:104AC00002F03F02252A54DBA17A8A09012A50D13B
:104AD00011F03F0F4DD0007C1CF05AFFE17ACA075D
:104AE0004CBF04F1110204F10B028B0748BF921D69
:104AF0000B0748BF921CC90648BFD21C1278520946
:104B000016214A43B2498B180A31EB608A5A428611
:104B100099898186DA89C2862BE000F00F00082887
:104B200027D1A17A880924D119B3A8480168087C43
:104B30001CF02EFFE17A064688071AD5062201F0FE
:104B400001015143601800F10C0168461CF034FF6C
:104B5000207AC00969461EF07FFA50B1386800F12A
:104B60000D0168461EF064FA18B9052130461BF0A5
:104B70008DF92079032802D000201AF011FF0FE1EF
:104B8000944FB8780024FF281BD01CF001FF80460A
:104B900008F16C09D9F804001EF04EFA2A46017992
:104BA000032901D011000CD08368197801F00300AB
:104BB0008D06009003D50124009818B9CDE01000AF
:104BC000FAD0F7E05D7803F1020A34B31AF8010B6A
:104BD000814B01902C2098F806C01E6810FB0CFC3D
:104BE00066444FF0010E86F805E0002A1E6898F82A
:104BF00006E006F11A0C019E10FB0EFE06F01F06E1
:104C00000CF80E6098F806601B6810FB06F018445C
:104C1000019BC3F38113C3761AD10098032808F2CD
:104C200017161AD0ADB199F8000068B108F1F40078
:104C30000278012A0DD19BF80020072A04D0082A07
:104C400004BFC078012804D13D217170012030706B
:104C5000B0E0624A1378012BFAD098F8940000284B
:104C60003CD030782D1F0128EDB2F1D053462A46B2
:104C7000404610F0ADFF00281EBF594908780028B3
:104C800013D13D2171700120564A307011780129ED
:104C90000AD1554C20784FF4805119F00FFD20783F
:104CA0004FF480510CF0B8FA84E05048016888470E
:104CB00001904FF4D07098F8062079684243881824
:104CC000002180F8411108F59E700168807949083B
:104CD00012F09CF8464901980A689047009803280A
:104CE0001DD044494869007882070DD598F8940092
:104CF000002814BF281D28464A691178CA0748BFF2
:104D0000C01C1AF8000000E0812089F808002A463B
:104D10000098C3B2B878514605F0EEFE1DE09AF84F
:104D200000001CB11B2804BF022D01251C2803D242
:104D300031490B5C9D4205D0B070072140461EF002
:104D4000EBF90AE09BF8000008285146404602D1E2
:104D50000EF0D8FF01E0FEF7B3FED9F8040020E022
:104D6000264C207830B3264D28681EF065F908B32C
:104D7000017903291ED1017A8A0611D5807AE1785A
:104D8000C0F38112914202BF217900F01F008142DD
:104D900006D1A078002801BF607800280121A17009
:104DA00028681EF041F905E000201AF0F9FD862080
:104DB0001EF0CAF9BDE8F78FC80F0020680F002069
:104DC000D50F0020C00C0020BC0A0020540F00208A
:104DD000E0070020780E002070570020D20F00203E
:104DE000A3580020880E0020C70F00200C3200209E
:104DF00010320020384F020088520200D85600209E
:104E0000AC0C00202DE9F84305460C46480413D4A9
:104E1000A00024D4A0075CD460057ED4200500F156
:104E20000681200700F13B81600040F1F68013F01D
:104E300013FB24F08044F0E01DF008F9DFF81C14A7
:104E40000F6D3FB1D7E90A1202F0E04201F00A010A
:104E5000891849D01DF0FBFC24F48044DDE0BB48F8
:104E6000DFF8FC73016841F080010160B878012827
:104E700004D1042019F096FD0020B8701DF0E6F86A
:104E8000064604201DF078F9DFF8D8130A6890422E
:104E900019D12A7EBAB1FA68AAB1DFF8C003806CD2
:104EA000002800F09780C16840F60302098891420B
:104EB00006D0C06840F604010088884240F08A802D
:104EC00005F1140088E040F6C4120860C5E9042228
:104ED00084E007F097FCDFF88403006C002840F0C2
:104EE0009D8024F0020498E0D7E90A65D7E90A1208
:104EF000AA43B143C7E90A121DF0A9FCB86800280B
:104F0000AAD056EA0500A7D0D7F808C03869B7F983
:104F1000301032462B46E0479EE71DF097F80546D5
:104F20001BF0CEF9002800F0B780CC48876B002F2B
:104F300000F0B280DFF828830420CB49002288F8F3
:104F40001800C6481CF058FB1DF0B4FCC7481DF003
:104F500075FCC7480068006B8047C8F81000012541
:104F6000042088F802501AF04BF8386990F828109D
:104F7000C8F80400490703D5436A04210022984772
:104F8000012014F019FCD8F8040045760EF0D4FC8A
:104F9000D8F8040081680B461A465B684BB11E883E
:104FA000A6F60306072EF7D805FA06F616F0830FC5
:104FB000F2D0537B03F0F003013353730023FD68F9
:104FC00053602D88A5F60305012D00F28A80C8F8EC
:104FD00010309FE005F1100017F08CF930461DF0FD
:104FE00036FC1AF025F878B12E6A28466FF48071E5
:104FF00000224FF00073B0479848806B10B113F057
:105000002BFA01E044F00204EE6928460021002258
:105010004FF08063B04724F0005434B197482146E4
:105020002830BDE8F8431DF0F1BCBDE8F8838C4E94
:10503000B078012804D1042019F0B4FC0020B0702D
:1050400019F0F6FF38B170686FF4807100224FF0EC
:105050000073056AA847306950B185480068006B45
:10506000804732697168801A000BC8600020306187
:105070007A4D8149002228461CF0BEFA0220307683
:10508000286C20B17D48022128301DF0BFFC13F0B0
:10509000E3F924F40064C0E71DF00CFC41E01CF0CF
:1050A000D5FF05461BF00CF9A0B1DFF8B48198F8E4
:1050B000000000070ED498F9000000280AD46846C2
:1050C0000EF080FD08B1009820B1DFF8B49199F896
:1050D000610048B31DF0EEFB13F0BEF924F00804A4
:1050E0009BE7034633F8385FA5B190F8445090F839
:1050F000456005F0F00580F8445006F0F0050135F4
:1051000080F8455000255360C5634587507B00F00B
:10511000F000507357480022C261016001201BF06B
:10512000ADFB24F4806478E700260127602E0FD0C1
:1051300009EB0600817A31B18772407A07FA00F0F4
:10514000C0B219F049FC2036F0E700BFCC2108407E
:10515000032088F8180045481DF070FB1DF0AAFBDD
:10516000444F3E4D0022786900207861F968F8606C
:10517000284644491CF040FA3D480068006B8047CF
:10518000D8F80C10D8F82020411A02EB1130B0EBFF
:10519000113F38BF4FF0FF3098F82410C8F82000B6
:1051A00021B1D8F80810B0EBC12F20D91BF076FB45
:1051B000B8B140F60900414621F83C0F0020488074
:1051C0004A7B02F0F00201324A730A7B02F0F002DD
:1051D0000A734860F8613960B8F83E0010F4406F17
:1051E000FAD00020C8F82000012088F8240016F02A
:1051F0008DFA254800210160022000211BF03EFBB2
:10520000022019F0CFFB10200DF0AAFE98F8010043
:1052100020B9D8F8040050301DF0F4FB1B4880780A
:1052200010B90D200DF09CFE98F8250028B1002043
:1052300088F82500052019F0B5FB002088F8180033
:105240001348C8F81C000220B5F85610B5F85420D1
:10525000914208BF072012F06DFA3DE79C2900201B
:1052600098270020903300209D020200F05100207A
:105270008C0100100010044075EF00003829002058
:10528000984D0020BD840100000004608454020099
:1052900061E900002DE9F04F0F46380589B018D5B7
:1052A000DFF8F4532888FF280ED0C0B21CF070FB42
:1052B000040009D0A07916211DF0B2FE20461CF092
:1052C0005DFB20460AF096FBFF20288087F40060F3
:1052D000DFE1F80504D514F066F987F48070D8E1B1
:1052E000B80604D51DF03AFB87F02000D1E1F8079D
:1052F0000CD51CF06FFD30B100218160DFF89C03FC
:10530000006800B1804787F00100C2E1380704D58A
:105310001DF026FB87F00800BBE1F8060FD5002141
:1053200000220023069105920491039302910192B9
:10533000009102201DF070FE87F01000A9E1B8076F
:105340000FD500210023069105910491039302914A
:105350000191009101223C201DF05EFE87F00200C9
:1053600097E179074FF01E08CD4EDFF838A340F1E2
:10537000D580CD48002200210892079100781DF0C9
:10538000E7FE0446C9488178FF2904BF00201AF0CF
:1053900007FBA07A1CF0FCFA05469AF8000095F885
:1053A0002E91002805F5947B71D0606D807A0228DB
:1053B00018BF032807D130680D301DF029FE10B941
:1053C0003068C11D0791594648461DF045FE00282A
:1053D0003BD0606D807C3368002818BF012804D161
:1053E000194658461DF034FE04E05A464946184610
:1053F0001DF0E2FEFF284AD008FB00F83068404468
:1054000006225946C01D1CF0D7FA306810F8081063
:10541000404400F1010B41F00209C01D089009F061
:10542000010185F82E110622594605F594701CF0ED
:10543000C3FAA8791CF0A6FC060008BF1AF0B0FA5F
:1054400094F8B90086F83A0021E0594648461DF024
:10545000DBFDE0B130685A4649461DF0ADFEFF283D
:1054600015D018FB00F8306840440D301DF0D0FD19
:1054700058B9306840440D301DF0CAFD002801BF06
:1054800030684044417F012901D149F0020905F10A
:105490002C004B460178069142891209059201229F
:1054A000698C0491C0880899029140080390CDF856
:1054B00000B0079801900020A9791DF0ADFDD5F846
:1054C0009C017B4988420CBF00210121A8791DF075
:1054D00097FD7848AB7902682C214B431344012295
:1054E0001A73AB7904684B4323445A73AB7904684D
:1054F0004B4323449A73AB7904684B432344DA73D8
:10550000AB79006811FB03F1014400200874072007
:10551000A97911F0FCFF87F00400BAE038060FD536
:1055200000210023069105910491039302910191BA
:10553000009101223B201DF06FFD87F08000A8E064
:10554000F8045DD55C4930680C680D301DF060FDD5
:10555000002844D13068C11D0D301DF04DFD3EE0E6
:10556000606D4178480704F13E0526D52878022869
:105570001EBF03286878012830D16978306804F1AB
:1055800038021DF019FE8146B9F1FF0F15D03068C1
:1055900018FB09F948440D301DF03AFD68B9306830
:1055A0004844C11D0D301DF027FD30684844C11D21
:1055B000062204F138001CF0FFF92878022818BFF1
:1055C00003280BD130680D301DF022FD30B9306852
:1055D000C11D062204F130001CF0EEF92468002CF5
:1055E000BED13648DAF8042000784FF4805117F025
:1055F0007FF810B18E201DF0FBFC87F4805048E04E
:10560000B80505D51DF03AF82D4901200860FEE7E0
:10561000780504D51DF05BFA87F4806039E07804E2
:1056200005D581201DF0E4FC87F4804031E0B90409
:105630002ED5244C206810B100201AF0B1F94FF09B
:10564000FF3020600020204C10F018FF216851F836
:10565000202F684690471D494A6B086BC96A246829
:105660001B4B01920090ADF8101002936B46194A43
:105670001948016819480392194A07922568194A7E
:10568000A8471949086003F07FFE87F4005000E046
:10569000002009B0BDE8F08FD4330020480F00206F
:1056A000680F0020880E0020D70F0020780E002001
:1056B0004DE50110705700204C0F0020C70F00204F
:1056C0007C052043380F0020200F00202C270020CD
:1056D000B51D0200C51D02007C5700209048002027
:1056E0001EFB0080EC0A00201C0F00202DE9F84F63
:1056F000DFF82854A9780024FF2904BF00201AF0FD
:105700004FF9A8781CF044F9054605F1680605F53F
:10571000C9773168086805F1900808B1EC8311E099
:10572000B07B002804BFB07E00280BD198F8001091
:10573000002904BF3878002804D1287F012804BF3D
:10574000688CE8832989E88B4118491C69812846BF
:105750001DF04AFC01281EBFDFF8C40301780129AF
:1057600003D12989EC83491C69814FF6FF79B07E0A
:1057700001280DD1B28B698928891DF031FC38B11F
:10578000298968894A1C93B298422FD0B08B23E0B4
:1057900098F8000001280FD1B8F8022069892889FB
:1057A0001DF01EFC40B1298968894A1C93B29842B9
:1057B0001CD0B8F802000FE03878012816D17A889A
:1057C000698928891DF00CFC80B1298968894A1CE7
:1057D00093B298420AD0788892B2904206D0484458
:1057E000688180B21DF0F8FB4844E88338780128CE
:1057F0000FD128897988401C80B2884209DB7C79E6
:105800003C71022038702346A979224600200BF013
:105810009DFC05F59A71087920B128890021401C6A
:10582000E9836881B07E012813D12989B08B4B1C94
:105830009BB298420DD168811DF0CEFB05F12E017F
:10584000B6F820808A8802FB0088284610F080F98C
:1058500003E005F12E00B0F80480E88BB14B411C49
:1058600001FB08F82968CA6840F6C41909FB082238
:10587000CA60AD49DA7BD30702D56B8A00220BE000
:105880000A88521C93B2012B03BF05F59A7CBCF821
:10589000063003F2DC536B8A03FB08F34FF4C87C39
:1058A000B3FBFCF35B1C6B610A8085F82000C5F834
:1058B00018804FF01C0BDFF874A2AB79DAF8000007
:1058C00000F108021BFB03F3D1582A68116100F1B3
:1058D0000801AB79D26868691BFB03F3121ACA503E
:1058E000DAF80000AB7900F108021BFB03F3D15892
:1058F0002A68916000F10C02A9791BFB01F10C30C0
:10590000535C03F0F00343F002034354DAF8001051
:10591000AB798A1C1BFB03F30021D152387908B9FB
:105920001AF03EF8DAF80000AA7900F1100138798F
:105930001BFB02F240088854A879DAF800101BFB20
:1059400000F00844002141743879042814D1A87962
:10595000DAF800101BFB00F001F110021031135CAB
:105960003A7A43EA82030B54AA79DAF800001BFB67
:1059700002F2024420205074DAF80010A87901F1F4
:1059800012021BFB00F0002111526949A8790A6834
:1059900002F114034FEA401C143253F80C00AB79A7
:1059A000D5F814C05B0100EB4C00D050B07E02284B
:1059B0000DD10A68AE7902F11403760114329859B8
:1059C000AB7995F82E605B0119FB0600D05005F10C
:1059D0002E025448C37BD8075ED5DAF80000AE79B2
:1059E00000F108041BFB06F60830A359AC791BFB39
:1059F00004F4A3F5A8630351DAF80000AC7900F1D0
:105A000008031BFB04F418592B68986004464948A6
:105A100000FB0848C3F810800868AE7900F1140450
:105A200076011430A359AC79640103F5F663035190
:105A3000387904280BD10868AE7900F11404760196
:105A40001430A359AC79640103F56163035108680C
:105A5000AC7900F1140364011859C5F83401364BD0
:105A6000186B0C68AE799288006804EB46174243C5
:105A70006424B2FBF4F409FB04F0A0F596692F4806
:105A8000C7F81C900278012A2FD10868A97900EB89
:105A900041120120D0722FE0042C0BD10868AE799E
:105AA00000F1140476011430A359AC79640103F5B4
:105AB00061630351387904280CBF4FF4AA504FF4A6
:105AC000E6600B68AE7903F114047601A359181A45
:105AD000938809FB03F3A3F516739842BFD30821FB
