:10000000003C022055ED01007DFD01007DFD010059
:100010007DFD01007DFD01007DFD01007DFD0100F4
:100020007DFD01007DFD01007DFD01007DFD0100E4
:0C0030007DFD01007DFD010075DF00007A
:1000400038B586B004468DF805104FF6FF720120D2
:10005000ADF80220090ADFF8B85AADF80000022313
:100060008DF806108DF8043069462A78204623F072
:1000700095F8162803D12978204623F08BF807B08D
:1000800030BD3EB504000D461ED0DFF8880A00687A
:10009000224623F07BF8FF2815D000200090002393
:1000A00001AA2946204612F02FFC60B99DF80400F1
:1000B00000F06EF9C00606D59DF8040000F068F95E
:1000C00010F0040000D001203EBDFEB516461524F8
:1000D0004FF6FF7290420D4615D100208DF80400B6
:1000E000DFF82C7A9DF80400F97988421AD232465A
:1000F000294600F03EF800B100249DF80400401CA1
:100100008DF80400EEE723F03DF850B100F099FBC4
:1001100040B99DF804003246294600F02AF8002430
:1001200000E014242046FEBD7CB50D4604460621A1
:100130004C43164620346A46082120461FF0D2FE62
:10014000A8B900F076F890B99DF80700002E14BF0A
:10015000054320EA0505E9B2814206D08DF8075033
:100160006A46082120461FF0D1FE012076BD0020FE
:1001700076BD2DE9FC4106463446062388461546E1
:100180005C436A46082104F120001FF0ABFE002802
:100190004CD100F04EF8002848D100F024FA0400B9
:1001A00002D100F018FA41E0397AE036224689009F
:1001B00030461FF097FE002834D1204600F051F859
:1001C0005FEA08000ED13A7A9206120E002120460C
:1001D00020F063FD30BB3A7A92000021204621F0E6
:1001E000CBFB16E0214600F029F858B9280004D0CE
:1001F0002146002000F022F810B900F00CFC15E0B8
:10020000A0F800808178A9420CD085700DB900213A
:100210000180204600F025F8397A224689003046D0
:100220001FF074FE00F0F7FB012000E00020BDE8A5
:10023000F6810622FF21684620F02FBD70B5DFF859
:10024000D0381D7A002200E0521CD4B2AC4206D253
:1002500031F824608642F7D101EB840070BD0020A4
:1002600070BD10B50021DFF8A8280AE030F8213071
:10027000DB4320F8213000EB8103491C9C78E443E8
:100280009C70137A9942F1DB10BD2DE9FE4FDFF827
:1002900080480646207A0F4691469A46800021F013
:1002A0009BFD5FEA000803D100F095F90A206DE09C
:1002B0000C9D02974FF0060B37461BFB07FB029A7B
:1002C00008210BF120001FF021FE8DF804003046BC
:1002D00000F099F8227A00F079F99DF80400009076
:1002E0004246217A890006F1E0001FF00FFE009ED1
:1002F00002990643206A082200EBC70021F046FB62
:10030000F5B110220021284620F0C7FCC0B902999F
:10031000887900232A4600F0010022F02FFF0028F0
:100320001CBF9DF93C00002803D0DFF8EC1701202A
:1003300008702A4610210BF123001FF0E7FD064349
:100340005FEA090205D01C210BF121001FF0DEFD40
:1003500006435FEA0A0205D01C210BF122001FF0C0
:10036000D5FD06430D9A4AB110210BF124001FF070
:10037000CDFD06430EAA00F031F90643A07D08B179
:1003800000F094FA404621F02FFDF0B2BDE8FE8F58
:10039000E0B5062358436A46082120301FF0A2FD2D
:1003A00010B99DF807000EBD00200EBDDFF86007F4
:1003B0000078082110F0B4BE38B50025DFF85047AA
:1003C00018E0206A06236B4300EBC50220330821A6
:1003D00098B21FF087FD58B1206A0622FF2100EB7A
:1003E000C50021F0C9FA206A00EBC5010022CA71DC
:1003F0006D1CEDB2E1798D42E3DBA07D10B1BDE86B
:10040000314053E231BDF8B5DFF80417DFF80C379F
:10041000C9791E680C460A4600E02A46D5B23DB1AD
:10042000551ED2B2324412F8017C8742F5D12C46D7
:10043000E4B220464D1E07E01718165C7F7817546B
:100440001A680244401C5670A8421A68F4DBAC4299
:1004500004DABDE8F84005201FF058BDF1BD70B5C5
:100460000024DFF8AC5600E0641CE879E3B2834274
:100470000BD22B6AE6B20622FF2103EBC60020F066
:100480000CFC0028F0D0E0B270BDDFF894261178A3
:1004900039B1DFF8880601680C78204600F013F8BF
:1004A000204670BD38B500200024DFF8645603E014
:1004B000E0B200F008F8641CEA79E1B2914201D29E
:1004C0000100F5D032BD2DE9F84F4FF0060B1BFBB4
:1004D00000FB8EB081460BF1200501AA08212846B9
:1004E0001FF000FD002868D10622FF2101A820F09E
:1004F000D4FB002861D100F076F85FEA000803D150
:1005000000F069F80A205AE01C22FF2103A821F01C
:1005100033FA3A7A00F05AF80BF123060AAA1021AE
:1005200030461FF0DFFC60B91022FF210AA820F03E
:10053000B4FB30B99DF80A0001A900F0010022F0D7
:1005400019FE082200F03EF801AA082128461FF0F3
:10055000DDFC054603AA1C210BF121001FF0D6FC8F
:100560008DF8000003AA1C210BF122001FF0CEFC25
:10057000044603AA102130461FF0C8FC064603AA11
:1005800010210BF124001FF0C1FC824603AA00F0E9
:1005900025F89DF800100D43254335434AEA05052B
:1005A000397A05434246890009F1E0001FF0AEFCAC
:1005B0000543404621F018FC00E0002528460FB016
:1005C000BDE8F08FFF2101A821F0D6B99200FF21EC
:1005D000404621F0D1B904201FF0E6B904210BF107
:1005E00025001FF093BCDFF82875387A800021F0D1
:1005F000F3BB2DE9F84187B0FF208DF80000DFF84C
:100600001055E87921F0E8FB040003D1FFF7E3FF80
:100610000A2030E01022FF2103A821F0ADF9EA7989
:10062000FF21204621F0A8F90622FFF7CBFF03AAFD
:10063000102102201FF06AFC064603AA10210320A5
:100640001FF064FC06436A46012104201FF05EFC93
:100650000746E979224605201FF058FC054601AA05
:10066000062106201FF052FC804600F0D4F93E43DC
:100670002E4348EA060008B0BDE8F081DFF8901488
:10068000408809781FF0F2BBF0B5A9B006460D46C8
:10069000144622F077FD08B91420A6E0A422002118
:1006A000684621F069F9ADF80060DFF86464F0781D
:1006B000F17B279A8DF804005208307C8DF8A00059
:1006C0004B0801F0010040EA420222F0020203F06E
:1006D000010342EA4302080922F4807200F001009B
:1006E00042EA0022480922F4007200F0010042EAC6
:1006F0004022880922F4806200F0010042EA802250
:10070000890822F0040201F00101707C42EA8102B2
:10071000279202280CBF012000200DF126077874D3
:1007200022F024FD412807DB707C00B108209DF8F1
:10073000991008438DF89900F07CB8B10121B97483
:10074000202206F188010DF1390021F01FF9202245
:1007500006F1A8010DF1590021F018F9202206F147
:10076000C8010DF1790021F011F900E0B874707B37
:100770008DF8050090B1DFF8AC73102207F110017D
:100780000DF1060021F002F99DF89900082805D125
:10079000102239460DF1160021F0F8F8307B8DF863
:1007A000260030B11022DFF880130DF1270021F070
:1007B000EDF8307948B1022D18BF032D03D12798E9
:1007C00040F002002790012100E000219DF89900EF
:1007D0000143B0788DF8991000B1042001438DF8E1
:1007E00099106846214622F0BDFC29B0F0BD2DE9E4
:1007F000FC41154615244FF6FF72904288460ED1F3
:100800000027DFF80C63F179F8B2884216D22A4645
:100810004146FFF789FC00B100247F1CF3E722F07A
:10082000B1FC50B100F00DF840B99DF804002A4623
:100830004146FFF779FC002400E014242046BDE87F
:10084000F681002100910023417901AA01F0010104
:10085000801D12F059B870B504460D460620454378
:10086000082B88B0164603D1300758BF223500D573
:1008700021351C220021FFF7A6FE01AA1C212846D3
:100880001FF030FB80B99DF81E00C01F0A280BD254
:100890009DF830000090F20801AB02F0010206F072
:1008A0000101204621F044FB08B070BD38B522F0AC
:1008B00055FC0024964D0FE0286A0622FF2100EB2C
:1008C000C40020F0EAF928B9286A00EBC40188794D
:1008D00022F040FC641CE4B2E8798442ECDB31BDD8
:1008E000F0B5924D0646686885B04FF6FF7438B98A
:1008F000009502238E4A2146012022F027FC6860E1
:10090000696819B30222FF20029200230390019329
:100910000DF112072A88009704AB304608F028FC36
:1009200060B99DF810009DF8111000EB0122100035
:1009300004D0686841893046FFF7C7FB2A88686899
:100940000023214622F0FEFB686008B9012000E088
:10095000002005B0F0BD3EB50C46002501460095CF
:10096000002301AA204611F0CFFF38B99DF80400FA
:10097000FFF70EFDC00601D401203EBD00203EBDA4
:100980002DE9F0416B4F3C6806468846154603E06A
:100990002089B04224D02468002CF9D10C2021F009
:1009A0001BFA040019D0268184F80A8000202060F8
:1009B000E07245B10821284620F0B0FB606018B90C
:1009C00000F029F80AE06060396811B93C6004E081
:1009D000014608680028FBD10C600CB9152018E00E
:1009E00022F0ACFB08B1002013E00120E0722A469F
:1009F00041463046FFF748FE04464548C069002896
:100A00001CBF4368002B03D00022002130469847CA
:100A10002046BDE8F081204621F0E6B938B505460C
:100A20004448046803E02089A84204D02468002CCC
:100A3000F9D1012032BDE07A012807D100F05CF83D
:100A400020B133480078042110F06AFBE17A491C98
:100A5000E1722846C9B200F002F8002032BD38B574
:100A6000022904462A4D02D003290DD01EE042F689
:100A7000C921FFF7E5FA02001CBFE869002818D079
:100A80004368B3B105210CE042F6A621FFF7D8FA7E
:100A900001001CBFE96900290BD04B684BB102462D
:100AA0000421204601B0BDE830401847BDE832407F
:100AB00000E031BD10B51F4A1468002101E0214655
:100AC00024686CB123898342F9D1206800290CBFC6
:100AD00010600860606808B121F086F9FFF79BFF9D
:100AE000002010BD024604201249096819B10B8983
:100AF0009342FAD1C87A70470E48006828B100685E
:100B000018B1C17A0029FAD170470020704700005F
:100B100008220020680F0020AA580020A0570020BB
:100B2000A9580020F0540020205500201C57002018
:100B30001E560200A457002038B584B0044622F0A7
:100B400021FB0622417901F001018DF80E10811D73
:100B500002A820F01BFF0020009000239DF80E103B
:100B600001AA02A811F0D0FE9DF80400FFF7ABFC2B
:100B700005460521204622F0DDFA284605B030BDA5
:100B80002DE9F84F2DED141BB0EE402A5BEC119BC4
:100B9000F0EE602A2BF000409FED870B50EA090130
:100BA0002BD0874B57EC126B5D1C0EB9AF4224D093
:100BB000844927F000448C4209D80EB18C4206D0FB
:100BC000884204D8B9F1000F1CD088421AD19FED99
:100BD0007E0B3046394655EC104B21F0A5FD0646FC
:100BE0000F464846594621F09FFD02460B463046C7
:100BF000394609F02AFC41EC100BBDEC141B01B086
:100C0000BDE8F08FB7F1FF3F02DD4FF0000A04E0CE
:100C10006F4A90426BD94FF0020AB9F1000F00F011
:100C2000EA839FED690BB8465CEC10EB4FEADC728F
:100C300062F3DF782EB34FF0FF3202EBD7725AEA3D
:100C400002034DD0AAF101031A430FF60C1208BF9C
:100C5000083292ED008B5F4A904261D301F144412A
:100C6000884240F28280AC4280F0998021F08CFD75
:100C7000222101600FF67010BBF1000F48BF083051
:100C800097E08C4204D0544A944201D0002CD2D137
:100C90009FED490B3246434621F05EFDBBF1000F4C
:100CA0005CBF41463046B7F1FF3F41EC100BA4DC7E
:100CB0004A4A224402F5200252EA0A0210D08DED7F
:100CC0000C0BBAF1010F9DF8372082F080028DF8ED
:100CD00037200C9A18BF02460D9818BF0846D0E37B
:100CE00021F052FD21219FED3E0B016085E79842E6
:100CF0007FF68BAF9C463C4B020D984248D340F2A6
:100D000033439B1A29FA03F202FA03F39945634627
:100D100006BF02F00102C2F1020A4FF0000A7CE7AE
:100D20009FED330B30464146CDE900EC21F0C0FC8D
:100D3000314A324B3532B4F5801F3ABF4FF6CC32D0
:100D4000CFF6FF722146B4F5801F02EB21526FF3FC
:100D50001F5128BF304641EA0508994256D3284B17
:100D600099424FD20292012152E01548844280F00C
:100D700075827546644621F007FD2221BBF1FF3FD5
:100D8000016040F3DD8151EC180B2A46234660E3F5
:100D9000B9F1000F00F01F834FF0000A41E721F086
:100DA000F3FC222101600FF64000BBF1000FC8BF29
:100DB000083090ED000B20E7000000000000F03F3D
:100DC000FFFFEF3F0000F07F000000000000000088
:100DD000FFFF3F430100E0410000F03F000070BF13
:100DE000000000000000F87F0000404100BF00BF8D
:100DF0000000000000004043CCFBFFFF8F98030081
:100E00007AB60B00F44B013241EA0308002102924A
:100E1000DFF8E8270991074602EBC102414692ED4F
:100E2000000B55EC106B32462B460396049009F0EC
:100E300007FB04468A46304629463A46434609F0AF
:100E400004FB1FED230B02460B4621F085FC0790A7
:100E500002460B460691204651460EF001F90890D5
:100E60004FF000500F460022099940EA580000EB6D
:100E70008140394600F50026002033460EF0F0F898
:100E800021F03EF9039A04468A46002031462B465B
:100E900009F0D6FA024604980B46414609F0D0FA0A
:100EA00002460B46002039460EF0DAF821F028F908
:100EB00002460B46DDE906100EF0D2F807900691C7
:100EC0000D460446394600223B46089E304609F04E
:100ED000BCFA02460B46204629460EF0C1F8804671
:100EE0008A463046394632463B4605970EF0B8F8FA
:100EF0009FEDBB0B06460F4621F0DAFB9FEDBA0BC8
:100F000021F0AEFB21F0CCF89FEDB90B21F0A8FB4E
:100F100021F0C6F89FEDB80B21F0A2FB21F0C0F83C
:100F20009FEDB70B21F09CFB21F0BAF89FEDB60BBB
:100F300021F096FB05460C4621F0F4F82A4623469C
:100F40000EF08EF802460B464046514609F07DFAF7
:100F5000059D80460C460020002229462B460EF0B7
:100F60007FF89FEDAB0B07460E4621F079FB42461A
:100F7000234609F06AFA9FEDA80B00208A4621F06B
:100F80006FFB3A46334609F05BFA02460B46404691
:100F9000214609F055FA024608980B4629460EF0FC
:100FA0005FF804460E46DDE90610002253460EF0B7
:100FB00057F82246334609F048FA07460E46002005
:100FC0002946002253460EF04BF83A463346044673
:100FD0000D4609F03AFA002022462B468A4609F0CF
:100FE0002FFA02460B463846314609F029FA9FEDA2
:100FF0008C0B21F05DFB9FED8C0B04460D46002011
:10100000514621F055FB21F08FFB0246DFF8F00539
:10101000099C0B4600EBC40090ED000B51EC100B4B
:1010200009F013FA9FED820B089005460E460791D2
:101030000020514621F03CFB2A463346CDE90510FD
:1010400009F003FA0246DFF8BC050B4600EBC400CA
:1010500090ED000B56EC107B3846314609F0F5F95F
:101060000546029888461EF0C5F904468A46284679
:1010700041462246534609F0E8F9002022465346ED
:1010800021F062FA3A46334609F0DAF9DDE9053231
:1010900009F0D6F902460B46DDE9071009F0D0F950
:1010A00041EC1A0B4846594600225B4609F0C8F944
:1010B00004460D4651EC1A0B4A465B460DF0D0FF34
:1010C00057EC196B804689462046294632463B46F6
:1010D0000DF0C6FF42464B4609F0B7F981468846F7
:1010E0003046394600225B460DF0BAFF07460D46F2
:1010F00041EC190B484641463A462B4609F0A5F902
:1011000006464D480C4600F5200081421BDD4B4849
:101110002044304310D19FED4A0B4846414621F010
:101120009FFA82468B4620F0F7FF02460B46504658
:10113000594617F079FCD8B121F026FB2221016035
:101140009FED410B42E142484249204088420FD383
:1011500041482044304340F08F8020F0DDFF0246BC
:101160000B464846414617F04BFC002840F084806F
:10117000194924F00040884240F28780F04940F24B
:10118000134301EB10504FF4801121FA00F00121BC
:101190002044024661F31F52C0F30A515B1AA1F2C8
:1011A000FF31DA40002C48BF52420992234A02F133
:1011B000814242FA01F1002201EA00033846294641
:1011C00009F03EF9024641EC190B0B4648464146F0
:1011D00009F03BF90C465AE00000E03F00BF00BFB9
:1011E000EF4E454A287ECA3F65DBC9934A86CD3F0C
:1011F00001411DA96074D13F4D268F515555D53FF2
:10120000FFAB6FDBB66DDB3F033333333333E33F89
:10121000000000000000084000000000000008C0BE
:10122000FD033ADC09C7EE3FF5015B14E02F3EBE3B
:10123000000000E009C7EE3FFFFFEF3F000070BF76
:10124000FE822B654715973C000000000000F07FF0
:1012500000FCFF7F00CC904000346F3FAC42CDE9F2
:1012600000EC40F2248121F08FFA2221BBF1010F22
:101270000160BFF665AF03E021F086FA222101602C
:10128000DDE9002351EC180BE3E00020099053EC5A
:10129000192B0020214609F0D3F802460B46484698
:1012A000414609F0CDF89FEDBE0B05460E460020E5
:1012B000214621F0FDF99FEDBC0B074688462846E4
:1012C000314621F0F5F93A46434609F0BEF89FED64
:1012D000B80B089005460E4607910020214621F0E4
:1012E000E7F92A4633468346069109F0AEF80246EE
:1012F0000B46824689460DF0B3FE9FEDAF0B0446C8
:10130000884621F0D5F99FEDAE0B21F0A9F920F028
:10131000D9FE9FEDAD0B21F0A3F920F0D3FE9FED98
:10132000AC0B21F09DF920F0CDFE9FEDAB0B21F031
:1013300097F920F0C7FE20F0DDFE04460F46504628
:10134000494622463B460DF08BFE9FEDA50B054618
:101350000E462046394621F083F902460B462846C0
:1013600031460BF009FE069B04460F46504649469F
:101370005A4609F065F802460B46DDE9071009F008
:101380005FF805460E46504649462A4633460DF05C
:1013900067FE2A46334609F058F802460B462046B7
:1013A000394609F04DF820F0A5FE9FED670B21F0BE
:1013B00057F9099A41EC100B01EB0251B1F5801F6E
:1013C000AEBF41EC100B10460DF032F951EC180B8A
:1013D00053EC102B3DE040F213439B1A20FA03F22A
:1013E00002FA03F39842634612BF4FF0000A02F07C
:1013F0000102C2F1020A884215D18348204400F557
:10140000200030433FF4F9AB9C4226D99FED500BAE
:10141000BBF1FF3F50EC101BC4BF5846494640EC9F
:10142000101BFFF7EABBA8420CD19FED470B3246D9
:101430003B4621F091F9BBF1000F5CBF39463046C5
:10144000FFF7D9BBBBF1804F1FD13046394632463A
:101450003B460DF005FEFFF7CEBB8DED0A1B9FED61
:101460003C0BBBF1000F9DF82F000A9A80F0800022
:101470008DF82F0051EC100B58BF02460B9858BF47
:10148000084640EC102BFFF7B8BB002F3FF5C9AB67
:10149000594A93457FF4C5ABB0EE420AF0EE620ABA
:1014A000BDEC141B01B0BDE8F04F0AF095BD9FEDF7
:1014B0002E0B3046414621F0D3F89FED2D0B06460A
:1014C0000F4621F0F5F89FED2C0B21F0C9F820F024
:1014D000E7FD9FED2B0B02460B4651EC100B08F07D
:1014E000AFFF04460D4620F01DFE22462B460DF0B0
:1014F000B7FD9FED250B21F0DBF89FED250B044692
:101500000D463046394621F0D3F821F00DF99FED14
:10151000220B80460C463046394621F0C9F8424637
:10152000234605460E4608F090FF00202A46334623
:1015300021F00AF802460B4640462146AEE500BFC0
:1015400002FCFFFF00BF00BF000000000000F03FF2
:101550000000000000000000000000000000F03F5C
:10156000000000000000F0BF000000000000F0BF1D
:10157000000000000000D0BF555555555555D53FCA
:10158000000000000000E03FFE822B654715F7BF1A
:1015900044DF5DF80BAE543E000000604715F73F96
:1015A000396CA80C615C20BEEF39FAFE422EE63F92
:1015B00000000000432EE63FD0A4BE726937663EAD
:1015C000F16BD2C541BDBBBE2CDE25AF6A56113FC3
:1015D00093BDBE166CC166BF3E5555555555C53FAA
:1015E00000000000000000C000000000000000003B
:1015F000000000000000F07F0000E03FC04F02004C
:10160000D04F0200E04F0200000070BF8EB0DFF844
:101610009869B41D204620F057FE204620F0C6FEF3
:10162000DFF888B9584620F04FFBF060584620F0AC
:1016300045FE20F0A9FEDFF87849A06021F0A0F86F
:10164000771DE060384620F051FE21F0B5F82061AA
:1016500020F0F8FD6061601C04F11C0118F058F8DE
:1016600004F12C0020F041FCDFF8481920624FF013
:10167000000A04F1540041F270720023CDE900A683
:10168000049018F023FDDFF83009DFF83019DFF897
:1016900030990022152300901020C847DFF8241944
:1016A000102000220223C8470FF04AF8DFF818196B
:1016B00010200122C847DFF8141910204FF0FF3224
:1016C0004FF0FF38C8471EF02DFA1EF017FA1EF033
:1016D000DBFC18F0D9FA1FF033FC21F069F8DFF8D1
:1016E000F018086014F09EFD17F0D8F90FF0D8F943
:1016F000351D3946284620F0EFF860602846394607
:1017000020F0E0F8284620F0FDFD3C200221ADF855
:101710001C0007AA042011F05FFB06F110001FF067
:10172000F5FF06F1140020F049FC06F1180020F046
:101730004BFC6178DFF89C785020B847DFF89818A8
:1017400002461020C84761785020B847DFF88C184F
:1017500002461020C847DFF888181020FB2240F608
:101760004803C847DFF87C181020C8472546617831
:10177000502025F83C8FC5E903AAC5F814A0B84746
:101780000346DFF8640802210422CDE90010DFF8E7
:101790005C181020C8472846182120F0F9FFDFF810
:1017A0005018102080228023A5F80080CDF800B0CA
:1017B000C847F070DBF86800DD4988420ED0DBF8DE
:1017C0006C00DC49884209D010F090F8F068DFF82E
:1017D00024188022802320F04FFFF070DFF81018CB
:1017E000102080228023CDF800B014F0A7FBF07009
:1017F00015F004F9DFF8005828709BF8700020F00D
:1018000045FDDBF87C0020F0DDFD19F073FD1CF0D8
:1018100065F8E068807808B913F038FD07F0AAFD94
:1018200010F0EAF9E1689BF878202878097813F03D
:1018300071FDE068017839B9817829B9417819B921
:10184000C17809B9007988B1002000251FF0D0FDCA
:101850006069017851B10570DFF8740701210F222A
:10186000006800688068A0611FF078FBDFF8B4971B
:1018700001200DF11C080DF1370A0DF1350BB07187
:10188000F07900214FF040424FF0FF330130F0710A
:10189000E0690EF029FD05463079062800D090B9A0
:1018A0006068007878B1707968B940F6B83022780D
:1018B000DFF84817012320F0DFFEDFF84417087037
:1018C000606800210170002D00F0E78000200DF11C
:1018D0001B01059006A805AA1CF047FF002840F050
:1018E000DA80BDF81800102840F0D08060789DF8AC
:1018F0001B10814240F0CA80059F4FF6FF70398867
:10190000814200F0C480080AC9B2912900F08180A8
:10191000B02900F0B680D02940F0B980B978072905
:1019200000F20282DFE811F00800B200B200B2005B
:10193000B20028025902950200210028317140F0BE
:10194000A5800020F97A4246ADF81F00B8798DF8DD
:101950001C00B7F807008DF823100821ADF81D0012
:10196000B7F80900ADF82100002016F0DDF9DFF826
:10197000A416DFF8A426DFF8A4361020009414F093
:10198000DDFA000640F00E8310202278494600233D
:101990004F460090DFF888060190102014F0CEFA30
:1019A000000640F0FF82142022783946012300907F
:1019B000DFF874060190102014F0C0FA000640F021
:1019C000F1822278DFF864161020922314F0B6FA20
:1019D00040F6B8302278DFF82416012320F04CFEC0
:1019E000010640F0DF82DFF81816087060680021F9
:1019F00001701DF00BFE701C01214FF47A72002360
:101A0000CDE90010DFF82806DFF8A81518F05EFB16
:101A10003CE03E2800F099810F2800F09C811028BE
:101A200000F0A5810E2831D1B88841F205418842E5
:101A30002CD1B968087848BBB1F80100A28F824266
:101A400024D1C9787F2921D094F84D20531C2244F9
:101A500084F84D3082F84810052294F84D10B1FBFF
:101A6000F2F202EB8202891A002284F84D10002162
:101A7000052900F016826318013193F948301A44A1
:101A8000F6E7397907F1080021F050FB059F17B1FF
:101A9000384620F0CEFE680025D4A06800780028E3
:101AA0007FF4EEAE307940F00200072806D12278AC
:101AB000DFF888151020132314F040FA206900780D
:101AC000002800F06E82307ADFF82815802280230B
:101AD00001303072DFF8D40420F0CEFDF070A06841
:101AE00001210170CCE6206A20F084FC0028D4D1CA
:101AF000206A1FF071FC0028F5D0054600780138F7
:101B0000082800F20981DFE810F0090007011D0034
:101B1000070140004900FA0017002A0068680078B1
:101B2000032840F0F980032041461BF0EBFAF3E074
:101B300015CD5B07B168DE3A6868B0F8010015F0B2
:101B400069FEEDE0686801684A1E072A00F2DA8043
:101B50000121DFE802F0DDDCDEDDDEDEDEDC6A68EE
:101B6000204630F83C1F5288891A18BF012141EAEB
:101B7000410100EBC100C07D002800F0CD80DFF8FE
:101B8000B814102014F0DAF9C6E06868DFF8A4147D
:101B90000023C288D14820F06FFDBDE001205146EE
:101BA0001BF0B0FA10B9012020F0D2FD02205146FE
:101BB0001BF0A8FA10B9022020F0CAFD03205146FC
:101BC0001BF0A0FA10B9032020F0C2FD04205946F2
:101BD0001BF098FA20B9042002215A4611F0FCF8B3
:101BE000052041461BF08EFA20B90520042142460B
:101BF00011F0F2F8002020F049FE10B9002020F08A
:101C00008FFD012059461BF05BFD20B90120022108
:101C10005A4612F0F5F9022020F038FE10B90220E1
:101C200020F07EFD032020F031FE10B9032020F0CB
:101C300077FD042020F02AFE10B9042020F070FD6A
:101C4000002020F01AFE10B9002020F055FD0120E0
:101C500020F013FE10B9012020F04EFD0220514665
:101C600014F036FD10B9022020F07AFD0320514611
:101C700014F02EFD10B9032020F072FD042020F096
:101C8000FCFD10B9042020F037FD052020F0F5FD03
:101C900010B9052020F030FD062020F0F4FD10B929
:101CA000062020F019FD072020F0EDFD10B90720D7
:101CB00020F012FD082020F0E6FD10B9082020F0E9
:101CC0000BFD092020F0DFFD10B9092020F004FDF4
:101CD0000A2020F0D8FD10B90A2020F0FDFC0B20CE
:101CE00020F0CBFD10B90B2020F006FD0C20514652
:101CF00014F0EEFC80B90C2020F032FD0CE01DF059
:101D000085FC09E0B1F1004F06D0102901D1002176
:101D10007171406820F0FCFD686808B120F0F8FDA2
:101D2000284620F0F5FDDEE611297FF4AFAE112044
:101D30003071B87B8DF82600B888ADF81C00788922
:101D4000002800F09D800020A5E0B8780C287FF4E2
:101D50009DAE0C2007E0B88842F2320188427FF441
:101D600095AE42F23200394614F0AAF88EE6082009
:101D700000211FF0C1FC89E60520A4493071102024
:101D800014F0DCF87978002940F0B4800390A08F3B
:101D90004FF6FF71884240F0A9807F890320A78712
:101DA00020F0BCFD0028206400F09D800821017017
:101DB000206CA0F80170242020F0B0FD216C0028D8
:101DC000606400F08D8001220023CDE90021794973
:101DD00041F2707218F07AF985E006208B49307173
:101DE000102014F0ABF80146BF88A08FB84229D16B
:101DF000606C029178B1039020F000FE10B103985E
:101E000020F000FE039820F023FE039820F080FDD0
:101E1000206C20F07DFD38461DF060FF38461CF038
:101E200013FE4FF6FF700299023880B2874202D04B
:101E3000A08FB84206D14FF6FF70A0870020C4E9FA
:101E40001200206508067FF421AE049820F0DAFD28
:101E50001CE607206B49434630711020BA8814F005
:101E60006DF804F124001EF073FB00283FF40EAE61
:101E70000746008915F0CEFC384620F049FD05E6FE
:101E80000020ADF82200D7F80600CDF81E00B88972
:101E9000ADF8240001205C498DF82700102042464F
:101EA0003BE011B2052291FBF2F194F84F20002A99
:101EB00084F84E107FF4EAADC9B24AB212F11E0F97
:101EC0002EDB94F8501041F0020102293FF4DEAD00
:101ED00000234FF0020E02213EE000BF40E201006D
:101EE000084620F015FD012084F85000049820F0E9
:101EF00087FD0398227800060DD1B07858B940F6D6
:101F0000B8303E49012320F0B7FB3D4908706068B6
:101F100000210170BAE53E49102014F00FF8B5E534
:101F2000D82909D394F850100229FFF4AFAD00234B
:101F30004FF0010E01210FE0CE2909D394F8501083
:101F400000293FF4A3AD012304214FF0060E03E066
:101F50004FF0020E0421022394F851C094F85270FD
:101F6000ACEB0E02022F4FF00007B2FA82F238BF3C
:101F7000012752093A4208BFF4453FF487AD0A46AB
:101F800077461BF06FFC0120394684F84F0094F827
:101F90005100B8421CBF002084F8520084F8511050
:101FA00074E5FEE71FF0A2FC342F0020BC240020C3
:101FB000B426002045D20100D02F00201D8701004B
:101FC0003D5F0100C5D30100A50A020025E4010020
:101FD0005C580020D9F40100D96C02102D6D02105C
:101FE0000D520210397F01107C330020C5CB000058
:101FF000E5FE01000DFF0100D2580020ED74011034
:10200000B2580020F9DC0110D95701103D19020027
:10201000650202109901011001FA01006C2F0020E5
:1020200064320020F9F80000103000201DEF01108C
:1020300024540020EDEC01000D2B0210A1F9011039
:102040002DE9F84F01201CF0CDFA012816D1DFF858
:10205000E8663078002121F065F8040004BF002014
:102060001DF0A2FC00202072201D11F029FF05F0B8
:102070001DFD050003D1812021F050F858E3012017
:102080006871072015F07FFADFF8B096DFF8B02608
:1020900099F80100401C89F80100A879A07240203D
:1020A000317811700FF068FE2860616D4A78206DFC
:1020B000D10620D5816C0A681179032908D0816C7A
:1020C0000868007903280CBF012000201DF06CFC7B
:1020D000206D816C0A6890F86C0002F108070128F5
:1020E0001CBF00201DF060FC216D486F296800F5C1
:1020F000B060C8604EE0C16E0A681179032908D04B
:10210000C16E0868007903280CBF012000201DF073
:102110004BFC206DC16E0A6890F8980002F1080728
:1021200001281CBF00201DF03FFC216DB5F8743163
:10213000D1F8A0002968DFF80C26C86097F826605F
:10214000DFF80406032E1FD8DFE806F0020610149D
:10215000CA6802F5B06202E0CA6802F53472CA6069
:1021600005F59A7201881187038811E0C86800F5A7
:10217000355002E0C86800F6B870C86005F59A707E
:1021800011880187138803E0C86800F5B060C86053
:10219000A5F8743106222868C16801F59071C16004
:1021A000B91C3878C0F3801085F82E0105F59470BD
:1021B0001FF0ECFBA8791FF0C7FD060004BF00204C
:1021C0001DF0F2FB94F8B90086F83A000422DFF81B
:1021D0007C6507F10E0105F124001FF0D7FB306884
:1021E00095F806C000F10C03042207F10E0103EB81
:1021F0004C101FF0CBFB032207F1120105F1280060
:102200001FF0C4FB3068AB7900EB4313032207F1E6
:10221000120103F110001FF0B9FB05F12C08787DC5
:1022200088F80200022207F1160105F130001FF0C4
:10223000ADFB022207F1180105F132001FF0A6FBE9
:10224000022207F11A0105F134001FF09FFBB8F8D4
:1022500008006884022207F11C0105F136001FF016
:1022600095FB98F80200B8F80A10400088F80200C0
:102270000901B8F80400A8F80A104000A8F8040002
:1022800089B2B8F806004000A8F8060003046A8C7A
:10229000521CDB0B5A438A4201D280B238B9DFF8B4
:1022A000B004007880210EF03BFF3B2139E105F1BD
:1022B0002E01284620F02EFF0520A881284620F078
:1022C00025FF052207F11E0105F161001FF05EFBED
:1022D00097F82300400988F8000020F013FF688277
:1022E00005F59A72618D401AD08005F1610197F869
:1022F000230000F01F0088F80F00284620F0FEFEA3
:10230000616D4A78206DD1064CBF816CC16E086842
:10231000DFF84074002101714FF01C0AA979386878
:102320001AFB01F141F6210242520021AB791AFB5E
:1023300003F303445980AA791AFB02F21044416066
:10234000616DDFF814044A78D1060DD5DFF80C145E
:102350008A7851060AD5DFF80824138841F20A4129
:102360008B4208BFDFF8FC03C5F89C01D5F89C112F
:10237000284688473A68A97902F10E031AFB01F151
:102380005854A8793A6802F10E011AFB00F3C95CAF
:10239000DFF8D4331A681154A97938681AFB01F1AF
:1023A00001440020C87398F80C1088F80D10606D77
:1023B0004178CA061DD595F8960108B91DF0F4FAC2
:1023C000A97938681AFB01F1014495F89601421E7B
:1023D0000A74A87939681AFB00F008440021417496
:1023E0003A68A97902F112001AFB01F10022425267
:1023F0002BE0A97938681AFB01F10144206D90F8AF
:1024000040200A74A87939681AFB00F00844216D4D
:1024100091F841204274206D3968AB79403001F168
:1024200012021AFB03F34188D15205F5CB710078F3
:10243000012200F0030082400A70226D92F84000F1
:10244000800814BF0120022008713968A879DFF8DC
:102450001CB301F1140231681AFB00F301EB4010C8
:10246000D050A87939681AFB00F00844C04981614E
:10247000DBF814000078C1074CBF1F200F20DBF8E9
:10248000141009788A0748BF40F02000DBF81410C8
:1024900009784A0748BF40F04000DBF8141009787B
:1024A0000A0748BF40F080003168AA7901EB421367
:1024B00018723068A97900EB41120B205072316814
:1024C000AA7901EB42100421AA4A817210780128EE
:1024D00006D13168A87901EB40120121D17207E0E1
:1024E000DBF824003168AA79407801EB4213D872F6
:1024F0003168A87901EB40121F2111763068AA7962
:1025000000EB421100204876A8790FF051FDAA791E
:10251000316852018850AA7931685201885820B92F
:10252000072128461DF0B6FC02E19348AA7901680C
:1025300001EB021020F0DEFDA87931688E4B01EB33
:102540004012196801EB00105060A979306800EB67
:1025500041125168C8F83C10AA79520181587C4850
:10256000C8F84410042100780EF0DAFD616D4A7855
:102570003868D10648BF02210AD4A9791AFB01F1B3
:1025800001440A7C02F00302022A14BF042106213E
:10259000B8F8042095F806C04FF4C8738A18698A01
:1025A000AA615143B1FBF3F35B1C6B611AFB0CFC9A
:1025B000D5F800E06044DEF80CC040F6C41101FB21
:1025C00002C2D21AA2F5A8628260AA7938681AFB00
:1025D00002F283189A682B689A6000F10C03AA79BA
:1025E0001AFB02F20C309B5C03F0EF038354A879D2
:1025F0003A681AFB00F002F10C030C321B5C03F08A
:102600007F031354A8793A681AFB00F002F10C0317
:102610000C321B5C03F0F00343F002031354AB795C
:1026200038681AFB03F31844427B02F0F00242F0D0
:1026300001024273AA7938681AFB02F202449068D8
:102640002B6818613068AB7998F802C000F1140269
:10265000686940005B0111FB0C0000F5F660D0508A
:1026600095F8960104280DD13268A87902F1140377
:102670004FEA401C143253F80C00AB795B0100F5B3
:102680006160D0503068AA7900F114034FEA421C0F
:1026900053F80C20C5F83421AA7900EB4210C37C12
:1026A00003F0F00343F00403C374DBF83000326836
:1026B000AB79006802EB431CB8F806204243642360
:1026C000B2FBF3F35943A1F59661CCF81C103068C6
:1026D000A97900EB4110C27E02F0F00242F0040240
:1026E000C276A97938682A681AFB01FA00EB0A0158
:1026F000516095F8FD00010703D50E21284620F012
:10270000F5FC1E49072008702046AA7989F80220A6
:102710001BF088FA1A488178880704D5AA79002125
:10272000204620F0DFFC28681649174A4161826183
:10273000BDE8F14F20F078B9D50F0020780E0020C9
:10274000D70F0020900F00208E0F00209C0E00203D
:10275000C70F0020980E002081010210C00C00203D
:102760009A0F00204DE5011090570020104F0200F5
:10277000980C0020CC0F0020A40E0020C80F0020D1
:10278000200E002055F20000020480801DF0E6BB00
:102790002DE9F84F2DED108BADF5247D00910A90B9
:1027A000BE99DFF804079A469FEDDB8B002750F8AF
:1027B0002130AAF1010019460B931C181823D11ED1
:1027C00091FBF3F121EAE1710D1AA1EB810009916E
:1027D00002EBC00001908800DFF8D01668AEA0EBD5
:1027E0008A00084400F10408A7420FDCB0EE480A52
:1027F000E819F0EE680A05D458F827001CF0FAFD35
:1028000041EC100BA6EC020B0137EDE768A89FED39
:10281000C28B4FF0000918AE00EBCA00A0F1080807
:102820000B98814520DCB0EE489A0A9C002745466B
:10283000F0EE689A57450EDAB4EC020B51EC100B2F
:1028400095ED000B1FF080FF1FF072FF41EC190B9C
:10285000083D0137EEE706EBC90008F1080809F169
:10286000010980ED009BDBE790ADDDF82C809FED4A
:10287000ACAB9FEDADBB9FEDAECB9FEDAFDB9FED66
:10288000B08B9FEDA5EB9FEDB0FB281F059000EBF3
:1028900088000490A6F1080006900198C0F12F016D
:1028A0000391C0F1300118380291079006982E4626
:1028B00000EBC80B18A8CDF8208000EBC80090ED05
:1028C000000BB8F1010F28DB59EC105B53EC1A2B0D
:1028D000284649460CF0C4FB18F0D0FF1CF08AFDD6
:1028E00053EC1B2B07460C460CF0BAFB2A464B4612
:1028F00090AD07F0AAFD18F0C1FF9BED000B01C6DB
:102900003A46234651EC100B07F09FFD41EC100BAB
:10291000ABF1080BA8F10108D3E7079F38460BF08D
:1029200087FE54EC106B53EC1C2B304621460CF008
:1029300097FB41EC100B0BF0FFF851EC100B53EC34
:102940001D2B0CF08DFB3246234607F07EFD04461E
:102950000E4618F093FF80461CF04CFD02460B46D5
:102960002046314607F06CFD41EC190B81460C46C0
:10297000012F32DB089E029B05EB860050F8041CF9
:1029800041FA03F202FA03F39044C91A40F8041C16
:10299000039841FA00FBBBF1010F5EDB002700202A
:1029A000B04210DA55F8201017B16FF07F4202E004
:1029B00039B14FF08072511A012745F820100130CB
:1029C000EEE70027FBE70798012825DB0198192887
:1029D00018D01A2820D15E4817E0089E5FB153EC4A
:1029E0001F2B4846214616F015F8002840F091802C
:1029F0004FF0000B31E005EB860050F8040C4FEA75
:102A0000E05BC8E7524800F5800005EB860151F80D
:102A1000042C104041F8040C08F10108BBF1020F2E
:102A20001BD151EC180B4A46234607F009FD41EC37
:102A3000190B87B10446B0EE480A07980D46F0EE30
:102A4000680A0BF0F5FD53EC102B2046294607F0E1
:102A5000F7FC41EC190B4FF0020B059C51EC190BE4
:102A600053EC1E2B15F0B8FF002873D00020314620
:102A70000B9A914204DD54F8212001391043F7E705
:102A800000280498B14640F0818050F8041909F1FB
:102A900001090029F9D00AEB060068A90DF1600BC5
:102AA00001EBC008771C4E4530DA0998DFF8FC13BB
:102AB000384451F820001CF09DFC06EB0A0268AB7C
:102AC000B0EE4E9A41EC100B0A9C0025464603EBF3
:102AD000C202F0EE6E9A82ED000B55450EDAB4ECB0
:102AE000020B51EC100B96ED000B1FF02DFE1FF0AA
:102AF0001FFE41EC190B083E0135EEE70BEBC7005A
:102B000008F108083E4680ED009BCBE7C84690AD33
:102B1000CCE64FF0020B41E700000000000000008F
:102B2000000000000000703E00000000000070C1C6
:102B3000000000000000C03F00000000000020C0B6
:102B4000000000000000F03F000000000000E03F37
:102B5000FFFF3F00DDF80490B0EE490AF0EE690A8D
:102B6000C9F118000BF064FD54EC105B9FEDCC0B29
:102B70002846214653EC102B15F04CFF80B928460F
:102B8000214618F07BFE074690A924E00798CDE97E
:102B900009B854F82610013E18380029F9D01FE072
:102BA00053EC1A2B284621460CF05AFA18F066FE10
:102BB00007461CF01FFC53EC1B2B0CF051FA2A4665
:102BC000234607F042FC18F059FE90A9CDF81C905E
:102BD00041F8260001360798CDE909B841F826707A
:102BE0009FEDAD0B0BF024FD18A8B0EE408A3546E2
:102BF00058EC1ABB089600EBC609F0EE608A304626
:102C00004C46B5F1FF3F1BDD90A850F825001CF0A5
:102C1000F1FB57EC186B02460B46304639460CF078
:102C20001FFA41EC100B304639465A46434684EDB4
:102C3000000B0CF015FA41EC180B083C013DE0E7E5
:102C40009FED938BDFF868A2DDF820B00DF580785A
:102C5000BBF1000F25D40898B0EE489A00264C46E8
:102C60005746F0EE689AA0EB0B050CE0B7EC020BB0
:102C700051EC100BB4EC020B1FF066FD1FF058FD79
:102C800041EC190B01360B988642D8BFAE42EDDD00
:102C900008EBC500A9F10809ABF1010B80ED009B21
:102CA000D6E7BE99481E022815D3002969D0DDF861
:102CB00020B0032940F0E28008EBCB0A5746BBF175
:102CC000000F72DD1EF0B0F81EF066FD1FF000FA76
:102CD0001EF082FFF3E7089F9FED6D0BDDF800907B
:102CE000099E08EBC7043D46002D0AD451EC100B99
:102CF00094ED000B1FF0F4FC41EC100B083C013D7F
:102D0000F2E78DED100B53EC102B002E9DF84700D1
:102D100080F080008DF84700109808BF1046119988
:102D200008BF194641EC100BDDE9400189ED000BAD
:102D300007F086FB41EC100B08F108040125BD42A9
:102D400009DC51EC100BB4EC020B1FF0C9FC41EC98
:102D5000100B0135F3E78DED0E0B002E9DF83F00B3
:102D60000E9A80F080008DF83F0051EC100B08BFE8
:102D700002460F9808BF084640EC102B89ED020B65
:102D80007CE0089E9FED420B009D099F08EBC60466
:102D9000002E19D451EC100B94ED000B1FF0A0FC89
:102DA00041EC100B083C013EF2E7DDF820B057463D
:102DB000BBF1010F1EDD1EF037F81EF0EDFC1FF019
:102DC00087F91EF009FFF3E78DED0C0B002F9DF83E
:102DD00037000C9A80F080008DF8370051EC100B12
:102DE00008BF02460D9808BF084640EC102B85ED41
:102DF000000B43E09FED260BDDE90845022C0BDBC1
:102E000051EC100B9AED000B1FF06AFC41EC100B1B
:102E1000AAF1080A013CF1E79DED401B3DB38DEDA1
:102E2000121B9DF84F0080F080008DF84F009DED43
:102E3000121B009981ED001B8DED140B9DF85700BE
:102E400080F080008DF857009DED140B81ED040B90
:102E50009DED420B8DED160B9DF85F0080F080001C
:102E60008DF85F009DED160B81ED020B06E00098DA
:102E70009DED422B80EC041B80ED040B0A9800F0C2
:102E800007000DF5247DBDEC108B01B0BDE8F08F7F
:102E90000000000000000000000000000000F03F03
:102EA0000000000000007041F4530200504702008F
:102EB000504E02002DE9F04F054687B0A978DFF8A3
:102EC000DC66002710294FF0060A3CD8DFE811F035
:102ED000110061036103610361033C00CB006103E6
:102EE0006103C5021101FC00160361039702DC02B5
:102EF00059036878002826D120F0F0F8044620F025
:102F0000E9F805461CF00EFD8DF800002246102160
:102F100002201CF0FBFF2A46102103201CF0F6FFC4
:102F20006A46012104201CF0F1FF9DF800000128F1
:102F300018BF032807D1012016F026FA0246062101
:102F400006201CF0E3FF24E368780028FBD195F805
:102F50000CB06C8900900023E97801AA01F001010E
:102F6000281D0FF0D1FC00284FF0010871D19DF809
:102F70000400FDF70DFA8146BBF1080F08BFB84603
:102F8000307A80001EF028FF050003D104201CF0D9
:102F90000BFDFEE2707802280CBF0120002000909B
:102FA0005B469DF804104A462046FDF754FC142267
:102FB000002102A81EF0E0FC9DF804001AFB00F0BE
:102FC00002AA102124301CF08DFFA8B91022FF2185
:102FD00002A81DF062FE78B99DF804001AFB00FA01
:102FE00006AA04210AF125001CF07CFF02AA09F0C0
:102FF0000101204620F06AF8317A9DF804002A4643
:103000008900E0301CF06EFF98B92846FDF729F9D9
:10301000BA4609E005EB8000018819B182782046A4
:103020001DF050FD0AF1010A317A5FFA8AF08842F8
:10303000F0D3B07A30B95FEA897003D53178204691
:103040001CF014FF9DF80400FDF7DDF928461EF082
:10305000CBFE7078022805D1B8F1000F02D02046CF
:1030600015F0EEFF95E2A888FDF724FD20F02AF880
:103070000028F7D1F07D012808D1FDF713FAF27985
:10308000706AF77500211EF077FC17E0307E01288A
:1030900003D1FDF7AEFA377610E000240AE0706A3B
:1030A000E5B2415D012904D1E0B2FDF70CFA716A85
:1030B0004F55641CE0B2F1798842F0D350201DF0E6
:1030C00091FDFDF779F964E220F038F800280CD082
:1030D000F06900281CBF0468002C07D02869009004
:1030E0006B7B2A7B6989E81CA04751E26889012132
:1030F00044E268780024002840F0DA80A879C1070B
:1031000040F1D6800822002105A81EF035FCA888D1
:1031100020F038F8040000F08E806F694FB306226B
:10312000002107F111001DF0B8FD68B31022002145
:1031300038461DF0B2FDD0B9387C00F001084FF0E0
:10314000000909F1010987F811900020009000237F
:103150000022414607F111000FF0D6FB00285FFA6C
:1031600089F002D10028ECD101E000280CD1002028
:1031700068610622607900F001008DF81A00A11D37
:1031800005A81EF003FC1FE06F69EFB1387C00F06A
:1031900001008DF81A00062207F1110105A81EF0A2
:1031A000F5FB6079012805D10622A11D04F10C0070
:1031B0001EF0ECFB062207F11101A01D1EF0E6FB3C
:1031C000387C40F002006071A879410720794CBF3B
:1031D00040F0020000F0FD002071A9790A0754BFF9
:1031E00000F0DF0040F020002071A8799DF81B104E
:1031F000DFF8AC83800800F0010008438DF81B0065
:103200004FF0FF09A979C90801F0010140EAC100A6
:103210008DF81B00FF2469691E2779B310226846C8
:103220001EF0B4FB102168461FF048FF4FF0000B62
:10323000DFF870930CE0FDF75FFC0028D5D0307804
:1032400004210DF06DFFD0E70BF101005FFA80FB68
:1032500099F80000834510DAD8F8001007FB0BF04E
:103260000A5CFF2AF0D0084400F10D0110226846E4
:103270001DF046FF0128E7D15C46A14600200090E2
:1032800000239DF81A1004AA05A80FF03DFBB9F120
:10329000FF0F5CD034285AD1707D30B3012856D14D
:1032A000A88805211FF046FF0124A888FDF702FC2D
:1032B00068780B2804BFA888FDF73EFCF069002859
:1032C0001CBF4368002B0FD06A78A888012198475B
:1032D0006878002808D1A879C10705D5F369A888BE
:1032E00022465C680321A0474BE1D8F8000000218A
:1032F00007FB09F400910023015D401C04AA20444F
:103300000FF002FB18BB9DF81000FDF7DCF8F0B9D8
:10331000FDF752F8FDF7A3F88DF81000E8680028D3
:103320000CBF00210169002201900392029105A9BE
:10333000686900902B69AA689DF81000FCF7A5FF4A
:103340000446A888FDF7CCFA200046D14BE00020C7
:10335000009000239DF81A1004AA05A80FF0D4FAD3
:1033600020B1FDF77CF88DF8100019E06869B8B15C
:103370009DF810001AFB00FA6A4610210AF123009A
:103380001CF0B0FD60B91022FF2168461DF085FCDD
:1033900030B99DF81A0005A900F001001FF0EAFEFF
:1033A0009DF81000F179884227D2E86800280CBF08
:1033B00000210169002201900392029105A9686928
:1033C00000902B69AA689DF81000FCF75EFF044688
:1033D000A888FDF785FA200005D09DF81000FDF7BC
:1033E00072F8FCF7E9FF200008D1707A0028A8885D
:1033F0007FF45CAFFDF712FB5AE7152455E76878B8
:1034000006281FD1A8881FF0BDFED8B1317D491E06
:10341000032917D8DFE801F0020E08134179A888C4
:103420000022FDF7ADFA0DE00022002140F2094034
:1034300003F0A4FCA88805211FF07CFE02E0A88808
:10344000FDF77AFBF06900281CBF4368002B03D00E
:103450006A78A888022198479AE000970023E978C3
:1034600001AA01F00101281D0FF04EFA0028F3D146
:103470009DF804001AFB00FA05F10C0204210AF180
:1034800025001CF043FD83E0F06900281CBF436861
:10349000002B03D0A888002200219847707810B92B
:1034A000A88805216AE0A8881FF06CFE040070D08F
:1034B000A87AC10712D5009700236179002201F094
:1034C0000101A01D0FF020FA00281EBF607900281E
:1034D000012803D0E868C0F3402028B1707C02289E
:1034E00007D1A87A010704D4A88803211FF0E2FDC0
:1034F0004FE06179A88805F1080227E02F7BAD88AD
:1035000028461FF03FFE040042D01FF017FE00289F
:103510003ED100900023617901AA01F00101A01DB4
:103520000FF0F2F928BB9DF80400FCF731FF07F01B
:103530000C07042F11D0082F0BD00C2F0FD100F047
:10354000090109290BD0617900222846FDF718FAF4
:103550001EE010F0090F02D1F5E7C107F3D50122F3
:103560000092A37C9DF8041002462846FDF773F9EB
:103570000EE070780028E6D1052128461FF09AFD5C
:1035800006E0FDF7B9FA18B1307804210DF0C8FD56
:103590000127384607B0BDE8F08F00BF08220020A1
:1035A000680F0020A45800202DE9F84F2DED068B60
:1035B00096B059EC105BEB4829F0004686421CD8C7
:1035C000B0EE408A28464946F0EE608A18F056F977
:1035D000E5498E4202D8002800F0FD819FEDE41BF2
:1035E000B0EE480A0020F0EE680A16B0BDEC068B7B
:1035F00001B0BDE8F04F08F0CBBADF48864208D3EF
:10360000284649462A464B4606F01AFF41EC180B5D
:10361000E1E1DA48864213D84846DB496FF31F5090
:10362000884261D0F14886424FD8B9F1010FC0F20B
:103630004A819FEDEF0B1EF027FD9FEDEF0BABE1F5
:10364000CF48864210D8EE48864249D8ED48864297
:103650004AD0B9F1010FC0F299819FEDEB0B1EF03A
:1036600013FD9FEDEB0B34E1C64886423CD9EA4896
:103670009FEDEB1B0DF1400B00EB165057EC11AB1F
:103680000390A6EB005040EC105B0025102D00F0DD
:10369000EA8054EC106B0BEB05083046214618F01D
:1036A000EDF81BF0A7FE41EC100B02460B4630462E
:1036B000214688ED000B06F0C3FE52463B460BF058
:1036C000CFFC41EC100B0835E0E7B9F1010FC0F277
:1036D00015819FEDE70B1EF0D7FC9FEDE70B13E183
:1036E000CE48864240F0E5809FEDEB0B28464946E8
:1036F0001FF022F89FEDEA0B53EC102B06F0A5FE0D
:103700009FEDE90B53EC102B06F09FFE9FEDE00BB5
:1037100083468A461FF010F802460B462846494663
:1037200006F093FE9FEDD80B04460D4658465146D1
:103730001FF002F81EF02BFF2046294645EC194BDE
:1037400006F07EFE41EC180BC1F30A505146C0EB67
:103750001657584618F092F88046112F6DDB9FEDF2
:10376000D40B300D5146029058461EF0E5FF064638
:10377000CDF80C808846204629463246434606F05E
:103780005FFE81460F4641EC190B204629464A460A
:103790003B4606F055FE43463246DDF80C8006F007
:1037A0004FFE9FEDC50B04460D46584651461EF090
:1037B000C3FF22462B4606F043FE1EF0E8FE4846B5
:1037C000394606F03DFE41EC180BC1F30A50029950
:1037D000081A322831DB9FEDBA0B584651461EF0CD
:1037E000ABFF06460C46484639463246234606F0AD
:1037F00027FE80460D4641EC190B484639464246A5
:103800002B4606F01DFE3246234606F019FE9FEDBC
:10381000AE0B04460E46584651461EF08DFF22461A
:10382000334606F00DFE1EF0B2FE4046DDF80C8079
:10383000294606F005FE41EC180B51EC190B53EC30
:10384000182B06F0FDFD53EC1A2B06F0F9FD41ECA8
:10385000110B08F0030002285ED0012800F0A480BC
:1038600000283ED1B1E08DED140B9FED6F0B0BF1F5
:103870001004042556EC107B94ED000B3A463346B9
:1038800051EC100B15F0A8F8083C013D0028F3D1CD
:1038900001202B46009010A80CA9039AFEF778FF90
:1038A0009DED0C8B8046B9F1FF3F42DD9DED0E1B77
:1038B000CFE7B9F1010F7ADB9FED610B1EF0E4FB5E
:1038C0009FED610B79E09FED6E0B1EF0DDFB9FED30
:1038D0006E0B1EF079F91EF067F91EF015FF41EC32
:1038E000110B1EF013FC8DED040B9DF8170080F0FA
:1038F00080008DF817009DED048B6CE09FED580B58
:103900001EF0C2FB9FED580B1EF05EF91EF04CF945
:103910001EF0FAFE41EC110B1EF0C4FA8DED060B01
:103920009DF81F0080F080008DF81F009DED068B34
:1039300051E09DED0E0BC8F100088DED0A0B8DEDE9
:10394000088B9DF82F0080F080008DF82F009DF8E7
:10395000270080F080008DF827009DED0A1B9DED6B
:10396000088B76E7FB21E93FFFFF4F3E00BF00BF1A
:1039700000000000000000000000F07F7A6A0F40A5
:103980003B461C40FA213941FB2109009FED300BD9
:103990001EF07AFB9FED300B1EF016F91EF004F9B5
:1039A0001EF0B2FE41EC110B1EF0B0FB0FE09FEDDC
:1039B000200B1EF069FB9FED200B1EF005F91EF099
:1039C000F3F81EF0A1FE41EC110B1EF06BFAB0EE05
:1039D000408AF0EE608AB0EE480AF0EE680A16B04F
:1039E000BDEC068B01B0BDE8F08F00BF7CD9024072
:1039F00000004054FB21F9BF3163621A61B4D0BDAD
:103A0000BCFD15407CD912400000307F7CD912C02B
:103A1000CA9493A7910EE9BDEAFBFFFFFB21194071
:103A200000000000000070410000000000000000E5
:103A300000004054FB2119403163621A61B4F03D2B
:103A400000004054FB2119C03163621A61B4F0BD1B
:103A50000000307F7CD91240CA9493A7910EE93DB3
:103A600000004054FB2109403163621A61B4E03D1B
:103A700000004054FB2109C03163621A61B4E0BD0B
:103A800000004054FB21F93F3163621A61B4D03D1C
:103A900000004054FB21F9BF83C8C96D305FE43F8B
:103AA000000000000000384300000000000038C3A0
:103AB0000000601A61B4D03D7370032E8A19A33BD5
:103AC0000000002E8A19A33BC14920259A837B3927
:103AD0002DE9F04F85B00D460295044615F8011BFF
:103AE0008DF801100022DFF8E41488788DF80020AA
:103AF00004F1660B1EF028F901902C219DF80100BD
:103B0000DFF8CC24032804F1F40604F5B07A04F5B8
:103B10009C7704F5C87804F2171900F0E1800728B3
:103B200000F01382082818BF092811D00C2800F0D3
:103B3000D7810F2811D0112800F04481182800F0F7
:103B400092811A2800F057811B2800F07C811AE22C
:103B50002946204614F078FE15E2707ADFF8748466
:103B600081070AD40F2089F8020020461FF09EFA30
:103B7000002872D198F80000DCE12878697800EB21
:103B800001223A82A878E97800EB01227A8228792A
:103B9000697900EB0122BA82A879E97900EB012268
:103BA000FA82287A3876697AA87A01EB00227A8339
:103BB000E87A297B00EB0122BA83687BA97B00EBC2
:103BC0000122FA83E87B297C00EB01223A84687C9D
:103BD000A97C00EB01227A84E87C297D00EB01229C
:103BE000BA84687DA97D00EB0122DFF8EC03FA843A
:103BF00001788A0658BF4FF01A0A13D504F5AA7047
:103C00000490798B0391387E029021890191F88A82
:103C10000090BB8A7A8A398A20461FF043FAE8B1BD
:103C20004FF01E0A707A41070AD40F2089F802006B
:103C300020461FF03BFA00280FD198F8000079E1E8
:103C400052460F2120461FF029FAF88A0090BB8ABD
:103C50007A8AA179504616F0B7FA72E104F186002B
:103C6000798A81800023BA8AC2800222F98A01817E
:103C700002704380A18EC91DABF81E10628E818830
:103C8000B1EB520F02BFC188A28E914202BF0089E0
:103C9000E18EB0EB111F21D09BF81000012804BF6A
:103CA0009BF811000F280CD09BF8150000281CBFB2
:103CB0009BF811001A2804D00F218BF81A10FE214E
:103CC0007CE0FC2120461FF011FAF88A0090BB8AA4
:103CD0007A8A398AA0791FF0DDF932E110216DE08E
:103CE000707AC10709D431781A200129707002D185
:103CF000FF220D213DE00D2160E000208BF8000047
:103D00008BF80600012232712946082204F1B00026
:103D10001FF0BCF90146022204F1B8001FF0B6F909
:103D200004F1A8050146082228461FF0AFF907460E
:103D3000082128461FF0C2F904F19C0504223946E7
:103D400028461FF0A3F9042128461FF0B7F904F113
:103D5000A0001FF097F904F198001FF08FF99F4819
:103D6000018841F0800101803078012805D1FF22CF
:103D7000042120461FF07EF9E3E09BF811600F2E2E
:103D800018BF142E07D00E2E18BF0C2E03D01A2EDB
:103D900018BF162E11D19BF81070FF220421204667
:103DA0001FF068F9012F06D18BF81A601A2E14BF84
:103DB000FD21FB2102E0314600E0042120461FF0F6
:103DC00095F9BEE028788AF800001A286B788AF8FE
:103DD000013040F0D8801068A679431C4E43002083
:103DE0009855A379126811FB03F111440871A17968
:103DF0009AF80100C0E0A77910682E784F43074475
:103E000006F01F0317F8210FB60938B17878F04093
:103E1000C00703D598F80600042805D120221A21EE
:103E200020461FF03BF98CE0FB701068A27911FB73
:103E300002F10144204681F8236000211EF0AEFD0E
:103E40000028F0D174E0A37910684B430344D8886C
:103E500008B900265E701068A27911FB02F10144D6
:103E6000002008716DE069782878884204BF084016
:103E700010F0070F6DD19BF81100162806D198F8A5
:103E80000620A179134600200DF0E4F8022088F8FE
:103E90000200012101984177012398F8060098F863
:103EA0000A1088F80000BAF81C201FF0DFF8BAF8F2
:103EB0001810814209D3BAF81C2098F80A1098F813
:103EC000000001231FF0D2F80146AAF82E100121AC
:103ED00098F8080040F0400088F80800397030E099
:103EE000707E012810D015F8011B31770222294677
:103EF00004F589701FF0CAF80146022204F58A70A1
:103F00001FF0C4F8012070769BF8060030B93D21FF
:103F1000012289F8011089F8002012E0F07E0028C3
:103F200004BFB07E00280CD120461FF09BF830B9AA
:103F3000284800784FF480410DF0F2F801E00120AC
:103F4000F07601218DF8001021E028780F2816D096
:103F50001A2818D1A07913684843184400234370E5
:103F6000A079126811FB00F150180371F07A00F08B
:103F7000FB00F0721A20A1790AF065FCE1E7707A83
:103F800000F0FD007072204602991FF067F89BF860
:103F900011001A2815D19BF8120017281CBF1028F1
:103FA000FC280ED19BF8106020461FF053F8012E1C
:103FB00003BF1A208BF81A00FB211A2120461FF09C
:103FC00095F89DF8000005B0BDE8F08F780E002050
:103FD00078570020C70F0020200E00209C0F0020E3
:103FE0002DE9FE4F04460020009080460CB91BF0DE
:103FF000DBFC04F1500641F6230037683880A7F84F
:10400000028002223A737A73694620460DF080FAE4
:1040100008B9072050E2009901B1B860B868206182
:10402000DFF89804017884F8B8107068407A18F0C6
:10403000FDFA25302076B87387F80F807168087D07
:10404000022804BF00201BF0AFFC7068007D01282F
:1040500002D10020002104E083280CBF06200220AA
:1040600020213874797404F12405DFF854A4DAF8B7
:104070003C0041690868697901EB41010844B0F8E6
:1040800001207A827068417848060AD5607DC106B1
:1040900004D5E07F40F04000E07702E040F04000CF
:1040A000607507F15C0904F1300089F80080A97E91
:1040B000890001F0040189F80010B866607DC1062E
:1040C00054D5726851788A060BD500F0FE006075F1
:1040D0007068417811F0030F03D1E07F00F0FE001B
:1040E000E077607D1EF0B2FFA0750023387CA27DD2
:1040F000C0F38001521C00F003001EF0A3FFA08358
:104100001E23A28B02F59B7090FBF3F31E2101FB93
:104110001300C0B208B1C0F11E00821802F59B72F4
:1041200062831E23A28B02F5967290B290FBF3F38A
:1041300001FB1300A283C0B208B1C0F11E008018B9
:10414000A08380B2E27D618B521E50434018608391
:1041500007F13008608BB43080003866062089F89B
:104160000300E17F41F00801E17720E040F0010029
:10417000607571684A78510744BF40F0020060756D
:10418000607D1EF063FFA0750023387CA27DC0F324
:104190008001521C00F003001EF054FFA083A08B8E
:1041A00000F59670A0830020386689F80300A17D91
:1041B000207D61F3050007F1880120750870032256
:1041C000607D48708A70A87E800000F0040040F096
:1041D00003008870EA7ED20002F008021043887063
:1041E0000020C8700021C7F89010A88BC0F30B0006
:1041F000A8837168CA7D40EA0230A8830022617DED
:1042000001F0FE0120460CF02DFA019700271DE079
:104210001C20784304EB000B01991C220BF1640075
:104220001DF0B4FB0BF16C00052101717F1CA28B0A
:1042300092000260FFB2DAF83C104A6911686B79AB
:1042400003EB43031944B1F801204281E07D401E95
:104250008742DDDB019F204611F076FCE07D0128DE
:1042600009D013D3032809D03EBF04F1640078605D
:10427000C6F818800AE0C7F8048007E004F164007B
:10428000786004F18001B161C6F8348041F6240001
:1042900038860021798607F13C08B868618B00EB0D
:1042A0008100B8630221822088F8000088F801109C
:1042B000002194F8210088F8031000F03F0088F8EE
:1042C00002007068807D012818BF022803D100F029
:1042D0007F00401E04E083280CBF0620022020211E
:1042E00088F8040088F805104FF0000BDAF83C005D
:1042F000416908686A7902EB42021044B0F8011083
:10430000A8F80610C7F86CB07068417811F0030F78
:1043100020D01EF093FEF866DAF818000078C10786
:104320004CBF1F200F20DAF8181009788A0748BF01
:1043300040F02000DAF8181009784A0748BF40F02A
:104340004000DAF8181009780A0748BF40F08000EA
:1043500089F8140089F815B071685A4A887C00F011
:10436000030089F81500A97E890001F004010843C3
:1043700089F81500E97EC90001F00801014341F008
:10438000100189F81510107838B199F8140000F070
:10439000FE0041F0400189F8140089F81510E07F13
:1043A0001EF054FE84F8200020461EF043FEE07FFD
:1043B000C10635D5706894F820204178521C8807D2
:1043C0004EBFD21EE87F121898F80400C0F3800197
:1043D0000023D2B200F003001EF034FE28801E221B
:1043E000288800F59670C0F11E0190FBF2F21E20A5
:1043F00000FB021129717168487881074CBF0020C9
:104400004FF49B702988401828806880B86B2988F1
:104410002A795218A63200EB82007867022002E067
:10442000C7F874B0002089F8170004F13000C7F80D
:10443000800007F1840071684A78510707D504F1BC
:104440003802026099F8150040F0200007E01E498C
:104450000A685168016099F8150000F0DF0089F8DA
:104460001500A17F94F8200060F30501A17740F6C4
:104470000B00A8F81000A8F812B0DAF8380000888D
:1044800080007865DAF83800008800B1072088F8E5
:104490001C00022088F81D0094F84510A8F81E1092
:1044A00070684178880744BF0121A8F81E10009861
:1044B00008B10BF0A8FE0020BDE8FE8FA058002038
:1044C000104F0200880E00206C0F00202DE9FE4FD7
:1044D000DFF844B4DFF8447405469BF80000002878
:1044E0004CD0052872D0062800F07F80072818BF1E
:1044F000082800F0F5800A2800F0E281112802D097
:1045000013286FD000E2DFF81824107800211EF085
:1045100009FE04001EBF606D407810F00C0F2DD016
:10452000216DC0064CBF886CC86E016801F108059A
:104530000622A91C68461DF029FA287800F00F0110
:1045400005291BD145096946C0F380101EF06EFD98
:10455000002813D0396868461EF064FD06463968A5
:1045600004F138001EF05EFD86420DD0606D41788A
:10457000C80604D440F201401EF050FDCAE1607B41
:1045800040F002006073C5E13B681E204643981965
:1045900006226946C01D1DF0F9F9606D4178C80614
:1045A000F1D5A17B0129EED1DFF8780381784806A7
:1045B00005D5E90703D4206D41F20A4102E0206DE0
:1045C00041F20441418041834186A3E11EF0E0F9BC
:1045D0000028FAD112F088FE012802D001201EF036
:1045E00019FD97E114F0F7F994E1DFF83C532868DE
:1045F0001EF00CFD0400F7D020790328F4D1207AB6
:1046000000F00F01072938D1DFF820030068416965
:10461000497A4A1E11425CD0617A04F10A035A5C5D
:1046200002F03F02252A54DBA17A8A09012A50D1DF
:1046300011F03F0F4DD0007C1DF094F9E17ACA07CC
:104640004CBF04F1110204F10B028B0748BF921D0D
:104650000B0748BF921CC90648BFD21C12785209EA
:1046600016214A43B2498B180A31EB608A5A4286B6
:1046700099898186DA89C2862BE000F00F0008282C
:1046800027D1A17A880924D119B3A8480168087CE8
:104690001DF068F9E17A064688071AD5062201F06E
:1046A00001015143601800F10C0168461DF06EF9DC
:1046B000207AC00969461EF0B9FC50B1386800F193
:1046C0000D0168461EF09EFC18B9052130461BF00E
:1046D000E1FB2079032802D000201BF065F90FE1EF
:1046E000944FB8780024FF281BD01DF03BF980467A
:1046F00008F16C09D9F804001EF088FC2A460179FB
:10470000032901D011000CD08368197801F003004F
:104710008D06009003D50124009818B9CDE0100053
:10472000FAD0F7E05D7803F1020A34B31AF8010B0E
:10473000814B01902C2098F806C01E6810FB0CFCE1
:1047400066444FF0010E86F805E0002A1E6898F8CE
:1047500006E006F11A0C019E10FB0EFE06F01F0685
:104760000CF80E6098F806601B6810FB06F0184401
:10477000019BC3F38113C3761AD10098032808F272
:1047800017161AD0ADB199F8000068B108F1F4001D
:104790000278012A0DD19BF80020072A04D0082AAC
:1047A00004BFC078012804D13D2171700120307010
:1047B000B0E0624A1378012BFAD098F894000028F0
:1047C0003CD030782D1F0128EDB2F1D053462A4657
:1047D000404611F039FA00281EBF594908780028D0
:1047E00013D13D2171700120564A30701178012992
:1047F0000AD1554C20784FF4805119F063FF20788E
:104800004FF480510CF08CFC84E0504801688847DC
:1048100001904FF4D07098F80620796842438818C8
:10482000002180F8411108F59E70016880794908DF
:1048300012F028FB464901980A689047009803281F
:104840001DD044494869007882070DD598F8940036
:10485000002814BF281D28464A691178CA0748BF96
:10486000C01C1AF8000000E0812089F808002A46E0
:104870000098C3B2B878514606F038F91DE09AF8AE
:1048800000001CB11B2804BF022D01251C2803D2E7
:1048900031490B5C9D4205D0B070072140461EF0A7
:1048A00025FC0AE09BF8000008285146404602D14A
:1048B00014F014FA01E0FFF70BF9D9F8040020E036
:1048C000264C207830B3264D28681EF09FFB08B395
:1048D000017903291ED1017A8A0611D5807AE178FF
:1048E000C0F38112914202BF217900F01F00814282
:1048F00006D1A078002801BF607800280121A170AE
:1049000028681EF07BFB05E000201BF04DF8862098
:104910001EF004FCBDE8F78FC80F0020680F0020D0
:10492000D50F0020C00C0020BC0A0020540F00202E
:10493000E0070020780E002078570020D20F0020DA
:10494000A5580020880E0020C70F00201832002034
:104950001C320020104F020060520200E05600207E
:10496000AC0C00202DE9F84305460C46480413D44E
:10497000A00024D4A0075CD460057ED4200500F1FB
:104980000681200700F13B81600040F1F68013F0C2
:1049900067FD24F08044F0E01DF03AFBDFF81C14C2
:1049A0000F6D3FB1D7E90A1202F0E04201F00A01AF
:1049B000891849D01DF031FF24F48044DDE0BB4864
:1049C000DFF8FC73016841F080010160B8780128CC
:1049D00004D1042019F0EAFF0020B8701DF018FB84
:1049E000064604201DF0A4FBDFF8D8130A689042A5
:1049F00019D12A7EBAB1FA68AAB1DFF8C003806C77
:104A0000002800F09780C16840F6030209889142AF
:104A100006D0C06840F604010088884240F08A80D1
:104A200005F1140088E040F6C4120860C5E90422CC
:104A300084E007F0DFFEDFF88403006C002840F01C
:104A40009D8024F0020498E0D7E90A65D7E90A12AC
:104A5000AA43B143C7E90A121DF0DFFEB868002877
:104A6000AAD056EA0500A7D0D7F808C03869B7F928
:104A7000301032462B46E0479EE71DF0C9FA054646
:104A80001BF022FC002800F0B780CC48876B002F79
:104A900000F0B280DFF828830420CB49002288F898
:104AA0001800C6481CF092FD1DF0EAFEC7481DF034
:104AB000ABFEC7480068006B8047C8F810000125AE
:104AC000042088F802501AF09FFA386990F82810EC
:104AD000C8F80400490703D5436A04210022984717
:104AE000012014F06DFED8F8040045760EF060FF4A
:104AF000D8F8040081680B461A465B684BB11E88E3
:104B0000A6F60306072EF7D805FA06F616F0830F69
:104B1000F2D0537B03F0F003013353730023FD689D
:104B200053602D88A5F60305012D00F28A80C8F890
:104B300010309FE005F1100017F0E0FB30461DF04B
:104B40006CFE1AF079FA78B12E6A28466FF48071FB
:104B500000224FF00073B0479848806B10B113F0FB
:104B60007FFC01E044F00204EE69284600210022A7
:104B70004FF08063B04724F0005434B19748214689
:104B80002830BDE8F8431DF02BBFBDE8F8838C4EFC
:104B9000B078012804D1042019F008FF0020B0707B
:104BA0001AF04AFA38B170686FF4807100224FF041
:104BB0000073056AA847306950B185480068006BEA
:104BC000804732697168801A000BC860002030612C
:104BD0007A4D8149002228461CF0F8FC02203076EC
:104BE000286C20B17D48022128301DF0F9FE13F019
:104BF00037FC24F40064C0E71DF042FE41E01DF0E4
:104C000007FA05461BF060FBA0B1DFF8B48198F805
:104C1000000000070ED498F9000000280AD4684666
:104C20000FF00CF808B1009820B1DFF8B49199F8B2
:104C3000610048B31DF024FE13F012FC24F00804B8
:104C40009BE7034633F8385FA5B190F8445090F8DD
:104C5000456005F0F00580F8445006F0F005013598
:104C600080F8455000255360C5634587507B00F0B0
:104C7000F000507357480022C261016001201BF010
:104C800001FE24F4806478E700260127602E0FD00F
:104C900009EB0600817A31B18772407A07FA00F099
:104CA000C0B219F09DFE2036F0E700BFCC210840CD
:104CB000032088F8180045481DF0A6FD1DF0E0FD12
:104CC000444F3E4D0022786900207861F968F86011
:104CD000284644491CF07AFC3D480068006B804738
:104CE000D8F80C10D8F82020411A02EB1130B0EBA4
:104CF000113F38BF4FF0FF3098F82410C8F820005B
:104D000021B1D8F80810B0EBC12F20D91BF0CAFD93
:104D1000B8B140F60900414621F83C0F0020488018
:104D20004A7B02F0F00201324A730A7B02F0F00281
:104D30000A734860F8613960B8F83E0010F4406FBB
:104D4000FAD00020C8F82000012088F8240016F0CE
:104D5000E1FC254800210160022000211BF092FDAA
:104D6000022019F023FE10200EF08CF898F80100B4
:104D700020B9D8F8040050301DF02EFE1B48807872
:104D800010B90D200EF07EF898F8250028B100200B
:104D900088F82500052019F009FE002088F8180081
:104DA0001348C8F81C000220B5F85610B5F8542076
:104DB000914208BF072012F0C1FC3DE79C2900206A
:104DC0009827002098330020A5020200F851002007
:104DD0008C0100100010044065EF0000382900200D
:104DE000A04D0020C5840100000004605C54020056
:104DF00051E900001DF0FAB82DE9F84F2DED028BB6
:104E000015F03AF9DFF83814DFF838A40888498833
:104E1000AAF81410A0F52F729AF80810AAF8120038
:104E2000B2F5FA6F00F23781002900F034810020DA
:104E30008AF80800BAF8120040F6FC01884205D84A
:104E400040F23D31884204D840F23E310846AAF88B
:104E500012109AF80A20DFF8F8439AF8091024F89B
:104E60001200BAF81420A2F52F73B3F5FA6F03D825
:104E700011B100218AF80910B2F52F7F06D39AF8F4
:104E800007301BB940F68D239A4230D34A1C9AF85A
:104E900005108AF80920D2B2052A03D311B90122DC
:104EA0008AF8072019BB40F23E3188421FD8012002
:104EB00000278AF805000E208AF801708AF803009E
:104EC0000EF0E2F99AF801001DF046FA10201025C4
:104ED0001CF08EFA9AF802008AF80770112806D39F
:104EE000D9488AF80250D9490E221CF0B8FFBAF806
:104EF000141040F6FC00814205D840F23D3081425A
:104F000004D840F23E300146AAF814009AF80AC0CC
:104F1000CE4A0023002502EB4C00818100210329A9
:104F200008D034F81100034402EB410001318089BC
:104F30000544F4E7DFF81C839AF80300C64C6426A6
:104F400040F2BE519AF80570D8F800B08BF80A000C
:104F500098B20323B0FBF3F010FB064090FBF1FE88
:104F6000BE48A0F800E0A8B2B0FBF3F010FB06408A
:104F700090FBF1F0BA4984B2088067B9BAF81070B2
:104F8000012F40F0BA801E2C00F2B7801FFA8EF07D
:104F90001F2880F0B2800025AAF81050DFF8C492D4
:104FA000B149ABF808408BF80B509FEDB10ABAF845
:104FB0001630BAF80C70B9F800009F420880AB496F
:104FC0000D682C89A9F8004012D0F91A201A90FB1C
:104FD000F1F04FF6FE7188420ADCA64900EE100A95
:104FE0009FEDA31AB8EEC00A8842B8BFB0EE410ADE
:104FF000A148AAF8167080ED000A9AF8040010B1D2
:10500000A87A002873D010881FFA8EF19B4F48436E
:105010006421B0FBF1F59AF8000001283D8063D1CE
:1050200000EE104AB7EE001A002CB8EE400A08BF96
:10503000B0EE410ABAF80E0001EE100AB8EE411ABD
:1050400081EE000A10EE100A19F044F941EC180B39
:105050009AF806001BF096FCB0EE480A41EC110BE2
:10506000F0EE680AFBF78CFD51EC100B12F08CFA95
:105070003C88CAF81C00002C48D0BAF80E20B9F8B9
:105080000070DAF82010974242D2002940D1AAF8E5
:105090000C40254659E0B0F52F7F04D340F68D2211
:1050A0009042FFF4C7AE481C8AF80800C0B2052839
:1050B000FFF4C0AE9AF8040000287FF4BBAE4FF4B2
:1050C00086701124AAF8030011201CF091F99AF8B7
:1050D00002001228FFF4AEAE5B488AF802405B493A
:1050E0000C221CF0BCFEA5E6AAF80C5066E0634852
:1050F0000025AAF80C50058060E0FDB2002F7FF477
:105100004DAF1F2CFFF44AAF012545E7002149E0D0
:1051100000EE100A974206D329B9012001EE104A89
:10512000CAF8200007E0974257D3002955D0BAF8B3
:105130000C0001EE100AB8EE411A20EE010ABDEE95
:10514000C00A10EE105AAAF80C5078001AF052F962
:105150009FED310B53EC102B09F082FF9FED300BCC
:105160001DF09AFA9FED300B02460B4651EC100BE6
:1051700007F002FF9FED2E0B1DF08EFA9FED2E0B18
:105180001DF08AFA16F07AFB85420246AAF818004A
:10519000214638BF2A46A24238BF1146854298BFF1
:1051A000A24202D30D46AAF80C10DAF824009AF8AD
:1051B0000AC0D8F800B00130CAF824000CF1010090
:1051C000ABF80450C1B2022988BF00208AF80A0057
:1051D000BDEC028B01B0BDE8F08F974212D289B1CD
:1051E0000020CAF8200020461BF0CCFB9FED080BE6
:1051F00053EC102B09F034FF16F040FB0546AAF8DB
:105200000C00A2E7BAF80C509FE700BF00BF00BF38
:10521000000000000000E03FEA2E4454FB2109405A
:105220000000000000004E400000000000C072407E
:1052300077BE9F1A2FDDE23F120DF736A2204D3FB9
:10524000EC570020402E00201C5800203830002051
:105250003A57002018580020C8BBFEFF9258002083
:105260008C5800208A5800208858002014580020AC
:1052700000FF7F470200FFFF0458002084580020F1
:105280002DE9F04F0F46380589B018D5DFF8F453F3
:105290002888FF280ED0C0B21CF064FB040009D09F
:1052A000A07916211DF0A6FE20461CF051FB2046D9
:1052B0000AF098FBFF20288087F40060DFE1F80502
:1052C00004D514F074F987F48070D8E1B80604D5D9
:1052D0001DF02EFB87F02000D1E1F8070CD51CF063
:1052E0005BFD30B100218160DFF89C03006800B1F4
:1052F000804787F00100C2E1380704D51DF01AFB92
:1053000087F00800BBE1F8060FD50021002200233A
:10531000069105920491039302910192009102205B
:105320001DF064FE87F01000A9E1B8070FD5002139
:10533000002306910591049103930291019100913C
:1053400001223C201DF052FE87F0020097E1790710
:105350004FF01E08CD4EDFF838A340F1D580CD4880
:10536000002200210892079100781DF0DBFE044620
:10537000C9488178FF2904BF00201AF015FBA07AE4
:105380001CF0F0FA05469AF8000095F82E910028D6
:1053900005F5947B71D0606D807A022818BF0328D0
:1053A00007D130680D301DF01DFE10B93068C11DE9
:1053B0000791594648461DF039FE00283BD0606DE4
:1053C000807C3368002818BF012804D1194658464C
:1053D0001DF028FE04E05A46494618461DF0D6FE48
:1053E000FF284AD008FB00F830684044062259469E
:1053F000C01D1CF0CBFA306810F80810404400F1D2
:10540000010B41F00209C01D089009F0010185F867
:105410002E110622594605F594701CF0B7FAA879AA
:105420001CF092FC060008BF1AF0BEFA94F8B9000E
:1054300086F83A0021E0594648461DF0CFFDE0B11C
:1054400030685A4649461DF0A1FEFF2815D018FBCA
:1054500000F8306840440D301DF0C4FD58B9306884
:1054600040440D301DF0BEFD002801BF30684044AF
:10547000417F012901D149F0020905F12C004B4679
:10548000017806914289120905920122698C0491E2
:10549000C0880899029140080390CDF800B00798A1
:1054A00001900020A9791DF0A1FDD5F89C017B4950
:1054B00088420CBF00210121A8791DF08BFD78489E
:1054C000AB7902682C214B43134401221A73AB7948
:1054D00004684B4323445A73AB7904684B43234419
:1054E0009A73AB7904684B432344DA73AB79006851
:1054F00011FB03F10144002008740720A97912F080
:105500000AF887F00400BAE038060FD5002100231E
:10551000069105910491039302910191009101225A
:105520003B201DF063FD87F08000A8E0F8045DD506
:105530005C4930680C680D301DF054FD002844D1E2
:105540003068C11D0D301DF041FD3EE0606D4178B9
:10555000480704F13E0526D5287802281EBF0328F7
:105560006878012830D16978306804F138021DF07C
:105570000DFE8146B9F1FF0F15D0306818FB09F90F
:1055800048440D301DF02EFD68B930684844C11DF7
:105590000D301DF01BFD30684844C11D062204F18A
:1055A00038001CF0F3F92878022818BF03280BD123
:1055B00030680D301DF016FD30B93068C11D06226F
:1055C00004F130001CF0E2F92468002CBED136480A
:1055D000DAF8042000784FF4805117F08DF810B1FC
:1055E0008E201DF0EFFC87F4805048E0B80505D50B
:1055F0001DF026F82D4901200860FEE7780504D546
:105600001DF04FFA87F4806039E0780405D58120D9
:105610001DF0D8FC87F4804031E0B9042ED5244C2D
:10562000206810B100201AF0BFF94FF0FF30206061
:105630000020204C10F05EFF216851F8202F6846B2
:1056400090471D494A6B086BC96A24681B4B01923D
:105650000090ADF8101002936B46194A1948016882
:1056600019480392194A07922568194AA847194907
:10567000086003F07BFF87F4005000E0002009B0D1
:10568000BDE8F08FDC330020480F0020680F0020B9
:10569000880E0020D70F0020780E00204DE5011065
:1056A000785700204C0F0020C70F00207C052043B6
:1056B000380F0020200F00202C270020791D020029
:1056C000891D020084570020984800201EFB00809E
:1056D000EC0A00201C0F00202DE9F84FDFF82854B9
:1056E000A9780024FF2904BF00201AF05DF9A878EA
:1056F0001CF038F9054605F1680605F5C9773168EB
:10570000086805F1900808B1EC8311E0B07B00282F
:1057100004BFB07E00280BD198F80010002904BF08
:105720003878002804D1287F012804BF688CE883DA
:105730002989E88B4118491C698128461DF03EFCE7
:1057400001281EBFDFF8C4030178012903D129898C
:10575000EC83491C69814FF6FF79B07E01280DD199
:10576000B28B698928891DF025FC38B1298968899F
:105770004A1C93B298422FD0B08B23E098F80000D7
:1057800001280FD1B8F80220698928891DF012FC80
:1057900040B1298968894A1C93B298421CD0B8F854
:1057A00002000FE03878012816D17A8869892889A3
:1057B0001DF000FC80B1298968894A1C93B2984287
:1057C0000AD0788892B2904206D04844688180B26C
:1057D0001DF0ECFB4844E883387801280FD1288974
:1057E0007988401C80B2884209DB7C793C710220B8
:1057F00038702346A979224600200BF02BFC05F5D2
:105800009A71087920B128890021401CE9836881B8
:10581000B07E012813D12989B08B4B1C9BB29842D2
:105820000DD168811DF0C2FB05F12E01B6F8208074
:105830008A8802FB0088284610F0C6F903E005F1CB
:105840002E00B0F80480E88BB14B411C01FB08F836
:105850002968CA6840F6C41909FB0822CA60AD4924
:10586000DA7BD30702D56B8A00220BE00A88521C30
:1058700093B2012B03BF05F59A7CBCF8063003F206
:10588000DC536B8A03FB08F34FF4C87CB3FBFCF3D7
:105890005B1C6B610A8085F82000C5F818804FF00A
:1058A0001C0BDFF874A2AB79DAF8000000F10802F3
:1058B0001BFB03F3D1582A68116100F10801AB7991
:1058C000D26868691BFB03F3121ACA50DAF80000A9
:1058D000AB7900F108021BFB03F3D1582A689160F1
:1058E00000F10C02A9791BFB01F10C30535C03F0B1
:1058F000F00343F002034354DAF80010AB798A1C3A
:105900001BFB03F30021D152387908B91AF04CF887
:10591000DAF80000AA7900F1100138791BFB02F2D5
:1059200040088854A879DAF800101BFB00F00844FE
:10593000002141743879042814D1A879DAF80010CC
:105940001BFB00F001F110021031135C3A7A43EABC
:1059500082030B54AA79DAF800001BFB02F202441E
:1059600020205074DAF80010A87901F112021BFB14
:1059700000F0002111526949A8790A6802F1140364
:105980004FEA401C143253F80C00AB79D5F814C020
:105990005B0100EB4C00D050B07E02280DD10A68AC
:1059A000AE7902F11403760114329859AB7995F867
:1059B0002E605B0119FB0600D05005F12E02544801
:1059C000C37BD8075ED5DAF80000AE7900F1080491
:1059D0001BFB06F60830A359AC791BFB04F4A3F5B6
:1059E000A8630351DAF80000AC7900F108031BFB4F
:1059F00004F418592B6898600446494800FB08488D
:105A0000C3F810800868AE7900F1140476011430F0
:105A1000A359AC79640103F5F6630351387904287E
:105A20000BD10868AE7900F1140476011430A35943
:105A3000AC79640103F5616303510868AC7900F146
:105A4000140364011859C5F83401364B186B0C68FF
:105A5000AE799288006804EB461742436424B2FB97
:105A6000F4F409FB04F0A0F596692F48C7F81C90E0
:105A70000278012A2FD10868A97900EB4112012090
:105A8000D0722FE0042C0BD10868AE7900F1140419
:105A900076011430A359AC79640103F561630351B5
:105AA000387904280CBF4FF4AA504FF4E6600B6815
:105AB000AE7903F114047601A359181A938809FBEF
:105AC00003F3A3F516739842BFD3082128461AF0B2
:105AD000E1F9012016E0586A0968AA79407801EBDB
