:10000000003C022079C001000DCF01000DCF01009E
:100010000DCF01000DCF01000DCF01000DCF01006C
:100020000DCF01000DCF01000DCF01000DCF01005C
:0C0030000DCF01000DCF010005C800003D
:1000400038B586B004468DF805104FF6FF720120D2
:10005000ADF80220090ADFF8B85AADF80000022313
:100060008DF806108DF8043069462A7820461FF076
:10007000AFFE162803D1297820461FF0A5FE07B051
:1000800030BD3EB504000D461ED0DFF8880A00687A
:1000900022461FF095FEFF2815D000200090002377
:1000A00001AA2946204610F087FA60B99DF804009D
:1000B00000F06EF9C00606D59DF8040000F068F95E
:1000C00010F0040000D001203EBDFEB516461524F8
:1000D0004FF6FF7290420D4615D100208DF80400B6
:1000E000DFF82C7A9DF80400F97988421AD232465A
:1000F000294600F03EF800B100249DF80400401CA1
:100100008DF80400EEE71FF057FE50B100F099FBA8
:1001100040B99DF804003246294600F02AF8002430
:1001200000E014242046FEBD7CB50D4604460621A1
:100130004C43164620346A46082120461CF09AFF9C
:10014000A8B900F076F890B99DF80700002E14BF0A
:10015000054320EA0505E9B2814206D08DF8075033
:100160006A46082120461CF0ADFF012076BD002024
:1001700076BD2DE9FC4106463446062388461546E1
:100180005C436A46082104F120001CF073FF00283C
:100190004CD100F04EF8002848D100F024FA0400B9
:1001A00002D100F018FA41E0397AE036224689009F
:1001B00030461CF05FFF002834D1204600F051F893
:1001C0005FEA08000ED13A7A9206120E002120460C
:1001D0001DF0A6FD30BB3A7A9200002120461EF0A9
:1001E0006BFB16E0214600F029F858B9280004D02E
:1001F0002146002000F022F810B900F00CFC15E0B8
:10020000A0F800808178A9420CD085700DB900213A
:100210000180204600F025F8397A224689003046D0
:100220001CF050FF00F0F7FB012000E00020BDE8CB
:10023000F6810622FF2168461DF072BD70B5DFF819
:10024000D0381D7A002200E0521CD4B2AC4206D253
:1002500031F824608642F7D101EB840070BD0020A4
:1002600070BD10B50021DFF8A8280AE030F8213071
:10027000DB4320F8213000EB8103491C9C78E443E8
:100280009C70137A9942F1DB10BD2DE9FE4FDFF827
:1002900080480646207A0F4691469A4680001EF016
:1002A0001BFD5FEA000803D100F095F90A206DE01C
:1002B0000C9D02974FF0060B37461BFB07FB029A7B
:1002C00008210BF120001CF0FDFE8DF804003046E3
:1002D00000F099F8227A00F079F99DF80400009076
:1002E0004246217A890006F1E0001CF0EBFE009EF8
:1002F00002990643206A082200EBC7001EF0E6FAC6
:10030000F5B11022002128461DF00AFDC0B902995E
:10031000887900232A4600F001001FF049FD0028DB
:100320001CBF9DF93C00002803D0DFF8EC1701202A
:1003300008702A4610210BF123001CF0C3FE06436F
:100340005FEA090205D01C210BF121001CF0BAFE66
:1003500006435FEA0A0205D01C210BF122001CF0C3
:10036000B1FE06430D9A4AB110210BF124001CF096
:10037000A9FE06430EAA00F031F90643A07D08B19C
:1003800000F094FA40461EF0AFFCF0B2BDE8FE8FDC
:10039000E0B5062358436A46082120301CF06AFE67
:1003A00010B99DF807000EBD00200EBDDFF86007F4
:1003B000007808210EF04ABF38B50025DFF8504715
:1003C00018E0206A06236B4300EBC50220330821A6
:1003D00098B21CF04FFE58B1206A0622FF2100EBB4
:1003E000C5001EF069FA206A00EBC5010022CA713F
:1003F0006D1CEDB2E1798D42E3DBA07D10B1BDE86B
:10040000314053E231BDF8B5DFF80417DFF80C379F
:10041000C9791E680C460A4600E02A46D5B23DB1AD
:10042000551ED2B2324412F8017C8742F5D12C46D7
:10043000E4B220464D1E07E01718165C7F7817546B
:100440001A680244401C5670A8421A68F4DBAC4299
:1004500004DABDE8F84005201CF034BEF1BD70B5EB
:100460000024DFF8AC5600E0641CE879E3B2834274
:100470000BD22B6AE6B20622FF2103EBC6001DF069
:100480004FFC0028F0D0E0B270BDDFF89426117860
:1004900039B1DFF8880601680C78204600F013F8BF
:1004A000204670BD38B500200024DFF8645603E014
:1004B000E0B200F008F8641CEA79E1B2914201D29E
:1004C0000100F5D032BD2DE9F84F4FF0060B1BFBB4
:1004D00000FB8EB081460BF1200501AA08212846B9
:1004E0001CF0C8FD002868D10622FF2101A81DF0DC
:1004F00017FC002861D100F076F85FEA000803D10C
:1005000000F069F80A205AE01C22FF2103A81EF01F
:10051000D3F93A7A00F05AF80BF123060AAA10210F
:1005200030461CF0A7FD60B91022FF210AA81DF07B
:10053000F7FB30B99DF80A0001A900F001001FF097
:1005400033FC082200F03EF801AA082128461CF0DE
:10055000B9FD054603AA1C210BF121001CF0B2FDD8
:100560008DF8000003AA1C210BF122001CF0AAFD4B
:10057000044603AA102130461CF0A4FD064603AA37
:1005800010210BF124001CF09DFD824603AA00F00F
:1005900025F89DF800100D43254335434AEA05052B
:1005A000397A05434246890009F1E0001CF08AFDD2
:1005B000054340461EF098FB00E0002528460FB09A
:1005C000BDE8F08FFF2101A81EF076B99200FF214F
:1005D00040461EF071B904201CF0ECBA04210BF166
:1005E00025001CF06FBDDFF82875387A80001EF0FA
:1005F00073BB2DE9F84187B0FF208DF80000DFF8CC
:100600001055E8791EF068FB040003D1FFF7E3FF03
:100610000A2030E01022FF2103A81EF04DF9EA79EC
:10062000FF2120461EF048F90622FFF7CBFF03AA60
:10063000102102201CF046FD064603AA10210320CB
:100640001CF040FD06436A46012104201CF03AFDDF
:100650000746E979224605201CF034FD054601AA2B
:10066000062106201CF02EFD804600F0D4F93E4302
:100670002E4348EA060008B0BDE8F081DFF8901488
:10068000408809781CF0BABCF0B5A9B006460D4602
:1006900014461FF091FB08B91420A6E0A422002103
:1006A00068461EF009F9ADF80060DFF86464F07880
:1006B000F17B279A8DF804005208307C8DF8A00059
:1006C0004B0801F0010040EA420222F0020203F06E
:1006D000010342EA4302080922F4807200F001009B
:1006E00042EA0022480922F4007200F0010042EAC6
:1006F0004022880922F4806200F0010042EA802250
:10070000890822F0040201F00101707C42EA8102B2
:10071000279202280CBF012000200DF126077874D3
:100720001FF03EFB412807DB707C00B108209DF8DC
:10073000991008438DF89900F07CB8B10121B97483
:10074000202206F188010DF139001EF0BFF82022A9
:1007500006F1A8010DF159001EF0B8F8202206F1AB
:10076000C8010DF179001EF0B1F800E0B874707B9B
:100770008DF8050090B1DFF8AC73102207F110017D
:100780000DF106001EF0A2F89DF89900082805D189
:10079000102239460DF116001EF098F8307B8DF8C6
:1007A000260030B11022DFF880130DF127001EF073
:1007B0008DF8307948B1022D18BF032D03D1279849
:1007C00040F002002790012100E000219DF89900EF
:1007D0000143B0788DF8991000B1042001438DF8E1
:1007E0009910684621461FF0D7FA29B0F0BD2DE9CF
:1007F000FC41154615244FF6FF72904288460ED1F3
:100800000027DFF80C63F179F8B2884216D22A4645
:100810004146FFF789FC00B100247F1CF3E71FF07D
:10082000CBFA50B100F00DF840B99DF804002A460B
:100830004146FFF779FC002400E014242046BDE87F
:10084000F681002100910023417901AA01F0010104
:10085000801D0FF0B1BE70B504460D46062045431D
:10086000082B88B0164603D1300758BF223500D573
:1008700021351C220021FFF7A6FE01AA1C212846D3
:100880001CF0F8FB80B99DF81E00C01F0A280BD28F
:100890009DF830000090F20801AB02F0010206F072
:1008A000010120461EF0B6FA08B070BD38B51FF041
:1008B0006FFA0024964D0FE0286A0622FF2100EB14
:1008C000C4001DF02DFA28B9286A00EBC40188790C
:1008D0001FF05AFA641CE4B2E8798442ECDB31BDC3
:1008E000F0B5924D0646686885B04FF6FF7438B98A
:1008F000009502238E4A214601201FF041FA6860CC
:10090000696819B30222FF20029200230390019329
:100910000DF112072A88009704AB304607F08EFBD2
:1009200060B99DF810009DF8111000EB0122100035
:1009300004D0686841893046FFF7C7FB2A88686899
:10094000002321461FF018FA686008B9012000E072
:10095000002005B0F0BD3EB50C46002501460095CF
:10096000002301AA20460FF027FE38B99DF80400A5
:10097000FFF70EFDC00601D401203EBD00203EBDA4
:100980002DE9F0416B4F3C6806468846154603E06A
:100990002089B04224D02468002CF9D10C201EF00C
:1009A0009BF9040019D0268184F80A800020206079
:1009B000E07245B1082128461DF0BCFB606018B903
:1009C00000F029F80AE06060396811B93C6004E081
:1009D000014608680028FBD10C600CB9152018E00E
:1009E0001FF0C6F908B1002013E00120E0722A468A
:1009F00041463046FFF748FE04464548C069002896
:100A00001CBF4368002B03D00022002130469847CA
:100A10002046BDE8F08120461EF066B938B505468F
:100A20004448046803E02089A84204D02468002CCC
:100A3000F9D1012032BDE07A012807D100F05CF83D
:100A400020B13348007804210EF000FCE17A491C03
:100A5000E1722846C9B200F002F8002032BD38B574
:100A6000022904462A4D02D003290DD01EE042F689
:100A7000C921FFF7E5FA02001CBFE869002818D079
:100A80004368B3B105210CE042F6A621FFF7D8FA7E
:100A900001001CBFE96900290BD04B684BB102462D
:100AA0000421204601B0BDE830401847BDE832407F
:100AB00000E031BD10B51F4A1468002101E0214655
:100AC00024686CB123898342F9D1206800290CBFC6
:100AD00010600860606808B11EF006F9FFF79BFF20
:100AE000002010BD024604201249096819B10B8983
:100AF0009342FAD1C87A70470E48006828B100685E
:100B000018B1C17A0029FAD170470020704700005F
:100B1000E81C0020680F00201F4D0020344C0020EE
:100B20001E4D0020D8490020084A0020C04B00205C
:100B30005E200200384C002038B584B004461FF017
:100B40003BF90622417901F001018DF80E10811D5B
:100B500002A81DF0BBFE0020009000239DF80E109F
:100B600001AA02A80FF028FD9DF80400FFF7ABFCD6
:100B70000546052120461FF0F7F8284605B030BD90
:100B80008CB01EF057FCDFF85CA7DFF85C97CAF862
:100B90000C0048461EF018F8CAF8080048461EF037
:100BA00081FADFF84857A81C291D16F01BF805F13B
:100BB00014001EF00CF9DFF83817A860002605F1C4
:100BC0001C0041F288320023CDE9006A039016F040
:100BD0003DFCDFF82007DFF82017DFF82077002240
:100BE000152300901020B847DFF8141710200022BA
:100BF00002234FF00208B8470DF074FFDFF8041726
:100C0000102001220124B847DFF8FC1610204FF015
:100C1000FF32B8471CF062F84FF0FF3017F0F0F9E0
:100C200003208DF81040DFF8E4468DF81480012190
:100C30008DF8170004208DF8160005208DF81C0093
:100C4000E548069004AA0020A04705AA012001213A
:100C5000A0470DF1170202200121A0470DF1160255
:100C600003200121A04706AA04200521A0470AF17C
:100C700010001DF081FDDFF898160AF11402102013
:100C8000B847A978DFF88C465020A047DFF88816CF
:100C900002461020B847A9785020A047DFF87C16FC
:100CA00002461020B847DFF878161020FB2240F6E5
:100CB0004803B847DFF86C161020B8474FF6FD70B0
:100CC00017F0ECFFA9785020A0470346DFF858063C
:100CD000DFF858160422CDE900801020B847DFF86D
:100CE0005006C0211EF0A2FBDFF844064FF6FF714C
:100CF000C02E02D081531836FAE7DFF838161020DC
:100D000080228023CDF8009012F0D8FB8AF80300EF
:100D10001BF046F8DFF82046207099F870001EF0AE
:100D2000A3F91EF001FA08F0C5FA14F0C9FE207804
:100D3000012806D199F87810012017F0A7FD12F0CC
:100D40005FFEDAF80C0001214FF00008017006AEDA
:100D50009AF8040000214FF040424FF0FF33013079
:100D60008AF8040068680DF091FC0028F0D08146F4
:100D7000CDF8108005A80DF1170104AA1AF0D5FED0
:100D8000002840F01682BDF81400102840F00982B7
:100D9000A8789DF81710814240F00382DDF810B06A
:100DA0004FF6FF70BBF80010814200F0FC81080A8A
:100DB000C9B2912900F0A080B02900F0DB80D029D1
:100DC00040F0F1819BF80210072900F2DA80DFE899
:100DD00011F00800E801E801E801E801050144011B
:100DE0007D01002840F0DD819BF806009BF80B1088
:100DF0003246ADF81B808DF81800BBF807008DF85F
:100E00001F100821ADF81900BBF80900ADF81D004E
:100E1000002014F059FADFF838B5DFF83875681C8F
:100E2000DFF834350090102059463A4612F046FB60
:100E3000000640F054820B20DFF824456A78002336
:100E40000090DFF8180521461EF09FFA000640F0DA
:100E5000468214206A78214601230090DFF80405B9
:100E60001EF093FA000640F03A826A78DFF8F81430
:100E70001020922312F022FB6A78DFF8CC141EF0C7
:100E800069F8000640F02B82DFF8E0341020594664
:100E90003A46009512F012FB000640F020820B202B
:100EA0002A78DFF8BC1400230090DFF8C4041EF099
:100EB0006CFA000640F013822A78DFF8AC14102098
:100EC000922312F0FBFA2A78DFF87C141EF042F825
:100ED000000640F004821BF0CBFC0AF10100012166
:100EE00040F6B8320023CDE90010DFF8041405F114
:100EF000400016F0ABFA54E13E2854D00F2859D0E8
:100F0000102864D00E2840F04C81BBF8040041F258
:100F10000541884240F04581DBF80800017800294E
:100F200040F03F81C778B0F801001CF04DFD072864
:100F300000F237817F2F00F03481DFF8F41300EBEB
:100F40004000052201EBC004617C481C607404F180
:100F50000C004754617CB1FBF2F202EB8202891A69
:100F6000002261740021052900F0D680435601312A
:100F70001A44F8E79BF804100BF108001EF0F0FE8D
:100F80000FE1112940F00D81BBF80400ADF8180005
:100F90009BF80E008DF82200BBF80A00002800F034
:100FA000AA800020B2E09BF802000C2840F0F980F3
:100FB0000C2008E0BBF8040042F23201884240F005
:100FC000F08042F23200594610F0E0FEE9E00820DD
:100FD00000211DF063FBE4E001020304D949102065
:100FE00012F06CFA07469BF80100002840F0B5802B
:100FF000BBF80AB0002000F11801D82900F0AA803F
:10100000CB4A105A4FF6FF7290420846F3D1C848B7
:101010004418032024F818BC1EF0A4FA002844F851
:10102000140C00F094800821017054F8140CA0F8FE
:1010300001B024201EF096FA54F8141C002844F83D
:10104000100C00F0818001220023CDE90021A84985
:1010500041F2707216F0FAF979E0BA49102012F0F4
:101060002DFABBF804B0804658461CF0ADFC0828A9
:1010700025D0AF49074600EB400001EBC000846873
:10108000A4B120461EF0DCFA10B120461EF0DCFAB6
:1010900020461EF0FDFA20461EF05EFAA44907EB3A
:1010A000470001EBC00040681EF056FA58461BF09E
:1010B000F1FE584619F0D6FA584617F0EFFD5FEAF0
:1010C000086050D103981EF0BFFA4CE0BBF8042032
:1010D0009A491020334612F0F1F905F10C001CF08A
:1010E000EDFA00285DD00446008911F0D7FC2046B7
:1010F0001EF032FA55E0ADF81E80DBF80600CDF8A0
:101100001A00BBF80C00ADF8200001208C498DF8C6
:1011100023001020324642E010B20521274690FB02
:10112000F1F017F8131FA074D9BBC0B241B211F18E
:101130001E0FC0F2A380207D40F00200022830D0B4
:10114000002302220221B0E008461EF005FA012029
:1011500004F8040C03981EF075FA17F0F80F15D177
:101160009AF8020090B9784F6A7800241020002382
:101170000094394612F0A2F92A781020394600234B
:101180004FF00008009412F099F90AE06F4C2A78A9
:101190001020214612F092F96A781020214612F0B0
:1011A0008DF9DDF810B0BBF1000F02D058461EF0EB
:1011B0007EF95FEA49007FF5CBADA8681DF0D2FF4C
:1011C00000287FF4C5ADA8681DF0EEF80028F4D023
:1011D000074600780138082848D8DFE800F00547BE
:1011E0001547303A450F1E007868007840F002013C
:1011F00002293BD1314619F055FA37E07868B0F84A
:10120000010011F04BFC35E078680168B1F1004F46
:101210002CD040681EF0A0F928E078684488204669
:101220001CF0D2FB424900EB400001EBC000C07D46
:10123000E0B152491020224612F040F916E07868D9
:101240004D490023C2884B480090102012F036F917
:101250000CE00220314619F025FA38B903200121AB
:10126000324611F035FA01E01BF002FB786808B154
:101270001EF072F938461EF06FF99EE7D82807D3A2
:10128000207D0228FFF48DAF0023012201210CE014
:10129000CE2807D3207D00283FF483AF012304210B
:1012A000062202E0022204210223A3461BF8150FA6
:1012B000904203D1A07D01283FF673AF20880292AF
:1012C0000A461AF0AFF90120029938709BF8000025
:1012D000884218BF84F816808BF8001061E71DF073
:1012E000A5FA00BFC02700201C1F0020902200206C
:1012F00009AD010044280020195D0100BD34010042
:10130000A5A8010049DB01001DB80100D12601009C
:1013100009D601003DC70100D96C02102D6D0210E5
:101320000D520210397F01105C2A00208DB500009B
:10133000B03E002075D00100474D0020F9DC0110BF
:10134000D95701107DE80100ED740110650202100B
:10135000990101100DCC0100DC270020E4290020B8
:1013600089DD0000702800201DEF0110F827002003
:10137000EF29002040E2010011C001000D2B0210F6
:101380002DE9F84F01201AF00DFB012816D1DFF8E6
:10139000E866307800211EF0DFFC040004BF002066
:1013A0001BF008FC00202072201D10F0E5F905F06C
:1013B000D7FA050003D181201EF0CAFC58E30120B2
:1013C0006871072013F01DFCDFF8B096DFF8B02637
:1013D00099F80100401C89F80100A879A07240200A
:1013E000317811700EF0DAFB2860616D4A78206D5B
:1013F000D10620D5816C0A681179032908D0816C47
:101400000868007903280CBF012000201BF0D2FBE4
:10141000206D816C0A6890F86C0002F108070128C1
:101420001CBF00201BF0C6FB216D486F296800F52A
:10143000B060C8604EE0C16E0A681179032908D017
:10144000C16E0868007903280CBF012000201BF042
:10145000B1FB206DC16E0A6890F8980002F1080790
:1014600001281CBF00201BF0A5FB216DB5F87431CD
:10147000D1F8A0002968DFF80C26C86097F826602C
:10148000DFF80406032E1FD8DFE806F0020610146A
:10149000CA6802F5B06202E0CA6802F53472CA6036
:1014A00005F59A7201881187038811E0C86800F574
:1014B000355002E0C86800F6B870C86005F59A704B
:1014C00011880187138803E0C86800F5B060C86020
:1014D000A5F8743106222868C16801F59071C160D1
:1014E000B91C3878C0F3801085F82E0105F594708A
:1014F0001DF0ECF9A8791DF0A7FB060004BF002041
:101500001BF058FB94F8B90086F83A000422DFF883
:101510007C6507F10E0105F124001DF0D7F9306854
:1015200095F806C000F10C03042207F10E0103EB4D
:101530004C101DF0CBF9032207F1120105F1280030
:101540001DF0C4F93068AB7900EB4313032207F1B7
:10155000120103F110001DF0B9F905F12C08787D96
:1015600088F80200022207F1160105F130001DF093
:10157000ADF9022207F1180105F132001DF0A6F9BC
:10158000022207F11A0105F134001DF09FF9B8F8A5
:1015900008006884022207F11C0105F136001DF0E5
:1015A00095F998F80200B8F80A10400088F802008F
:1015B0000901B8F80400A8F80A104000A8F80400CF
:1015C00089B2B8F806004000A8F8060003046A8C47
:1015D000521CDB0B5A438A4201D280B238B9DFF881
:1015E000B004007880210DF031FE3B2139E105F196
:1015F0002E0128461EF0A8FB0520A88128461EF0D3
:101600009FFB052207F11E0105F161001DF05EF947
:1016100097F82300400988F800001EF08DFB6882CF
:1016200005F59A72618D401AD08005F1610197F835
:10163000230000F01F0088F80F0028461EF078FBFA
:10164000616D4A78206DD1064CBF816CC16E08680F
:10165000DFF84074002101714FF01C0AA979386845
:101660001AFB01F141F6210242520021AB791AFB2B
:1016700003F303445980AA791AFB02F21044416033
:10168000616DDFF814044A78D1060DD5DFF80C142B
:101690008A7851060AD5DFF80824138841F20A41F6
:1016A0008B4208BFDFF8FC03C5F89C01D5F89C11FC
:1016B000284688473A68A97902F10E031AFB01F11E
:1016C0005854A8793A6802F10E011AFB00F3C95C7C
:1016D000DFF8D4331A681154A97938681AFB01F17C
:1016E00001440020C87398F80C1088F80D10606D44
:1016F0004178CA061DD595F8960108B91BF05AFA2B
:10170000A97938681AFB01F1014495F89601421E47
:101710000A74A87939681AFB00F008440021417462
:101720003A68A97902F112001AFB01F10022425233
:101730002BE0A97938681AFB01F10144206D90F87B
:1017400040200A74A87939681AFB00F00844216D1A
:1017500091F841204274206D3968AB79403001F135
:1017600012021AFB03F34188D15205F5CB710078C0
:10177000012200F0030082400A70226D92F84000BE
:10178000800814BF0120022008713968A879DFF8A9
:101790001CB301F1140231681AFB00F301EB401095
:1017A000D050A87939681AFB00F00844C04981611B
:1017B000DBF814000078C1074CBF1F200F20DBF8B6
:1017C000141009788A0748BF40F02000DBF8141095
:1017D00009784A0748BF40F04000DBF81410097848
:1017E0000A0748BF40F080003168AA7901EB421334
:1017F00018723068A97900EB41120B2050723168E1
:10180000AA7901EB42100421AA4A817210780128BA
:1018100006D13168A87901EB40120121D17207E0AD
:10182000DBF824003168AA79407801EB4213D872C2
:101830003168A87901EB40121F2111763068AA792E
:1018400000EB421100204876A8790EF065FAAA79DB
:10185000316852018850AA7931685201885820B9FC
:10186000072128461BF0DEFB02E19348AA790168B4
:1018700001EB02101EF058FAA87931688E4B01EB8B
:101880004012196801EB00105060A979306800EB34
:1018900041125168C8F83C10AA79520181587C481D
:1018A000C8F84410042100780DF0D0FC616D4A782E
:1018B0003868D10648BF02210AD4A9791AFB01F180
:1018C00001440A7C02F00302022A14BF042106210B
:1018D000B8F8042095F806C04FF4C8738A18698ACE
:1018E000AA615143B1FBF3F35B1C6B611AFB0CFC67
:1018F000D5F800E06044DEF80CC040F6C41101FBEE
:1019000002C2D21AA2F5A8628260AA7938681AFBCC
:1019100002F283189A682B689A6000F10C03AA7986
:101920001AFB02F20C309B5C03F0EF038354A8799E
:101930003A681AFB00F002F10C030C321B5C03F056
:101940007F031354A8793A681AFB00F002F10C03E4
:101950000C321B5C03F0F00343F002031354AB7929
:1019600038681AFB03F31844427B02F0F00242F09D
:1019700001024273AA7938681AFB02F202449068A5
:101980002B6818613068AB7998F802C000F1140236
:10199000686940005B0111FB0C0000F5F660D05057
:1019A00095F8960104280DD13268A87902F1140344
:1019B0004FEA401C143253F80C00AB795B0100F580
:1019C0006160D0503068AA7900F114034FEA421CDC
:1019D00053F80C20C5F83421AA7900EB4210C37CDF
:1019E00003F0F00343F00403C374DBF83000326803
:1019F000AB79006802EB431CB8F80620424364232D
:101A0000B2FBF3F35943A1F59661CCF81C10306892
:101A1000A97900EB4110C27E02F0F00242F004020C
:101A2000C276A97938682A681AFB01FA00EB0A0124
:101A3000516095F8FD00010703D50E2128461EF0E0
:101A40006FF91E49072008702046AA7989F80220FC
:101A500019F01CFB1A488178880704D5AA7900215F
:101A600020461EF059F928681649174A41618261DB
:101A7000BDE8F14F1DF0FABDD50F0020780E002013
:101A8000D70F0020900F00208E0F00209C0E00200A
:101A9000C70F0020980E002081010210C00C00200A
:101AA0009A0F00204DE50110244C0020D0190200AF
:101AB000980C0020CC0F0020A40E0020C80F00209E
:101AC000200E0020C5D80000020480801BF00EBB51
:101AD0002DE9F84F2DED108BADF5247D00910A9086
:101AE000BE99DFF804079A469FEDDB8B002750F87C
:101AF0002130AAF1010019460B931C181823D11E9E
:101B000091FBF3F121EAE1710D1AA1EB810009913A
:101B100002EBC00001908800DFF8D01668AEA0EBA1
:101B20008A00084400F10408A7420FDCB0EE480A1E
:101B3000E819F0EE680A05D458F827001AF08CFD71
:101B400041EC100BA6EC020B0137EDE768A89FED06
:101B5000C28B4FF0000918AE00EBCA00A0F10808D4
:101B60000B98814520DCB0EE489A0A9C0027454638
:101B7000F0EE689A57450EDAB4EC020B51EC100BFC
:101B800095ED000B1DF045FC1DF037FC41EC190BE9
:101B9000083D0137EEE706EBC90008F1080809F136
:101BA000010980ED009BDBE790ADDDF82C809FED17
:101BB000ACAB9FEDADBB9FEDAECB9FEDAFDB9FED33
:101BC000B08B9FEDA5EB9FEDB0FB281F059000EBC0
:101BD00088000490A6F1080006900198C0F12F013A
:101BE0000391C0F1300118380291079006982E46F3
:101BF00000EBC80B18A8CDF8208000EBC80090EDD2
:101C0000000BB8F1010F28DB59EC105B53EC1A2BD9
:101C1000284649460BF05CFD17F064F81AF01CFDED
:101C200053EC1B2B07460C460BF052FD2A464B4645
:101C300090AD07F08EF917F055F89BED000B01C63B
:101C40003A46234651EC100B07F083F941EC100B98
:101C5000ABF1080BA8F10108D3E7079F38460BF05A
:101C60009FF854EC106B53EC1C2B304621460BF0C4
:101C70002FFD41EC100B0AF0A7FB51EC100B53ECBD
:101C80001D2B0BF025FD3246234607F062F9044672
:101C90000E4617F027F880461AF0DEFC02460B4687
:101CA0002046314607F050F941EC190B81460C46AD
:101CB000012F32DB089E029B05EB860050F8041CC6
:101CC00041FA03F202FA03F39044C91A40F8041CE3
:101CD000039841FA00FBBBF1010F5EDB00270020F7
:101CE000B04210DA55F8201017B16FF07F4202E0D1
:101CF00039B14FF08072511A012745F82010013098
:101D0000EEE70027FBE70798012825DB0198192853
:101D100018D01A2820D15E4817E0089E5FB153EC16
:101D20001F2B4846214614F073F9002840F091809B
:101D30004FF0000B31E005EB860050F8040C4FEA41
:101D4000E05BC8E7524800F5800005EB860151F8DA
:101D5000042C104041F8040C08F10108BBF1020FFB
:101D60001BD151EC180B4A46234607F0EDF841EC25
:101D7000190B87B10446B0EE480A07980D46F0EEFD
:101D8000680A0BF00DF853EC102B2046294607F09B
:101D9000DBF841EC190B4FF0020B059C51EC190BD1
:101DA00053EC1E2B14F016F9002873D00020314696
:101DB0000B9A914204DD54F8212001391043F7E7D2
:101DC00000280498B14640F0818050F8041909F1C8
:101DD00001090029F9D00AEB060068A90DF1600B92
:101DE00001EBC008771C4E4530DA0998DFF8FC1388
:101DF000384451F820001AF02FFC06EB0A0268ABB9
:101E0000B0EE4E9A41EC100B0A9C0025464603EBBF
:101E1000C202F0EE6E9A82ED000B55450EDAB4EC7C
:101E2000020B51EC100B96ED000B1DF0F2FA1DF0B9
:101E3000E4FA41EC190B083E0135EEE70BEBC70065
:101E400008F108083E4680ED009BCBE7C84690AD00
:101E5000CCE64FF0020B41E700000000000000005C
:101E6000000000000000703E00000000000070C193
:101E7000000000000000C03F00000000000020C083
:101E8000000000000000F03F000000000000E03F04
:101E9000FFFF3F00DDF80490B0EE490AF0EE690A5A
:101EA000C9F118000AF07CFF54EC105B9FEDCC0BDD
:101EB0002846214653EC102B14F0AAF880B9284686
:101EC000214616F00FFF074690A924E00798CDE9B8
:101ED00009B854F82610013E18380029F9D01FE03F
:101EE00053EC1A2B284621460BF0F2FB16F0FAFEB3
:101EF00007461AF0B1FB53EC1B2B0BF0E9FB2A460B
:101F0000234607F026F816F0EDFE90A9CDF81C90B8
:101F100041F8260001360798CDE909B841F8267046
:101F20009FEDAD0B0AF03CFF18A8B0EE408A354695
:101F300058EC1ABB089600EBC609F0EE608A3046F2
:101F40004C46B5F1FF3F1BDD90A850F825001AF074
:101F500083FB57EC186B02460B46304639460BF0B4
:101F6000B7FB41EC100B304639465A46434684EDE8
:101F7000000B0BF0ADFB41EC180B083C013DE0E71A
:101F80009FED938BDFF868A2DDF820B00DF5807827
:101F9000BBF1000F25D40898B0EE489A00264C46B5
:101FA0005746F0EE689AA0EB0B050CE0B7EC020B7D
:101FB00051EC100BB4EC020B1DF02BFA1DF01DFAC6
:101FC00041EC190B01360B988642D8BFAE42EDDDCD
:101FD00008EBC500A9F10809ABF1010B80ED009BEE
:101FE000D6E7BE99481E022815D3002969D0DDF82E
:101FF00020B0032940F0E28008EBCB0A5746BBF142
:10200000000F72DD1BF054FF1CF08EFB1CF0BAFFBA
:102010001CF082FDF3E7089F9FED6D0BDDF800904B
:10202000099E08EBC7043D46002D0AD451EC100B65
:1020300094ED000B1DF0C5F941EC100B083C013D7F
:10204000F2E78DED100B53EC102B002E9DF847009E
:1020500080F080008DF84700109808BF1046119955
:1020600008BF194641EC100BDDE9400189ED000B7A
:1020700006F06AFF41EC100B08F108040125BD428F
:1020800009DC51EC100BB4EC020B1DF09AF941EC99
:10209000100B0135F3E78DED0E0B002E9DF83F0080
:1020A0000E9A80F080008DF83F0051EC100B08BFB5
:1020B00002460F9808BF084640EC102B89ED020B32
:1020C0007CE0089E9FED420B009D099F08EBC60433
:1020D000002E19D451EC100B94ED000B1DF071F98A
:1020E00041EC100B083C013EF2E7DDF820B057460A
:1020F000BBF1010F1EDD1BF0DBFE1CF015FB1CF01D
:1021000041FF1CF009FDF3E78DED0C0B002F9DF84E
:1021100037000C9A80F080008DF8370051EC100BDE
:1021200008BF02460D9808BF084640EC102B85ED0D
:10213000000B43E09FED260BDDE90845022C0BDB8D
:1021400051EC100B9AED000B1DF03BF941EC100B1C
:10215000AAF1080A013CF1E79DED401B3DB38DED6E
:10216000121B9DF84F0080F080008DF84F009DED10
:10217000121B009981ED001B8DED140B9DF857008B
:1021800080F080008DF857009DED140B81ED040B5D
:102190009DED420B8DED160B9DF85F0080F08000E9
:1021A0008DF85F009DED160B81ED020B06E00098A7
:1021B0009DED422B80EC041B80ED040B0A9800F08F
:1021C00007000DF5247DBDEC108B01B0BDE8F08F4C
:1021D0000000000000000000000000000000F03FD0
:1021E0000000000000007041BC1E020080130200CD
:1021F000101902002DE9F04F054687B0A978DFF8E5
:10220000DC66002710294FF0060A3CD8DFE811F001
:10221000110061036103610361033C00CB006103B2
:102220006103C5021101FC00160361039702DC0281
:1022300059036878002826D11DF06AFD04461DF078
:1022400063FD05461AF074FC8DF80000224610214B
:1022500002201AF037FF2A46102103201AF032FF1D
:102260006A46012104201AF02DFF9DF80000012884
:1022700018BF032807D1012014F0F0FA0246062106
:1022800006201AF01FFF24E368780028FBD195F898
:102290000CB06C8900900023E97801AA01F00101DB
:1022A000281D0EF089F900284FF0010871D19DF822
:1022B0000400FEF76DF88146BBF1080F08BFB84671
:1022C000307A80001CF008FD050003D104201AF0CC
:1022D00071FCFEE2707802280CBF01200020009003
:1022E0005B469DF804104A462046FEF7B4FA1422D5
:1022F000002102A81CF0E0FA9DF804001AFB00F08F
:1023000002AA102124301AF0B5FEA8B91022FF212C
:1023100002A81BF005FD78B99DF804001AFB00FA2D
:1023200006AA04210AF125001AF0A4FE02AA09F067
:10233000010120461DF0E4FC317A9DF804002A4694
:102340008900E0301AF096FE98B92846FDF789FF1B
:10235000BA4609E005EB8000018819B18278204671
:102360001BF002FC0AF1010A317A5FFA8AF0884216
:10237000F0D3B07A30B95FEA897003D5317820465E
:102380001AF03CFE9DF80400FEF73DF828461CF0CC
:10239000ABFC7078022805D1B8F1000F02D02046BE
:1023A00014F08AF895E2A888FEF784FB1DF0A4FCDF
:1023B0000028F7D1F07D012808D1FEF773F8F279F3
:1023C000706AF77500211CF077FA17E0307E01285B
:1023D00003D1FEF70EF9377610E000240AE0706AA8
:1023E000E5B2415D012904D1E0B2FEF76CF8716AF3
:1023F0004F55641CE0B2F1798842F0D350201BF0B5
:1024000043FCFDF7D9FF64E21DF0B2FC00280CD0BC
:10241000F06900281CBF0468002C07D028690090D0
:102420006B7B2A7B6989E81CA04751E268890121FE
:1024300044E268780024002840F0DA80A879C107D7
:1024400040F1D6800822002105A81CF035FAA888A2
:102450001DF0B2FC040000F08E806F694FB30622BD
:10246000002107F111001BF05BFC68B31022002172
:1024700038461BF055FCD0B9387C00F001084FF00D
:10248000000909F1010987F811900020009000234C
:102490000022414607F111000EF08EF800285FFA85
:1024A00089F002D10028ECD101E000280CD10020F5
:1024B00068610622607900F001008DF81A00A11D04
:1024C00005A81CF003FA1FE06F69EFB1387C00F03B
:1024D00001008DF81A00062207F1110105A81CF071
:1024E000F5F96079012805D10622A11D04F10C003F
:1024F0001CF0ECF9062207F11101A01D1CF0E6F911
:10250000387C40F002006071A879410720794CBF07
:1025100040F0020000F0FD002071A9790A0754BFC5
:1025200000F0DF0040F020002071A8799DF81B101A
:10253000DFF8AC83800800F0010008438DF81B0031
:102540004FF0FF09A979C90801F0010140EAC10073
:102550008DF81B00FF2469691E2779B31022684695
:102560001CF0B4F9102168461DF0C2FB4FF0000BBF
:10257000DFF870930CE0FEF7BFFA0028D5D0307872
:1025800004210CF063FED0E70BF101005FFA80FB41
:1025900099F80000834510DAD8F8001007FB0BF01B
:1025A0000A5CFF2AF0D0084400F10D0110226846B1
:1025B0001BF0B2FD0128E7D15C46A1460020009047
:1025C00000239DF81A1004AA05A80DF0F5FFB9F133
:1025D000FF0F5CD034285AD1707D30B3012856D11A
:1025E000A88805211DF0C0FB0124A888FEF762FA27
:1025F00068780B2804BFA888FEF79EFAF0690028C7
:102600001CBF4368002B0FD06A78A8880121984727
:102610006878002808D1A879C10705D5F369A8888A
:1026200022465C680321A0474BE1D8F80000002156
:1026300007FB09F400910023015D401C04AA20441B
:102640000DF0BAFF18BB9DF81000FDF73CFFF0B984
:10265000FDF7B2FEFDF703FF8DF81000E8680028D3
:102660000CBF00210169002201900392029105A98B
:10267000686900902B69AA689DF81000FDF705FEB7
:102680000446A888FEF72CF9200046D14BE0002034
:10269000009000239DF81A1004AA05A80DF08CFFE5
:1026A00020B1FDF7DCFE8DF8100019E06869B8B1C3
:1026B0009DF810001AFB00FA6A4610210AF1230067
:1026C0001AF0D8FC60B91022FF2168461BF028FBE5
:1026D00030B99DF81A0005A900F001001DF064FB57
:1026E0009DF81000F179884227D2E86800280CBFD5
:1026F00000210169002201900392029105A96869F5
:1027000000902B69AA689DF81000FDF7BEFD0446F5
:10271000A888FEF7E5F8200005D09DF81000FDF729
:10272000D2FEFDF749FE200008D1707A0028A88863
:102730007FF45CAFFEF772F95AE7152455E7687825
:1027400006281FD1A8881DF037FBD8B1317D491E5E
:10275000032917D8DFE801F0020E08134179A88891
:102760000022FEF70DF90DE00022002140F20940A1
:1027700003F05EFAA88805211DF0F6FA02E0A888A9
:10278000FEF7DAF9F06900281CBF4368002B03D07C
:102790006A78A888022198479AE000970023E97890
:1027A00001AA01F00101281D0DF006FF0028F3D158
:1027B0009DF804001AFB00FA05F10C0204210AF14D
:1027C00025001AF07FFC83E0F06900281CBF4368F5
:1027D000002B03D0A888002200219847707810B9F8
:1027E000A88805216AE0A8881DF0E6FA040070D0E8
:1027F000A87AC10712D5009700236179002201F061
:102800000101A01D0DF0D8FE00281EBF6079002830
:10281000012803D0E868C0F3402028B1707C02286A
:1028200007D1A87A010704D4A88803211DF05CFA17
:102830004FE06179A88805F1080227E02F7BAD8879
:1028400028461DF0B9FA040042D01DF091FA002884
:102850003ED100900023617901AA01F00101A01D81
:102860000DF0AAFE28BB9DF80400FDF791FD07F0CE
:102870000C07042F11D0082F0BD00C2F0FD100F014
:10288000090109290BD0617900222846FEF778F862
:102890001EE010F0090F02D1F5E7C107F3D50122C0
:1028A0000092A37C9DF8041002462846FDF7D3FF52
:1028B0000EE070780028E6D1052128461DF014FAB4
:1028C00006E0FEF719F918B1307804210CF0BEFCCF
:1028D0000127384607B0BDE8F08F00BFE81C002094
:1028E000680F0020194D00202DE9F84F2DED068BC3
:1028F00096B059EC105BEB4829F0004686421CD894
:10290000B0EE408A28464946F0EE608A16F0EAF9B1
:10291000E5498E4202D8002800F0FD819FEDE41BBE
:10292000B0EE480A0020F0EE680A16B0BDEC068B47
:1029300001B0BDE8F04F07F017BEDF48864208D36C
:10294000284649462A464B4606F0FEFA41EC180B4B
:10295000E1E1DA48864213D84846DB496FF31F505D
:10296000884261D0F14886424FD8B9F1010FC0F2D8
:102970004A819FEDEF0B1CF0E7FA9FEDEF0BABE107
:10298000CF48864210D8EE48864249D8ED48864264
:102990004AD0B9F1010FC0F299819FEDEB0B1CF009
:1029A000D3FA9FEDEB0B34E1C64886423CD9EA48A6
:1029B0009FEDEB1B0DF1400B00EB165057EC11ABEC
:1029C0000390A6EB005040EC105B0025102D00F0AA
:1029D000EA8054EC106B0BEB05083046214616F0EC
:1029E00081F919F039FE41EC100B02460B463046D6
:1029F000214688ED000B06F0A7FA52463B460AF046
:102A000067FE41EC100B0835E0E7B9F1010FC0F2A9
:102A100015819FEDE70B1CF097FA9FEDE70B13E193
:102A2000CE48864240F0E5809FEDEB0B28464946B4
:102A30001CF0E7FC9FEDEA0B53EC102B06F089FA33
:102A40009FEDE90B53EC102B06F083FA9FEDE00BA2
:102A500083468A461CF0D5FC02460B46284649466A
:102A600006F077FA9FEDD80B04460D4658465146BE
:102A70001CF0C7FC1CF02BFC2046294645EC194BEA
:102A800006F062FA41EC180BC1F30A505146C0EB54
:102A90001657584616F026F98046112F6DDB9FED2C
:102AA000D40B300D5146029058461CF0AAFC064645
:102AB000CDF80C808846204629463246434606F02B
:102AC00043FA81460F4641EC190B204629464A46F7
:102AD0003B4606F039FA43463246DDF80C8006F0F4
:102AE00033FA9FEDC50B04460D46584651461CF07F
:102AF00088FC22462B4606F027FA1CF0E8FB4846E5
:102B0000394606F021FA41EC180BC1F30A5002993C
:102B1000081A322831DB9FEDBA0B584651461CF09B
:102B200070FC06460C46484639463246234606F0B7
:102B30000BFA80460D4641EC190B48463946424691
:102B40002B4606F001FA3246234606F0FDF99FEDCA
:102B5000AE0B04460E46584651461CF052FC224627
:102B6000334606F0F1F91CF0B2FB4046DDF80C806C
:102B7000294606F0E9F941EC180B51EC190B53EC1E
:102B8000182B06F0E1F953EC1A2B06F0DDF941ECB5
:102B9000110B08F0030002285ED0012800F0A48089
:102BA00000283ED1B1E08DED140B9FED6F0B0BF1C2
:102BB0001004042556EC107B94ED000B3A46334686
:102BC00051EC100B13F006FA083C013D0028F3D13C
:102BD00001202B46009010A80CA9039AFEF778FF5D
:102BE0009DED0C8B8046B9F1FF3F42DD9DED0E1B44
:102BF000CFE7B9F1010F7ADB9FED610B1CF0A4F96F
:102C00009FED610B79E09FED6E0B1CF09DF99FED40
:102C10006E0B1BF079FF1BF067FF1CF0E2FB41EC31
:102C2000110B1CF0C1F98DED040B9DF8170080F01D
:102C300080008DF817009DED048B6CE09FED580B24
:102C40001CF082F99FED580B1BF05EFF1BF04CFF50
:102C50001CF0C7FB41EC110B1CF09DF88DED060B31
:102C60009DF81F0080F080008DF81F009DED068B01
:102C700051E09DED0E0BC8F100088DED0A0B8DEDB6
:102C8000088B9DF82F0080F080008DF82F009DF8B4
:102C9000270080F080008DF827009DED0A1B9DED38
:102CA000088B76E7FB21E93FFFFF4F3E00BF00BFE7
:102CB00000000000000000000000F07F7A6A0F4072
:102CC0003B461C40FA213941FB2109009FED300BA6
:102CD0001CF03AF99FED300B1BF016FF1BF004FFC0
:102CE0001CF07FFB41EC110B1CF05EF90FE09FED37
:102CF000200B1CF029F99FED200B1BF005FF1BF0AA
:102D0000F3FE1CF06EFB41EC110B1CF044F8B0EE2E
:102D1000408AF0EE608AB0EE480AF0EE680A16B01B
:102D2000BDEC068B01B0BDE8F08F00BF7CD902403E
:102D300000004054FB21F9BF3163621A61B4D0BD79
:102D4000BCFD15407CD912400000307F7CD912C0F8
:102D5000CA9493A7910EE9BDEAFBFFFFFB2119403E
:102D600000000000000070410000000000000000B2
:102D700000004054FB2119403163621A61B4F03DF8
:102D800000004054FB2119C03163621A61B4F0BDE8
:102D90000000307F7CD91240CA9493A7910EE93D80
:102DA00000004054FB2109403163621A61B4E03DE8
:102DB00000004054FB2109C03163621A61B4E0BDD8
:102DC00000004054FB21F93F3163621A61B4D03DE9
:102DD00000004054FB21F9BF83C8C96D305FE43F58
:102DE000000000000000384300000000000038C36D
:102DF0000000601A61B4D03D7370032E8A19A33BA2
:102E00000000002E8A19A33BC14920259A837B39F3
:102E10002DE9F04F85B00D460295044615F8011BCB
:102E20008DF801100022DFF8E41488788DF8002076
:102E300004F1660B1BF008FF01902C219DF80100A6
:102E4000DFF8CC24032804F1F40604F5B07A04F585
:102E50009C7704F5C87804F2171900F0E180072880
:102E600000F01382082818BF092811D00C2800F0A0
:102E7000D7810F2811D0112800F04481182800F0C4
:102E800092811A2800F057811B2800F07C811AE2F9
:102E90002946204612F0D6FF15E2707ADFF87484D6
:102EA00081070AD40F2089F8020020461CF018FF81
:102EB000002872D198F80000DCE12878697800EBEE
:102EC00001223A82A878E97800EB01227A822879F7
:102ED000697900EB0122BA82A879E97900EB012235
:102EE000FA82287A3876697AA87A01EB00227A8306
:102EF000E87A297B00EB0122BA83687BA97B00EB8F
:102F00000122FA83E87B297C00EB01223A84687C69
:102F1000A97C00EB01227A84E87C297D00EB012268
:102F2000BA84687DA97D00EB0122DFF8EC03FA8406
:102F300001788A0658BF4FF01A0A13D504F5AA7013
:102F40000490798B0391387E029021890191F88A4F
:102F50000090BB8A7A8A398A20461CF0BDFEE8B10F
:102F60004FF01E0A707A41070AD40F2089F8020038
:102F700020461CF0B5FE00280FD198F8000079E13A
:102F800052460F2120461CF0A3FEF88A0090BB8A0F
:102F90007A8AA179504614F0ADFA72E104F1860004
:102FA000798A81800023BA8AC2800222F98A01814B
:102FB00002704380A18EC91DABF81E10628E8188FD
:102FC000B1EB520F02BFC188A28E914202BF0089AD
:102FD000E18EB0EB111F21D09BF81000012804BF37
:102FE0009BF811000F280CD09BF8150000281CBF7F
:102FF0009BF811001A2804D00F218BF81A10FE211B
:103000007CE0FC2120461CF08BFEF88A0090BB8AF5
:103010007A8A398AA0791CF057FE32E110216DE0DE
:10302000707AC10709D431781A200129707002D151
:10303000FF220D213DE00D2160E000208BF8000013
:103040008BF80600012232712946082204F1B000F3
:103050001CF036FE0146022204F1B8001CF030FEDE
:1030600004F1A8050146082228461CF029FE07465F
:10307000082128461CF03CFE04F19C050422394638
:1030800028461CF01DFE042128461CF031FE04F1E8
:10309000A0001CF011FE04F198001CF009FE9F48EE
:1030A000018841F0800101803078012805D1FF229C
:1030B000042120461CF0F8FDE3E09BF811600F2E80
:1030C00018BF142E07D00E2E18BF0C2E03D01A2EA8
:1030D00018BF162E11D19BF81070FF220421204634
:1030E0001CF0E2FD012F06D18BF81A601A2E14BFD6
:1030F000FD21FB2102E0314600E0042120461CF0C6
:103100000FFEBEE028788AF800001A286B788AF84B
:10311000013040F0D8801068A679431C4E4300204F
:103120009855A379126811FB03F111440871A17934
:103130009AF80100C0E0A77910682E784F43074441
:1031400006F01F0317F8210FB60938B17878F04060
:10315000C00703D598F80600042805D120221A21BB
:1031600020461CF0B5FD8CE0FB701068A27911FBC5
:1031700002F10144204681F8236000211CF032FA5C
:103180000028F0D174E0A37910684B430344D88839
:1031900008B900265E701068A27911FB02F10144A3
:1031A000002008716DE069782878884204BF0840E3
:1031B00010F0070F6DD19BF81100162806D198F872
:1031C0000620A179134600200BF0DAFF022088F8D0
:1031D0000200012101984177012398F8060098F830
:1031E0000A1088F80000BAF81C201CF059FDBAF843
:1031F0001810814209D3BAF81C2098F80A1098F8E0
:10320000000001231CF04CFD0146AAF82E100121FC
:1032100098F8080040F0400088F80800397030E065
:10322000707E012810D015F8011B31770222294643
:1032300004F589701CF044FD0146022204F58A70F1
:103240001CF03EFD012070769BF8060030B93D2150
:10325000012289F8011089F8002012E0F07E002890
:1032600004BFB07E00280CD120461CF015FD30B9FB
:10327000284800784FF480410BF0E8FF01E001207E
:10328000F07601218DF8001021E028780F2816D063
:103290001A2818D1A07913684843184400234370B2
:1032A000A079126811FB00F150180371F07A00F058
:1032B000FB00F0721A20A17908F063FFE1E7707A51
:1032C00000F0FD007072204602991CF0E1FC9BF8B2
:1032D00011001A2815D19BF8120017281CBF1028BE
:1032E000FC280ED19BF8106020461CF0CDFC012E6E
:1032F00003BF1A208BF81A00FB211A2120461CF06C
:103300000FFD9DF8000005B0BDE8F08F780E00209D
:103310000C4C0020C70F0020200E00209C0F002026
:103320002DE9FE4F04460020009080460CB919F0AC
:1033300041FC04F1500641F6230037683880A7F8B5
:10334000028002223A737A73694620460CF076F9BD
:1033500008B9072050E2009901B1B860B86820614F
:10336000DFF89804017884F8B8107068407A16F095
:103370004BFB25302076B87387F80F807168087D85
:10338000022804BF002019F015FC7068007D012898
:1033900002D10020002104E083280CBF0620022077
:1033A00020213874797404F12405DFF854A4DAF884
:1033B0003C0041690868697901EB41010844B0F8B3
:1033C00001207A827068417848060AD5607DC1067E
:1033D00004D5E07F40F04000E07702E040F040009C
:1033E000607507F15C0904F1300089F80080A97E5E
:1033F000890001F0040189F80010B866607DC106FB
:1034000054D5726851788A060BD500F0FE006075BD
:103410007068417811F0030F03D1E07F00F0FE00E7
:10342000E077607D1CF02CFCA0750023387CA27D29
:10343000C0F38001521C00F003001CF01DFCA083AF
:103440001E23A28B02F59B7090FBF3F31E2101FB60
:103450001300C0B208B1C0F11E00821802F59B72C1
:1034600062831E23A28B02F5967290B290FBF3F357
:1034700001FB1300A283C0B208B1C0F11E00801886
:10348000A08380B2E27D618B521E5043401860835E
:1034900007F13008608BB43080003866062089F868
:1034A0000300E17F41F00801E17720E040F00100F6
:1034B000607571684A78510744BF40F0020060753A
:1034C000607D1CF0DDFBA0750023387CA27DC0F37D
:1034D0008001521C00F003001CF0CEFBA083A08BE7
:1034E00000F59670A0830020386689F80300A17D5E
:1034F000207D61F3050007F1880120750870032223
:10350000607D48708A70A87E800000F0040040F062
:1035100003008870EA7ED20002F00802104388702F
:103520000020C8700021C7F89010A88BC0F30B00D2
:10353000A8837168CA7D40EA0230A8830022617DB9
:1035400001F0FE0120460BF05FFA019700271DE015
:103550001C20784304EB000B01991C220BF1640042
:103560001BF0B4F90BF16C00052101717F1CA28BDB
:1035700092000260FFB2DAF83C104A6911686B7978
:1035800003EB43031944B1F801204281E07D401E62
:103590008742DDDB019F20460FF096FDE07D01288C
:1035A00009D013D3032809D03EBF04F1640078602A
:1035B000C6F818800AE0C7F8048007E004F1640048
:1035C000786004F18001B161C6F8348041F62400CE
:1035D00038860021798607F13C08B868618B00EBDA
:1035E0008100B8630221822088F8000088F8011069
:1035F000002194F8210088F8031000F03F0088F8BB
:1036000002007068807D012818BF022803D100F0F5
:103610007F00401E04E083280CBF062002202021EA
:1036200088F8040088F805104FF0000BDAF83C0029
:10363000416908686A7902EB42021044B0F801104F
:10364000A8F80610C7F86CB07068417811F0030F45
:1036500020D01CF00DFBF866DAF818000078C107DE
:103660004CBF1F200F20DAF8181009788A0748BFCE
:1036700040F02000DAF8181009784A0748BF40F0F7
:103680004000DAF8181009780A0748BF40F08000B7
:1036900089F8140089F815B071685A4A887C00F0DE
:1036A000030089F81500A97E890001F00401084390
:1036B00089F81500E97EC90001F00801014341F0D5
:1036C000100189F81510107838B199F8140000F03D
:1036D000FE0041F0400189F8140089F81510E07FE0
:1036E0001CF0CEFA84F8200020461CF0BDFAE07FE2
:1036F000C10635D5706894F820204178521C88079F
:103700004EBFD21EE87F121898F80400C0F3800163
:103710000023D2B200F003001CF0AEFA28801E2273
:10372000288800F59670C0F11E0190FBF2F21E2071
:1037300000FB021129717168487881074CBF002095
:103740004FF49B702988401828806880B86B2988BE
:103750002A795218A63200EB82007867022002E034
:10376000C7F874B0002089F8170004F13000C7F8DA
:10377000800007F1840071684A78510707D504F189
:103780003802026099F8150040F0200007E01E4959
:103790000A685168016099F8150000F0DF0089F8A7
:1037A0001500A17F94F8200060F30501A17740F691
:1037B0000B00A8F81000A8F812B0DAF8380000885A
:1037C00080007865DAF83800008800B1072088F8B2
:1037D0001C00022088F81D0094F84510A8F81E105F
:1037E00070684178880744BF0121A8F81E1000982E
:1037F00008B10AF0DAFE0020BDE8FE8F154D00206A
:10380000D0190200880E00206C0F00202DE9FE4F19
:10381000DFF844B4DFF8447405469BF80000002844
:103820004CD0052872D0062800F07F80072818BFEA
:10383000082800F0F5800A2800F0E281112802D063
:1038400013286FD000E2DFF81824107800211CF054
:1038500083FA04001EBF606D407810F00C0F2DD06D
:10386000216DC0064CBF886CC86E016801F1080567
:103870000622A91C68461BF029F8287800F00F01E1
:1038800005291BD145096946C0F380101CF0E8F9F1
:10389000002813D0396868461CF0DEF906463968FE
:1038A00004F138001CF0D8F986420DD0606D4178E3
:1038B000C80604D440F201401CF0CAF9CAE1607B9A
:1038C00040F002006073C5E13B681E204643981932
:1038D00006226946C01D1AF0F9FF606D4178C806DE
:1038E000F1D5A17B0129EED1DFF878038178480674
:1038F00005D5E90703D4206D41F20A4102E0206DAD
:1039000041F20441418041834186A3E11BF064FE02
:103910000028FAD110F0EEFF012802D001201CF09F
:1039200093F997E113F0ADF894E1DFF83C53286880
:103930001CF086F90400F7D020790328F4D1207A0E
:1039400000F00F01072938D1DFF820030068416932
:10395000497A4A1E11425CD0617A04F10A035A5C2A
:1039600002F03F02252A54DBA17A8A09012A50D1AC
:1039700011F03F0F4DD0007C1AF094FFE17ACA0796
:103980004CBF04F1110204F10B028B0748BF921DDA
:103990000B0748BF921CC90648BFD21C12785209B7
:1039A00016214A43B2498B180A31EB608A5A428683
:1039B00099898186DA89C2862BE000F00F000828F9
:1039C00027D1A17A880924D119B3A8480168087CB5
:1039D0001AF068FFE17A064688071AD5062201F038
:1039E00001015143601800F10C0168461AF06EFFA6
:1039F000207AC00969461CF033F950B1386800F1EB
:103A00000D0168461CF018F918B90521304619F067
:103A100009FB2079032802D0002019F0CBF80FE130
:103A2000944FB8780024FF281BD01AF03BFF804643
:103A300008F16C09D9F804001CF002F92A46017952
:103A4000032901D011000CD08368197801F003001C
:103A50008D06009003D50124009818B9CDE0100020
:103A6000FAD0F7E05D7803F1020A34B31AF8010BDB
:103A7000814B01902C2098F806C01E6810FB0CFCAE
:103A800066444FF0010E86F805E0002A1E6898F89B
:103A900006E006F11A0C019E10FB0EFE06F01F0652
:103AA0000CF80E6098F806601B6810FB06F01844CE
:103AB000019BC3F38113C3761AD10098032808F23F
:103AC00017161AD0ADB199F8000068B108F1F400EA
:103AD0000278012A0DD19BF80020072A04D0082A79
:103AE00004BFC078012804D13D21717001203070DD
:103AF000B0E0624A1378012BFAD098F894000028BD
:103B00003CD030782D1F0128EDB2F1D053462A4623
:103B100040460FF059FB00281EBF5949087800287D
:103B200013D13D2171700120564A3070117801295E
:103B30000AD1554C20784FF4805117F0A3FF20781C
:103B40004FF480510BF082FB84E0504801688847B5
:103B500001904FF4D07098F8062079684243881895
:103B6000002180F8411108F59E70016880794908AC
:103B700010F0C6FC464901980A689047009803284F
:103B80001DD044494869007882070DD598F8940003
:103B9000002814BF281D28464A691178CA0748BF63
:103BA000C01C1AF8000000E0812089F808002A46AD
:103BB0000098C3B2B878514605F0F0FD1DE09AF8C0
:103BC00000001CB11B2804BF022D01251C2803D2B4
:103BD00031490B5C9D4205D0B070072140461CF076
:103BE0009FF80AE09BF8000008285146404602D1A1
:103BF0001BF0AAFC01E0FFF70BF9D9F8040020E064
:103C0000264C207830B3264D28681CF019F808B3EC
:103C1000017903291ED1017A8A0611D5807AE178CB
:103C2000C0F38112914202BF217900F01F0081424E
:103C300006D1A078002801BF607800280121A1707A
:103C400028681BF0F5FF05E0002018F0B3FF862080
:103C50001CF07EF8BDE8F78FC80F0020680F002029
:103C6000D50F0020C00C0020BC0A0020540F0020FB
:103C7000E0070020780E00200C4C0020D20F00201E
:103C80001A4D0020880E0020C70F00202429002094
:103C900028290020D0190200281D02007C4B00209A
:103CA000AC0C00202DE9F84305460C46480413D41B
:103CB000A00024D4A0075CD460057ED4200500F1C8
:103CC0000681200700F13B81600040F1F68011F091
:103CD00061FE24F08044F0E01BF0FAF8DFF81C14D9
:103CE0000F6D3FB1D7E90A1202F0E04201F00A017C
:103CF000891849D01BF0CFFB24F48044DDE0BB4899
:103D0000DFF8FC73016841F080010160B878012898
:103D100004D1042017F0F6FF0020B8701BF0D8F88B
:103D2000064604201BF046F9DFF8D8130A689042D3
:103D300019D12A7EBAB1FA68AAB1DFF8C003806C43
:103D4000002800F09780C16840F60302098891427C
:103D500006D0C06840F604010088884240F08A809E
:103D600005F1140088E040F6C4120860C5E9042299
:103D700084E007F023FADFF88403006C002840F0A9
:103D80009D8024F0020498E0D7E90A65D7E90A1279
:103D9000AA43B143C7E90A121BF07DFBB8680028AB
:103DA000AAD056EA0500A7D0D7F808C03869B7F9F5
:103DB000301032462B46E0479EE71BF089F8054657
:103DC00019F038FB002800F0B780CC48876B002F33
:103DD00000F0B280DFF828830420CB49002288F865
:103DE0001800C6481AF0CFFB1BF070FBC7481BF049
:103DF00049FBC7480068006B8047C8F810000125E0
:103E0000042088F8025018F091FA386990F82810C8
:103E1000C8F80400490703D5436A042100229847E3
:103E2000012012F037FFD8F8040045760DF06EFA45
:103E3000D8F8040081680B461A465B684BB11E88AF
:103E4000A6F60306072EF7D805FA06F616F0830F36
:103E5000F2D0537B03F0F003013353730023FD686A
:103E600053602D88A5F60305012D00F28A80C8F85D
:103E700010309FE005F1100015F050FC30461BF0AB
:103E80000AFB18F06BFA78B12E6A28466FF480713D
:103E900000224FF00073B0479848806B10B111F0CA
:103EA00079FD01E044F00204EE6928460021002279
:103EB0004FF08063B04724F0005434B19748214656
:103EC0002830BDE8F8431BF0ADBBBDE8F8838C4E4D
:103ED000B078012804D1042017F014FF0020B0703E
:103EE00018F03CFA38B170686FF4807100224FF01E
:103EF0000073056AA847306950B185480068006BB7
:103F0000804732697168801A000BC86000203061F8
:103F10007A4D8149002228461AF035FB022030767E
:103F2000286C20B17D48022128301BF07BFB11F06A
:103F300031FD24F40064C0E71BF0C8FA41E01AF038
:103F4000C7FF054619F076FAA0B1DFF8B48198F8FA
:103F5000000000070ED498F9000000280AD4684633
:103F60000DF01AFB08B1009820B1DFF8B49199F870
:103F7000610048B31BF0AAFA11F00CFD24F008040C
:103F80009BE7034633F8385FA5B190F8445090F8AA
:103F9000456005F0F00580F8445006F0F005013565
:103FA00080F8455000255360C5634587507B00F07D
:103FB000F000507357480022C2610160012019F0DF
:103FC000C3FC24F4806478E700260127602E0FD01C
:103FD00009EB0600817A31B18772407A07FA00F066
:103FE000C0B217F0A9FE2036F0E700BFCC21084090
:103FF000032088F8180045481BF044FA1BF066FAC5
:10400000444F3E4D0022786900207861F968F860DD
:10401000284644491AF0B7FA3D480068006B8047CB
:10402000D8F80C10D8F82020411A02EB1130B0EB70
:10403000113F38BF4FF0FF3098F82410C8F8200027
:1040400021B1D8F80810B0EBC12F20D919F08CFCA1
:10405000B8B140F60900414621F83C0F00204880E5
:104060004A7B02F0F00201324A730A7B02F0F0024E
:104070000A734860F8613960B8F83E0010F4406F88
:10408000FAD00020C8F82000012088F8240014F09D
:1040900075FD2548002101600220002119F054FC23
:1040A000022017F02FFE10200CF098FC98F8010069
:1040B00020B9D8F8040050301BF0B0FA1B488078C3
:1040C00010B90D200CF08AFC98F8250028B10020CA
:1040D00088F82500052017F015FE002088F8180044
:1040E0001348C8F81C000220B5F85610B5F8542043
:1040F000914208BF072010F027FE3DE7BC230020B7
:10410000842000206C2A002011D401007847002070
:104110008C01001000100440D5D50000F4220020CE
:1041200020430020F959010000000460001F020034
:10413000C1D000002DE9F04F0F46380589B018D5E1
:10414000DFF8F4532888FF280ED0C0B21AF0AAFB7B
:10415000040009D0A07916211BF066FD20461AF054
:1041600097FB204609F086FEFF20288087F4006038
:10417000DFE1F80504D516F012FD87F48070D8E170
:10418000B80604D51BF0F8F987F02000D1E1F80754
:104190000CD51AF081FD30B100218160DFF89C035D
:1041A000006800B1804787F00100C2E1380704D5FC
:1041B0001BF0E4F987F00800BBE1F8060FD50021F9
:1041C000002200230691059204910393029101922B
:1041D000009102201BF024FD87F01000A9E1B80730
:1041E0000FD50021002306910591049103930291BC
:1041F0000191009101223C201BF012FD87F002008A
:1042000097E179074FF01E08CD4EDFF838A340F153
:10421000D580CD48002200210892079100781BF03C
:104220009BFD0446C9488178FF2904BF002018F08F
:10423000C1FCA07A1AF036FB05469AF8000095F802
:104240002E91002805F5947B71D0606D807A02284C
:1042500018BF032807D130680D301BF0DDFC10B902
:104260003068C11D0791594648461BF0F9FC0028EB
:104270003BD0606D807C3368002818BF012804D1D2
:10428000194658461BF0E8FC04E05A4649461846D1
:104290001BF096FDFF284AD008FB00F83068404428
:1042A00006225946C01D1AF011FB306810F808109C
:1042B000404400F1010B41F00209C01D089009F0D3
:1042C000010185F82E110622594605F594701AF061
:1042D000FDFAA8791AF0B8FC060008BF18F06AFCCD
:1042E00094F8B90086F83A0021E0594648461BF098
:1042F0008FFCE0B130685A4649461BF061FDFF284B
:1043000015D018FB00F8306840440D301BF084FCD9
:1043100058B9306840440D301BF07EFC002801BFC6
:1043200030684044417F012901D149F0020905F17B
:104330002C004B4601780691428912090592012210
:10434000698C0491C0880899029140080390CDF8C7
:1043500000B0079801900020A9791BF061FCD5F806
:104360009C017B4988420CBF00210121A8791BF0E8
:104370004BFC7848AB7902682C214B431344012253
:104380001A73AB7904684B4323445A73AB790468BE
:104390004B4323449A73AB7904684B432344DA7349
:1043A000AB79006811FB03F1014400200874072079
:1043B000A97910F0EEFB87F00400BAE038060FD5BB
:1043C000002100230691059104910393029101912C
:1043D000009101223B201BF023FC87F08000A8E025
:1043E000F8045DD55C4930680C680D301BF014FC96
:1043F000002844D13068C11D0D301BF001FC3EE0A7
:10440000606D4178480704F13E0526D528780228DA
:104410001EBF03286878012830D16978306804F11C
:1044200038021BF0CDFC8146B9F1FF0F15D0306882
:1044300018FB09F948440D301BF0EEFB68B93068F1
:104440004844C11D0D301BF0DBFB30684844C11DE2
:10445000062204F138001AF039FA2878022818BF29
:1044600003280BD130680D301BF0D6FB30B9306813
:10447000C11D062204F130001AF028FA2468002C2D
:10448000BED13648DAF8042000784FF4805115F098
:1044900021FB10B18E201BF0AFFB87F4805048E069
:1044A000B80505D51AF059FF2D4901200860FEE72F
:1044B000780504D51BF00BF987F4806039E07804A7
:1044C00005D581201BF098FB87F4804031E0B904CA
:1044D0002ED5244C206810B1002018F06BFB4FF053
:1044E000FF3020600020204C0FF07AFB216851F84B
:1044F000202F684690471D494A6B086BC96A24689B
:104500001B4B01920090ADF8101002936B46194AB4
:104510001948016819480392194A07922568194AEF
:10452000A8471949086003F087FF87F4005000E0AE
:10453000002009B0BDE8F08FA22A0020480F00201B
:10454000680F0020880E0020D70F0020780E002072
:104550004DE501100C4C00204C0F0020C70F00202F
:104560007C052043380F0020200F00201820002059
:1045700079EC010089EC0100184C0020D83C0020A7
:104580001EFB0080EC0A00201C0F00202DE9F84FD4
:10459000DFF82854A9780024FF2904BF002018F070
:1045A00009FBA8781AF07EF9054605F1680605F5BD
:1045B000C9773168086805F1900808B1EC8311E00B
:1045C000B07B002804BFB07E00280BD198F8001003
:1045D000002904BF3878002804D1287F012804BFAF
:1045E000688CE8832989E88B4118491C6981284631
:1045F0001BF0FEFA01281EBFDFF8C4030178012971
:1046000003D12989EC83491C69814FF6FF79B07E7B
:1046100001280DD1B28B698928891BF0E5FA38B1E0
:10462000298968894A1C93B298422FD0B08B23E025
:1046300098F8000001280FD1B8F80220698928896C
:104640001BF0D2FA40B1298968894A1C93B298427A
:104650001CD0B8F802000FE03878012816D17A880B
:10466000698928891BF0C0FA80B1298968894A1CA8
:1046700093B298420AD0788892B2904206D04844C9
:10468000688180B21BF0ACFA4844E883387801288E
:104690000FD128897988401C80B2884209DB7C7957
:1046A0003C71022038702346A979224600200AF086
:1046B00067FD05F59A71087920B128890021401C11
:1046C000E9836881B07E012813D12989B08B4B1C06
:1046D0009BB298420DD168811BF082FA05F12E0140
:1046E000B6F820808A8802FB008828460EF02CFD50
:1046F00003E005F12E00B0F80480E88BB14B411CBB
:1047000001FB08F82968CA6840F6C41909FB0822A9
:10471000CA60AD49DA7BD30702D56B8A00220BE071
:104720000A88521C93B2012B03BF05F59A7CBCF892
:10473000063003F2DC536B8A03FB08F34FF4C87CAA
:10474000B3FBFCF35B1C6B610A8085F82000C5F8A5
:1047500018804FF01C0BDFF874A2AB79DAF8000078
:1047600000F108021BFB03F3D1582A68116100F124
:104770000801AB79D26868691BFB03F3121ACA50AF
:10478000DAF80000AB7900F108021BFB03F3D15803
:104790002A68916000F10C02A9791BFB01F10C3031
:1047A000535C03F0F00343F002034354DAF80010C3
:1047B000AB798A1C1BFB03F30021D152387908B96D
:1047C00018F0F8F9DAF80000AA7900F11001387948
:1047D0001BFB02F240088854A879DAF800101BFB92
:1047E00000F00844002141743879042814D1A879D4
:1047F000DAF800101BFB00F001F110021031135C1D
:104800003A7A43EA82030B54AA79DAF800001BFBD8
:1048100002F2024420205074DAF80010A87901F165
:1048200012021BFB00F0002111526949A8790A68A5
:1048300002F114034FEA401C143253F80C00AB7918
:10484000D5F814C05B0100EB4C00D050B07E0228BC
:104850000DD10A68AE7902F1140376011432985929
:10486000AB7995F82E605B0119FB0600D05005F17D
:104870002E025448C37BD8075ED5DAF80000AE7923
:1048800000F108041BFB06F60830A359AC791BFBAA
:1048900004F4A3F5A8630351DAF80000AC7900F141
:1048A00008031BFB04F418592B6898600446494818
:1048B00000FB0848C3F810800868AE7900F11404C2
:1048C00076011430A359AC79640103F5F663035102
:1048D000387904280BD10868AE7900F11404760108
:1048E0001430A359AC79640103F56163035108687E
:1048F000AC7900F1140364011859C5F83401364B42
:10490000186B0C68AE799288006804EB4617424336
:104910006424B2FBF4F409FB04F0A0F596692F4877
:10492000C7F81C900278012A2FD10868A97900EBFA
:1049300041120120D0722FE0042C0BD10868AE790F
:1049400000F1140476011430A359AC79640103F525
:1049500061630351387904280CBF4FF4AA504FF417
:10496000E6600B68AE7903F114047601A359181AB6
:10497000938809FB03F3A3F516739842BFD308216C
:10498000284618F04FFB012016E0586A0968AA79FA
:10499000407801EB4213D872A879DAF800102A683F
:1049A0001BFB00FB01EB0B00506007210C48017062
:1049B00028460FF0F7FC0020BDE8F28F780E0020AB
:1049C000D10F0020980C0020F04C0020980E002001
:1049D0009C0E00203CF6FFFFD0190200CC0F0020F7
:1049E000C80F00202DE9F0410646FF2818BF2028F7
:1049F0002AD11AF0F9FB10F01F0F22D0042016F074
:104A0000B5FF08B1042016E0012016F0AFFF08B191
:104A1000012010E0022016F0A9FF08B102200AE0F0
:104A2000102016F0A3FF08B1102004E0082016F0B3
:104A30009DFF20B10820BDE8F04116F0CFBF18F06F
:104A4000B9F80020BDE8F08116F0C8FF5FEA000861
:104A500014BFD8F804500025012E46F2A81740F6DE
:104A6000C4140BD0022E69D0042E00F0B880082E9A
:104A700000F01281102E00F05981E2E7012016F0BB
:104A800075FF00281EBFDFF86C03006800281CBFFC
:104A90008788BF00102016F069FF18B3102016F0A9
:104AA0009DFF040002D066685EB900E00026022087
:104AB00016F05CFF28B1022016F090FF040018BF2A
:104AC00066686DB1012016F051FF002818BF002E56
:104AD00006D0B068C11BA86819F086F800282BD052
:104AE0002046AFE7022016F041FF38B1022016F051
:104AF00075FF040014BF666800260AE0042016F063
:104B000035FF50B1042016F069FF040014BF666839
:104B10000026002DE4D0012040E1082016F026FFF9
:104B200028B1082016F05AFF040005D053E00120F8
:104B300016F01CFF002885D0404683E7022016F0BF
:104B400015FF60B1AC480168AC48CA69017801EB57
:104B500081015318D88804FB00F707F51667042075
:104B600016F004FF38B1042016F038FF040014BF1B
:104B70006668002622E0082016F0F8FE98B10820AA
:104B800016F02CFF040002D06668BEB900E00026D3
:104B9000012016F0EBFE88B1012016F01FFF040083
:104BA00018BF66680AE0012016F0E0FE50B101204F
:104BB00016F014FF040014BF66680026002D8FD085
:104BC0000220EBE0102016F0D1FE30B1102016F0DC
:104BD00005FF0400B0D06068EBE00220A8E70420E5
:104BE00016F0C4FE58B18648016886484A690178C3
:104BF00002EB0113988904FB00F707F516670820FC
:104C000016F0B4FE98B1082016F0E8FE040002D0B9
:104C10006668DEBB00E00026012016F0A7FEA8B300
:104C2000012016F0DBFE040018BF66682EE00120AC
:104C300016F09CFE38B1012016F0D0FE040014BF1F
:104C40006668002622E0102016F090FE98B1102031
:104C500016F0C4FE040002D06668BEB900E000266B
:104C6000022016F083FE88B1022016F0B7FE040081
:104C700018BF66680AE0022016F078FE50B10220E4
:104C800016F0ACFE040014BF66680026002D23D089
:104C9000042083E004204BE71AF094FC08B1D0F81C
:104CA0009070042016F062FE38B1042016F096FED3
:104CB000040014BF6668002632E0012016F056FE9C
:104CC00058B1012016F08AFE002D044604D00820B9
:104CD00016F04CFE00286ED102E7102016F046FEBA
:104CE00098B1102016F07AFE040002D06668BEB9B2
:104CF00000E00026022016F039FE88B1022016F0EE
:104D00006DFE040018BF66680AE0022016F02EFE51
:104D100050B1022016F062FE040014BF666800263F
:104D2000002DD9D0082039E0082001E703201AF02F
:104D30004BFC08B1D0F89870022016F017FE38B17D
:104D4000022016F04BFE002D0446C5D01020BFE710
:104D5000042016F00BFE38B1042016F03FFE0400CC
:104D60000CBF0026666816E0082016F0FFFD18B399
:104D7000082016F033FE040002D066685EB900E039
:104D80000026012016F0F2FD28B1012016F026FEC3
:104D9000040018BF6668002D9ED0102016F0E6FDB6
:104DA000002818BF002E97D0B068C11BA86818F063
:104DB0001BFF002890D1BFE6012016F0D7FDB0B14F
:104DC000012016F00BFE040014BF66680026002DBB
:104DD00005D0102016F0CAFD002818BF002E3FF4A1
:104DE0007FAEB068C11BA86818F0FEFEE1E7102096
:104DF0009EE600BF204C0020500F0020D80F00205E
:104E0000540F0020D90F00202DE9FE4F0422FF216E
:104E100001A819F051FDDFF8DC63B078FF284FF0EE
:104E2000000800F0E58119F03DFD0546B07819F065
:104E30000BFF074605F217100178012908BF4178DA
:104E400000F05B8105F17406B07B022817D1387F32
:104E5000C0F3C00088B105F12E0001890909009155
:104E600005F12E01C3888A88A979520800201AF01A
:104E7000B3FE387F00F0E700387786F80E8095F8AB
:104E80009201022808BF85F89281307F022808BF6E
:104E900086F81C8005F5927BBBF80E1019B19BF8C3
:104EA0000C000AF0D3F907200FF0ABFE6889D24C52
:104EB0002881A27A94F807E0237BE17A607B02EBF9
:104EC0000E09994489448144CDF80090B7F81EA09A
:104ED000B7F820C0D644A7F81EE094F808E0E644EE
:104EE000A7F820E0B7F822C094F809E0E644A7F854
:104EF00022E0B7F824C0B7F826E09444A7F824C00D
:104F00007144F984398D0B443B85798D0818788577
:104F1000BB8D20781818B885F98D60780818F88549
:104F2000398EA07808183886798EE0780818788647
:104F3000B98E20790818B886F98E60790818F88635
:104F4000398FA0790818388705F58D718888401C3D
:104F50008880B5F81A310098C318A5F81A3105F5FC
:104F60008D73488810185880DBF80000F8B1A34909
:104F700095F806E00B681C2103F10E0C11FB0EFEE8
:104F80001CF80EC030F81CE00099714420F81C1089
:104F90001C2195F806C00E3311FB0CFC13F80C30E5
:104FA00000EB4300B0F84A105218A0F84A2017F05E
:104FB000F5FAE079DFF84892002804BFE07A00288B
:104FC00005D1207B002804BF607B00283DD0A7F8D6
:104FD0000E80C246F87EC0090DD0387F00F0070170
:104FE000022904DA411C61F30200387703E0A87952
:104FF00000211AF0F5FA2989E88985F8108041180E
:10500000287FA981012804BF688CE883A97901223F
:1050100007200FF0BEFD607858B101212977B078E4
:10502000002804BFB07B002803D1307F08B9688C0A
:10503000E8839BF81400002868D0022804BFE07AB7
:1050400000285ED18BF8148060E0A9790022072047
:105050000FF09FFDA5F81E80397F11F0070F02D1D8
:10506000F87EC00903D0A87900211AF0B9FA287C8B
:10507000A17A05F58D7261B14FF0010A08B1E88996
:10508000A88185F81080287F012826D1688CE883C4
:1050900023E0D188491C4FF0020AD180E8B1D9F849
:1050A0000000AB7995F82E7000F1140168694FEAA1
:1050B000400C40F6C4105B0110FB07CC0CF5F66CFD
:1050C00041F803C0D9F80010A87901EB4010C17C69
:1050D00001F0F00141F00401C174A88929898142DD
:1050E00006D0884297D2081A41F2AB01884292DA80
:1050F000108800280CBF3E210821284617F092FF97
:1051000076E0607A10B102218BF81410E07BC107C1
:105110000ED520692968C86000F59070C860D9F87C
:105120000010AA7901F1140052010021815016E00B
:10513000D9F80000A97900F1140249015058CBF8C0
:1051400010002E48AB7901681C2001F1080243438E
:10515000D0582968C860A5F81E8085F81C80294AA7
:1051600050690078810702D5A07B802800D181207A
:105170003070254991F8200018B1294601201AF015
:105180001FFA28460BF0ACF802281CD1F07902284F
:1051900005DB01AA1D49284611F02EF98046284654
:1051A0001AF016FD012823D05FEA08000DD0424610
:1051B00001A9284611F076FE38B928460BF090F880
:1051C000012802D114E0012812D0012128461AF04A
:1051D000FBFC009881B22A46504608F0C1FEFFF75A
:1051E000D5F9012804D0284616F05BF81AF03EFAEB
:1051F000BDE8F78F780E0020980C0020980E002054
:105200009C0E0020D019020094490020982A00200A
:105210002DE9FE4FDFF888737E681EB9BDE8F74FB1
:105220001AF0CEBC3078DFF87C93DFF87C53DFF8DF
:105230007CA3012818BF02280DD0042818BF082815
:1052400009D0102818BF202805D0402818BF802872
:1052500000F0C9809DE119F0CDFF0028FAD00120AF
:1052600016F084FB20B1012016F0B8FB16F046FBC7
:10527000082016F07BFB20B1082016F0AFFB16F0DB
:105280003DFB3078FFF7AEFB5FEA000814BFD8F8AB
:10529000044000249AF8010000286AD01AF0E2F9CC
:1052A00019F000FB00900168009801914E68817927
:1052B0008AF8031014B94FF0020B04E0019940463C
:1052C0001AF0CEF9834600985A4641461AF080F902
:1052D000584502D003283CD08346BBF1020F13D0BF
:1052E00098F80000012802D0082877D051E1BBF1DE
:1052F000000F05D11AF060FC00F5E8504C30A060BA
:105300000120B87011216BE00198017880290BD140
:105310000820A74928700A787069012A1ABFD9F8AD
:105320002410097801211DE0072028700099887950
:1053300019F08AFC0446207BC1070BD500988079C0
:1053400019F0B0FA052117F06DFE207B00F0FE0089
:10535000207323E196480178706901291CBFD9F8B0
:1053600024104978C1720098817901988AF8021056
:105370000BE1B8F1000F17D0012241461AF028F9CD
:10538000032808D098F80000464509D1012818BF25
:10539000082801D12CBB01E1002017F00BFC20E014
:1053A000012802D0082817D0F3E0002CF3D01AF01F
:1053B00003FC0146A06801F5C241A83118F014FCB5
:1053C00028B91AF0F9FB00F5E8504C30A060112024
:1053D00028700121B97004E0002CDCD0B8701221D3
:1053E00029704046D1E09AF80100002800F09A8028
:1053F0001AF038F919F056FA044620680090D0F8EF
:1054000004809AF8020019F04DFAA0798AF8030096
:105410000222002120461AF0DBF8022801D00328DE
:1054200013D03078402811D1A07919F00DFC064630
:10543000307BC1070AD5A07919F034FA052117F09D
:10544000F1FD307B00F0FE003073A7E019F0CCFED8
:1054500010F01F0F44D0012016F088FA20B101206F
:1054600016F0BCFA16F04AFA082016F07FFA20B1BE
:10547000082016F0B3FA16F041FAB878FFF7B2FA3E
:1054800006467168019111B94FF0020B03E00099D3
:105490001AF0E6F883460222002120461AF098F816
:1054A000022803D0032879D0834602E0BBF1020F23
:1054B00016D03078012802D0082862D00DE0BBF168
:1054C000000F06D11AF078FB019900F5E8504C3036
:1054D000886011202870012150E0002017F06AFB3D
:1054E000009933480A78802A0BD108212970007866
:1054F0000128D8F814001ABFD9F82410097801211E
:105500000AE007222A7000780128D8F814000EBF9C
:105510000121D9F824104978C172A0798AF80200D3
:10552000009832E019F060FE10F01F0F36D0012015
:1055300016F01CFA20B1012016F050FA16F0DEF930
:10554000082016F013FA20B1082016F047FA16F0DA
:10555000D5F9B878FFF746FA06463078746801281E
:1055600002D008280CD019E0C4B11AF025FB00F5D0
:10557000E8504C30A060012111202870B97003E080
:1055800064B1B870122129703046BDE8FE4F19F0A1
:1055900037BEBDE8FE4F002017F00CBBBDE8F78F0B
:1055A000944B0020D0190200C80F0020780E002074
:1055B000CC0F00202DE9F84F054605F14C08E87D99
:1055C00098F80010D8F804A000248142C0F091811E
:1055D00005F128060AF190090AF17307A34640F085
:1055E0008D80A87F7875E97FB975D8F80820527842
:1055F00093070FD5EA7FD30604D5C01E787501F056
:10560000EF01B975CAF874B03C700022B97D01F0A1
:10561000FE0169E1910608D4F08B00B1F07E387686
:10562000F08B00B1306AC9F80000D8F80800417862
:10563000CA070DD5F08B00281CBF306A002807D0A0
:10564000C9F80000B17EF08B814238BF0846387639
:10565000E87FC10610D5DAF83800317800EB810018
:10566000CAF83800DAF83800A98CA63100EB8100BE
:10567000CAF87400022002E0CAF874B00020387042
:10568000D8F80800417811F0030F21D1007819F003
:105690009DFF04001CD094F8B000032809D1E87FD6
:1056A000810615D440F02000E877B87D40F0200056
:1056B0000DE068B9E87F81060AD500F0DF00E877E1
:1056C000787DA0F112017975B87D00F0DF00B87522
:1056D000E97F002201F0FC01284609F095F9002C31
:1056E00035D0E87F810632D594F8B00002282ED15B
:1056F00021462846BDE8F44F19F07ABFE87F8106BD
:105700000AD500F0DF00E877787DA0F11201797505
:10571000B87D00F0DF00B875D8F808004178C807F8
:1057200016D5B87D797D00F0F700891E01F03F01A4
:1057300082075CBF891D40F00200420644BF491E3B
:1057400000F0BF00B8757975C9F800B03C76D0E0BC
:1057500098F80040E87D241A8907E4B240F184807B
:10576000012C40D1DAF83800A98C00EB8100CAF88E
:105770003800A87F00F03F00A8777875E97FB975F9
:10578000D8F8082053785A0703D5801F787501F0A0
:10579000FD01B9750023797D9AF84000F27E01F091
:1057A0003F018A18C0F38001521C00F003001AF078
:1057B00063FA00F59B70A8841E2180B290FBF1F083
:1057C000B97D82B201F0FE01284609F01DF987F883
:1057D00000B0F08B00B1F07E3876F08B00B1306A0B
:1057E000C9F8000085E0DAF83800A98C022C00EB3B
:1057F0008100CAF8380026D1E87FC10706D5787D38
:10580000811F7975B87D00F0FE00B8750023797DA1
:105810009AF84000F27E01F03F018A18C0F380013F
:10582000521C00F003001AF027FA00F59B70A884C0
:105830000022B97D01F0FE01284609F0E5F8707FED
:105840000AF140014883707F401C041BE0B201282C
:1058500021DDDAF83810AA8CA63201EB8201CAF8F1
:1058600074100221397017E0DAF83800A98C00EBC7
:105870008100CAF83800E97F707F041BCA06E0B2D5
:1058800009D5DAF83810AA8CA63201EB8201CAF8E1
:1058900074100221397060B3EC7FA97FD9F8002021
:1058A000F37E1A44C9F8002024F00104D8F8082037
:1058B00053785A0748BF24F00204012807D1307FEB
:1058C0003876CAF874B024F0100487F800B001F0FC
:1058D000C006E0B21AF0D4F900F03F00304378750A
:1058E000BC75002204F0FC012846BDE8F84F09F021
:1058F0008BB8BDE8F18F70472DE9F84F05004ED009
:10590000DFF8EC8298F80000092818BF0A2804D0B4
:105910000B281CBF0C280D2801D1212065E1A87897
:1059200000211AF019FA040008BF4220F6D0B14F46
:10593000A978DFF8C4A2397098F8000010B9A878E7
:105940008AF8000004F14806F068417801F012017D
:10595000022902BF706900280C2012D0607AF0B1D1
:10596000A07B012804D1B5F8030008B1812816DA1C
:105970006878402813DA20461AF01AF9B06808B996
:10598000072032E1B561287801281FD1A07B0028CB
:105990001CBF0128042819D19848007808B91220A2
:1059A00023E197494A78824208BF0920F8D0F0687D
:1059B000417848070AD504F1220180204A7F04F18A
:1059C000380109F067F908B10B200EE1687808B9D1
:1059D00011200AE12878DFF82C92DFF82CB2012898
:1059E00040F0B28000212173F166217A012903D1B0
:1059F000B16968794871F7E011200FF002F90120D0
:105A000000212072E172617325460AF0C7F86060D8
:105A1000DBF8000080477D4A0146106802E06A68B2
:105A2000426000680028FAD10846D9F8001088477B
:105A30006968774848610021387819F0B9FD3978EC
:105A4000012211200FF0A5F8F0684178C80605D5AD
:105A5000284601F0C7F8010024D0C6E0688C19F090
:105A600003FE85F82100F068007819F0AFFD04000E
:105A70001CBF94F8B000002807D0E87F40F0200059
:105A8000E877687D40F018006875284619F0F0FD49
:105A90000100E2D134B194F8B000012804BF2846D7
:105AA00019F0A2FDF0684178C8071CD505F1420441
:105AB000A18800291CBF3068002814D022788A42AF
:105AC00011D20F201AF070F868B1F06801788DF8E3
:105AD00000100F20A288ADF8012021788DF8031066
